:100000000C943A080C9462080C9462080C946208F0
:100010000C9462080C9462080C9462080C946208B8
:100020000C9462080C9462080C9499100C940811BA
:100030000C9462080C9462080C9462080C94620898
:100040000C9462080C9462080C9462080C94620888
:100050000C9462080C9462080C9462080C943A1395
:100060000C9462080C9462080C9462080C94620868
:100070000C9462080C9462080C9462080C94620858
:100080000C9484130C9462080C9462080C9462081B
:100090000C9462080C9462080C9462080C94620838
:1000A0000C9462080C9462080C9462080000000032
:1000B000003E5B4F5B3E3E6B4F6B3E1C3E7C3E1CEE
:1000C000183C7E3C181C577D571C1C5E7F5E1C0034
:1000D000183C1800FFE7C3E7FF0018241800FFE7EB
:1000E000DBE7FF30483A060E2629792926407F05AE
:1000F0000507407F05253F5A3CE73C5A7F3E1C1CC4
:1001000008081C1C3E7F14227F22145F5F005F5F83
:1001100006097F017F006689956A6060606060946F
:10012000A2FFA29408047E040810207E2010080874
:100130002A1C08081C2A08081E101010100C1E0C7F
:100140001E0C30383E3830060E3E0E060000000011
:100150000000005F00000007000700147F147F14F8
:10016000242A7F2A1223130864623649562050003D
:1001700008070300001C2241000041221C002A1C29
:100180007F1C2A08083E0808008070300008080814
:100190000808000060600020100804023E51494534
:1001A0003E00427F400072494949462141494D3352
:1001B0001814127F1027454545393C4A49493141B9
:1001C000211109073649494936464949291E000087
:1001D00014000000403400000008142241141414DC
:1001E0001414004122140802015909063E415D59C8
:1001F0004E7C1211127C7F494949363E41414122D1
:100200007F4141413E7F494949417F090909013EFA
:10021000414151737F0808087F00417F4100204021
:10022000413F017F081422417F404040407F021C33
:10023000027F7F0408107F3E4141413E7F0909094A
:10024000063E4151215E7F09192946264949493216
:1002500003017F01033F4040403F1F2040201F3FDC
:100260004038403F63140814630304780403615961
:10027000494D43007F4141410204081020004141A3
:10028000417F04020102044040404040000307084F
:100290000020545478407F2844443838444444284B
:1002A000384444287F385454541800087E090218F2
:1002B000A4A49C787F0804047800447D400020407A
:1002C000403D007F1028440000417F40007C0478BE
:1002D00004787C080404783844444438FC18242406
:1002E0001818242418FC7C08040408485454542486
:1002F00004043F44243C4040207C1C2040201C3C03
:100300004030403C44281028444C9090907C4464F9
:10031000544C44000836410000007700000041368C
:10032000080002010204023C2623263C1EA1A16112
:10033000123A4040207A3854545559215555794144
:100340002154547841215554784020545579400C1B
:100350001E527212395555555939545454593955FC
:100360005454580000457C410002457D420001453F
:100370007C40F0292429F0F0282528F07C545545AC
:10038000002054547C547C0A097F4932494949323F
:100390003248484832324A4848303A4141217A3A54
:1003A00042402078009DA0A07D39444444393D401E
:1003B00040403D3C24FF2424487E4943662B2FFCCB
:1003C0002F2BFF0929F620C0887E09032054547979
:1003D000410000447D413048484A32384040227A4A
:1003E000007A0A0A727D0D19317D2629292F2826C7
:1003F0002929292630484D402038080808080808CF
:100400000808382F10C8ACBA2F102834FA00007B27
:10041000000008142A142222142A1408950022002D
:1004200095AA005500AAAA55AA55AA000000FF00E7
:10043000101010FF00141414FF001010FF00FF1024
:1004400010F010F0141414FC001414F700FF000056
:10045000FF00FF1414F404FC141417101F10101FD5
:10046000101F1414141F00101010F0000000001FC3
:10047000101010101F10101010F010000000FF10CE
:100480001010101010101010FF10000000FF1400CA
:1004900000FF00FF00001F10170000FC04F41414FC
:1004A0001710171414F404F40000FF00F7141414C8
:1004B00014141414F700F7141414171410101F1048
:1004C0001F141414F4141010F010F000001F101F6B
:1004D0000000001F14000000FC140000F010F010D9
:1004E00010FF10FF141414FF141010101F00000050
:1004F00000F010FFFFFFFFFFF0F0F0F0F0FFFFFF54
:100500000000000000FFFF0F0F0F0F0F38444438AA
:10051000447C2A2A3E147E02020606027E027E02E5
:1005200063554941633844443C04407E201E200604
:10053000027E020299A5E7A5991C2A492A1C4C7241
:1005400001724C304A4D4D303048784830BC625AC8
:10055000463D3E494949007E0101017E2A2A2A2A58
:100560002A44445F444440514A444040444A514034
:100570000000FF0103E080FF000008086B6B0836F5
:1005800012362436060F090F060000181800000066
:100590001010003040FF0101001F01011E00191D55
:1005A0001712003C3C3C3C000000000000B0000082
:1005B000A170E150964F26900F1D070C0096690020
:1005C0004AE44A0048444000806810000F99FB8FBD
:1005D0009DBDBBFB77D4D4DF1F1A1AFE7F5D5DFF84
:1005E000805A0000A0A4AA0010BA3400FF5953F3A7
:1005F000FF9B9B9EFFB9B996FF9595D19FF4940FF1
:10060000FC295F91FF1838F8FF9294FFFF95D5F70A
:10061000BFB5DDD7F18F81F1F788C8F779C6467984
:1006200009FD9B090196F800828182805071620069
:100630007756560076763700A2B773010772060028
:100640007827500073347400775176007F55F70097
:1006500047711000324772007364730015A2750071
:1006600061679400009F6060F4F2F6F2F0F89C8EEF
:100670008783878E9CF8F00000FEFF0303030303CB
:10068000070EFCF80000FEFF0303030303070EFC44
:10069000F80000FFFF00000000000000FFFF000066
:1006A000FEFF8383838383C7EE7C380000F8FC0E53
:1006B00007030303070EFCF800003F7FE0C08080C3
:1006C000C0E07F3FFFFF01010101010101FFFF00C9
:1006D00000FFFF0C0C0C0C1C3E77E3C100007FFFF9
:1006E000C0C0C0C0C0E0703F1F00001F3F70E0C02E
:1006F000C0C0E0703F1F00007FFFC1C1C1C1C1E3A6
:10070000773E1C00001F3F70E0C0C0C0E0703F1F7C
:10071000000000000001FFFF01000000D5F08D1473
:10072000A1C881CFD9F1AF20000808636B2A1C0053
:100730001C080808081C001C2A6B6310040B050B1E
:10074000050B050B050B050B050B050B051004062A
:100750000B090E02050F0B040B050E050F060B10FF
:1007600010E0F8CCF6FAFBFFFFFFFFFFFEFAB4D86B
:1007700060071F3F7F7FFFFFFFFFFFFF7F5F371A8D
:100780000500C0F098ECF4F6FEFEFEFCF4A850A0C4
:100790000000030F1F3F3F7F7F7F7F3F2F1A0D0217
:1007A00000000080E030D8E8ECFCF8E8D060800081
:1007B00000000001070F1F1F3F3F1F1F0B05020016
:1007C00000182000000000C060A0C0D070AC8260A3
:1007D000F0F0F838D858502000000000000013391D
:1007E0003ACFF1EAFDDEBE9D22BDBB466D6B4BC12B
:1007F000C04000000040402050A892A515A5D5C5D6
:10080000F4C30301070703000000003078F8DE8B13
:100810008F03070100000107DBFFFAC440600000FE
:1008200000000000000080C04080A0E05804C0E04C
:10083000E0F070B0B0A0400000000000002673742B
:100840009FE3D5FABD7D3A457B778CDBD6968280D7
:1008500080000000008040A051254B2B4BBB0BA813
:10086000C787020E0E06010100000000010078F8A3
:100870001E09070F03D1FEFBCF818000000000009E
:10088000000000000000C060A0C0D070AC8240E05A
:10089000E0F070B0B0A04000000000000013393A52
:1008A000CFF1EAFDDEBE9D22BDBB446B764EC2C0D9
:1008B00040000000000080502852A585A5D5C594B1
:1008C0000303010707030000000000000000001EF2
:1008D0003E0F02D1FBF9CD80800000000000000037
:1008E000000000000080E030D0E068B85641B078E9
:1008F000F8FC1CECACA890000000000000091C1DD6
:100900006778F5FEEFDFCE11DEDDA3B6B5A560603A
:1009100020000000000000A05439D24A128A62EA86
:10092000F1E1C0030301000000000000000000002E
:10093000C4FBF2C7878F0D0908010000000000000A
:10094000000000000000C060A0C0D070AC8260F069
:10095000F0F838D858502000000000000013393A51
:10096000CFF1EAFDDEBE9D22BDBB466D6B4BC1C023
:10097000400000000000A0402852A595A555C5D410
:10098000E3C381070703000000000000000060F4DB
:10099000F8DE8987010100323D7F6D424000000092
:1009A00000000000000080C04080A0E05804C0E0CB
:1009B000E0F070B0B0A040000000000000267374AA
:1009C0009FE3D5FABD7D3A457B778CDBD696828056
:1009D00080000000008040A051254B2B4BAB8BA822
:1009E000C787020E0E06010100000000010078F822
:1009F0001E09070B04DBFFFBCF8180000000000015
:100A0000000000000000C060A0C0D070AC8240E0D8
:100A1000E0F070B0B0A04000000000000013393AD0
:100A2000CFF1EAFDDEBE9D22BDBB446B7656C2C04F
:100A300040000000000080502852A595A5D5C5149F
:100A40000303010707030000000000000000001E70
:100A50003E0104DBFFFBCD808000000000000000B1
:100A6000000000000080E030D0E068B85641B07867
:100A7000F8FC1CECACA890000000000000091C1D54
:100A80006778F5FEEFDFCE11DEDDA3B6B5A56060B9
:100A900020000000000040A85429D2CAD2EA22CA8D
:100AA000F1E1C003030100000000000000000100AC
:100AB000DCFBFFCB87880D09080100000000000067
:100AC000000000000000C060A0C0D070AC8260F0E8
:100AD000F0F838D858502000000000000013393AD0
:100AE000CFF1EAFDDEBE9D22BDBB466D6B4BC1C0A2
:100AF000400000000000A0502852A595A5D54594BF
:100B0000E3C381070703000000000000000060F05D
:100B1000FEDA8F83070000323D7F6D424000000007
:100B20000000000000000000000000000000804005
:100B30000000000000000000000000000000006055
:100B4000384CF4385AAED5D0AC5EBE7FC7BB6B6AAA
:100B500024000000000000020707195EBDBFBBB7FC
:100B6000B384777728EDED6918180860F03838708D
:100B7000F412C5F2F4721402040E06D7FAFCC08017
:100B80008000000000000000000000000000C0B075
:100B900070289C848C0000000000000000309CA69F
:100BA000F218CEF3ECFFDF0FD0BF63DDB57592C056
:100BB00040C0000000010303813C7C7B7B7B797E8D
:100BC0001F03080E060502018000000000402014EB
:100BD0002A150A150A0512193C1C3A7610EE74EE15
:100BE000F33C001820000000205058D838F8F0F0EE
:100BF0006082AC70D0C0A060C0000000000040C0A7
:100C0000C14B6B6D46BBBD229DBEDEFDEAF1CF3A06
:100C10003913000000000000000307070103C3F4BC
:100C2000C5D5A515A592A8502040400000000000A1
:100C300000006040C4FAFFDB070100000107038FDA
:100C40008BDEF878300000000040A0B0B070F0E01B
:100C5000E0C00458E0A08040C08000000000008098
:100C6000808296D6DB8C777B453A7DBDFAD5E39FB3
:100C700074732600000000000101060E0E0287C7F3
:100C8000A80BBB4B2B4B2551A0408000000000005F
:100C900000000000008081CFFBFED1030F07091E7A
:100CA000F8780001000000000040A0B0B070F0E053
:100CB000E04082AC70D0C0A060C0000000000040E6
:100CC000C0C24E766B44BBBD229DBEDEFDEAF1CFB5
:100CD0003A39130000000000000003070701030376
:100CE00094C5D5A585A552285080000000000000BD
:100CF000000000000000008080CDF9FBD1020F3E13
:100D00001E000000000000000090A8ACEC1CFCF8E5
:100D100078B04156B868E0D030E080000000002094
:100D20006060A5B5B6A3DDDE11CEDFEFFEF5786716
:100D30001D1C0900000000000000010303C0E1F1D8
:100D4000EA628A124AD23954A00000000000000072
:100D50000000000000000108090D8F87C7F2FBC4E6
:100D6000000000000000000000205058D838F8F0C3
:100D7000F06082AC70D0C0A060C0000000000040F5
:100D8000C0C14B6B6D46BBBD229DBEDEFDEAF1CFFF
:100D90003A39130000000000000003070781C3E395
:100DA000D4C555A595A5522840A00000000000001C
:100DB00000000040426D7F3D320001018789DEF86E
:100DC000F4600000000000000040A0B0B070F0E04F
:100DD000E0C00458E0A08040C08000000000008017
:100DE000808296D6DB8C777B453A7DBDFAD5E39F32
:100DF00074732600000000000101060E0E0287C772
:100E0000A88BAB4B2B4B2551A0408000000000006D
:100E100000000000008081CFFBFFDB040B07091EF0
:100E2000F8780001000000000040A0B0B070F0E0D1
:100E3000E04082AC70D0C0A060C000000000004064
:100E4000C0C256766B44BBBD229DBEDEFDEAF1CF2B
:100E50003A391300000000000000030707010303F4
:100E600014C5D5A595A552285080000000000000AB
:100E7000000000000000008080CDFBFFDB04013E8D
:100E80001E000000000000000090A8ACEC1CFCF864
:100E900078B04156B868E0D030E080000000002013
:100EA0006060A5B5B6A3DDDE11CEDFEFFEF5786795
:100EB0001D1C0900000000000000010303C0E1F157
:100EC000CA22EAD2CAD22954A84000000000000079
:100ED0000000000000000108090D8887CBFFFBDC43
:100EE000000100000000000000205058D838F8F041
:100EF000F06082AC70D0C0A060C000000000004074
:100F0000C0C14B6B6D46BBBD229DBEDEFDEAF1CF7D
:100F10003A39130000000000000003070781C3E313
:100F20009445D5A595A5522850A0000000000000CA
:100F300000000040426D7F3D32000007838FDAFEE3
:100F4000F060000000000000000000000000000051
:100F500040800000000000000000000000000024AD
:100F60006A6BBBC77FBE5EACD0D5AE5A38F44C3886
:100F7000600000000008181869EDED28777784B349
:100F8000B7BBBFBD5E19070702000000000000806C
:100F900080C0FCFAD7060E04021472F4F2C512F4F3
:100FA000703838F0600000000000008C849C2870CD
:100FB000B0C0000000000000000000000000C040C1
:100FC000C09275B5DD63BFD00FDFFFECF3CE18F232
:100FD000A69C300000000080010205060E08031FD9
:100FE0007E797B7B7B7C3C810303010000003CF32A
:100FF000EE74EE10763A1C3C1912050A150A152AF1
:101000001420400000080B00020202000009040046
:101010000001020200000524001001052401010165
:101020000424020605240600010705810310004080
:1010300009040100020A0000000705020240000046
:10104000070583024000000403090412010002EFB7
:101050000201404123368000010102030141726414
:1010600075696E6F204C4C430041726475626F79F4
:101070000000181411241FBECFEFDAE0DEBFCDBF91
:1010800012E0A0E0B1E0E6EDF9E302C005900D92B8
:10109000AC38B107D9F727E0ACE8B2E001C01D9247
:1010A000AE39B207E1F718E0CAE3D8E004C02197EF
:1010B000FE010E94E31CC933D107C9F70E94A9149D
:1010C0000C94E91C0C940000809192020895E5E8CC
:1010D000F3E0A0E0B8E000800EBC8111012C119774
:1010E000A0FDFDCF0192B9F70DB40895E1E0F0E065
:1010F0000E948B08319728F068517C4F8F4F9F4F8B
:10110000F9CFAB01FC010E948B08641775078E07AD
:101110009F07C8F30895AEE9B2E02FB7F8947D9128
:101120008D919C9166B52FBFA89B05C06F3F18F4A9
:101130007F5F8F4F9F4F22E0660F771F881F991F99
:101140002A95D1F70895FC018091C602882311F1F8
:101150003FB7F89482E08093E9002091F200822F5B
:1011600090E01816190614F481E090E0882339F015
:10117000289844E64093C5024091F1004083222321
:1011800039F02091F200211103C02BE62093E800F2
:101190003FBF08958FEF9FEF08952FB7F89483E036
:1011A0008093E9009091E800892F807295FF04C038
:1011B0009091F20080E4891B2FBF08958091BD02B9
:1011C00081110DC082E08093B90284E08093BA025D
:1011D0001092BC021092BB0281E08093BD0289EBA9
:1011E00092E008958F929F92AF92BF92CF92DF923A
:1011F000EF92FF920F931F93CF93DF936C017B01CC
:101200008A0180912901882309F458C08091C6027F
:10121000882309F453C08091B80280FF05C08091F3
:10122000E00082608093E000E801B12C8AEFA82EF4
:1012300093E0892E2AE3922E209711F4BB20B9F176
:101240000E94CD08811106C0AA94AA20B9F10E947B
:101250007608F2CF8C171D0611F00CF08C2F9FB77B
:10126000F8948092E9002091E80025FD02C09FBF1C
:10127000E3CF282F30E0C21BD30BF701815020F0C1
:1012800041914093F100FACFE20EF31EBB2021F012
:101290009092E800B12CEBCF8091E80085FDE7CF7C
:1012A0009092E800BB24B394209709F3F3CF5D98A4
:1012B00084E68093B702101611063CF081E090E0BE
:1012C000F6019383828310E000E0C801DF91CF91A3
:1012D0001F910F91FF90EF90DF90CF90BF90AF9054
:1012E0009F908F900895CF93DF931F92CDB7DEB775
:1012F0006983DC01ED91FC910280F381E02D41E0F6
:1013000050E0BE016F5F7F4F09950F90DF91CF9145
:10131000089583E08093E9008091F200882319F01A
:101320008AE38093E80008950E94CD0890E0089534
:10133000CF93DF931F92CDB7DEB7FC0184859585EF
:1013400097FD08C02FEF3FEF358724870F90DF917F
:10135000CF910895CE0101960E94A308019719F438
:10136000898190E0F3CF8FEF9FEFF0CF0F931F9322
:10137000CF93DF931F92CDB7DEB78C01FC0184853C
:10138000958597FF0BC0CE0101960E94A308019797
:1013900071F4898190E0F80195878487F80184854C
:1013A00095850F90DF91CF911F910F9108958FEF49
:1013B0009FEFF1CFFC018485958597FD0BC09FB70A
:1013C000F89482E08093E9008091F2009FBF90E062
:1013D000019608959FB7F89482E08093E900809188
:1013E000F2009FBF90E008954091B3025091B40283
:1013F0002091B1023091B20242175307B4F4909198
:10140000E8009570E1F39091E80092FD19C0809397
:10141000F1008091B3029091B40201968F739927E5
:10142000892B19F48EEF8093E8008091B30290919C
:10143000B40201969093B4028093B30281E00895C0
:1014400080E00895DF92EF92FF920F931F93CF9366
:10145000DF93D82E8A01EB017B01E40EF51ECE1539
:10146000DF0559F0D7FE12C0FE0184910E94F409F5
:1014700021968111F4CF0FEF1FEFC801DF91CF91BB
:101480001F910F91FF90EF90DF9008958881EECF2C
:101490000F931F93CF93DF931F92CDB7DEB782E0F8
:1014A000898342E450E065E070E180E80E94220A0E
:1014B0000E94DE08DC0112960D911C9101151105A8
:1014C00089F0D801ED91FC910280F381E02DBE01FD
:1014D0006F5F7F4FC801099597FD04C0F801008533
:1014E0001185ECCF89810F90DF91CF911F910F91E2
:1014F0000895615030F02091F100FC0120830196A5
:10150000F8CF289884E68093C5020895AF92BF92E1
:10151000CF92DF92EF92FF920F931F93CF93DF93BF
:101520006C017B018B01040F151FEB015E01AE18EE
:10153000BF08C017D10759F06991D601ED91FC9110
:101540000190F081E02DC6010995892B79F7C5013D
:10155000DF91CF911F910F91FF90EF90DF90CF908F
:10156000BF90AF9008956F927F928F929F92AF92AB
:10157000BF92CF92DF92EF92FF920F931F93CF9380
:10158000DF934C017B01C22F102F98E0A92EB12CC4
:10159000642E669466946694712CCA0187709927AC
:1015A000892B79F5D40117962D913C91C701992784
:1015B000B9010E94CF1C269DF001279DF00D369D9C
:1015C000F00D11248E0F9F1FD4011596ED91FC9103
:1015D000E80FF91F2081111112C0C095C223C083EA
:1015E000DF91CF911F910F91FF90EF90DF90CF90FF
:1015F000BF90AF909F908F907F906F900895C22B77
:10160000EECFD0E04770C42ED12C83E0660C771C5F
:101610008A95E1F79E0101C0220F4A95EAF7012F52
:10162000A301B701C4010E94B30AA301485F5F4F41
:10163000C5018C199D0902C0D595C7958A95E2F719
:10164000A7CF5F926F927F928F929F92AF92BF923D
:10165000CF92DF92EF92FF920F931F93CF93DF937E
:10166000EC016A30F1F48D859E859C878B878C898F
:101670002F853889820F932F911D988B8F8781E05A
:1016800090E0DF91CF911F910F91FF90EF90DF904D
:10169000CF90BF90AF909F908F907F906F905F9012
:1016A0000895AB84BC84693031F429E0A20EB11CEA
:1016B000BC86AB86E4CF3DEFA3163FEFB3060CF438
:1016C0005DC08F819885A816B9060CF057C0CF84ED
:1016D000D8888DEFC8168FEFD8060CF44FC08985D7
:1016E0009A85C816D9060CF049C0603208F46FE735
:1016F00080EE860F9FE9960F9A3118F49FEFC91A72
:10170000D90A8C3011F08B3119F42FEFC21AD20A9A
:10171000869534E0839FC00111249C0124553A4FE3
:101720007901912C812C162F1170F701E80DF91D0C
:10173000549011112DC0352D3F70532E3501680C7A
:10174000791C8C81882361F001E089899A89892B31
:1017500009F000E02FE0A601B301CE010E94B30A18
:101760000989252DA601B301CE010E94B30A8FEF8E
:10177000881A980A94E089169104B9F68B8990E04A
:1017800004962B853C85820F931F9C878B8777CF90
:1017900052948FE05822D2CF2091CB02E091C9021F
:1017A000F091CA02CF0102969093CA028093C902B7
:1017B000222319F085919491089580819181089553
:1017C000CF92DF92EF92FF92CF93DF930E94CC0BE8
:1017D000811520E8920791F4809171008D7F8093AC
:1017E0007100109291004698479810929502DF91EF
:1017F000CF91FF90EF90DF90CF90089521E020935C
:101800009502813020E8920751F48091C7029091AF
:10181000C8029093CA028093C9020E94CC0B97FD24
:1018200005C020919402222309F454C02091930210
:10183000211150C021E020939602EC01DF77209720
:1018400009F04BC081E08093970246983FE9C32E90
:101850003FE0D32EE12CF12CCAEFD0E0E0912A0337
:10186000F0912B030995811103C081E080939702C9
:1018700080919602882329F080919702882309F4A9
:101880003FC047980E94CC0B0097F1F19C01DE010C
:101890000E94AC1CDC01CB0129E0B595A79597957A
:1018A00087952A95D1F7109290002AE02093910015
:1018B000D0929900C09298008093980290939902D8
:1018C000A0939A02B0939B028091710082608093F2
:1018D00071008DCF10929602B0CF9E0150E040E093
:1018E00060E472E48FE090E00E94581C69017A0184
:1018F00081E0C81AD108E108F10810929702AECF32
:101900004699BFCF479ABECF8FEF9FEFDC01CBCF79
:101910009C01E1E7F0E090819D7F90831092CB02E3
:10192000ECE1F3E0F093CA02E093C902F093C8023D
:10193000E093C702318320837383628384E690E05F
:10194000958384835783468380E090E891878087DE
:101950000C94E00B8F929F92AF92BF92CF92DF9246
:10196000EF92FF920F931F93CF93DF93EC014115FA
:10197000510509F4C5C0FA01C490319694914E5FA7
:101980005F4FAC2DB0E02223E1F001E010E0892FA1
:10199000877011F410E000E0E92FE695E695E695F2
:1019A000E00FF12FF11DEA9F8001EB9F100DFA9FD0
:1019B000100D1124209FF001219FF00D11244E0FD6
:1019C0005F1F8D010C0F1D1F101611060CF098C023
:1019D000C038D1050CF094C09B01290F311D12169F
:1019E00013060CF08DC0603471050CF089C04115F0
:1019F000510509F485C0F62FF770EF2E9B0177FF94
:101A000002C0295F3F4FE3E035952795EA95E1F75E
:101A1000F22F77FF04C0EE2011F0FFEFF20F222724
:101A200033272C1B3D0BD7FD02C030E020E0FC2CFF
:101A3000003811051CF080E8F82EFC1AF21A6F2FFE
:101A40000F2E000C770B162F1095FF3F0CF010E0B7
:101A5000E1E0892F877009F4E0E0969596959695D8
:101A60009E0F690F711D6930710514F098E09F1B7E
:101A7000D12EDF0E6D2D70E8670350011124B501E2
:101A80006C0F7D1F620F731FC19E200D311D11242D
:101A9000420F531F2E2D0E2C000C330B9F0F9D1544
:101AA00079F1EB01CB57DC4F10E000E00F1510F59A
:101AB000FA01E00FF11FE491F0E04F01022E02C0A5
:101AC000880C991C0A94E2F7D7FC03C08881882906
:101AD0008883EE2059F086E08D1544F05E01E0E841
:101AE000AE0EB11CF5018081892980830F5F1F4FE5
:101AF0002196DCCFD3944A0F5B1F60587F4FCFCF26
:101B0000DF91CF911F910F91FF90EF90DF90CF90D9
:101B1000BF90AF909F908F9008952D9A0895BC012B
:101B200090E080E0AB01FC010E948B08415051091C
:101B3000E109F10928F068517C4F8F4F9F4FF6CF94
:101B4000AB01FC010E948B08641775078E079F0785
:101B5000C8F308958FB18095807F669B88601C9B39
:101B6000846008953E9A3F9A81E08093920208959E
:101B70009091AB02982329F09091AC02982381E0D8
:101B800009F080E008959091AB02982329F4909198
:101B9000AC02982381E009F480E00895CF93C82F28
:101BA0000E94AA0D982F9C2381E09C1380E0CF9186
:101BB000089580E00C94670880389105B8F460348B
:101BC0007105A0F420E191E061FD94E060FD990FC2
:101BD00062FD9295687F269FD0011124A80FAB5714
:101BE000BC4F8C9140FF03C0892B8C930895909536
:101BF0008923FBCF2F923F924F925F926F927F92F9
:101C00008F929F92AF92BF92CF92DF92EF92FF920C
:101C10000F931F93CF93DF93EC018B017A0169013E
:101C2000C61AD70AD7FE03C0D194C194D108470180
:101C30008C1A9D0A97FE03C09194819491088C148C
:101C40009D0454F49E2D8F2D7901292F382F9C2F20
:101C50008D2FE801092F182FEC16FD0654F4902F54
:101C6000812F8901292F382F9C2F8D2FE701E92EF5
:101C7000F82E17012C1A3D0A2901401A510A57FE65
:101C800003C0519441945108310137FE03C08FEFD6
:101C9000681A780A759467948FEF021713070CF48B
:101CA00081E0A82E880FBB08EC16FD06A4F041E0E9
:101CB000BE01C8018C149D0414F0B801CE010E942D
:101CC000DC0D6418750877FE04C00A0D1B1D620C3C
:101CD000731C2196E9CFDF91CF911F910F91FF9057
:101CE000EF90DF90CF90BF90AF909F908F907F90BC
:101CF0006F905F904F903F902F9008955F926F92FA
:101D00007F928F929F92AF92BF92CF92DF92EF928B
:101D1000FF920F931F93CF93DF936D3089F0C090A4
:101D2000AF02D090B0026A30E9F41092AE02109285
:101D3000AD0288E0C80ED11CD092B002C092AF02B2
:101D400081E090E0DF91CF911F910F91FF90EF9094
:101D5000DF90CF90BF90AF909F908F907F906F90CB
:101D60005F9008956090A202509000010091AD0232
:101D70001091AE02E5E06E9FE0011124C455DF4FE3
:101D80005801F12CF5E0E12CFF1629F0CE01019667
:101D9000FE01E490EC01460188E0782EE0FC18C0DA
:101DA000462D651016C0E6947A94FFEF8F1A9F0AAD
:101DB0007110F4CFF3948FEFA81AB80AE6E0FE1280
:101DC000E1CF0A5F1F4F1093AE020093AD02B8CF70
:101DD000452DB401C5010E94DC0DE5CFCF92DF9205
:101DE000EF92FF920F931F93CF93DF93EEECF1E00E
:101DF00030E020E080E089012C5F3F4FEF0150E0B0
:101E000040E09991DA0150969923A9F09091100140
:101E1000911122C0E0900401F0900501609102014F
:101E2000709103016B0195E1C90ED11C6C5E7F4F6F
:101E30004C155D0524F1AD01A038B10511F73896B8
:101E400020343105C1F6DF91CF911F910F91FF90A2
:101E5000EF90DF90CF900895913069F7E090040102
:101E6000F090050160910201709103016B0197E010
:101E7000C90ED11C4C155D05F4F66C5F7F4F6A17D7
:101E80007B07CCF6A701405E5F4F041715079CF651
:101E9000E216F30684F681E0CECF80911001811125
:101EA00066C040910201509103019A01205F3F4FAB
:101EB00037FF02C0215F3F4F84E0359527958A9513
:101EC000E1F76091040170910501CB01809697FDC7
:101ED00003969595879595958795BC01B3E0660F18
:101EE000771FBA95E1F7620F731F62537E4F685FE9
:101EF0007F4FFB013897E081E11102C00196F7CFD7
:101F00000897880F991F880F991F60911101709190
:101F1000120186179707ACF4B901E4E0660F771F4A
:101F2000EA95E1F7FA013F96E617F70754F0605F8C
:101F30007F4F3B97E617F70724F4909312018093A5
:101F4000110160911101709112016817790774F401
:101F500064E0220F331F6A95E1F7BA016D5F7F4F8E
:101F60004C5F5F4F621773070CF068C008958130B3
:101F7000E9F74091020150910301FA0138969F015F
:101F8000F7FF02C0215F3F4FB4E035952795BA9522
:101F9000E1F76091040170910501CB01809697FDF6
:101FA00003969595879595958795BC01A3E0660F57
:101FB000771FAA95E1F7620F731F62537E4F685F28
:101FC0007F4FDB011897AC91A11102C00196F7CFAA
:101FD0000897880F991F880F991F609111017091C0
:101FE000120186179707A4F4B901A4E0660F771FC2
:101FF000AA95E1F7DA011796A617B7074CF0605FCC
:102000007F4FE617F70724F4909312018093110194
:102010006091110170911201681779070CF0A6CF39
:1020200064E0220F331F6A95E1F7BA016D5E7F4FBE
:10203000621773070CF49ACF4C5E5F4F205F3F4FDF
:10204000421753070CF092CF909312018093110125
:1020500081E0809314018ACF089590E080E0089594
:102060008F929F92AF92BF920F931F93CF93DF9364
:10207000CDB7DEB7A1970FB6F894DEBF0FBECDBFC8
:1020800019A2423008F44AE08E010F5D1F4F842EE2
:10209000912CB12CA12CA50194010E948A1CE62F41
:1020A000B901CA01EA3044F5E05DD801EE938D0133
:1020B000232B242B252B79F790E080E0109769F0F3
:1020C000FD0101900020E9F73197AF014A1B5B0B3E
:1020D000BD0185E897E00E94860AA1960FB6F894A4
:1020E000DEBF0FBECDBFDF91CF911F910F91BF908B
:1020F000AF909F908F900895E95CD7CFFC0101903D
:102100000020E9F73197AF01481B590BBC0185E866
:1021100097E00C94860A0C94421C82E090E00E94A6
:102120008B1081110C94B20D109292023E983F9840
:1021300008951F920F920FB60F9211248F939F93C1
:102140008091E1009091E100937F9093E10083FF03
:102150000FC01092E90091E09093EB001092EC0018
:1021600092E39093ED001092C60298E09093F000F5
:1021700082FF22C093E09093E9009091F2009923AE
:1021800019F09AE39093E8009091B702992341F0F7
:102190009091B70291509093B702911101C05D9A4E
:1021A0009091C502992341F09091C502915090936E
:1021B000C502911101C0289A84FF18C08091E200E5
:1021C0008E7E81608093E2008091E1008F7E80931B
:1021D000E1008091B8028E7E80618093B8029F9169
:1021E0008F910F900FBE0F901F90189580FFF7CF23
:1021F0008091E2008E7E80618093E2008091E10018
:102200008E7E8093E1008091B8028E7E8160E5CF62
:102210001F920F920FB60F921124CF92DF92EF927E
:10222000FF920F931F932F933F934F935F936F935F
:102230007F938F939F93AF93BF93EF93FF93CF932E
:10224000DF93CDB7DEB76C97DEBFCDBF1092E9004C
:102250008091E80083FF25C068E0CE0145960E948A
:10226000790A82EF8093E8008D8987FF39C09091C9
:10227000E80090FFFCCF982F907609F034C19E893A
:102280004F89588D2F89F88C911131C0803861F5B4
:102290008091B6028093F1001092F1008EEF80934E
:1022A000E8006C960FB6F894DEBF0FBECDBFDF918D
:1022B000CF91FF91EF91BF91AF919F918F917F91BE
:1022C0006F915F914F913F912F911F910F91FF90CF
:1022D000EF90DF90CF900F900FBE0F901F9018954A
:1022E0009EEF9093E800C7CF1092F100D5CF9130C8
:1022F00059F48111D3CF4130510581F68091B60256
:102300008D7F8093B602CACF933049F48111C6CF36
:102310004130510519F68091B6028260F2CF9530B6
:1023200041F48091E80080FFFCCF20682093E30017
:10233000B5CF963009F0A9C00B8D1C8D22E010920C
:10234000E9001092B4021092B302F2122EC0109261
:10235000B2021092B1020E94480A1F8299E099834A
:10236000FA8291E09E8390EA98879AEF998720916C
:10237000B3023091B402275F3F4F3C832B838D83A0
:102380001092E9001092B4021092B3021093B202BC
:102390000093B10249E050E0BE016F5F7F4F80E0E3
:1023A0000E94220A0E94480A79CF1093B202009339
:1023B000B1020E94DE08DC0112960D911C910115FC
:1023C000110509F451C1D801ED91FC910480F5810A
:1023D000E02DBE016B5E7F4FC8010995009709F0A3
:1023E0003EC1F80100851185EACFF3E0FF120EC06F
:1023F0008F89882309F440C0823061F440E867E0A7
:1024000089E690E10E94E513811148CF81E2809333
:10241000EB0047CF813029F440E86BE08DE590E197
:10242000F1CF833099F70E94DE08DC011296ED901F
:10243000FC908E010F5F1F4F6801E114F10479F0E9
:10244000D701ED91FC910680F781E02DB801C7011D
:102450000995080F111DF701E084F184EECFD80132
:102460001C92F60101900020E9F73197BF016C1929
:102470007D0940E0C601C6CF67E470E1FB014491ED
:1024800050E080E80E94220A09CF973009F4BECFBD
:10249000983021F481E08093F10000CF993009F069
:1024A000FDCE837009F0B2CFEFE4F2E081E031E0DD
:1024B00096E32191222371F08093E9003093EB00A1
:1024C000DF0111972C912093EC009093ED008F5F2A
:1024D000873079F78EE78093EA001092EA008F89BF
:1024E0008093C602DBCE8B8D9C8D1092E9001092FA
:1024F000B4021092B3029093B2028093B102898D1C
:10250000811192C08E899D89913A49F4813209F0F6
:102510007DCF47E050E062E271E080E0B3CF9132DE
:1025200009F074CF833269F48F89988DB0E0A0E010
:1025300080931E0190931F01A0932001B09321016D
:10254000ADCE803269F48091E80082FFFCCF67E075
:1025500082E291E00E94790A8BEF8093E8009ECEA0
:10256000823209F09BCE8F8980932901EEEFFFE73D
:10257000859194918B3F9C4D51F1E0E0F8E0809182
:10258000220190912301A0912401B0912501803B6B
:102590009440A105B105F1F48091290180FD1AC094
:1025A000EE3F8AE0F80789F587E797E79183808314
:1025B000809160008093B50288E19BE00FB6F894AB
:1025C000A895809360000FBE9093600067CEEEEFF9
:1025D000FAE0D5CF808191818737974709F05ECEA9
:1025E000A895809160008861809360008091B50219
:1025F00080936000EE3F2AE0F20789F08091FE0AA6
:102600009091FF0A9183808349CE808191818737A1
:10261000980751F29093FF0A8093FE0AC5CF10925B
:10262000FF0A1092FE0A3ACE0E94DE08DC011296E2
:102630000D911C910115110509F4E8CED801ED9119
:10264000FC910190F081E02DBE016B5E7F4FC801CF
:102650000995811123CEF80100851185EBCF18165D
:1026600019060CF41BCED2CEF1E0FF12BECE6BE405
:1026700070E104CF0F920FB68F939F93EF93FF9368
:1026800080919D028D5F8D3708F08D5780939D025C
:10269000E3EAF2E080818E4F808391819F4F9183A6
:1026A00082818F4F828383818F4F8383EEE9F2E0B3
:1026B00080818F5F808381818F4F818382818F4F63
:1026C000828383818F4F83838FB18F6066991C9B38
:1026D00088278F3681F480919C02981B963068F091
:1026E000E0E0F8E087E78083818388E18093600001
:1026F000F0936000FFCF90939C02FF91EF919F9128
:102700008F910FBE0F9018951F920F920FB60F92D8
:1027100011242F933F934F935F936F937F938F93E6
:102720009F93AF93BF93EF93FF9380919802909103
:102730009902A0919A02B0919B02892B8A2B8B2B34
:1027400009F440C08091970281110BC088B190E4D8
:10275000892788B980919602882319F088B180581A
:1027600088B98091980290919902A0919A02B091B3
:102770009B02181619061A061B069CF480919802F3
:1027800090919902A0919A02B0919B020197A109A0
:10279000B1098093980290939902A0939A02B09302
:1027A0009B02FF91EF91BF91AF919F918F917F918C
:1027B0006F915F914F913F912F910F900FBE0F90AE
:1027C0001F9018950E94E00BECCFEF92FF920F93B1
:1027D0001F93CF93DF93F82E192FE62E042F81E05D
:1027E000860F880F0E94F40983E00E94F409CF2D20
:1027F000D12FEC0EFD2EF11CCE15DF05B9F007FF31
:1028000013C0FE0184910E94F409182F80E00E94F9
:10281000F409812321968111EFCFDF91CF911F9190
:102820000F91FF90EF9008958881EDCF81E0F5CF73
:102830001092CF021092CE0288EE93E0A0E0B0E0BA
:102840008093D0029093D102A093D202B093D3028E
:1028500089E592E09093CD028093CC028FEF9FEFB9
:102860009093D9028093D80210929D0710929C07F2
:1028700087E792E090939B0780939A0784E698E01D
:1028800090932B0380932A0380E090E89093290390
:102890008093280346983E9A47983F9A109288075B
:1028A000109287078BE692E09093860780938507C6
:1028B00085E893E090938B0780938A0780E890E007
:1028C00090938D0780938C0780E490E090938F071E
:1028D00080938E0785E08093990781E08093980725
:1028E00010929307109292071092950710929407F6
:1028F000109291071092900781E090E090939707D3
:102900008093960710928907E8E5F3E091E08CE365
:10291000968387831086399623E0E538F207C1F75E
:1029200010925203109251031092540310925303C9
:10293000109255031092570310922E0310923403F5
:1029400010923A03109240031092460310924C03E7
:102950000895789483E084BD83E085BD81E0809311
:102960006E00E1E8F0E083E08083E0E881E08083CE
:10297000E1E983E08083E0E981E08083E1EC87E0C6
:102980008083E3EC81E08083E0EC82E08083E2EC12
:1029900081E08083EAE787E080838068808310920B
:1029A000C6021092B6021092B8028091D7008160E0
:1029B0008093D70080EA8093D80089B5806189BD73
:1029C00089B5826089BD09B400FEFDCF0E947608FA
:1029D0008091D8008F7C80618093D8008091E00046
:1029E000807F8093E0008091E1008E7E8093E10003
:1029F0008DE08093E200559A209A81EC80937C00D0
:102A000085B1806F85B984B1877E84B984B1876EC2
:102A100084B95E9A5F988AB1806D8AB9769A6E9809
:102A200081B3806F81BB899880B38D7080BB80E556
:102A30008CBD81E08DBD85E090E00E948F0D5F9A96
:102A400085E090E00E948F0D5E985C98ECE1F7E0E5
:102A500084918EBD00000DB407FEFDCF319627E0B6
:102A6000E932F207A9F75C9A81E8809364008091CB
:102A700065008160809365000E94D90D80E80E9406
:102A8000CE0D882381F05C9885EA8EBD00000DB4E0
:102A900007FEFDCF5C9A2E982F982D9881E083BF7A
:102AA000889513BEFCCF84E00E94CE0D882309F4E4
:102AB00048C02D9884E80E94CE0D8823E1F00E9442
:102AC0008D0D88EC90E00E948F0D2F9882E090E0B1
:102AD0000E94421C8F3F29F06FEF82E090E00E943D
:102AE0004A1C84EF91E00E948F0D2F9A84E80E9487
:102AF000CE0D8111FBCF84E10E94CE0D8823E1F041
:102B00000E948D0D88EC90E00E948F0D2E9882E03F
:102B100090E00E94421C882329F060E082E090E06F
:102B20000E944A1C84EF91E00E948F0D2E9A84E14E
:102B30000E94CE0D8111FBCF88EC90E00E948F0D9A
:102B4000B2CF0E948D0D0E948D1081E090E00E9416
:102B50008B10382F3470932E81FF0FC031112E98B7
:102B6000C1EFDFEF08E010E080E40E94CE0D882383
:102B7000D9F12E9A2F9A0E948D0D82E390E00E9447
:102B80008F0D0E94AA0D8111F8CF80E18093010181
:102B900081E0809300018093A2020E948D100E9428
:102BA000B20DEAE02E2E312C412C512CFAE0AF2E42
:102BB000B12C72E1672E8FB7F8944091A302509127
:102BC000A4026091A5027091A6028FBF8090A70217
:102BD000882009F4C6C01092A70280E090E0892BFB
:102BE00051F30E940000E5CF992029F0C430D105AF
:102BF00011F42E9A2F9881E00E9467089E01D7FF5A
:102C000004C0222733272C1B3D0B27703327CE010E
:102C1000D7FD0796B3E095958795BA95E1F7D7FF6D
:102C200005C00197A801421B530B9A01AC015695B0
:102C3000542F4427579547954B575C4FB0E0A0E081
:102C40003801621A730A8E3F6FEF960709F43BC092
:102C50007A01E4E9EE0EF11C6A0170E060E0FD012A
:102C6000E459F94F5F018F3F980779F0F501E60FBE
:102C7000F71FE491F0E02F01022E01C0440C0A94EA
:102C8000EAF7F60184884828448A2115310581F045
:102C9000F501E60FF71FE491F0E02F01062C02C0CA
:102CA000559447940A94E2F7F701808048284082BF
:102CB0006F5F7F4FFFEFEF1AFF0AEFEFCE1ADE0ACA
:102CC0006835710581F60196A85ABF4F40585F4F8D
:102CD000A03BB10509F0B7CF0E94D90D8FE090E07D
:102CE0000E948F0D2196C931D10509F03DCF992061
:102CF00011F02F9A2D9880E991E00E948F0D0E948B
:102D00008D0D81E090E00E948B1080FF36CF8AE02D
:102D100090E00E948B109FEF980F9E3F08F02DCF00
:102D200022E330E03093AE022093AD0228E330E09E
:102D30003093B0022093AF02CBE0D0E0682F8AE955
:102D400097E00E947E0ECE010E948B102196C13129
:102D5000D105A1F70E94D90D88EE93E00E948F0D56
:102D60000CCF8091A802F42FF81B8F2F90910101B6
:102D7000F91748F48F5F891708F02FCF81E083BFE0
:102D8000889513BE2ACF81E08093A7024093A802C2
:102D90008091A9029091AA0201969093AA02809331
:102DA000A902882DE5E8F3E081118FEF00248193DB
:102DB0008193819381930394D1F71092B002109282
:102DC000AF021092AE021092AD028091AC028093DD
:102DD000AB020E94AA0D8093AC021092930710924E
:102DE00092071092910710929007109295071092F7
:102DF00094078FE792E00E947E10B0929307A09212
:102E00009207B0929107A0929007109295071092A6
:102E100094076091180170E090E080E04AE00E9421
:102E2000301029E130E030939307209392073093DC
:102E3000910720939007109295071092940782E8CB
:102E400092E00E947E1043E250E05093930740933B
:102E50009207509391074093900710929507109214
:102E600094076091190170E090E080E04AE00E94D0
:102E7000301082E390E090939307809392079093B1
:102E8000910780939007109295071092940785E818
:102E900092E00E947E10ECE3F0E0F0939307E09361
:102EA0009207F0939107E093900710929507109284
:102EB0009407C0901A01D0901B01E0901C01F09083
:102EC0001D014AE0C701B601F7FE0DC06DE285E8BD
:102ED00097E00E94210B66277727CB016C197D09AB
:102EE0008E099F094AE00E9430108FE590E0909390
:102EF0009307809392079093910780939007109285
:102F000095071092940788E892E00E947E1089E667
:102F100090E090939307809392079093910780930A
:102F2000900710929507109294076091060170E047
:102F300090E080E04AE00E94301080E20E94CE0DD6
:102F4000882359F080911301811102C00E944D0F16
:102F500081E0809310018093150180E20E94B80DFA
:102F600081111092150180E40E94CE0D882359F042
:102F700080911301811102C00E944D0F1092100127
:102F800081E08093150180E40E94B80D81111092B8
:102F9000150180E80E94C30D8823B9F080911301C8
:102FA000811113C08091140181110FC081E08093C1
:102FB000130120910A018091040190910501821B67
:102FC000910990930C0180930B0180E10E94CE0D3A
:102FD000882369F080911301811109C08091140147
:102FE000811105C081E0809316011092150180E1E6
:102FF0000E94B80D81111092160188E00E94C30D45
:10300000882309F46EC080911801E8E5F3E0F12C03
:10301000E12C9085911107C3882309F404C399E03A
:103020009E9DE0019F9DD00D1124C85ADC4F91E078
:103030009887815080931801809171008D7F8093D3
:1030400071001092CB028CE193E09093CA028093BE
:10305000C9029093C8028093C70286E990E09093DA
:103060001D0380931C0384E690E090931F038093DC
:103070001E0322E330E0309321032093200390933A
:10308000230380932203B0922503A092240384EFAC
:1030900091E090932703809326030E94E00B809198
:1030A000100188838111A7C28091020190910301D0
:1030B00041969A8389832F81820F911D9D838C83F2
:1030C0008091040190911601992309F4A2C299E01C
:1030D0009E9DF0019F9DF00D1124E85AFC4F8D5EDE
:1030E000838384E00E94C30D8823E1F0809157031D
:1030F000811118C08091020190910301059690936F
:103100005203809351038091040190910501209115
:10311000160121110596909354038093530381E087
:103120008093570305E813E068E5E62E63E0F62E8A
:10313000F7018085882309F45CC0808181112BC050
:10314000638170E041E0818192810E94DC0DF70192
:10315000638170E081819281AC014C5F5F4F9B0184
:1031600002960E94FA0DF701638170E081819281DD
:1031700041E006960E94DC0DF701868121813281B3
:10318000820F932F911D928381832481358128178B
:1031900039070CF41086F7018081813051F5638185
:1031A00070E041E0818192810E94DC0DF701638132
:1031B00070E081819281AC01465051099B010297D8
:1031C0000E94FA0DF701638170E08181928141E0F4
:1031D00006970E94DC0DF701268181819281821B76
:1031E00091099283818324813581821793070CF49E
:1031F0001086F9E0EF0EF11C0E151F0509F098CFAF
:10320000CCE2D3E010E801E055E0752E8981811110
:1032100016C08091020190910301853591057CF4DF
:103220001B830E94EA1BA20191010E94581C6A5D47
:103230007F4F8F4F9F4F6C8309830D8378828981E5
:1032400090911601992309F4F8C1882339F18B81F3
:1032500090E02091020130910301BC016E5F7F4F2D
:10326000A9014C5E5F4F64177507C4F42C5F3F4F94
:103270000E962817390794F48C8190E02091040170
:1032800030910501BC016E5F7F4FA901405E5F4F29
:10329000285F3F4F641775070CF4FBC148E5C42E47
:1032A00043E0D42EF6018085882369F18981882343
:1032B00051F18B8190E021813281BC016E5F7F4FA3
:1032C000A9014A5F5F4F64177507ECF40E96281743
:1032D0003907CCF48C8190E0238130E0AC014E5F63
:1032E0005F4F241735077CF00E96281739075CF4DA
:1032F00048EC50E062E370E082E390E00E94880CCA
:103300001982F6011086F9E0CF0ED11CEC14FD04F1
:1033100049F68981882359F1C090A902D090AA0268
:10332000C60163E070E00E94BB1C892B31F48A81E6
:103330008F5F833008F0BEC18A836C8170E08B811F
:103340002A814FE557E090E00E94AA0C688170E066
:10335000C6010E94BB1C892B51F48B8181508B8349
:103360009D818C81992309F4E7C182508C838C81E3
:10337000823008F0A1C11D828B81823008F419824D
:103380002696185E103109F041CF0EEC11E0E801ED
:10339000D12CC12CF12CE12CFE01EE0DFF1D808102
:1033A000882399F08150990B689EA001699E500D69
:1033B0001124455C584F20E0B601C70134E0880F66
:1033C000991F3A95E1F70E94AA0C2FEFE21AF20A30
:1033D00038E0E316F10401F7289644E0C40ED11C4E
:1033E00050E4C516D104B1F680915703882321F12A
:1033F000D09155038D2F90E0FC01EE0FFF1FE25D91
:10340000FE4F608171812091530330915403620F0C
:10341000731F63507109E0915103F091520320E052
:1034200049E257E08E0F9F1F0E94AA0CDF3408F07C
:1034300048C1DF5FD0935503409110018091150181
:10344000882309F45CC140930D012091A9023091B9
:10345000AA0260910F0170E0C9010E94BB1C892B78
:1034600041F480910E018F5F893008F02FC1809365
:103470000E0141112EC16091070170E0C9010E9447
:10348000BB1C892B69F40E94EE0E811109C080914A
:103490000201909103010196909303018093020130
:1034A000D0911301DD2309F44CC083E080930E0119
:1034B000209104013091050180910B0190910C0144
:1034C000821793070CF020C1409102015091030133
:1034D0007A016CE0E60EF11C435F5F4F90E080E004
:1034E000D80170E060E06C01E4E0CE0ED11C9D904C
:1034F000FB017096992069F06417750754F4EE1675
:10350000FF063CF42817390724F02C153D050CF470
:103510008D2EBF01E038F10551F7085F1F4F04966B
:1035200080349105E9F68110EFC06091080170E0E8
:103530008091A9029091AA020E94BB1C892B09F4D8
:10354000F1C080911401882311F183E080930E0172
:103550000E944D0F209104013091050180911101CD
:1035600090911201281739070CF0E3C0609109010E
:1035700070E08091A9029091AA020E94BB1C892B45
:1035800031F42F5F3F4F3093050120930401809168
:103590001601882319F089E080930E0180911701AC
:1035A00081110FC08091060181508093060181E056
:1035B00080931701109203011092020183E6809319
:1035C000180120910D0182E294E0289FA001299F1B
:1035D000500D11244F53584F609104017091050113
:1035E00020910E0180910201909103010E94AA0C8A
:1035F0000E94D90DF2CA813009F062CD809102019A
:103600009091030101979A8389832F81821B9109ED
:1036100055CD99E09E9DF0019F9DF00D1124E85A33
:10362000FC4F825F5DCD3FEFE31AF30A399645E028
:10363000E416F10409F0EDCC54CD882309F42ECE24
:103640008B8190E02091020130910301BC016E5FFB
:103650007F4FA9014E5E5F4F641775070CF01ECEB9
:103660002E5F3F4F0E96281739070CF017CE8C812E
:1036700090E02091040130910501BC016E5F7F4F05
:10368000A901405E5F4F641775070CF007CE2E5FEF
:103690003F4F0E96281739070CF000CE4AE050E055
:1036A00064E170E080E293E00E94880C10921701C0
:1036B0001982F4CD1A8241CE833308F45DCE0D8396
:1036C0005BCE1092550310925703B6CE10920E01A6
:1036D000D0CE413009F0E4CE6091070170E0C9011D
:1036E0000E94BB1C892B09F0DBCE0E94EE0E8111DB
:1036F000D7CE80910201909103010197CDCE109217
:103700000E0140930D01CCCE1092130181E0809305
:10371000140180910A01280F311D3093120120936A
:1037200011010FCF2150310930930501209304017D
:1037300008CF109214012BCF8E5F18CE8F929F92DC
:10374000AF92BF92CF92DF92EF92FF92CF93DF932F
:10375000EC01688179818A819B8161157105810500
:10376000910521F464E279ED8BE597E02DE133EFEB
:1037700041E050E00E94581C49015A019B01AC01F4
:10378000A7EAB1E40E94771C6B017C01ACEEB4EFB8
:10379000A50194010E94851CC60ED71EE81EF91EC5
:1037A000F7FE06C081E0C81AD108E10880E8F80AEF
:1037B000C882D982EA82FB82C701B6019F77DF9176
:1037C000CF91FF90EF90DF90CF90BF90AF909F9000
:1037D0008F9008958F929F92AF92BF92CF92DF9277
:1037E000EF92FF9260912A0170912B0180912C0140
:1037F00090912D01611571058105910521F464E217
:1038000079ED8BE597E02DE133EF41E050E00E9448
:10381000581C49015A019B01AC01A7EAB1E40E947E
:10382000771C6B017C01ACEEB4EFA50194010E9402
:10383000851CC60ED71EE81EF91EF7FE06C081E0E5
:10384000C81AD108E10880E8F80AC0922A01D0928B
:103850002B01E0922C01F0922D01C701B6019F7758
:10386000FF90EF90DF90CF90BF90AF909F908F90A0
:10387000089560932A0170932B0180932C019093FB
:103880002D010895F999FECF92BD81BDF89A99272F
:1038900080B50895262FF999FECF1FBA92BD81BD3C
:1038A00020BD0FB6F894FA9AF99A0FBE01960895C2
:1038B000052E97FB1EF400940E946F1C57FD07D045
:1038C0000E948A1C07FC03D04EF40C946F1C509588
:1038D0004095309521953F4F4F4F5F4F08959095FC
:1038E0008095709561957F4F8F4F9F4F08950E94EF
:1038F000AC1CA59F900DB49F900DA49F800D911DB1
:1039000011240895B7FF0C94771C0E94771C821B2A
:10391000930B0895A1E21A2EAA1BBB1BFD010DC03B
:10392000AA1FBB1FEE1FFF1FA217B307E407F5076F
:1039300020F0A21BB30BE40BF50B661F771F881F4B
:10394000991F1A9469F760957095809590959B01E1
:10395000AC01BD01CF010895A29FB001B39FC0018A
:10396000A39F700D811D1124911DB29F700D811DAB
:103970001124911D0895AA1BBB1B51E107C0AA1F6A
:10398000BB1FA617B70710F0A61BB70B881F991F00
:103990005A95A9F780959095BC01CD01089597FBA4
:1039A000072E16F4009407D077FD09D00E94BB1CA7
:1039B00007FC05D03EF4909581959F4F0895709532
:1039C00061957F4F0895EE0FFF1F0590F491E02D54
:0639D0000994F894FFCFFA
:1039D6000110000014000A0202020F050000000593
:1039E6000014000000000001630A903F0F00FFFF73
:1039F600FFFF00E100000000000001000000FFFFE3
:103A0600FFFFFEFFFEFFFEFFFDFFFDFFFDFFFCFFCC
:103A1600FCFFFCFFFBFFFBFFFBFFFAFFFAFFFAFFD1
:103A2600FBFFFBFFFBFFFCFFFCFFFCFFFDFFFDFFB9
:103A3600FDFFFEFFFEFFFEFFFFFFFFFFFFFF000093
:103A4600000000000000010001000100010001006B
:103A5600020002000200020003000300030003004C
:103A6600040004000400040005000500050006002B
:103A7600060007000700080008000A000A000C00FC
:103A86000C000E000E000F001000110012001200B4
:103A96001400160018001A001C001E00200000006A
:103AA6000000000000000000000000000000000010
:103AB6000000000000000000000000000000000000
:103AC60000000000000000000000000000000000F0
:103AD60000000000000000000000000000000000E0
:103AE60000000000000000000000000000000000D0
:103AF60000000000000000000000000000000000C0
:103B060000000000000000000000000000000000AF
:103B1600000000000101010101010101020200C1D2
:103B26008081000000000000007309F208940989F2
:103B360009DA099809B60900000000210B860A2D4A
:103B4600102C10000000007E0E860A2D102C10414D
:0C3B56003A00473A00503A004C3A000098
:00000001FF
