:100000000C947C060C94A4060C94A4060C94A406F0
:100010000C94A4060C94A4060C94A4060C94A406B8
:100020000C94A4060C94A4060C94440D0C94B30DEB
:100030000C94A4060C94A4060C94A4060C94A40698
:100040000C94A4060C94A4060C94A4060C94A40688
:100050000C94A4060C94A4060C94A4060C94E50F2E
:100060000C94A4060C94A4060C94A4060C94A40668
:100070000C94A4060C94A4060C94A4060C94A40658
:100080000C942F100C94A4060C94A4060C94A406B3
:100090000C94A4060C94A4060C94A4060C94A40638
:1000A0000C94A4060C94A4060C94A4060000000072
:1000B000003E5B4F5B3E3E6B4F6B3E1C3E7C3E1CEE
:1000C000183C7E3C181C577D571C1C5E7F5E1C0034
:1000D000183C1800FFE7C3E7FF0018241800FFE7EB
:1000E000DBE7FF30483A060E2629792926407F05AE
:1000F0000507407F05253F5A3CE73C5A7F3E1C1CC4
:1001000008081C1C3E7F14227F22145F5F005F5F83
:1001100006097F017F006689956A6060606060946F
:10012000A2FFA29408047E040810207E2010080874
:100130002A1C08081C2A08081E101010100C1E0C7F
:100140001E0C30383E3830060E3E0E060000000011
:100150000000005F00000007000700147F147F14F8
:10016000242A7F2A1223130864623649562050003D
:1001700008070300001C2241000041221C002A1C29
:100180007F1C2A08083E0808008070300008080814
:100190000808000060600020100804023E51494534
:1001A0003E00427F400072494949462141494D3352
:1001B0001814127F1027454545393C4A49493141B9
:1001C000211109073649494936464949291E000087
:1001D00014000000403400000008142241141414DC
:1001E0001414004122140802015909063E415D59C8
:1001F0004E7C1211127C7F494949363E41414122D1
:100200007F4141413E7F494949417F090909013EFA
:10021000414151737F0808087F00417F4100204021
:10022000413F017F081422417F404040407F021C33
:10023000027F7F0408107F3E4141413E7F0909094A
:10024000063E4151215E7F09192946264949493216
:1002500003017F01033F4040403F1F2040201F3FDC
:100260004038403F63140814630304780403615961
:10027000494D43007F4141410204081020004141A3
:10028000417F04020102044040404040000307084F
:100290000020545478407F2844443838444444284B
:1002A000384444287F385454541800087E090218F2
:1002B000A4A49C787F0804047800447D400020407A
:1002C000403D007F1028440000417F40007C0478BE
:1002D00004787C080404783844444438FC18242406
:1002E0001818242418FC7C08040408485454542486
:1002F00004043F44243C4040207C1C2040201C3C03
:100300004030403C44281028444C9090907C4464F9
:10031000544C44000836410000007700000041368C
:10032000080002010204023C2623263C1EA1A16112
:10033000123A4040207A3854545559215555794144
:100340002154547841215554784020545579400C1B
:100350001E527212395555555939545454593955FC
:100360005454580000457C410002457D420001453F
:100370007C40F0292429F0F0282528F07C545545AC
:10038000002054547C547C0A097F4932494949323F
:100390003248484832324A4848303A4141217A3A54
:1003A00042402078009DA0A07D39444444393D401E
:1003B00040403D3C24FF2424487E4943662B2FFCCB
:1003C0002F2BFF0929F620C0887E09032054547979
:1003D000410000447D413048484A32384040227A4A
:1003E000007A0A0A727D0D19317D2629292F2826C7
:1003F0002929292630484D402038080808080808CF
:100400000808382F10C8ACBA2F102834FA00007B27
:10041000000008142A142222142A1408950022002D
:1004200095AA005500AAAA55AA55AA000000FF00E7
:10043000101010FF00141414FF001010FF00FF1024
:1004400010F010F0141414FC001414F700FF000056
:10045000FF00FF1414F404FC141417101F10101FD5
:10046000101F1414141F00101010F0000000001FC3
:10047000101010101F10101010F010000000FF10CE
:100480001010101010101010FF10000000FF1400CA
:1004900000FF00FF00001F10170000FC04F41414FC
:1004A0001710171414F404F40000FF00F7141414C8
:1004B00014141414F700F7141414171410101F1048
:1004C0001F141414F4141010F010F000001F101F6B
:1004D0000000001F14000000FC140000F010F010D9
:1004E00010FF10FF141414FF141010101F00000050
:1004F00000F010FFFFFFFFFFF0F0F0F0F0FFFFFF54
:100500000000000000FFFF0F0F0F0F0F38444438AA
:10051000447C2A2A3E147E02020606027E027E02E5
:1005200063554941633844443C04407E201E200604
:10053000027E020299A5E7A5991C2A492A1C4C7241
:1005400001724C304A4D4D303048784830BC625AC8
:10055000463D3E494949007E0101017E2A2A2A2A58
:100560002A44445F444440514A444040444A514034
:100570000000FF0103E080FF000008086B6B0836F5
:1005800012362436060F090F060000181800000066
:100590001010003040FF0101001F01011E00191D55
:1005A0001712003C3C3C3C0000000000F0F89C8E20
:1005B0008783878E9CF8F00000FEFF03030303038C
:1005C000070EFCF80000FEFF0303030303070EFC05
:1005D000F80000FFFF00000000000000FFFF000027
:1005E000FEFF8383838383C7EE7C380000F8FC0E14
:1005F00007030303070EFCF800003F7FE0C0808084
:10060000C0E07F3FFFFF01010101010101FFFF0089
:1006100000FFFF0C0C0C0C1C3E77E3C100007FFFB9
:10062000C0C0C0C0C0E0703F1F00001F3F70E0C0EE
:10063000C0C0E0703F1F00007FFFC1C1C1C1C1E366
:10064000773E1C00001F3F70E0C0C0C0E0703F1F3D
:10065000000000000001FFFF01000000D5F08D1434
:10066000A1C881CFD9F1AF200010100080C040C0D8
:100670004040C04040C04060F0F8800103030303E5
:100680000303070F1F1F3B3303030100000000009B
:100690000000000000000080C0E000040E0F0D0FFD
:1006A0000D0D1F3D7D7FEDCD0F0F060080C040C0BA
:1006B0004040C04040C04060F0F8800103030303A5
:1006C0000303070F1F1F3B3303030140E0F0D0F08B
:1006D000D0D0F0D0D0F0D0D8FCFE600000000000F8
:1006E0000000010307070E0C00000010100080003E
:1006F00000F88888F88888F8080808F8000F6F1F45
:100700004FEF4F1F7F7F7F1F48E8481F60000000AA
:1007100000F01010F01010F0101010F0000E6F1E0E
:10072000AE4FAF1F7F7F7F1FA848A81F600000004B
:1007300000E02020E02020E0202020E0000C6E1CC3
:100740004CEF4E1E7F7E7E1F48E8481F6000000071
:1007500000F01010F01010F0101010F0000E6F1ECE
:10076000AE4FAF1F7F7F7F1FA848A81F60101000EB
:100770001878F8FCFCFCFF7F3EFEC0000000000083
:1007800000000107030100000000030F3CF0C0005F
:100790000080C0C0F0F0F0F0800000000000000217
:1007A000070F1F3F0F03000103070E1C3870E00006
:1007B0000000B0F0F0F0F0C0808000000000000CFD
:1007C0001E3F7FFF3F0700000101030306060C00E8
:1007D0000080C0C0F0F0F0F08000000000000002D7
:1007E000070F1F3F0F03000103070E1C3870E010B6
:1007F0001030F8FCFCF8CCCEFFFFCECCF8F8FCF8BB
:100800003000011F3F7F7F7FFFFF7F7F7F3F1F0102
:10081000000030F0F8FCCCCEFFFFCECCFCF8F000AE
:10082000000000011F7FFFFFFFFF7F7F3F0F0000E1
:100830000000000038FCFEE6FFFFE6FEFE7C1C0820
:10084000000000000000030F3F7F7FFFC780000013
:10085000000030F0F8FCCCCEFFFFCECCFCF8F0006E
:10086000000000011F7FFFFFFFFF7F7F3F0F0000A1
:10087000001010000000000000082878ACBFBFFF87
:100880003C08080000000002020202020E9FFF2640
:1008900006060E000000000000082878ACBFBFFF6D
:1008A0003C08080000000002020242423E0F0FB660
:1008B000C6060E408000000000082838ECBFBFFFCD
:1008C0003C0808150A050002028282621E0F9FE69C
:1008D00006060E408000000000082878ACBFBFFF6D
:1008E0003C0808150A05000202020282FE0F1F16CC
:1008F000A6460E1010000000003C4ADBD7DB4A3C45
:10090000000000000000000884C2310D030D31C258
:100910008408000000000010183C5ADBCFEF7E3C3A
:10092000000000000000000884C2310D030DB1C6B4
:100930000800000000000000003C4ADBD7DB4A3C16
:10094000000000000000000884C2310D030D31C218
:100950008408000000000000003C7EEFCFDB5A3C22
:10096000181000000000000008C6B10D030D31C2D0
:1009700084080000001010000000003C7EEFCFDB78
:100980005A3C981000000000000000026323FFA7FB
:100990002A310000000000000000003C7EEFCFDBA9
:1009A0005A3C981000000000000000C4B60F03037A
:1009B00002031C10000000000000003C7EEFCFDBB3
:1009C0005A3C18100000000000662121310D03057B
:1009D000091224C2810000000000003C7EEFCFDB42
:1009E0005A3C981000000000000000046A29232FE0
:1009F00032C180000000001010000010983C5ADB4B
:100A0000CFEF7E3C000000000000000000312AA76C
:100A1000FF2363020000000000000010983C5ADB36
:100A2000CFEF7E3C00000000000000101C0302031A
:100A3000030FB6C40000000000000010183C5ADB91
:100A4000CFEF7E3C00000000000081C224120905A7
:100A5000030D31212166000000000010983C5ADB94
:100A6000CFEF7E3C000000000000000080C1322F6C
:100A700023296A0400000000001010000000003C60
:100A80004ADBD7DB4A3C000000000000000884C2BB
:100A9000310D030D31C28408000000000000003C4D
:100AA0006AEBE7EB6A3C0000000000000000001E5B
:100AB000817D037D811E0000000000000000003CDD
:100AC0004ADBD7DB4A3C0000000000000000001EAB
:100AD000817D037D811E0000000000000000003CBD
:100AE0004ADBD7DB4A3C0000000000000000001E8B
:100AF000817D037D811E0000000000101000002099
:100B000040BC7ADBD7DB7ABC40200000000000004C
:100B100080C0310D030D31C08000000000000000D6
:100B2000003C7ADBD7DB7A3C0000000000000008C4
:100B300084C2310D030D31C28408000000000000A2
:100B4000003C7ADBD7DB7A3C0000000000000008A4
:100B500084C2310D030D31C2840800000000000082
:100B6000003C7ADBD7DB7A3C000000000000000884
:100B700084C2310D030D31C28408000000101080C2
:100B800080000000000004400000822000040001FA
:100B900006182020232C30707CC2FFFFF67C3880A2
:100BA00080000000002000040000A00200080001F6
:100BB00006182020232C30707CC2FFFFF67C380002
:100BC000000080800010000004208000021000005F
:100BD00000003F2020203F707CC2FFFFF67C3800E1
:100BE0000000808000000800400280002002000019
:100BF00000003F2020203F707CC2FFFFF67C3810B1
:100C000010000000003C7ADBD7DB7A3C00000000DB
:100C10000000000884C2310D030D31C284080000B9
:100C20000000002040BC7ADBD7DB7ABC402000000B
:100C300000000003020405090F0905040203000077
:100C400000081420408448502070F884FFFEE4F827
:100C50007000000000000000000000010101010020
:100C600000081420408448502070F884FFFEE4F807
:100C70007000000000000000000000010101010000
:100C800000080B0002020200000904000001020239
:100C900000000524001001052401010104240206BE
:100CA0000524060001070581031000400904010026
:100CB000020A000000070502024000000705830247
:100CC0004000000403090412010002EF0201404148
:100CD00023368000010102030141726475696E6F61
:100CE000204C4C430041726475696E6F204C656FF7
:100CF0006E6172646F00C31011241FBECFEFDAE083
:100D0000DEBFCDBF12E0A0E0B1E0E4E9F7E302C04E
:100D100005900D92A034B107D9F727E0A0E4B2E026
:100D200001C01D92A734B207E1F716E0CCE7D6E088
:100D300004C02197FE010E94C21BCB37D107C9F71F
:100D40000E9409110C94C81B0C940000809142026F
:100D50000895ECEDF2E0A0E0B8E000800EBC811157
:100D6000012C1197A0FDFDCF0192B9F70DB40895A4
:100D70008F929F92AF92BF92CF92DF92EF92FF92AB
:100D80000F931F93CF93DF93EC014115510509F4A5
:100D9000C5C0FA01C490319694914E5F5F4FAC2D5F
:100DA000B0E02223E1F001E010E0892F877011F418
:100DB00010E000E0E92FE695E695E695E00FF12FCB
:100DC000F11DEA9F8001EB9F100DFA9F100D112479
:100DD000209FF001219FF00D11244E0F5F1F8D0108
:100DE0000C0F1D1F101611060CF098C0C038D1054D
:100DF0000CF094C09B01290F311D121613060CF044
:100E00008DC0603471050CF089C04115510509F49D
:100E100085C0F62FF770EF2E9B0177FF02C0295F88
:100E20003F4FE3E035952795EA95E1F7F22F77FFFD
:100E300004C0EE2011F0FFEFF20F222733272C1B06
:100E40003D0BD7FD02C030E020E0FC2C003811053E
:100E50001CF080E8F82EFC1AF21A6F2F0F2E000CEF
:100E6000770B162F1095FF3F0CF010E0E1E0892F73
:100E7000877009F4E0E09695969596959E0F690F18
:100E8000711D6930710514F098E09F1BD12EDF0EA3
:100E90006D2D70E8670350011124B5016C0F7D1FA3
:100EA000620F731FC19E200D311D1124420F531F6D
:100EB0002E2D0E2C000C330B9F0F9D1579F1EB019D
:100EC000C452DD4F10E000E00F1510F5FA01E00FFD
:100ED000F11FE491F0E04F01022E02C0880C991C32
:100EE0000A94E2F7D7FC03C0888188298883EE2022
:100EF00059F086E08D1544F05E01E0E8AE0EB11CBD
:100F0000F5018081892980830F5F1F4F2196DCCFF7
:100F1000D3944A0F5B1F60587F4FCFCFDF91CF91A3
:100F20001F910F91FF90EF90DF90CF90BF90AF9007
:100F30009F908F900895FC018091DB02882311F12E
:100F40003FB7F89482E08093E9002091F200822F6D
:100F500090E01816190614F481E090E0882339F027
:100F6000289844E64093DA024091F100408322231E
:100F700039F02091F200211103C02BE62093E80004
:100F80003FBF08958FEF9FEF08952FB7F89483E048
:100F90008093E9009091E800892F807295FF04C04A
:100FA0009091F20080E4891B2FBF08958091D202B6
:100FB00081110DC082E08093CE0284E08093CF0245
:100FC0001092D1021092D00281E08093D2028EEC76
:100FD00092E00895CF93DF931F92CDB7DEB7698378
:100FE000DC01ED91FC910280F381E02D41E050E0C5
:100FF000BE016F5F7F4F09950F90DF91CF910895EC
:1010000083E08093E9008091F200882319F08AE35D
:101010008093E80008950E94C50790E00895CF935B
:10102000DF931F92CDB7DEB7FC018485958597FDD0
:1010300008C02FEF3FEF358724870F90DF91CF91C6
:101040000895CE0101960E949B07019719F48981AA
:1010500090E0F3CF8FEF9FEFF0CF0F931F93CF93DD
:10106000DF931F92CDB7DEB78C01FC018485958597
:1010700097FF0BC0CE0101960E949B07019771F468
:10108000898190E0F80195878487F80184859585AA
:101090000F90DF91CF911F910F9108958FEF9FEFE8
:1010A000F1CFFC018485958597FD0BC09FB7F8941F
:1010B00082E08093E9008091F2009FBF90E001966A
:1010C00008959FB7F89482E08093E9008091F20040
:1010D0009FBF90E008954091C8025091C9022091AD
:1010E000C6023091C70242175307B4F49091E8004A
:1010F0009570E1F39091E80092FD19C08093F100A2
:101100008091C8029091C90201968F739927892B0B
:1011100019F48EEF8093E8008091C8029091C90283
:1011200001969093C9028093C80281E0089580E0FF
:101130000895DF92EF92FF920F931F93CF93DF9367
:10114000D82E8A01EB017B01E40EF51ECE15DF05DA
:1011500059F0D7FE12C0FE0184910E946B082196BF
:101160008111F4CF0FEF1FEFC801DF91CF911F91D5
:101170000F91FF90EF90DF9008958881EECF0F934D
:101180001F93CF93DF931F92CDB7DEB782E08983A1
:1011900042E450E061E87CE080E80E9499080E9407
:1011A000D607DC0112960D911C910115110589F0ED
:1011B000D801ED91FC910280F381E02DBE016F5FBB
:1011C0007F4FC801099597FD04C0F801008511857E
:1011D000ECCF89810F90DF91CF911F910F910895EE
:1011E000615030F02091F100FC0120830196F8CF8E
:1011F000289884E68093DA020895AF92BF92CF9246
:10120000DF92EF92FF920F931F93CF93DF936C01C6
:101210007B018B01040F151FEB015E01AE18BF08A7
:10122000C017D10759F06991D601ED91FC91019059
:10123000F081E02DC6010995892B79F7C501DF9171
:10124000CF911F910F91FF90EF90DF90CF90BF90C3
:10125000AF9008953FB7F894809152029091530255
:10126000A0915402B091550226B5A89B05C02F3F0E
:1012700019F00196A11DB11D3FBFBA2FA92F982FBC
:101280008827BC01CD01620F711D811D911D42E0B7
:10129000660F771F881F991F4A95D1F708958F927F
:1012A0009F92AF92BF92CF92DF92EF92FF926B012B
:1012B0007C010E942A094B015C01C114D104E104A4
:1012C000F104B9F00E942A09681979098A099B0971
:1012D000683E73408105910580F321E0C21AD10870
:1012E000E108F10888EE880E83E0981EA11CB11C6D
:1012F000E4CFFF90EF90DF90CF90BF90AF909F90A2
:101300008F9008958F929F92AF92BF92CF92DF926B
:10131000EF92FF920F931F93CF93DF936C017B01AA
:101320008A0180915A01882309F45CC08091DB0214
:10133000882309F457C08091CD0280FF05C08091B9
:10134000E00082608093E000E801B12C8AEFA82ED3
:1013500093E0892E2AE3922E209711F4BB20D9F135
:101360000E94C50781110AC0AA94AA20D9F161E0A0
:1013700070E080E090E00E944F09EECF8C171D06D0
:1013800011F00CF08C2F9FB7F8948092E900209117
:10139000E80025FD02C09FBFDFCF282F30E0C21B31
:1013A000D30BF701815020F041914093F100FACF27
:1013B000E20EF31EBB2021F09092E800B12CEBCF9F
:1013C0008091E80085FDE7CF9092E800BB24B394BC
:1013D000209709F3F3CF5D9884E68093CC02101632
:1013E00011063CF081E090E0F6019383828310E0E7
:1013F00000E0C801DF91CF911F910F91FF90EF9016
:10140000DF90CF90BF90AF909F908F9008952091E4
:101410004A02E0914802F0914902CF01029690936E
:10142000490280934802222319F0859194910895EE
:10143000808191810895CF92DF92EF92FF92CF93B6
:10144000DF930E94070A811520E8920791F48091AA
:1014500071008D7F8093710010929100469847989B
:1014600010924702DF91CF91FF90EF90DF90CF90E5
:10147000089521E020934702813020E8920751F43B
:1014800080914502909146029093490280934802D0
:101490000E94070A97FD05C020914402222309F407
:1014A00054C020914302211150C021E020934B02EF
:1014B000EC01DF77209709F04BC081E080934C026C
:1014C00046983FE9C32E3FE0D32EE12CF12CCAEF22
:1014D000D0E0E0913A07F0913B070995811103C0F4
:1014E00081E080934C0280914B02882329F0809107
:1014F0004C02882309F43FC047980E94070A0097CE
:10150000F1F19C01DE010E949F1BDC01CB0129E06F
:10151000B595A795979587952A95D1F71092900044
:101520002AE020939100D0929900C0929800809375
:101530004D0290934E02A0934F02B09350028091BF
:1015400071008260809371008DCF10924B02B0CFFA
:101550009E0150E040E060E472E48FE090E00E9481
:101560004B1B69017A0181E0C81AD108E108F10832
:1015700010924C02AECF4699BFCF479ABECF8FEFA5
:101580009FEFDC01CBCF9C01E1E7F0E090819D7FF4
:10159000908310924A02ECE2F7E0F0934902E09364
:1015A0004802F0934602E09345023183208373831F
:1015B000628380E090E8958384830C941B0A2D9AC3
:1015C0000895BC0190E080E00C944F098FB18095A4
:1015D000807F669B88601C9B846008953E9A3F9A3A
:1015E00081E080934202089580E0ECEDF2E0811109
:1015F0008FEF002481938193819381930394D1F79A
:101600001092B3021092B2021092B5021092B4027C
:10161000089590914102982329F0909140029823D7
:1016200081E009F080E0089590914102982329F427
:1016300090914002982381E009F480E00895809120
:101640004002809341020E94E60A8093400208957E
:10165000CF93C82F0E94E60A982F9C2381E09C1309
:1016600080E0CF91089580E00C94A9068038910520
:10167000B8F460347105A0F420E191E061FD94E0DC
:1016800060FD990F62FD9295687F269FD00111241D
:10169000A80FA452BD4F8C9140FF03C0892B8C939F
:1016A000089590958923FBCF2F923F924F925F929E
:1016B0006F927F928F929F92AF92BF92CF92DF9262
:1016C000EF92FF920F931F93CF93DF93CDB7DEB7C7
:1016D00029970FB6F894DEBF0FBECDBF6D30F9F479
:1016E00080915F02811136C081E090E029960FB6AB
:1016F000F894DEBF0FBECDBFDF91CF911F910F9148
:10170000FF90EF90DF90CF90BF90AF909F908F9021
:101710007F906F905F904F903F902F9008956A3028
:10172000C9F480915F02811115C01092B502109228
:10173000B4028091380198E0899F90011124809132
:10174000B2029091B302820F931F9093B3028093E1
:10175000B202CACF20903801E0915602EA83F0919C
:101760000001FB832091B2022E838091B3028F830C
:101770004090B4025090B50225E0629FF001112420
:10178000E455FF4FF987E887622C712C4201312C18
:1017900085E0B12C381641F0888599850196E88559
:1017A000F985B490998788870E811F81F8E0F983C5
:1017B000B0FC1CC02A818B81A22E281318C0B694BD
:1017C000898181508983060D171D8111F1CF3394D2
:1017D000860C971C96E03912DBCF239C400C511CE1
:1017E00011245092B5024092B4027ECFAB80F12C0E
:1017F000E12CE21420F7F401EE0DFF1DFD83EC83D4
:10180000D12CC12CC21460F4B8016C0D7D1D4A2D81
:101810008C819D810E94360BFFEFCF1ADF0AF2CF39
:101820002FEFE21AF20AE5CF2F923F924F925F928A
:101830006F927F928F929F92AF92BF92CF92DF92E0
:10184000EF92FF920F931F93CF93DF9300D01F92DD
:10185000CDB7DEB79B838A837B016A010983890147
:10186000061B170B17FF03C01195019511094601BF
:101870008A819B81881A990A97FE03C0919481946A
:101880009108801691065CF49C2D8D2D6901292FFD
:10189000382F9A818B81FB82EA82E92EF82E8A8189
:1018A0009B81C816D9065CF49E2D8F2D7901292FB6
:1018B000382F9A818B81DB82CA82C92ED82E1601DD
:1018C0008A819B81281A390A29014E185F0857FE20
:1018D00003C0519441945108310137FE03C09FEF7A
:1018E000691A790A759467948FEFE216F3060CF47F
:1018F00081E0A82E880FBB088A819B81C816D90673
:10190000CCF04981BC01C701801691061CF0B701DB
:101910008A819B810E94360B6418750877FE04C08B
:10192000EA0CFB1C620C731C8A819B8101969B83D1
:101930008A83E2CF0F900F900F90DF91CF911F918C
:101940000F91FF90EF90DF90CF90BF90AF909F905E
:101950008F907F906F905F904F903F902F90089561
:10196000089590E080E008958F929F92AF92BF9289
:101970000F931F93CF93DF93CDB7DEB7A1970FB629
:10198000F894DEBF0FBECDBF19A2423008F44AE082
:101990008E010F5D1F4F842E912CB12CA12CA5011F
:1019A00094010E947D1BE62FB901CA01EA3044F57B
:1019B000E05DD801EE938D01232B242B252B79F7A5
:1019C00090E080E0109769F0FD0101900020E9F7B8
:1019D0003197AF014A1B5B0BBD0183E497E00E9486
:1019E000FD08A1960FB6F894DEBF0FBECDBFDF9104
:1019F000CF911F910F91BF90AF909F908F900895BE
:101A0000E95CD7CFCF92DF92EF92FF92CF93DF9333
:101A10006B017C016DE283E497E00E94540BEC01C2
:101A200066277727CB016C197D098E099F094AE04B
:101A30000E94B40C8C0F9D1FDF91CF91FF90EF900F
:101A4000DF90CF900895FC0101900020E9F73197D5
:101A5000AF01481B590BBC0183E497E00C94FD08CF
:101A600097FD0C94020D4AE00C94B40C0C94351BB9
:101A700082E090E00E94360D81110C94EE0A1092E3
:101A800042023E983F9808951F920F920FB60F9210
:101A900011248F939F938091E1009091E100937FB7
:101AA0009093E10083FF0FC01092E90091E09093C2
:101AB000EB001092EC0092E39093ED001092DB02A9
:101AC00098E09093F00082FF22C093E09093E900A9
:101AD0009091F200992319F09AE39093E800909185
:101AE000CC02992341F09091CC0291509093CC027A
:101AF000911101C05D9A9091DA02992341F0909181
:101B0000DA0291509093DA02911101C0289A84FF71
:101B100018C08091E2008E7E81608093E200809107
:101B2000E1008F7E8093E1008091CD028E7E806106
:101B30008093CD029F918F910F900FBE0F901F90B9
:101B4000189580FFF7CF8091E2008E7E80618093B0
:101B5000E2008091E1008E7E8093E1008091CD02D1
:101B60008E7E8160E5CF1F920F920FB60F921124E7
:101B7000CF92DF92EF92FF920F931F932F933F9399
:101B80004F935F936F937F938F939F93AF93BF9385
:101B9000EF93FF93CF93DF93CDB7DEB76C97DEBFA4
:101BA000CDBF1092E9008091E80083FF25C068E076
:101BB000CE0145960E94F00882EF8093E8008D895F
:101BC00087FF39C09091E80090FFFCCF982F907666
:101BD00009F034C19E894F89588D2F89F88C911155
:101BE00031C0803861F58091CB028093F100109272
:101BF000F1008EEF8093E8006C960FB6F894DEBF8C
:101C00000FBECDBFDF91CF91FF91EF91BF91AF910B
:101C10009F918F917F916F915F914F913F912F9104
:101C20001F910F91FF90EF90DF90CF900F900FBE1C
:101C30000F901F9018959EEF9093E800C7CF1092D9
:101C4000F100D5CF913059F48111D3CF41305105F6
:101C500081F68091CB028D7F8093CB02CACF9330E7
:101C600049F48111C6CF4130510519F68091CB025C
:101C70008260F2CF953041F48091E80080FFFCCF84
:101C800020682093E300B5CF963009F0A9C00B8DF2
:101C90001C8D22E01092E9001092C9021092C80235
:101CA000F2122EC01092C7021092C6020E94BF0804
:101CB0001F8299E09983FA8291E09E8390EA988747
:101CC0009AEF99872091C8023091C902275F3F4F50
:101CD0003C832B838D831092E9001092C9021092ED
:101CE000C8021093C7020093C60249E050E0BE014B
:101CF0006F5F7F4F80E00E9499080E94BF0879CFF4
:101D00001093C7020093C6020E94D607DC01129608
:101D10000D911C910115110509F451C1D801ED91E6
:101D2000FC910480F581E02DBE016B5E7F4FC80100
:101D30000995009709F03EC1F80100851185EACFA9
:101D4000F3E0FF120EC08F89882309F440C082306F
:101D500061F440E860E185EE9CE00E949010811102
:101D600048CF81E28093EB0047CF813029F440E8EF
:101D70006BE089ED9CE0F1CF833099F70E94D607A4
:101D8000DC011296ED90FC908E010F5F1F4F6801F1
:101D9000E114F10479F0D701ED91FC910680F7810F
:101DA000E02DB801C7010995080F111DF701E08466
:101DB000F184EECFD8011C92F60101900020E9F7E2
:101DC0003197BF016C197D0940E0C601C6CF63ECB5
:101DD0007CE0FB01449150E080E80E94990809CF23
:101DE000973009F4BECF983021F481E08093F10060
:101DF00000CF993009F0FDCE837009F0B2CFEBE748
:101E0000F1E081E031E096E32191222371F08093AB
:101E1000E9003093EB00DF0111972C912093EC0047
:101E20009093ED008F5F873079F78EE78093EA001B
:101E30001092EA008F898093DB02DBCE8B8D9C8D24
:101E40001092E9001092C9021092C8029093C70242
:101E50008093C602898D811192C08E899D89913AA5
:101E600049F4813209F07DCF47E050E063E571E04D
:101E700080E0B3CF913209F074CF833269F48F8957
:101E8000988DB0E0A0E080934F0190935001A09313
:101E90005101B0935201ADCE803269F48091E800D7
:101EA00082FFFCCF67E083E591E00E94F0088BEFB2
:101EB0008093E8009ECE823209F09BCE8F8980937A
:101EC0005A01EEEFFFE7859194918B3F9C4D51F1C4
:101ED000E0E0F8E08091530190915401A091550108
:101EE000B0915601803B9440A105B105F1F4809179
:101EF0005A0180FD1AC0EE3F8AE0F80789F587E7AE
:101F000097E791838083809160008093CA0288E183
:101F10009BE00FB6F894A895809360000FBE909355
:101F2000600067CEEEEFFAE0D5CF808191818737F0
:101F3000974709F05ECEA8958091600088618093F4
:101F400060008091CA0280936000EE3F2AE0F207B1
:101F500089F08091FE0A9091FF0A9183808349CE97
:101F6000808191818737980751F29093FF0A80937F
:101F7000FE0AC5CF1092FF0A1092FE0A3ACE0E94C6
:101F8000D607DC0112960D911C910115110509F47B
:101F9000E8CED801ED91FC910190F081E02DBE01D9
:101FA0006B5E7F4FC8010995811123CEF801008532
:101FB0001185EBCF181619060CF41BCED2CEF1E02A
:101FC000FF12BECE67EC7CE004CF1F920F920FB6DB
:101FD0000F9211242F933F938F939F93AF93BF93AF
:101FE0008091590290915A02A0915B02B0915C02DB
:101FF0003091510223E0230F2D3758F50196A11D92
:10200000B11D209351028093590290935A02A093DC
:102010005B02B0935C028091520290915302A091B6
:102020005402B09155020196A11DB11D8093520238
:1020300090935302A0935402B0935502BF91AF9175
:102040009F918F913F912F910F900FBE0F901F90F6
:10205000189526E8230F0296A11DB11DD2CF1F921D
:102060000F920FB60F9211242F933F934F935F93CC
:102070006F937F938F939F93AF93BF93EF93FF9350
:1020800080914D0290914E02A0914F02B09150026A
:10209000892B8A2B8B2B09F440C080914C02811133
:1020A0000BC088B190E4892788B980914B028823BE
:1020B00019F088B1805888B980914D0290914E02F4
:1020C000A0914F02B0915002181619061A061B066D
:1020D0009CF480914D0290914E02A0914F02B091DC
:1020E00050020197A109B10980934D0290934E02CD
:1020F000A0934F02B0935002FF91EF91BF91AF9127
:102100009F918F917F916F915F914F913F912F910F
:102110000F900FBE0F901F9018950E941B0AECCFD6
:10212000EF92FF920F931F93CF93DF93F82E192F07
:10213000E62E042F81E0860F880F0E946B0883E053
:102140000E946B08CF2DD12FEC0EFD2EF11CCE1569
:10215000DF05B9F007FF13C0FE0184910E946B08F0
:10216000182F80E00E946B08812321968111EFCF08
:10217000DF91CF911F910F91FF90EF90089588818B
:10218000EDCF81E0F5CFECEDF6E01382128288EE20
:1021900093E0A0E0B0E084839583A683B78385E8CD
:1021A00091E0918380838FEF9FEF95878487E3E4AD
:1021B000F7E01382128287E991E09183808386EAB7
:1021C00096E090933B0780933A0780E090E89093E5
:1021D00039078093380746983E9A47983F9AE0918E
:1021E0004207F0E0EE0FFF1FE45AFE4F808191811D
:1021F000909341078093400780915B01282F30E046
:1022000030933F0720933E0780933D0780933C0720
:102210000895789484B5826084BD84B5816084BD5E
:1022200085B5826085BD85B5816085BD80916E0074
:10223000816080936E0010928100809181008260A5
:1022400080938100809181008160809381008091E2
:1022500080008160809380008091910082608093F3
:102260009100809191008160809391008091900015
:102270008160809390008091C10084608093C10050
:102280008091C10082608093C1008091C100816013
:102290008093C1008091C30081608093C3008091CE
:1022A000C00082608093C0008091C20081608093F2
:1022B000C20080917A00846080937A0080917A00D5
:1022C000826080937A0080917A00816080937A00A6
:1022D00080917A00806880937A001092DB021092DD
:1022E000CB021092CD028091D70081608093D700FD
:1022F00080EA8093D80089B5806189BD89B5826004
:1023000089BD09B400FEFDCF61E070E080E090E09F
:102310000E944F098091D8008F7C80618093D80003
:102320008091E000807F8093E0008091E1008E7ECC
:102330008093E1008DE08093E200559A209A81EC31
:1023400080937C0085B1806F85B984B1877E84B924
:1023500084B1876E84B95E9A5F988AB1806D8AB9BC
:10236000769A6E9881B3806F81BB899880B38D70A7
:1023700080BB80E58CBD81E08DBD85E090E00E9452
:10238000E10A5F9A85E090E00E94E10A5E985C981D
:10239000ECE5F6E084918EBD00000DB407FEFDCFA4
:1023A000319626E0E936F207A9F75C9A81E8809336
:1023B0006400809165008160809365000E94330B0A
:1023C00080E80E94280B8823A9F05C9885EA8EBDDE
:1023D00000000DB407FEFDCF5C9A2E982F982D9823
:1023E0008091640080628093640081E083BF88955F
:1023F00013BEFCCF84E00E94280B882309F448C058
:102400002D9884E80E94280B8823E1F00E94DF0ABF
:1024100088EC90E00E94E10A2F9882E090E00E9410
:10242000351B8F3F29F06FEF82E090E00E943D1B4B
:1024300084EF91E00E94E10A2F9A84E80E94280B21
:102440008111FBCF84E10E94280B8823E1F00E94D8
:10245000DF0A88EC90E00E94E10A2E9882E090E08A
:102460000E94351B882329F060E082E090E00E9402
:102470003D1B84EF91E00E94E10A2E9A84E10E94C4
:10248000280B8111FBCF88EC90E00E94E10AB2CFCB
:102490000E94DF0A0E94380D81E090E00E94360D14
:1024A000382F3470732E81FF13C031112E98C1EF75
:1024B000DFEF08E010E06CE6E62EF12C80E40E94ED
:1024C000280B882309F437C22E9A2F9A0E94DF0A1C
:1024D00082E390E00E94E10A0E94E60A8111F8CFAF
:1024E00081E28093020181E0809300018093560293
:1024F0000E94380D0E94EE0A66246394712C80912C
:102500004E01813009F03FC31AE05EE1E52EF12C67
:10251000CCE0D0E06AE0262E312C74E1472E512C1D
:10252000E0E38E2E912CF8E2AF2EB12CA2E3CA2E5E
:10253000D12C0E941F0B0E94F40AF092B502E09287
:10254000B4021092B3021092B2028FE991E00E949D
:10255000230D01E028E030E040E850E068E070E062
:1025600090E080E00E94140C24E030E03093B5024B
:102570002093B402812F90E09093B3028093B20233
:102580008DEA91E00E94230DD093B502C093B4026E
:102590003092B3022092B2028FEA91E00E94230DA2
:1025A0004AE250E05093B5024093B4023092B30235
:1025B0002092B20280910101882309F47AC285EB4E
:1025C00091E00E94230DD093B502C093B4025092C3
:1025D000B3024092B20285E292E00E94230D9092F3
:1025E000B5028092B4025092B3024092B20260915E
:1025F000580270E090E080E04AE00E94B40CD09372
:10260000B502C093B402F092B302E092B20286EC3B
:1026100091E00E94230D9092B5028092B402F09254
:10262000B302E092B20260915B0170E090E080E062
:102630004AE00E94B40CD093B502C093B402B092A9
:10264000B302A092B2028DEC91E00E94230D8CE6C1
:1026500090E09093B5028093B402B092B302A0923E
:10266000B2028091BA02882309F426C28EED91E06D
:102670000E94230DD093B502C093B402D092B3024E
:10268000C092B20285EE91E00E94230DAAE5B0E06F
:10269000B093B502A093B402D092B302C092B2023A
:1026A00080915702882309F40AC28EED91E00E94BE
:1026B000230D80E80E94140B882321F01A501A3051
:1026C00008F412E380E10E94140B882321F0165FC6
:1026D000133308F01AE080E40E94140B882359F0A9
:1026E0001E3109F40DC208F0EDC11A3009F4F6C12B
:1026F000143109F4FAC180E20E94140B882359F0C6
:102700001E3109F42BC208F00CC21A3009F415C2AC
:10271000143109F419C288E00E94140B882309F4CB
:102720002FC280915802809317010E94330B2FB75C
:10273000F8946091590270915A0280915B029091D5
:102740005C022FBF611571058105910511F00E9492
:102750002C1BCCE1D1E02CE2E22E21E0F22E05E0B0
:1027600011E038E2C32E31E0D32E44E0842E912CC8
:10277000A12CB12C0E94DD1A2BE630E040E050E0A5
:102780000E944B1B699379930E94DD1A27E030E089
:1027900040E050E00E944B1B6F5F7F4F8F4F9F4F79
:1027A000F701619371937F010E94DD1AA5019401E5
:1027B0000E944B1BD8016D938D01CC16DD06D1F61E
:1027C000C2E6D2E00AE812E095E0C92ED12CE12C55
:1027D000F12C0E94DD1A2BE630E040E050E00E9430
:1027E0004B1B699379930E94DD1AA70196010E9401
:1027F0004B1B6E5F7F4F8F4F9F4FF801619371931B
:102800008F01F2E0CA38DF0721F786E080933901B3
:102810001092C5021092C40220915B01822F90E0B9
:1028200090933F0780933E0720933D0720933C07FA
:102830008FE390E090933D0180933C018AE290E029
:1028400090933F0180933E0185E190E09093410198
:102850008093400110924301109242018BEE9FEF52
:10286000909345018093440186ED9FEF909347013B
:102870008093460181EC9FEF90934901809348013A
:102880008CEA9FEF90934B0180934A0187E99FEF79
:1028900090934D0180934C018FE290E090935D0105
:1028A00080935C012AE130E030935F0120935E0168
:1028B00025E030E0309361012093600120EF3FEF8D
:1028C00030936301209362012BED3FEF309365015C
:1028D0002093640126EC3FEF30936701209366015B
:1028E00021EB3FEF30936901209368012CE93FEF22
:1028F00030936B0120936A0127E83FEF30936D011D
:1029000020936C011092C2021092420728E330E03B
:102910003093BC022093BB02909341078093400701
:1029200082E080934E0180E090E0892B09F4E7CDAE
:102930000E940000E4CD772029F0C430D10511F4C5
:102940002E9A2F9881E00E94A9069E01D7FF04C00D
:10295000222733272C1B3D0B27703327CE01D7FDB1
:10296000079653E0959587955A95E1F7D7FF05C0EF
:102970000197A801421B530B9A01BC017695762F53
:1029800066277795679564527D4FB0E0A0E02801F7
:10299000421A530A8E3F5FEF950709F43CC048E5A1
:1029A00050E0FD01EC5FF94F5F014B01F0E88F0E45
:1029B000911C8F3F9807A1F0F501E41BF50BE49102
:1029C0006701C41AD50AC60ED71EF0E01F01022EF9
:1029D00001C0220C0A94EAF7F601608026282082C2
:1029E00021153105A9F0F501E41BF50BE491670110
:1029F000C41AD50AC80CD91CF0E01F01042C02C06F
:102A0000359427940A94E2F7F60160802628208204
:102A10004150510971F60196A85ABF4F60587F4F37
:102A2000A03BB10509F0B6CF0E94330B8FE090E0D8
:102A30000E94E10A2196C931D10509F03FCD7720E6
:102A400011F02F9A2D9880E991E00E94E10A0E94EE
:102A5000DF0A81E090E00E94360D80FF39CD8AE0E8
:102A600090E00E94360D9FEF980F9E3F08F030CD0A
:102A700022E330E03093B5022093B40228E330E043
:102A80003093B3022093B202CBE0D0E0682F83E40E
:102A900097E00E94540BCE010E94360D2196C13161
:102AA000D105A1F70E94330B88EE93E00E94E10A62
:102AB0000FCD8DEB91E085CD82EE91E0D9CD82EE08
:102AC00091E0F5CD183231F1123309F014CE809136
:102AD000570291E08927809357020DCE8091010122
:102AE00091E089278093010106CE809158028F5F83
:102AF000853118F480935802FECD10925802FBCD18
:102B000080915B018F5F863018F480935B01F3CD79
:102B100081E0FBCF8091BA0291E089278093BA02CD
:102B2000EACD183231F1123309F0F5CD8091570218
:102B300091E0892780935702EECD8091010191E0C9
:102B4000892780930101E7CD80915802815018F0C8
:102B500080935802E0CD10935802DDCD80915B0147
:102B6000815019F080935B01D6CDB5E0B0935B0145
:102B7000D2CD8091BA0291E089278093BA02CBCD61
:102B80000E94330BD6CC8330C1F5C6E0D0E00AE01A
:102B900010E00E941F0B0E94F40AD093B502C0936C
:102BA000B4021092B3021092B20283EF91E00E943D
:102BB000230DD093B502C093B4021093B3020093D7
:102BC000B2026091C4027091C502072E000C880BFE
:102BD000990B97FF0BC00E94020D88E00E94140B16
:102BE000882341F00E94330B81E09BCE4AE00E9493
:102BF000B40CF3CF0E94330BCCCF843009F092C0D9
:102C0000C6E0D0E014E1E12EF12C04E2C02ED12C7C
:102C10000EE110E08AE2A82EB12C0E941F0B0E9448
:102C2000F40AD093B502C093B4021092B30210928A
:102C3000B2028DEF91E00E94230DD093B502C093B4
:102C4000B402F092B302E092B20283E192E00E94F9
:102C5000230DD092B502C092B402F092B302E0927A
:102C6000B2026091C4027091C502072E000C880B5D
:102C7000990B0E94300DD093B502C093B40210930B
:102C8000B3020093B20289E192E00E94230DB09258
:102C9000B502A092B402F092B302E092B20260E0F8
:102CA00070E0CB010E94300D80915802843148F5CC
:102CB0008F5F80935802D093B502C093B4021093F3
:102CC000B3020093B20280E292E00E94230D48E436
:102CD00050E05093B5024093B4021093B3020093B6
:102CE000B2026091580270E090E080E04AE00E94F9
:102CF000B40C88E00E94140B811174CF0E94330B36
:102D00008CCF8FE090E09093B5028093B402109343
:102D1000B3020093B2028CE292E00E94230D109263
:102D20005802E7CF823009F0FECD8FB7F89440917A
:102D3000590250915A0260915B0270915C028FBF00
:102D400080915D02882319F010925D02ECCD809194
:102D50005E02942F981B892F90910201891748F4E5
:102D60008F5F891708F0DFCD81E083BF889513BEA0
:102D7000DACD81E080935D0240935E02C091B8029B
:102D8000D091B9022196D093B902C093B802CE0176
:102D90006EE170E00E94AE1B892B49F48091C40261
:102DA0009091C50201969093C5028093C402CE0112
:102DB0006CE370E00E94AE1B892B19F483E68093CC
:102DC000C3020E941F0B8091C1028823B1F1809140
:102DD0004007909141072091BD023091BE028217B9
:102DE00093070CF0E4C02A31310509F00DC12091A0
:102DF0004207273008F008C103969093410780935B
:102E00004007ECE3F1E04CE551E0819191919F01A5
:102E1000225031090396D9018D939C93DA018D914B
:102E20009D91AD019D01225031090396D9018D93E9
:102E30009C93B1E0EE34FB0741F70E94F40A6091E5
:102E40003B0170E0CE010E94AE1B892B69F480919A
:102E5000BF029091C0020196843091050CF0D7C05A
:102E60009093C0028093BF02CE0165E070E00E94A3
:102E7000AE1B892B69F48091B6029091B70201963E
:102E8000843091050CF0C8C09093B7028093B602CD
:102E9000CCE3EC2EC1E0FC2EE7016991799101E0D1
:102EA0009B0140E850E090E080E00E94140CB1E00B
:102EB000CE34DB0791F7812C912C5401C1E0F7014E
:102EC000819191917F011092B5021092B40290937A
:102ED000B3028093B202C0933801C501B4010E94CD
:102EE000300DFFEF8F1A9F0AAF0ABF0A29E0821642
:102EF0009104A104B10419F7E8E2CE2EE1E0DE2E40
:102F0000F8E12F2EF1E03F2EA2E74A2EA1E05A2E43
:102F10007101B0E88B2E912C20913A01C2018257A9
:102F200091402817190611F00CF07BC002E612E060
:102F3000CAE8D2E053E0A52E51E0B52E62E8562E45
:102F400070E8872E912C20911701C5018350914084
:102F50002817190609F00CF4CDC0D5014D915D017B
:102F6000E880F980F801C080D180459DA00111243E
:102F70004759594FF701EE0FFF1FE45AFE4F60818A
:102F800071812091B602C6010E94B80680913C076B
:102F9000C81AD108F0EFCF16FFEFDF060CF49AC085
:102FA000D801CD92DC920E5F1F4F2296CCCF28170E
:102FB000390754F52A31310539F52091420722238A
:102FC00019F103979093410780934007ECE3F1E0F8
:102FD0006CE571E02EE431E081919191AF014250B6
:102FE00051090397DA018D939C93DB018D919D919B
:102FF000BD01AD01425051090397DA018D939C93B5
:103000002E173F0749F719CF1092C10216CF109221
:10301000C0021092BF0228CF1092B7021092B602DF
:1030200037CFD601CD91DC91FE01EE0FFF1FE45C9E
:10303000FE4F60817181F701A080B180A5014C5ED7
:103040005F4F00E09B01C5010E94140CD2018D91DD
:103050002D01811122C080913D07A81AB108BCEE54
:10306000AB16BFEFBB0624F0F701B182A0820AC005
:10307000D7018D929C92C830D1055CF42196F6015F
:10308000D183C08332E0C30ED11C42E0E40EF11CB8
:1030900043CFD6016D927C92F5CF813099F7809124
:1030A0003D07A80EB11CB1E8AB16B104ECF2ECEE92
:1030B000FFEFD701ED93FC93C230D1052CF021979F
:1030C000D601CD93DC93DECF28E030E0F6013183EA
:1030D0002083D8CFF80191828082F7E0EF16F104C7
:1030E00034F42FEFE21AF20AF982E8825CCF798297
:1030F000688259CF8091C2028350823008F464C044
:103100008091C102811160C010926102D0E0C0E0E4
:1031100011E080913A018C171D06F1F1ECF18091DC
:10312000C3028C171D06B1F1CE01880F991FFC0157
:10313000E85EFE4F208131814091BB025091BC027C
:10314000421753073CF1495F5F4F255F3F4F4217DE
:10315000530704F5885D9E4FDC01ED91FC91EE0F65
:10316000FF1FE45CFE4F20813181809140079091E8
:103170004107AC014F5E5F4F241735075CF42817F9
:10318000390744F01093610268EC70E088E592E042
:103190000E94C30A2196BDCF809161028823A1F0CD
:1031A00084E08093C2021092C0021092BF0280910C
:1031B00042078150809342078091400790914107D8
:1031C0009093BE028093BD02E091C202E73078F492
:1031D000F0E0E351F74E0C94C21BF4187D19661908
:1031E0008D19BA19E119E3198EE180933B018091A1
:1031F000C2029DEF980F923008F43BC1C091C1020A
:10320000C11137C1863009F434C180E20E94280B15
:10321000882319F082E08093C20280E20E94090BA9
:1032200081111092C20280E40E94280B882319F0B9
:1032300081E08093C20280E40E94090B8111109208
:10324000C20288E00E94140B882309F412C1409145
:10325000400750914107A0913A01EA2EF12C60916C
:10326000BB027091BC028B010A5F1F4F665F7F4FEC
:103270009091C30230E020E02E153F050CF0E2C033
:10328000D101ED91FD911D01E617F707E4F4749665
:103290000E171F07C4F4F901EE0FFF1FE85DFE4F84
:1032A0000190F081E02DEE0FFF1FE45CFE4F0190D6
:1032B000F081E02D4E175F0734F036964E175F070A
:1032C00014F4922FC82F2F5F3F4FD6CF8091BB02AF
:1032D0009091BC0220913E0730913F07821B930BD7
:1032E000803FBFEF9B0734F09093BC028093BB02FA
:1032F00083E07BCF80E890E0F7CF8091BB02909194
:10330000BC0220913E0730913F07820F931F813806
:10331000910554F380EF9FEFE7CF85E080933B0169
:10332000409142078091400790914107E42FF0E0DF
:10333000EE0FFF1FE45AFE4F208131812817390715
:1033400034F40397909341078093400750CF81E076
:103350008093C1021092C20280913A01883018F421
:103360008F5F80933A01483008F4D8C084E080939E
:103370004E013DCF85E080933B0140914207809113
:10338000400790914107E42FF0E0EE0FFF1FE45A51
:10339000FE4F208131818217930714F40396D2CF18
:1033A0008091BA0291E09093C102811107C041114E
:1033B00005C0809139018150809339011092C20279
:1033C00016CF81E012CF8091B8029091B90267E0E8
:1033D00070E00E94AE1B892B09F0A0C062E370E090
:1033E00084E690E00E94C30A8091400790914107D3
:1033F000029790934107809340072091BF0230913C
:10340000C0022330310534F42F5F3F4F3093C002A8
:103410002093BF022091BD023091BE02A901465007
:1034200051098417950709F0E2CE8091BA023093D2
:103430004107209340078111C1CF8091420781113C
:10344000BDCFB7CFC09360029093C302CC2309F4E1
:1034500054C083E08093C2021092C0021092BF0257
:10346000809142078F5F809342075093BE02409342
:10347000BD0280E10E94280B84E00E94280B40914D
:10348000C202B2E84B9FA00111244D50574F6091EA
:103490004007709141072091BF028091BB0290913B
:1034A000BC020E94B8068091BA02811134C080919A
:1034B0003901811103C083E080934E0181E0809344
:1034C0005F0210E000E0D0E0C0E0809139018C178D
:1034D0001D06F9F0F4F01093B5020093B402E8E38E
:1034E000F0E0F093B302E093B2028DE392E00E9429
:1034F000230D2196095F1F4FE8CF5093BE024093E2
:10350000BD021092C0021092BF0286E08093C202F8
:10351000B0CF10925F020E94330B05CA8091C202A5
:103520006DCE8F929F92AF92BF92CF92DF92EF9229
:10353000FF92CF93DF93EC01688179818A819B812F
:10354000611571058105910521F464E279ED8BE542
:1035500097E02DE133EF41E050E00E944B1B490121
:103560005A019B01AC01A7EAB1E40E946A1B6B01FE
:103570007C01ACEEB4EFA50194010E94781BC60E4D
:10358000D71EE81EF91EF7FE06C081E0C81AD10852
:10359000E10880E8F80AC882D982EA82FB82C70182
:1035A000B6019F77DF91CF91FF90EF90DF90CF90A2
:1035B000BF90AF909F908F9008958F929F92AF92FF
:1035C000BF92CF92DF92EF92FF9260916E01709165
:1035D0006F018091700190917101611571058105F4
:1035E000910521F464E279ED8BE597E02DE133EF6D
:1035F00041E050E00E944B1B49015A019B01AC0184
:10360000A7EAB1E40E946A1B6B017C01ACEEB4EF47
:10361000A50194010E94781BC60ED71EE81EF91E54
:10362000F7FE06C081E0C81AD108E10880E8F80A70
:10363000C0926E01D0926F01E0927001F092710120
:10364000C701B6019F77FF90EF90DF90CF90BF90BA
:10365000AF909F908F90089560936E0170936F016B
:1036600080937001909371010895F999FECF92BDF6
:1036700081BDF89A992780B50895262FF999FECF34
:103680001FBA92BD81BD20BD0FB6F894FA9AF99A7F
:103690000FBE01960895052E97FB1EF400940E941C
:1036A000621B57FD07D00E947D1B07FC03D04EF420
:1036B0000C94621B50954095309521953F4F4F4F8C
:1036C0005F4F089590958095709561957F4F8F4FCE
:1036D0009F4F08950E949F1BA59F900DB49F900D32
:1036E000A49F800D911D11240895B7FF0C946A1BAF
:1036F0000E946A1B821B930B0895A1E21A2EAA1B3B
:10370000BB1BFD010DC0AA1FBB1FEE1FFF1FA21791
:10371000B307E407F50720F0A21BB30BE40BF50B8E
:10372000661F771F881F991F1A9469F76095709517
:10373000809590959B01AC01BD01CF010895A29F9A
:10374000B001B39FC001A39F700D811D1124911D75
:10375000B29F700D811D1124911D0895AA1BBB1BE2
:1037600051E107C0AA1FBB1FA617B70710F0A61B81
:10377000B70B881F991F5A95A9F780959095BC01A2
:10378000CD010895EE0FFF1F0590F491E02D0994EF
:04379000F894FFCFDB
:103794000101100001020304000000000000000009
:1037A40000000000000000052000400000000000B0
:1037B40000000000000000000400050000000000FC
:1037C40000000000000000000106020A3F002A0079
:1037D40015000000EBFFD6FFC1FFACFF97FF01FF10
:1037E400FFFFFF00E1000000000000022F001A00AC
:1037F4000500F0FFDBFFC6FFB1FF9CFF87FF010060
:103804000000000101010100000000C180810000EE
:103814000000000000EA0782090B08000851080FA5
:10382400082D0800000000540BFD08B10CB00C4733
:10383400414D452053455454494E4753003E00548E
:103844007970653A00436C617373696300457874F9
:10385400656E6465640053706565643A00556E6C0A
:10386400696D69746564204C697665733A005965BD
:1038740073004E6F00496E7669736962696C69748E
:10388400793A0047414D45204F56455200212121A8
:103894004C6556654C20436F4D704C65546544210E
:1038A40021210054494D453A0046414C4C533A00BD
:1038B4004E657874204C6576656C3A00434F4E47EC
:1038C400524154554C4154494F4E5321000300007A
:00000001FF
