:100000000C9437050C945F050C945F050C945F0508
:100010000C945F050C945F050C945F050C945F05D0
:100020000C945F050C945F050C94B70A0C94260B96
:100030000C945F050C945F050C945F050C945F05B0
:100040000C945F050C945F050C945F050C945F05A0
:100050000C945F050C945F050C945F050C94580D8F
:100060000C945F050C945F050C945F050C945F0580
:100070000C945F050C945F050C945F050C945F0570
:100080000C94A20D0C945F050C945F050C945F0515
:100090000C945F050C945F050C945F050C945F0550
:1000A0000C945F050C945F050C945F050000000044
:1000B000003E5B4F5B3E3E6B4F6B3E1C3E7C3E1CEE
:1000C000183C7E3C181C577D571C1C5E7F5E1C0034
:1000D000183C1800FFE7C3E7FF0018241800FFE7EB
:1000E000DBE7FF30483A060E2629792926407F05AE
:1000F0000507407F05253F5A3CE73C5A7F3E1C1CC4
:1001000008081C1C3E7F14227F22145F5F005F5F83
:1001100006097F017F006689956A6060606060946F
:10012000A2FFA29408047E040810207E2010080874
:100130002A1C08081C2A08081E101010100C1E0C7F
:100140001E0C30383E3830060E3E0E060000000011
:100150000000005F00000007000700147F147F14F8
:10016000242A7F2A1223130864623649562050003D
:1001700008070300001C2241000041221C002A1C29
:100180007F1C2A08083E0808008070300008080814
:100190000808000060600020100804023E51494534
:1001A0003E00427F400072494949462141494D3352
:1001B0001814127F1027454545393C4A49493141B9
:1001C000211109073649494936464949291E000087
:1001D00014000000403400000008142241141414DC
:1001E0001414004122140802015909063E415D59C8
:1001F0004E7C1211127C7F494949363E41414122D1
:100200007F4141413E7F494949417F090909013EFA
:10021000414151737F0808087F00417F4100204021
:10022000413F017F081422417F404040407F021C33
:10023000027F7F0408107F3E4141413E7F0909094A
:10024000063E4151215E7F09192946264949493216
:1002500003017F01033F4040403F1F2040201F3FDC
:100260004038403F63140814630304780403615961
:10027000494D43007F4141410204081020004141A3
:10028000417F04020102044040404040000307084F
:100290000020545478407F2844443838444444284B
:1002A000384444287F385454541800087E090218F2
:1002B000A4A49C787F0804047800447D400020407A
:1002C000403D007F1028440000417F40007C0478BE
:1002D00004787C080404783844444438FC18242406
:1002E0001818242418FC7C08040408485454542486
:1002F00004043F44243C4040207C1C2040201C3C03
:100300004030403C44281028444C9090907C4464F9
:10031000544C44000836410000007700000041368C
:10032000080002010204023C2623263C1EA1A16112
:10033000123A4040207A3854545559215555794144
:100340002154547841215554784020545579400C1B
:100350001E527212395555555939545454593955FC
:100360005454580000457C410002457D420001453F
:100370007C40F0292429F0F0282528F07C545545AC
:10038000002054547C547C0A097F4932494949323F
:100390003248484832324A4848303A4141217A3A54
:1003A00042402078009DA0A07D39444444393D401E
:1003B00040403D3C24FF2424487E4943662B2FFCCB
:1003C0002F2BFF0929F620C0887E09032054547979
:1003D000410000447D413048484A32384040227A4A
:1003E000007A0A0A727D0D19317D2629292F2826C7
:1003F0002929292630484D402038080808080808CF
:100400000808382F10C8ACBA2F102834FA00007B27
:10041000000008142A142222142A1408950022002D
:1004200095AA005500AAAA55AA55AA000000FF00E7
:10043000101010FF00141414FF001010FF00FF1024
:1004400010F010F0141414FC001414F700FF000056
:10045000FF00FF1414F404FC141417101F10101FD5
:10046000101F1414141F00101010F0000000001FC3
:10047000101010101F10101010F010000000FF10CE
:100480001010101010101010FF10000000FF1400CA
:1004900000FF00FF00001F10170000FC04F41414FC
:1004A0001710171414F404F40000FF00F7141414C8
:1004B00014141414F700F7141414171410101F1048
:1004C0001F141414F4141010F010F000001F101F6B
:1004D0000000001F14000000FC140000F010F010D9
:1004E00010FF10FF141414FF141010101F00000050
:1004F00000F010FFFFFFFFFFF0F0F0F0F0FFFFFF54
:100500000000000000FFFF0F0F0F0F0F38444438AA
:10051000447C2A2A3E147E02020606027E027E02E5
:1005200063554941633844443C04407E201E200604
:10053000027E020299A5E7A5991C2A492A1C4C7241
:1005400001724C304A4D4D303048784830BC625AC8
:10055000463D3E494949007E0101017E2A2A2A2A58
:100560002A44445F444440514A444040444A514034
:100570000000FF0103E080FF000008086B6B0836F5
:1005800012362436060F090F060000181800000066
:100590001010003040FF0101001F01011E00191D55
:1005A0001712003C3C3C3C0000000000F0F89C8E20
:1005B0008783878E9CF8F00000FEFF03030303038C
:1005C000070EFCF80000FEFF0303030303070EFC05
:1005D000F80000FFFF00000000000000FFFF000027
:1005E000FEFF8383838383C7EE7C380000F8FC0E14
:1005F00007030303070EFCF800003F7FE0C0808084
:10060000C0E07F3FFFFF01010101010101FFFF0089
:1006100000FFFF0C0C0C0C1C3E77E3C100007FFFB9
:10062000C0C0C0C0C0E0703F1F00001F3F70E0C0EE
:10063000C0C0E0703F1F00007FFFC1C1C1C1C1E366
:10064000773E1C00001F3F70E0C0C0C0E0703F1F3D
:10065000000000000001FFFF01000000D5F08D1434
:10066000A1C881CFD9F1AF20001010000000003CDC
:100670004ADBD7DB4A3C000000000000000884C2CF
:10068000310D030D31C28408000000000010183C39
:100690005ADBCFEF7E3C000000000000000884C25F
:1006A000310D030DB1C60800000000000000003C41
:1006B0004ADBD7DB4A3C000000000000000884C28F
:1006C000310D030D31C28408000000000000003C21
:1006D0007EEFCFDB5A3C181000000000000008C677
:1006E000B10D030D31C2840800000010100000009D
:1006F000003C7EEFCFDB5A3C981000000000000069
:1007000000026323FFA72A31000000000000000060
:10071000003C7EEFCFDB5A3C981000000000000048
:1007200000C4B60F030302031C1000000000000009
:10073000003C7EEFCFDB5A3C181000000000006642
:100740002121310D0305091224C28100000000009F
:10075000003C7EEFCFDB5A3C981000000000000008
:1007600000046A29232F32C180000000001010000D
:100770000010983C5ADBCFEF7E3C000000000000E8
:10078000000000312AA7FF236302000000000000E0
:100790000010983C5ADBCFEF7E3C000000000000C8
:1007A00000101C030203030FB6C400000000000089
:1007B0000010183C5ADBCFEF7E3C00000000000028
:1007C00081C224120905030D3121216600000000B9
:1007D0000010983C5ADBCFEF7E3C00000000000088
:1007E000000080C1322F23296A040000000000109D
:1007F00010000000003C4ADBD7DB4A3C0000000050
:100800000000000884C2310D030D31C284080000CD
:1008100000000000003C6AEBE7EB6A3C00000000CF
:1008200000000000001E817D037D811E000000008D
:1008300000000000003C4ADBD7DB4A3C000000001F
:1008400000000000001E817D037D811E000000006D
:1008500000000000003C4ADBD7DB4A3C00000000FF
:1008600000000000001E817D037D811E000000004D
:1008700000101000002040BC7ADBD7DB7ABC40209F
:1008800000000000000080C0310D030D31C0800069
:10089000000000000000003C7ADBD7DB7A3C00005F
:1008A00000000000000884C2310D030D31C284082D
:1008B000000000000000003C7ADBD7DB7A3C00003F
:1008C00000000000000884C2310D030D31C284080D
:1008D000000000000000003C7ADBD7DB7A3C00001F
:1008E00000000000000884C2310D030D31C28408ED
:1008F0000000001010808000000000000440000094
:1009000082200004000106182020232C30707CC2B5
:10091000FFFFF67C3880800000000020000400000B
:10092000A0020008000106182020232C30707CC291
:10093000FFFFF67C380000008080001000000420DB
:1009400080000210000000003F2020203F707CC289
:10095000FFFFF67C380000008080000008004002A5
:1009600080002002000000003F2020203F707CC259
:10097000FFFFF67C381010000000003C7ADBD7DB6C
:100980007A3C000000000000000884C2310D030D15
:1009900031C2840800000000002040BC7ADBD7DBB5
:1009A0007ABC4020000000000003020405090F0982
:1009B0000504020300000008142040844850207001
:1009C000F884FFFEE4F87000000000000000000062
:1009D00000010101010000081420408448502070EB
:1009E000F884FFFEE4F87000000000000000000042
:1009F00000010101010000080B00020202000009D1
:100A00000400000102020000052400100105240179
:100A100001010424020605240600010705810310D4
:100A2000004009040100020A00000007050202401C
:100A300000000705830240000004030904120100BE
:100A400002EF02014041233680000101020301410F
:100A5000726475696E6F204C4C4300417264756915
:100A60006E6F204C656F6E6172646F00360E1124DC
:100A70001FBECFEFDAE0DEBFCDBF11E0A0E0B1E0F6
:100A8000E2EEFAE202C005900D92A638B107D9F75E
:100A900026E0A6E8B1E001C01D92A133B207E1F75C
:100AA00015E0C7E3D5E004C02197FE010E94691557
:100AB000C633D107C9F70E94700E0C946F150C94C1
:100AC0000000809186010895EAECF1E0A0E0B8E032
:100AD00000800EBC8111012C1197A0FDFDCF019269
:100AE000B9F70DB40895FC018091C901882311F173
:100AF0003FB7F89482E08093E9002091F200822FC2
:100B000090E01816190614F481E090E0882339F07B
:100B1000289844E64093C8014091F1004083222385
:100B200039F02091F200211103C02BE62093E80058
:100B30003FBF08958FEF9FEF08952FB7F89483E09C
:100B40008093E9009091E800892F807295FF04C09E
:100B50009091F20080E4891B2FBF08958091C0011D
:100B600081110DC082E08093BC0184E08093BD01BF
:100B70001092BF011092BE0181E08093C0018CEB06
:100B800091E00895CF93DF931F92CDB7DEB76983CD
:100B9000DC01ED91FC910280F381E02D41E050E019
:100BA000BE016F5F7F4F09950F90DF91CF91089540
:100BB00083E08093E9008091F200882319F08AE3B2
:100BC0008093E80008950E949D0590E00895CF93DA
:100BD000DF931F92CDB7DEB7FC018485958597FD25
:100BE00008C02FEF3FEF358724870F90DF91CF911B
:100BF0000895CE0101960E947305019719F4898129
:100C000090E0F3CF8FEF9FEFF0CF0F931F93CF9331
:100C1000DF931F92CDB7DEB78C01FC0184859585EB
:100C200097FF0BC0CE0101960E947305019771F4E6
:100C3000898190E0F80195878487F80184859585FE
:100C40000F90DF91CF911F910F9108958FEF9FEF3C
:100C5000F1CFFC018485958597FD0BC09FB7F89473
:100C600082E08093E9008091F2009FBF90E00196BE
:100C700008959FB7F89482E08093E9008091F20094
:100C80009FBF90E008954091B6015091B701209127
:100C9000B4013091B50142175307B4F49091E800C4
:100CA0009570E1F39091E80092FD19C08093F100F6
:100CB0008091B6019091B70101968F739927892B86
:100CC00019F48EEF8093E8008091B6019091B701FE
:100CD00001969093B7018093B60181E0089580E07A
:100CE0000895DF92EF92FF920F931F93CF93DF93BC
:100CF000D82E8A01EB017B01E40EF51ECE15DF052F
:100D000059F0D7FE12C0FE0184910E94430621963D
:100D10008111F4CF0FEF1FEFC801DF91CF911F9129
:100D20000F91FF90EF90DF9008958881EECF0F93A1
:100D30001F93CF93DF931F92CDB7DEB782E08983F5
:100D400042E450E067EF79E080E80E9471060E947B
:100D5000AE05DC0112960D911C910115110589F06B
:100D6000D801ED91FC910280F381E02DBE016F5F0F
:100D70007F4FC801099597FD04C0F80100851185D2
:100D8000ECCF89810F90DF91CF911F910F91089542
:100D9000615030F02091F100FC0120830196F8CFE2
:100DA000289884E68093C8010895AF92BF92CF92AD
:100DB000DF92EF92FF920F931F93CF93DF936C011B
:100DC0007B018B01040F151FEB015E01AE18BF08FC
:100DD000C017D10759F06991D601ED91FC910190AE
:100DE000F081E02DC6010995892B79F7C501DF91C6
:100DF000CF911F910F91FF90EF90DF90CF90BF9018
:100E0000AF9008953FB7F894809196019091970123
:100E1000A0919801B091990126B5A89B05C02F3FDC
:100E200019F00196A11DB11D3FBFBA2FA92F982F10
:100E30008827BC01CD01620F711D811D911D42E00B
:100E4000660F771F881F991F4A95D1F708958F92D3
:100E50009F92AF92BF92CF92DF92EF92FF926B017F
:100E60007C010E9402074B015C01C114D104E10422
:100E7000F104B9F00E940207681979098A099B09EF
:100E8000683E73408105910580F321E0C21AD108C4
:100E9000E108F10888EE880E83E0981EA11CB11CC1
:100EA000E4CFFF90EF90DF90CF90BF90AF909F90F6
:100EB0008F9008958F929F92AF92BF92CF92DF92C0
:100EC000EF92FF920F931F93CF93DF936C017B01FF
:100ED0008A0180914501882309F45CC08091C90191
:100EE000882309F457C08091BB0180FF05C0809121
:100EF000E00082608093E000E801B12C8AEFA82E28
:100F000093E0892E2AE3922E209711F4BB20D9F189
:100F10000E949D0581110AC0AA94AA20D9F161E01E
:100F200070E080E090E00E942707EECF8C171D064E
:100F300011F00CF08C2F9FB7F8948092E90020916B
:100F4000E80025FD02C09FBFDFCF282F30E0C21B85
:100F5000D30BF701815020F041914093F100FACF7B
:100F6000E20EF31EBB2021F09092E800B12CEBCFF3
:100F70008091E80085FDE7CF9092E800BB24B39410
:100F8000209709F3F3CF5D9884E68093BA01101699
:100F900011063CF081E090E0F6019383828310E03B
:100FA00000E0C801DF91CF911F910F91FF90EF906A
:100FB000DF90CF90BF90AF909F908F900895209139
:100FC0008E01E0918C01F0918D01CF0102969093FA
:100FD0008D0180938C01222319F0859194910895BD
:100FE000808191810895CF92DF92EF92FF92CF930B
:100FF000DF930E94DF07811520E8920791F480912A
:1010000071008D7F809371001092910046984798EF
:1010100010928B01DF91CF91FF90EF90DF90CF90F6
:10102000089521E020938B01813020E8920751F44C
:101030008091890190918A0190938D0180938C0118
:101040000E94DF0797FD05C020918801222309F443
:1010500054C020918701211150C021E020938F01BD
:10106000EC01DF77209709F04BC081E0809390017D
:1010700046983FE9C32E3FE0D32EE12CF12CCAEF76
:10108000D0E0E0912806F09129060995811103C06E
:1010900081E08093900180918F01882329F08091D5
:1010A0009001882309F43FC047980E94DF0700970A
:1010B000F1F19C01DE010E944615DC01CB0129E023
:1010C000B595A795979587952A95D1F71092900099
:1010D0002AE020939100D0929900C09298008093CA
:1010E000910190939201A0939301B0939401809108
:1010F00071008260809371008DCF10928F01B0CF0C
:101100009E0150E040E060E472E48FE090E00E94D5
:10111000051569017A0181E0C81AD108E108F108D2
:1011200010929001AECF4699BFCF479ABECF8FEFB6
:101130009FEFDC01CBCF9C01E1E7F0E090819D7F48
:10114000908310928E01EAE1F6E0F0938D01E09336
:101150008C01F0938A01E0938901318320837383AA
:10116000628380E090E8958384830C94F3072D9A42
:101170000895BC0190E080E00C9427078FB1809522
:10118000807F669B88601C9B846008953E9A3F9A8E
:1011900081E08093860108959091A701982329F01A
:1011A0009091A801982381E009F080E00895CF9301
:1011B000C82F0E94BE08982F9C2381E09C1380E0DA
:1011C000CF91089580E00C94640580389105B8F4BF
:1011D00060347105A0F420E191E061FD94E060FDD0
:1011E000990F62FD9295687F269FD0011124A80F68
:1011F000A653BE4F8C9140FF03C0892B8C9308955A
:1012000090958923FBCF2F923F924F925F926F92DE
:101210007F928F929F92AF92BF92CF92DF92EF9286
:10122000FF920F931F93CF93DF93CDB7DEB729972C
:101230000FB6F894DEBF0FBECDBF6D30D9F0309041
:1012400026014090A5015090A601832D90E099873A
:1012500088876A3051F51092A4011092A30123E00F
:10126000880F991F2A95E1F7480E591E5092A60142
:101270004092A50181E090E029960FB6F894DEBF78
:101280000FBECDBFDF91CF911F910F91FF90EF90D7
:10129000DF90CF90BF90AF909F908F907F906F9096
:1012A0005F904F903F902F90089590919A019B836B
:1012B000E0910001EC83A090A301B090A401F5E0BF
:1012C0006F9FB0011124CB0184559F4F3C016501F4
:1012D00019829981212C953029F0C3010196F301DF
:1012E00024903C014201F8E0FA8320FE1EC08C816C
:1012F0008D8302C02B812D8310E000E00315C8F41C
:10130000C601800F911F9F838E83F12CE12CE31483
:1013100078F5B4016E0D7F1D4D818E819F810E94F5
:10132000E5089FEFE91AF90AF2CF9B81EC819E1341
:10133000E1CF2694EA81E150EA8388859985880E79
:10134000991EE111D2CF99819F5F9983E885F98534
:10135000CE0EDF1E963009F0BCCFC501F9813F9E4D
:10136000800D911D11249093A4018093A30182CF3D
:101370000F5F1F4FC3CF2F923F924F925F926F929A
:101380007F928F929F92AF92BF92CF92DF92EF9215
:10139000FF920F931F93CF93DF9300D01F92CDB78F
:1013A000DEB79B838A837B016A0109838901061B5F
:1013B000170B17FF03C011950195110946018A818A
:1013C0009B81881A990A97FE03C091948194910891
:1013D000801691065CF49C2D8D2D6901292F382FE4
:1013E0009A818B81FB82EA82E92EF82E8A819B8189
:1013F000C816D9065CF49E2D8F2D7901292F382F20
:101400009A818B81DB82CA82C92ED82E16018A81ED
:101410009B81281A390A29014E185F0857FE03C01C
:10142000519441945108310137FE03C09FEF691A6E
:10143000790A759467948FEFE216F3060CF481E055
:10144000A82E880FBB088A819B81C816D906CCF0CC
:101450004981BC01C701801691061CF0B7018A8141
:101460009B810E94E5086418750877FE04C0EA0CA9
:10147000FB1C620C731C8A819B8101969B838A836F
:10148000E2CF0F900F900F90DF91CF911F910F91AE
:10149000FF90EF90DF90CF90BF90AF909F908F9094
:1014A0007F906F905F904F903F902F900895089598
:1014B00090E080E008958F929F92AF92BF920F9339
:1014C0001F93CF93DF93CDB7DEB7A1970FB6F894F4
:1014D000DEBF0FBECDBF19A2423008F44AE08E0134
:1014E0000F5D1F4F842E912CB12CA12CA5019401CE
:1014F0000E942415E62FB901CA01EA3044F5E05DE7
:10150000D801EE938D01232B242B252B79F790E026
:1015100080E0109769F0FD0101900020E9F7319714
:10152000AF014A1B5B0BBD018DE296E00E94D50620
:10153000A1960FB6F894DEBF0FBECDBFDF91CF915D
:101540001F910F91BF90AF909F908F900895E95C8D
:10155000D7CF0C94EF1482E090E00E94A90A811189
:101560000C94C608109286013E983F9808951F92E9
:101570000F920FB60F9211248F939F938091E100E9
:101580009091E100937F9093E10083FF0FC0109250
:10159000E90091E09093EB001092EC0092E39093BD
:1015A000ED001092C90198E09093F00082FF22C0F4
:1015B00093E09093E9009091F200992319F09AE357
:1015C0009093E8009091BA01992341F09091BA016B
:1015D00091509093BA01911101C05D9A9091C80108
:1015E000992341F09091C80191509093C8019111B5
:1015F00001C0289A84FF18C08091E2008E7E81602D
:101600008093E2008091E1008F7E8093E1008091E1
:10161000BB018E7E80618093BB019F918F910F9063
:101620000FBE0F901F90189580FFF7CF8091E200BA
:101630008E7E80618093E2008091E1008E7E8093B7
:10164000E1008091BB018E7E8160E5CF1F920F92F9
:101650000FB60F921124CF92DF92EF92FF920F9369
:101660001F932F933F934F935F936F937F938F932A
:101670009F93AF93BF93EF93FF93CF93DF93CDB738
:10168000DEB76C97DEBFCDBF1092E9008091E80015
:1016900083FF25C068E0CE0145960E94C80682EF10
:1016A0008093E8008D8987FF39C09091E80090FF12
:1016B000FCCF982F907609F034C19E894F89588DC0
:1016C0002F89F88C911131C0803861F58091B90172
:1016D0008093F1001092F1008EEF8093E8006C96F9
:1016E0000FB6F894DEBF0FBECDBFDF91CF91FF9153
:1016F000EF91BF91AF919F918F917F916F915F918A
:101700004F913F912F911F910F91FF90EF90DF909C
:10171000CF900F900FBE0F901F9018959EEF909353
:10172000E800C7CF1092F100D5CF913059F4811164
:10173000D3CF4130510581F68091B9018D7F8093DF
:10174000B901CACF933049F48111C6CF4130510558
:1017500019F68091B9018260F2CF953041F4809101
:10176000E80080FFFCCF20682093E300B5CF9630DF
:1017700009F0A9C00B8D1C8D22E01092E900109297
:10178000B7011092B601F2122EC01092B50110925C
:10179000B4010E9497061F8299E09983FA8291E032
:1017A0009E8390EA98879AEF99872091B6013091AD
:1017B000B701275F3F4F3C832B838D831092E90055
:1017C0001092B7011092B6011093B5010093B401C5
:1017D00049E050E0BE016F5F7F4F80E00E947106DC
:1017E0000E94970679CF1093B5010093B4010E942F
:1017F000AE05DC0112960D911C910115110509F43D
:1018000051C1D801ED91FC910480F581E02DBE011C
:101810006B5E7F4FC8010995009709F03EC1F80142
:1018200000851185EACFF3E0FF120EC08F8988236F
:1018300009F440C0823061F440E860E18BE59AE051
:101840000E94030E811148CF81E28093EB0047CFC5
:10185000813029F440E86BE08FE49AE0F1CF8330E7
:1018600099F70E94AE05DC011296ED90FC908E0176
:101870000F5F1F4F6801E114F10479F0D701ED917A
:10188000FC910680F781E02DB801C7010995080F8A
:10189000111DF701E084F184EECFD8011C92F6010E
:1018A00001900020E9F73197BF016C197D0940E0F4
:1018B000C601C6CF69E37AE0FB01449150E080E8BD
:1018C0000E94710609CF973009F4BECF983021F4F9
:1018D00081E08093F10000CF993009F0FDCE837054
:1018E00009F0B2CFE2E6F1E081E031E096E3219148
:1018F000222371F08093E9003093EB00DF01119710
:101900002C912093EC009093ED008F5F873079F756
:101910008EE78093EA001092EA008F898093C901D4
:10192000DBCE8B8D9C8D1092E9001092B701109246
:10193000B6019093B5018093B401898D811192C055
:101940008E899D89913A49F4813209F07DCF47E033
:1019500050E06EE371E080E0B3CF913209F074CFD4
:10196000833269F48F89988DB0E0A0E080933A01CA
:1019700090933B01A0933C01B0933D01ADCE8032EA
:1019800069F48091E80082FFFCCF67E08EE391E08C
:101990000E94C8068BEF8093E8009ECE823209F049
:1019A0009BCE8F8980934501EEEFFFE7859194915F
:1019B0008B3F9C4D51F1E0E0F8E080913E01909129
:1019C0003F01A0914001B0914101803B9440A105AD
:1019D000B105F1F48091450180FD1AC0EE3F8AE027
:1019E000F80789F587E797E7918380838091600006
:1019F0008093B80188E19BE00FB6F894A895809396
:101A000060000FBE9093600067CEEEEFFAE0D5CF96
:101A1000808191818737974709F05ECEA8958091A4
:101A200060008861809360008091B80180936000BD
:101A3000EE3F2AE0F20789F08091FE0A9091FF0ABA
:101A40009183808349CE808191818737980751F2B5
:101A50009093FF0A8093FE0AC5CF1092FF0A10925E
:101A6000FE0A3ACE0E94AE05DC0112960D911C9141
:101A70000115110509F4E8CED801ED91FC91019012
:101A8000F081E02DBE016B5E7F4FC8010995811189
:101A900023CEF80100851185EBCF181619060CF43A
:101AA0001BCED2CEF1E0FF12BECE6DE37AE004CFC2
:101AB0001F920F920FB60F9211242F933F938F9383
:101AC0009F93AF93BF9380919B0190919C01A091B4
:101AD0009D01B0919E013091950123E0230F2D3798
:101AE00058F50196A11DB11D2093950180939B018E
:101AF00090939C01A0939D01B0939E0180919601CB
:101B000090919701A0919801B09199010196A11D22
:101B1000B11D8093960190939701A0939801B09383
:101B20009901BF91AF919F918F913F912F910F900C
:101B30000FBE0F901F90189526E8230F0296A11D47
:101B4000B11DD2CF1F920F920FB60F9211242F9377
:101B50003F934F935F936F937F938F939F93AF9335
:101B6000BF93EF93FF938091910190919201A09187
:101B70009301B0919401892B8A2B8B2B09F440C0DF
:101B80008091900181110BC088B190E4892788B9B8
:101B900080918F01882319F088B1805888B980918D
:101BA000910190919201A0919301B0919401181626
:101BB00019061A061B069CF48091910190919201DE
:101BC000A0919301B09194010197A109B10980936B
:101BD000910190939201A0939301B0939401FF918E
:101BE000EF91BF91AF919F918F917F916F915F9195
:101BF0004F913F912F910F900FBE0F901F9018950E
:101C00000E94F307ECCFEF92FF920F931F93CF93B5
:101C1000DF93F82E192FE62E042F81E0860F880F10
:101C20000E94430683E00E944306CF2DD12FEC0E85
:101C3000FD2EF11CCE15DF05B9F007FF13C0FE0124
:101C400084910E944306182F80E00E94430681235E
:101C500021968111EFCFDF91CF911F910F91FF90CE
:101C6000EF9008958881EDCF81E0F5CFEAECF5E0C3
:101C70001382128288EE93E0A0E0B0E08483958323
:101C8000A683B7838CE691E0918380838FEF9FEFEB
:101C900095878487EDE2F6E0138212828EE791E069
:101CA0009183808381E695E09093290680932806AE
:101CB00080E090E8909327068093260646983E9A07
:101CC00047983F9AE0912C06F0E0EE0FFF1FEA5B89
:101CD000FE4F8081918190932B0680932A06089570
:101CE000CF93DF9300D000D000D0CDB7DEB778948B
:101CF00084B5826084BD84B5816084BD85B5826011
:101D000085BD85B5816085BD80916E0081608093C1
:101D10006E0010928100809181008260809381002A
:101D2000809181008160809381008091800081603A
:101D300080938000809191008260809391008091D7
:101D400091008160809391008091900081608093E8
:101D500090008091C10084608093C1008091C10097
:101D600082608093C1008091C10081608093C10036
:101D70008091C30081608093C3008091C000826025
:101D80008093C0008091C20081608093C2008091E6
:101D90007A00846080937A0080917A0082608093D8
:101DA0007A0080917A00816080937A0080917A0035
:101DB000806880937A001092C9011092B901109244
:101DC000BB018091D70081608093D70080EA809327
:101DD000D80089B5806189BD89B5826089BD09B4A3
:101DE00000FEFDCF61E070E080E090E00E942707F8
:101DF0008091D8008F7C80618093D8008091E00032
:101E0000807F8093E0008091E1008E7E8093E100EE
:101E10008DE08093E200559A209A81EC80937C00BB
:101E200085B1806F85B984B1877E84B984B1876EAE
:101E300084B95E9A5F988AB1806D8AB9769A6E98F5
:101E400081B3806F81BB899880B38D7080BB80E542
:101E50008CBD81E08DBD85E090E00E94B9085F9A5D
:101E600085E090E00E94B9085E985C98ECE5F6E0A9
:101E700089E696E024912EBD00000DB407FEFDCF4B
:101E800031968E179F07B1F75C9A81E880936400C2
:101E9000809165008160809365000E94E20880E87F
:101EA0000E94D7088823A9F05C9885EA8EBD0000BF
:101EB0000DB407FEFDCF5C9A2E982F982D98809137
:101EC000640080628093640081E083BF889513BEC4
:101ED000FCCF84E00E94D708882309F448C02D98DD
:101EE00084E80E94D7088823E1F00E94B70888ECB4
:101EF00090E00E94B9082F9882E090E00E94EF14D1
:101F00008F3F29F06FEF82E090E00E94F71484EF9A
:101F100091E00E94B9082F9A84E80E94D7088111A5
:101F2000FBCF84E10E94D7088823E1F00E94B70824
:101F300088EC90E00E94B9082E9882E090E00E9420
:101F4000EF14882329F060E082E090E00E94F7140B
:101F500084EF91E00E94B9082E9A84E10E94D7088C
:101F60008111FBCF88EC90E00E94B908B2CF0E94AB
:101F7000B7080E94AB0A81E090E00E94A90A082FEE
:101F80000470702E81FF14C001112E9861EF262E6F
:101F900033243A9408E010E07CE6E72EF12C80E44C
:101FA0000E94D7088823D9F12E9A2F9A0E94B70849
:101FB00082E390E00E94B9080E94BE088111F8CF28
:101FC00081E28093010181E08093000180939A0176
:101FD0000E94AB0A0E94C608BAE36B2EB1E07B2ECA
:101FE00017E0412E512C11E08FB7F89440919B01DE
:101FF00050919C0160919D0170919E018FBF8091D5
:102000009F01882309F4DDC010929F0180E0C82E53
:1020100080E0D82ECD2841F30E940000E4CF772045
:1020200031F024E02216310411F42E9A2F9881E029
:102030000E946405910137FE04C02227332722192C
:10204000330927703327C10137FC079653E0959574
:1020500087955A95E1F737FE05C00197A801421B05
:10206000530B9A01BC017695762F66277795679575
:1020700066537E4FB0E0A0E02801421A530A8E3F1B
:102080005FEF950709F446C048E550E0FD01EC5FBD
:10209000F94F5F014B01F0E88F0E911C8F3F9807BD
:1020A000C9F0F501E41BF50B64906701C41AD50A69
:1020B000C60ED71EE62DF0E0022E02C0EE0FFF1F67
:1020C0000A94E2F7FC83EB83F6016080FB816F2AC0
:1020D000F601608221153105C9F0F501E41BF50B0D
:1020E00064906701C41AD50AC80CD91CE62DF0E02B
:1020F000042C02C0F595E7950A94E2F7FC83EB8384
:10210000F6016080FB816F2AF6016082415051091F
:1021100009F0C4CF0196A85ABF4F60587F4FA03B2B
:10212000B10509F0ACCF0E94E2088FE090E00E9478
:10213000B908FFEF2F1A3F0A29E12216310409F0EE
:102140002ECF772011F02F9A2D9880E991E00E94F0
:10215000B9080E94B70881E090E00E94A90A80FFB8
:1021600027CF8AE090E00E94A90A9FEF980F9E3F38
:1021700008F01ECF22E330E03093A4012093A301A6
:1021800028E330E03093A6012093A5014BE050E016
:102190005A834983682F8DE296E00E940309898162
:1021A0009A810E94A90AA981BA811196BA83A9834A
:1021B000519781F70E94E20888EE93E00E94B908E7
:1021C000F7CE8091A001B42FB81B8B2F9091010105
:1021D000B91740F48F5F891708F018CF13BF88959F
:1021E00013BE14CF10939F014093A001E091A90169
:1021F000F091AA017F01FFEFEF1AFF0AF092AA0106
:10220000E092A901C7016CE370E00E945515892B8B
:1022100019F483E68093B3018091A8018093A7010C
:102220000E94BE088093A8018091AB018823A9F188
:1022300080912A0690912B062091AE013091AF013A
:10224000821793070CF0CEC02A31310509F0F5C092
:1022500020912C06273008F0F0C0039690932B06AF
:1022600080932A06E8E2F1E046E451E08191919101
:102270009F01225031090396D9018D939C93DA0175
:102280008D919D91AD019D01225031090396D90197
:102290008D939C936E167F0649F780E0EAECF1E09F
:1022A00081118FEF00248193819381938193039413
:1022B000D1F71092A6011092A5011092A4011092DC
:1022C000A3016091270170E0C7010E945515892B79
:1022D00069F48091B0019091B1010196843091052B
:1022E0000CF0AEC09093B1018093B001A8E2EA2E49
:1022F000A1E0FA2EFA82E982A981BA816D917D91DD
:10230000BA83A98301E09B0140E850E090E080E0BF
:102310000E94BB09C980DA806C147D0469F7812CA6
:10232000912C5401D7018D919D917D011092A401B2
:102330001092A3019093A6018093A501109326010A
:102340004AE0C501B4010E945B0ABFEF8B1A9B0AE9
:10235000AB0ABB0AE9E08E169104A104B10411F79F
:1023600024E131E03A832983E2E02E2EE1E03E2EA3
:1023700048E551E05C834B8351016901F0E88F2E01
:10238000912CD601ED90FD906D01F701EE0FFF1F2E
:10239000E85DFE4F60817181F501219131915F010E
:1023A0003E832D83A9014C5E5F4F00E09B018D8130
:1023B0009E810E94BB09AB81BC818D91BC83AB83A4
:1023C0008111DEC0ED81FE813397FE83ED83F5013F
:1023D00032972D813E812C3E4FEF3407B4F131838B
:1023E000208345C02817390744F52A31310529F5DE
:1023F00020912C06222309F1039790932B068093BA
:102400002A06E8E2F1E046E451E0819191919F01D2
:10241000225031090397D9018D939C93DA018D9154
:102420009D91AD019D01225031090397D9018D93F2
:102430009C936E167F0649F730CF1092AB012DCFDB
:102440001092B1011092B00151CF91828082F601B9
:10245000329757E0E516F10434F48FEFE81AF80AE2
:10246000F182E08204C0A1E0B0E0B183A083AEE1DC
:10247000B1E0AC15BD0509F084CF8091B201835065
:10248000823008F46DC01092A20152E0E52E51E0B6
:10249000F52E64E1C62E61E0D62E1C821B8280914F
:1024A000B301EB81FC818E171F0689F1D601ED91F6
:1024B000FC91EE0FFF1FE85DFE4F60817181F70117
:1024C0008081918140912A0650912B062091AC0188
:1024D0003091AD01DC011596F9013A96AE17BF07B0
:1024E000B4F42A5F3F4F0F962817390784F4CA01C6
:1024F0004196681779075CF46417750744F01093E8
:10250000A20168EC70E088E592E00E949B082B81B4
:102510003C812F5F3F4F3C832B8332E0C30ED11CA5
:1025200042E0E40EF11C8B819C81059709F0B7CF46
:102530008091A2018823A1F084E08093B2011092DF
:10254000B1011092B00180912C06815080932C062D
:1025500080912A0690912B069093AF018093AE0153
:10256000E091B201E73080F5F0E0E754FD4E0C94C5
:102570006915E1125A14481469148714A114A4149B
:10258000813009F074CFED81FE813396FE83ED83B7
:10259000F50132972D813E81213831050CF41FCF92
:1025A0004CEE5FEF51834083F601329752E0E5161F
:1025B000F10424F081E0E81AF10852CF5182408200
:1025C00056CF8EE1809327018091B20183508230F3
:1025D00008F478C08091AB01811174C080E20E9440
:1025E000D708882319F082E08093B20180E20E942C
:1025F000CC0881111092B20180E40E94D7088111A9
:102600001093B20180E40E94CC0881111092B201B3
:102610008091A701F82FF870FB8383FD53C0809150
:10262000A80183FF4FC01092A101A981BA81ED9149
:10263000FD91BA83A983EE0FFF1FE85DFE4F208155
:102640003181F101419151911F0180912A069091B0
:102650002B066091AC017091AD01DA011596FB017A
:102660003A96AE17BF07A4F46A5F7F4F415F5F4F92
:10267000641775076CF48217930754F0205F3F4F7F
:10268000821793072CF41093A101FB81F093B301FF
:102690000B810F5F0B83053041F62091A1012223AE
:1026A00009F488C123E02093B2011092B101109285
:1026B000B00120912C062F5F20932C069093AF0140
:1026C0008093AE0180E10E94D708882319F085E04D
:1026D0008093B20180E10E94CC0881111092B20176
:1026E00084E00E94D708A091B001E091B20122E8F5
:1026F000E29FC00111248759994FFC01F490319653
:10270000349131966F2D70E0AA23D9F081E090E0EA
:10271000232F277011F490E080E0232F2695269533
:102720002695820F911D869FA001879F500D969F31
:10273000500D1124A49FC001A59F900D1124E80FF6
:10274000F91F4091AC015091AD016B01C40ED51E33
:102750001C141D040CF040C1403851050CF03CC164
:1027600080912A0690912B06DC01A30FB11D1A1649
:102770001B060CF031C1803491050CF02DC130974F
:1027800009F42AC1082F0770902EDC0197FD1796D7
:1027900003E0B595A7950A95E1F72A2F97FF04C0A6
:1027A000992011F02FEF2A0F88279927841B950B6A
:1027B00057FD02C090E080E0A0E8AA2EA41AA0E88D
:1027C000CA16D1040CF4AF2CA81AA22F022E000CAA
:1027D000BB0BDA2ED0942F3F0CF0D12CEE24E394D7
:1027E000032F077009F4E12C369536953695E30EE4
:1027F000AE0DB11D19971CF038E0E32EE21ABD2C86
:10280000B20E3B2D00E83003D00111244A0F5B1FAC
:10281000480F591FFD9C800D911D11248E0F9F1F85
:10282000292C092C000C33082E0D2B1509F4D4C0CB
:10283000DA01A653BE4FF12CE12CEA1408F0C6C011
:10284000FC01EE0DFF1DE491F0E06F01022C02C0CF
:10285000CC0CDD1C0A94E2F7DC82CB82B7FC03C00F
:102860003C913C293C93992071F036E0D32EDB1447
:1028700054F06D0100E8C00ED11CF6013081FC81DE
:102880003F2BF6013083FFEFEF1AFF0A1196D5CFE9
:102890008091AC019091AD010397803FAFEF9A0713
:1028A00034F09093AD018093AC0183E08BCE80E84F
:1028B00090E0F7CF8091AC019091AD010396813803
:1028C00091057CF3E0EFFFEFF093AD01E093AC01F5
:1028D000ECCF85E08093270180912A0690912B060A
:1028E000E0912C06F0E0EE0FFF1FEA5BFE4F208127
:1028F00031812817390734F4039790932B0680937E
:102900002A0662CE1093AB011092B2015DCE85E033
:102910008093270180912A0690912B06E0912C0646
:10292000F0E0EE0FFF1FEA5BFE4F2081318182173E
:10293000930714F40396E1CF1092B2011093AB0108
:1029400043CE1093270140CE8091A9019091AA0116
:10295000B2010E945515892B09F03CCE62E370E06C
:1029600084E690E00E949B0880912A0690912B06B5
:10297000029790932B0680932A062091B001309104
:10298000B1012330310534F42F5F3F4F3093B10153
:102990002093B0012091AE013091AF01A9014650C2
:1029A00051098417950709F00FCE30932B06209319
:1029B0002A06AACF9093AF018093AE011092B10185
:1029C0001092B00186E08093B2017CCEB394860F62
:1029D000971F40585F4F29CF0E94E20817CBF99903
:1029E000FECF92BD81BDF89A992780B50895262F14
:1029F000F999FECF1FBA92BD81BD20BD0FB6F894E4
:102A0000FA9AF99A0FBE01960895052E97FB1EF4C7
:102A100000940E941C1557FD07D00E94241507FC46
:102A200003D04EF40C941C1550954095309521958B
:102A30003F4F4F4F5F4F08959095809570956195EA
:102A40007F4F8F4F9F4F0895A1E21A2EAA1BBB1BE9
:102A5000FD010DC0AA1FBB1FEE1FFF1FA217B3076A
:102A6000E407F50720F0A21BB30BE40BF50B661F80
:102A7000771F881F991F1A9469F760957095809544
:102A800090959B01AC01BD01CF010895A29FB001BB
:102A9000B39FC001A39F700D811D1124911DB29F92
:102AA000700D811D1124911D0895AA1BBB1B51E1BE
:102AB00007C0AA1FBB1FA617B70710F0A61BB70BAE
:102AC000881F991F5A95A9F780959095BC01CD0153
:102AD0000895EE0FFF1F0590F491E02D0994F894EE
:022AE000FFCF26
:102AE2000110400022000E00400022000F001800DA
:102AF20000000000010002000300040005000600BF
:102B0200070000000000010A3F002A001500000033
:102B1200EBFFD6FFC1FFACFF97FFFFFFFFFF00E116
:102B22000000000000002F001A000500F0FFDBFF8C
:102B3200C6FFB1FF9CFF87FF0001000100010000FA
:102B42000000C1808100000000000000C2055A0799
:102B5200E305D8052906E70505060000000003097C
:062B6200D506580A570ACF
:00000001FF
