:100000000C94F6040C941E050C941E050C941E050D
:100010000C941E050C941E050C941E050C941E05D4
:100020000C941E050C941E050C9446090C94B509FD
:100030000C941E050C941E050C941E050C941E05B4
:100040000C941E050C941E050C941E050C941E05A4
:100050000C941E050C941E050C941E050C94E70BC5
:100060000C941E050C941E050C941E050C941E0584
:100070000C941E050C941E050C941E050C941E0574
:100080000C94310C0C941E050C941E050C941E054A
:100090000C941E050C941E050C941E050C941E0554
:1000A0000C941E050C941E050C941E050000000007
:1000B000003E5B4F5B3E3E6B4F6B3E1C3E7C3E1CEE
:1000C000183C7E3C181C577D571C1C5E7F5E1C0034
:1000D000183C1800FFE7C3E7FF0018241800FFE7EB
:1000E000DBE7FF30483A060E2629792926407F05AE
:1000F0000507407F05253F5A3CE73C5A7F3E1C1CC4
:1001000008081C1C3E7F14227F22145F5F005F5F83
:1001100006097F017F006689956A6060606060946F
:10012000A2FFA29408047E040810207E2010080874
:100130002A1C08081C2A08081E101010100C1E0C7F
:100140001E0C30383E3830060E3E0E060000000011
:100150000000005F00000007000700147F147F14F8
:10016000242A7F2A1223130864623649562050003D
:1001700008070300001C2241000041221C002A1C29
:100180007F1C2A08083E0808008070300008080814
:100190000808000060600020100804023E51494534
:1001A0003E00427F400072494949462141494D3352
:1001B0001814127F1027454545393C4A49493141B9
:1001C000211109073649494936464949291E000087
:1001D00014000000403400000008142241141414DC
:1001E0001414004122140802015909063E415D59C8
:1001F0004E7C1211127C7F494949363E41414122D1
:100200007F4141413E7F494949417F090909013EFA
:10021000414151737F0808087F00417F4100204021
:10022000413F017F081422417F404040407F021C33
:10023000027F7F0408107F3E4141413E7F0909094A
:10024000063E4151215E7F09192946264949493216
:1002500003017F01033F4040403F1F2040201F3FDC
:100260004038403F63140814630304780403615961
:10027000494D43007F4141410204081020004141A3
:10028000417F04020102044040404040000307084F
:100290000020545478407F2844443838444444284B
:1002A000384444287F385454541800087E090218F2
:1002B000A4A49C787F0804047800447D400020407A
:1002C000403D007F1028440000417F40007C0478BE
:1002D00004787C080404783844444438FC18242406
:1002E0001818242418FC7C08040408485454542486
:1002F00004043F44243C4040207C1C2040201C3C03
:100300004030403C44281028444C9090907C4464F9
:10031000544C44000836410000007700000041368C
:10032000080002010204023C2623263C1EA1A16112
:10033000123A4040207A3854545559215555794144
:100340002154547841215554784020545579400C1B
:100350001E527212395555555939545454593955FC
:100360005454580000457C410002457D420001453F
:100370007C40F0292429F0F0282528F07C545545AC
:10038000002054547C547C0A097F4932494949323F
:100390003248484832324A4848303A4141217A3A54
:1003A00042402078009DA0A07D39444444393D401E
:1003B00040403D3C24FF2424487E4943662B2FFCCB
:1003C0002F2BFF0929F620C0887E09032054547979
:1003D000410000447D413048484A32384040227A4A
:1003E000007A0A0A727D0D19317D2629292F2826C7
:1003F0002929292630484D402038080808080808CF
:100400000808382F10C8ACBA2F102834FA00007B27
:10041000000008142A142222142A1408950022002D
:1004200095AA005500AAAA55AA55AA000000FF00E7
:10043000101010FF00141414FF001010FF00FF1024
:1004400010F010F0141414FC001414F700FF000056
:10045000FF00FF1414F404FC141417101F10101FD5
:10046000101F1414141F00101010F0000000001FC3
:10047000101010101F10101010F010000000FF10CE
:100480001010101010101010FF10000000FF1400CA
:1004900000FF00FF00001F10170000FC04F41414FC
:1004A0001710171414F404F40000FF00F7141414C8
:1004B00014141414F700F7141414171410101F1048
:1004C0001F141414F4141010F010F000001F101F6B
:1004D0000000001F14000000FC140000F010F010D9
:1004E00010FF10FF141414FF141010101F00000050
:1004F00000F010FFFFFFFFFFF0F0F0F0F0FFFFFF54
:100500000000000000FFFF0F0F0F0F0F38444438AA
:10051000447C2A2A3E147E02020606027E027E02E5
:1005200063554941633844443C04407E201E200604
:10053000027E020299A5E7A5991C2A492A1C4C7241
:1005400001724C304A4D4D303048784830BC625AC8
:10055000463D3E494949007E0101017E2A2A2A2A58
:100560002A44445F444440514A444040444A514034
:100570000000FF0103E080FF000008086B6B0836F5
:1005800012362436060F090F060000181800000066
:100590001010003040FF0101001F01011E00191D55
:1005A0001712003C3C3C3C0000000000F0F89C8E20
:1005B0008783878E9CF8F00000FEFF03030303038C
:1005C000070EFCF80000FEFF0303030303070EFC05
:1005D000F80000FFFF00000000000000FFFF000027
:1005E000FEFF8383838383C7EE7C380000F8FC0E14
:1005F00007030303070EFCF800003F7FE0C0808084
:10060000C0E07F3FFFFF01010101010101FFFF0089
:1006100000FFFF0C0C0C0C1C3E77E3C100007FFFB9
:10062000C0C0C0C0C0E0703F1F00001F3F70E0C0EE
:10063000C0C0E0703F1F00007FFFC1C1C1C1C1E366
:10064000773E1C00001F3F70E0C0C0C0E0703F1F3D
:10065000000000000001FFFF01000000D5F08D1434
:10066000A1C881CFD9F1AF20001010000000003CDC
:100670004ADBD7DB4A3C000000000000000884C2CF
:10068000310D030D31C28408000000000010183C39
:100690005ADBCFEF7E3C000000000000000884C25F
:1006A000310D030DB1C60800000000000000003C41
:1006B0004ADBD7DB4A3C000000000000000884C28F
:1006C000310D030D31C28408000000000000003C21
:1006D0007EEFCFDB5A3C181000000000000008C677
:1006E000B10D030D31C2840800000010100000009D
:1006F000003C7EEFCFDB5A3C981000000000000069
:1007000000026323FFA72A31000000000000000060
:10071000003C7EEFCFDB5A3C981000000000000048
:1007200000C4B60F030302031C1000000000000009
:10073000003C7EEFCFDB5A3C181000000000006642
:100740002121310D0305091224C28100000000009F
:10075000003C7EEFCFDB5A3C981000000000000008
:1007600000046A29232F32C180000000001010000D
:100770000010983C5ADBCFEF7E3C000000000000E8
:10078000000000312AA7FF236302000000000000E0
:100790000010983C5ADBCFEF7E3C000000000000C8
:1007A00000101C030203030FB6C400000000000089
:1007B0000010183C5ADBCFEF7E3C00000000000028
:1007C00081C224120905030D3121216600000000B9
:1007D0000010983C5ADBCFEF7E3C00000000000088
:1007E000000080C1322F23296A040000000000109D
:1007F00010000000003C4ADBD7DB4A3C0000000050
:100800000000000884C2310D030D31C284080000CD
:1008100000000000003C6AEBE7EB6A3C00000000CF
:1008200000000000001E817D037D811E000000008D
:1008300000000000003C4ADBD7DB4A3C000000001F
:1008400000000000001E817D037D811E000000006D
:1008500000000000003C4ADBD7DB4A3C00000000FF
:1008600000000000001E817D037D811E000000004D
:1008700000101000002040BC7ADBD7DB7ABC40209F
:1008800000000000000080C0310D030D31C0800069
:10089000000000000000003C7ADBD7DB7A3C00005F
:1008A00000000000000884C2310D030D31C284082D
:1008B000000000000000003C7ADBD7DB7A3C00003F
:1008C00000000000000884C2310D030D31C284080D
:1008D000000000000000003C7ADBD7DB7A3C00001F
:1008E00000000000000884C2310D030D31C28408ED
:1008F0000000001010808000000000000440000094
:1009000082200004000106182020232C30707CC2B5
:10091000FFFFF67C3880800000000020000400000B
:10092000A0020008000106182020232C30707CC291
:10093000FFFFF67C380000008080001000000420DB
:1009400080000210000000003F2020203F707CC289
:10095000FFFFF67C380000008080000008004002A5
:1009600080002002000000003F2020203F707CC259
:10097000FFFFF67C38080B000202020000090400A9
:1009800000010202000005240010010524010101FC
:100990000424020605240600010705810310004017
:1009A00009040100020A00000007050202400000DD
:1009B000070583024000000403090412010002EF4E
:1009C00002014041233680000101020301417264AB
:1009D00075696E6F204C4C430041726475696E6F8F
:1009E000204C656F6E6172646F00660D11241FBE2E
:1009F000CFEFDAE0DEBFCDBF11E0A0E0B1E0E8E28A
:100A0000F7E202C005900D92AA35B107D9F726E0AA
:100A1000AAE5B1E001C01D92A030B207E1F714E0F1
:100A2000C6EFD4E004C02197FE010E948C13C53F9D
:100A3000D107C9F70E94A00D0C9492130C940000EA
:100A400080915A010895E9E9F1E0A0E0B8E0008062
:100A50000EBC8111012C1197A0FDFDCF0192B9F7B9
:100A60000DB40895FC0180919801882311F13FB7DE
:100A7000F89482E08093E9002091F200822F90E0C8
:100A80001816190614F481E090E0882339F02898AC
:100A900044E6409397014091F1004083222339F0CE
:100AA0002091F200211103C02BE62093E8003FBF04
:100AB00008958FEF9FEF08952FB7F89483E0809308
:100AC000E9009091E800892F807295FF04C0909111
:100AD000F20080E4891B2FBF089580918F0181115E
:100AE0000DC082E080938B0184E080938C01109292
:100AF0008E0110928D0181E080938F018BE891E04F
:100B00000895CF93DF931F92CDB7DEB76983DC01E1
:100B1000ED91FC910280F381E02D41E050E0BE01B7
:100B20006F5F7F4F09950F90DF91CF91089583E01C
:100B30008093E9008091F200882319F08AE3809382
:100B4000E80008950E945C0590E00895CF93DF933C
:100B50001F92CDB7DEB7FC018485958597FD08C04F
:100B60002FEF3FEF358724870F90DF91CF910895C6
:100B7000CE0101960E943205019719F4898190E017
:100B8000F3CF8FEF9FEFF0CF0F931F93CF93DF93B0
:100B90001F92CDB7DEB78C01FC018485958597FF48
:100BA0000BC0CE0101960E943205019771F4898134
:100BB00090E0F80195878487F801848595850F90EA
:100BC000DF91CF911F910F9108958FEF9FEFF1CF9C
:100BD000FC018485958597FD0BC09FB7F89482E052
:100BE0008093E9008091F2009FBF90E00196089504
:100BF0009FB7F89482E08093E9008091F2009FBF54
:100C000090E00895409185015091860120918301E3
:100C10003091840142175307B4F49091E800957025
:100C2000E1F39091E80092FD19C08093F10080916A
:100C300085019091860101968F739927892B19F46C
:100C40008EEF8093E8008091850190918601019656
:100C5000909386018093850181E0089580E0089556
:100C6000DF92EF92FF920F931F93CF93DF93D82ED3
:100C70008A01EB017B01E40EF51ECE15DF0559F06C
:100C8000D7FE12C0FE0184910E94020621968111B6
:100C9000F4CF0FEF1FEFC801DF91CF911F910F919C
:100CA000FF90EF90DF9008958881EECF0F931F9310
:100CB000CF93DF931F92CDB7DEB782E0898342E402
:100CC00050E065E779E080E80E9430060E946D05FB
:100CD000DC0112960D911C910115110589F0D801C6
:100CE000ED91FC910280F381E02DBE016F5F7F4F9B
:100CF000C801099597FD04C0F80100851185ECCF66
:100D000089810F90DF91CF911F910F9108956150CC
:100D100030F02091F100FC0120830196F8CF289853
:100D200084E6809397010895AF92BF92CF92DF92AD
:100D3000EF92FF920F931F93CF93DF936C017B0190
:100D40008B01040F151FEB015E01AE18BF08C01721
:100D5000D10759F06991D601ED91FC910190F08194
:100D6000E02DC6010995892B79F7C501DF91CF9157
:100D70001F910F91FF90EF90DF90CF90BF90AF90B9
:100D800008953FB7F8948091680190916901A0910E
:100D90006A01B0916B0126B5A89B05C02F3F19F0E1
:100DA0000196A11DB11D3FBFBA2FA92F982F8827EB
:100DB000BC01CD01620F711D811D911D42E0660FC6
:100DC000771F881F991F4A95D1F708958F929F9298
:100DD000AF92BF92CF92DF92EF92FF926B017C01B4
:100DE0000E94C1064B015C01C114D104E104F1046D
:100DF000B9F00E94C106681979098A099B09683E01
:100E000073408105910580F321E0C21AD108E10801
:100E1000F10888EE880E83E0981EA11CB11CE4CF77
:100E2000FF90EF90DF90CF90BF90AF909F908F900A
:100E300008958F929F92AF92BF92CF92DF92EF92DE
:100E4000FF920F931F93CF93DF936C017B018A0175
:100E500080912101882309F45CC080919801882346
:100E600009F457C080918A0180FF05C08091E0009D
:100E700082608093E000E801B12C8AEFA82E93E015
:100E8000892E2AE3922E209711F4BB20D9F10E94DB
:100E90005C0581110AC0AA94AA20D9F161E070E032
:100EA00080E090E00E94E606EECF8C171D0611F060
:100EB0000CF08C2F9FB7F8948092E9002091E80005
:100EC00025FD02C09FBFDFCF282F30E0C21BD30B10
:100ED000F701815020F041914093F100FACFE20EEA
:100EE000F31EBB2021F09092E800B12CEBCF809153
:100EF000E80085FDE7CF9092E800BB24B3942097EB
:100F000009F3F3CF5D9884E68093890110161106EA
:100F10003CF081E090E0F6019383828310E000E0F2
:100F2000C801DF91CF911F910F91FF90EF90DF905B
:100F3000CF90BF90AF909F908F90089520915B01CC
:100F4000E0915E01F0915F01CF01029690935F0105
:100F500080935E01222319F08591949108958081F8
:100F6000918108952D9A0895BC0190E080E00C9441
:100F7000E6068FB18095807F669B88601C9B8460AD
:100F800008953E9A3F9A81E080935A010895909186
:100F90007901982329F090917A01982381E009F052
:100FA00080E00895CF93C82F0E94B907982F9C2303
:100FB00081E09C1380E0CF91089580E00C9423059C
:100FC00080389105B8F460347105A0F420E191E017
:100FD00061FD94E060FD990F62FD9295687F269F08
:100FE000D0011124A80FA756BE4F8C9140FF03C01B
:100FF000892B8C93089590958923FBCF2F923F9254
:101000004F925F926F927F928F929F92AF92BF9218
:10101000CF92DF92EF92FF920F931F93CF93DF93C4
:10102000CDB7DEB729970FB6F894DEBF0FBECDBFA0
:101030006D30D9F0309002014090770150907801E6
:10104000832D90E0998788876A3051F51092760158
:101050001092750123E0880F991F2A95E1F7480E39
:10106000591E509278014092770181E090E02996D4
:101070000FB6F894DEBF0FBECDBFDF91CF911F91A9
:101080000F91FF90EF90DF90CF90BF90AF909F9027
:101090008F907F906F905F904F903F902F9008952A
:1010A00090916C019B83E0910001EC83A09075010D
:1010B000B0907601F5E06F9FB0011124CB0184550B
:1010C0009F4F3C01650119829981212C953029F0AF
:1010D000C3010196F30124903C014201F8E0FA8338
:1010E00020FE1EC08C818D8302C02B812D8310E0D9
:1010F00000E00315C8F4C601800F911F9F838E8303
:10110000F12CE12CE31478F5B4016E0D7F1D4D81B7
:101110008E819F810E94E0079FEFE91AF90AF2CFC2
:101120009B81EC819E13E1CF2694EA81E150EA8312
:1011300088859985880E991EE111D2CF99819F5F8C
:101140009983E885F985CE0EDF1E963009F0BCCF75
:10115000C501F9813F9E800D911D11249093760168
:101160008093750182CF0F5F1F4FC3CF089590E02A
:1011700080E008958F929F92AF92BF920F931F933A
:10118000CF93DF93CDB7DEB7A1970FB6F894DEBF4C
:101190000FBECDBF19A2423008F44AE08E010F5DA8
:1011A0001F4F842E912CB12CA12CA50194010E94DB
:1011B0004713E62FB901CA01EA3044F5E05DD801D2
:1011C000EE938D01232B242B252B79F790E080E0E3
:1011D000109769F0FD0101900020E9F73197AF0108
:1011E0004A1B5B0BBD018CEF95E00E949406A19613
:1011F0000FB6F894DEBF0FBECDBFDF91CF911F9128
:101200000F91BF90AF909F908F900895E95CD7CFDA
:10121000CF92DF92EF92FF92CF93DF936C01990F01
:10122000EE08FF08F7FE19C06DE28CEF95E00E9412
:10123000FE07EC0166277727CB016C197D098E0923
:101240009F094AE00E94BA088C0F9D1FDF91CF9141
:10125000FF90EF90DF90CF9008954AE0C701B6016C
:10126000DF91CF91FF90EF90DF90CF900C94BA0870
:101270000C94121382E090E00E94380981110C94C2
:10128000C10710925A013E983F9808951F920F92FD
:101290000FB60F9211248F939F938091E10090914C
:1012A000E100937F9093E10083FF0FC01092E9006B
:1012B00091E09093EB001092EC0092E39093ED009C
:1012C0001092980198E09093F00082FF22C093E082
:1012D0009093E9009091F200992319F09AE390938A
:1012E000E80090918901992341F0909189019150F2
:1012F00090938901911101C05D9A90919701992372
:1013000041F090919701915090939701911101C0F4
:10131000289A84FF18C08091E2008E7E81608093BD
:10132000E2008091E1008F7E8093E10080918A014C
:101330008E7E806180938A019F918F910F900FBE66
:101340000F901F90189580FFF7CF8091E2008E7E5E
:1013500080618093E2008091E1008E7E8093E100C5
:1013600080918A018E7E8160E5CF1F920F920FB629
:101370000F921124CF92DF92EF92FF920F931F935F
:101380002F933F934F935F936F937F938F939F938D
:10139000AF93BF93EF93FF93CF93DF93CDB7DEB7B8
:1013A0006C97DEBFCDBF1092E9008091E80083FF0B
:1013B00025C068E0CE0145960E94870682EF8093A3
:1013C000E8008D8987FF39C09091E80090FFFCCF3D
:1013D000982F907609F034C19E894F89588D2F89B6
:1013E000F88C911131C0803861F58091880180932B
:1013F000F1001092F1008EEF8093E8006C960FB62A
:10140000F894DEBF0FBECDBFDF91CF91FF91EF917A
:10141000BF91AF919F918F917F916F915F914F910C
:101420003F912F911F910F91FF90EF90DF90CF9000
:101430000F900FBE0F901F9018959EEF9093E800AD
:10144000C7CF1092F100D5CF913059F48111D3CF8D
:101450004130510581F6809188018D7F809388010C
:10146000CACF933049F48111C6CF4130510519F6E6
:10147000809188018260F2CF953041F48091E8003C
:1014800080FFFCCF20682093E300B5CF963009F0B1
:10149000A9C00B8D1C8D22E01092E90010928601EC
:1014A00010928501F2122EC01092840110928301D5
:1014B0000E9456061F8299E09983FA8291E09E83EA
:1014C00090EA98879AEF998720918501309186015B
:1014D000275F3F4F3C832B838D831092E90010924E
:1014E000860110928501109384010093830149E0E5
:1014F00050E0BE016F5F7F4F80E00E9430060E9487
:10150000560679CF10938401009383010E946D05E4
:10151000DC0112960D911C910115110509F451C1C0
:10152000D801ED91FC910480F581E02DBE016B5E48
:101530007F4FC8010995009709F03EC1F801008569
:101540001185EACFF3E0FF120EC08F89882309F4DA
:1015500040C0823061F440E860E189ED99E00E948A
:10156000330D811148CF81E28093EB0047CF81306A
:1015700029F440E86BE08DEC99E0F1CF833099F7E6
:101580000E946D05DC011296ED90FC908E010F5FBC
:101590001F4F6801E114F10479F0D701ED91FC913E
:1015A0000680F781E02DB801C7010995080F111DCC
:1015B000F701E084F184EECFD8011C92F60101908E
:1015C0000020E9F73197BF016C197D0940E0C601A1
:1015D000C6CF67EB79E0FB01449150E080E80E94C0
:1015E000300609CF973009F4BECF983021F481E05E
:1015F0008093F10000CF993009F0FDCE837009F09F
:10160000B2CFE5E3F1E081E031E096E321912223DE
:1016100071F08093E9003093EB00DF0111972C917A
:101620002093EC009093ED008F5F873079F78EE781
:101630008093EA001092EA008F8980939801DBCEB4
:101640008B8D9C8D1092E90010928601109285017D
:101650009093840180938301898D811192C08E893A
:101660009D89913A49F4813209F07DCF47E050E0FD
:101670006AE171E080E0B3CF913209F074CF833238
:1016800069F48F89988DB0E0A0E080931601909363
:101690001701A0931801B0931901ADCE803269F4FF
:1016A0008091E80082FFFCCF67E08AE191E00E9430
:1016B00087068BEF8093E8009ECE823209F09BCEA6
:1016C0008F8980932101EEEFFFE7859194918B3F05
:1016D0009C4D51F1E0E0F8E080911A0190911B01DE
:1016E000A0911C01B0911D01803B9440A105B10562
:1016F000F1F48091210180FD1AC0EE3F8AE0F807E5
:1017000089F587E797E791838083809160008093D4
:10171000870188E19BE00FB6F894A895809360005C
:101720000FBE9093600067CEEEEFFAE0D5CF8081D8
:1017300091818737974709F05ECEA8958091600028
:101740008861809360008091870180936000EE3F04
:101750002AE0F20789F08091FE0A9091FF0A9183B6
:10176000808349CE808191818737980751F2909389
:10177000FF0A8093FE0AC5CF1092FF0A1092FE0A5C
:101780003ACE0E946D05DC0112960D911C91011557
:10179000110509F4E8CED801ED91FC910190F0819A
:1017A000E02DBE016B5E7F4FC8010995811123CEEC
:1017B000F80100851185EBCF181619060CF41BCE25
:1017C000D2CEF1E0FF12BECE6BEB79E004CF1F92D8
:1017D0000F920FB60F9211242F933F938F939F93E5
:1017E000AF93BF9380916D0190916E01A0916F01B5
:1017F000B09170013091670123E0230F2D3758F528
:101800000196A11DB11D2093670180936D019093F6
:101810006E01A0936F01B093700180916801909167
:101820006901A0916A01B0916B010196A11DB11DE2
:101830008093680190936901A0936A01B0936B0152
:10184000BF91AF919F918F913F912F910F900FBEBC
:101850000F901F90189526E8230F0296A11DB11D29
:10186000D2CF1F920F920FB60F921124CF92DF9218
:10187000EF92FF922F933F934F935F936F937F93DA
:101880008F939F93AF93BF93CF93DF93EF93FF9388
:101890008091630190916401A0916501B09166010E
:1018A000892B8A2B8B2B09F446C080916201811110
:1018B0000BC088B190E4892788B9809161018823A1
:1018C00019F088B1805888B98091630190916401C2
:1018D000A0916501B0916601181619061A061B063B
:1018E0009CF48091630190916401A0916501B09195
:1018F00066010197A109B109809363019093640186
:10190000A0936501B0936601FF91EF91DF91CF91B4
:10191000BF91AF919F918F917F916F915F914F9107
:101920003F912F91FF90EF90DF90CF900F900FBEDF
:101930000F901F9018950E949E07811520E892072E
:1019400061F4809171008D7F8093710010929100FD
:101950004698479810926001D7CF21E0209360010C
:10196000813020E8920731F410925F0110925E01FD
:101970000E949E0797FD05C020915D01222309F476
:1019800054C020915C01211150C021E020936101DD
:10199000EC01DF77209709F04BC081E08093620172
:1019A00046983FE9C32E3FE0D32EE12CF12CCAEF3D
:1019B000D0E0E091F705F091F8050995811103C099
:1019C00081E08093620180916101882329F08091F8
:1019D0006201882309F43FC047980E949E07009740
:1019E000F1F19C01DE010E946913DC01CB0129E0C9
:1019F000B595A795979587952A95D1F71092900060
:101A00002AE020939100D0929900C0929800809390
:101A1000630190936401A0936501B0936601809186
:101A200071008260809371006FCF10926101B0CF1E
:101A30009E0150E040E060E472E48FE090E00E949C
:101A4000281369017A0181E0C81AD108E108F10878
:101A500010926201AECF4699BFCF479ABECF8FEFAB
:101A60009FEFDC01CBCFEF92FF920F931F93CF93A9
:101A7000DF93F82E192FE62E042F81E0860F880FB2
:101A80000E94020683E00E940206CF2DD12FEC0EA9
:101A9000FD2EF11CCE15DF05B9F007FF13C0FE01C6
:101AA00084910E940206182F80E00E940206812382
:101AB00021968111EFCFDF91CF911F910F91FF9070
:101AC000EF9008958881EDCF81E0F5CFE9E9F5E069
:101AD0001382128288EE93E0A0E0B0E084839583C5
:101AE000A683B7838FE391E0918380838FEF9FEF8D
:101AF00095878487ECEFF5E01382128281E591E00F
:101B00009183808380E295E09093F8058093F705B8
:101B100080E090E89093F6058093F50546983E9A0C
:101B200047983F9AE091FB05F0E0EE0FFF1FEE5D56
:101B3000FE4F808191819093FA058093F905089575
:101B4000CF93DF9300D000D01F92CDB7DEB778944B
:101B500084B5826084BD84B5816084BD85B58260B2
:101B600085BD85B5816085BD80916E008160809363
:101B70006E001092810080918100826080938100CC
:101B800080918100816080938100809180008160DC
:101B90008093800080919100826080939100809179
:101BA000910081608093910080919000816080938A
:101BB00090008091C10084608093C1008091C10039
:101BC00082608093C1008091C10081608093C100D8
:101BD0008091C30081608093C3008091C0008260C7
:101BE0008093C0008091C20081608093C200809188
:101BF0007A00846080937A0080917A00826080937A
:101C00007A0080917A00816080937A0080917A00D6
:101C1000806880937A001092980110928801109247
:101C20008A018091D70081608093D70080EA8093F9
:101C3000D80089B5806189BD89B5826089BD09B444
:101C400000FEFDCF61E070E080E090E00E94E606DB
:101C50008091D8008F7C80618093D8008091E000D3
:101C6000807F8093E0008091E1008E7E8093E10090
:101C70008DE08093E200559A209A81EC80937C005D
:101C800085B1806F85B984B1877E84B984B1876E50
:101C900084B95E9A5F988AB1806D8AB9769A6E9897
:101CA00081B3806F81BB899880B38D7080BB80E5E4
:101CB0008CBD81E08DBD85E090E00E94B4075F9A05
:101CC00085E090E00E94B4075E985C98ECE5F6E051
:101CD00084918EBD00000DB407FEFDCF319626E045
:101CE000E936F207A9F75C9A81E880936400809155
:101CF00065008160809365000E94DD0780E80E9496
:101D0000D2078823A9F05C9885EA8EBD00000DB447
:101D100007FEFDCF5C9A2E982F982D988091640035
:101D200080628093640081E083BF889513BEFCCFFE
:101D300084E00E94D207882309F448C02D9884E8E3
:101D40000E94D2078823E1F00E94B20788EC90E05D
:101D50000E94B4072F9882E090E00E9412138F3FF8
:101D600029F06FEF82E090E00E941A1384EF91E077
:101D70000E94B4072F9A84E80E94D2078111FBCFFA
:101D800084E10E94D2078823E1F00E94B20788EC28
:101D900090E00E94B4072E9882E090E00E94121317
:101DA000882329F060E082E090E00E941A1384EF1B
:101DB00091E00E94B4072E9A84E10E94D20781111B
:101DC000FBCF88EC90E00E94B407B2CF0E94B2072C
:101DD0000E943A0981E090E00E943809382F34705F
:101DE000932E81FF11C031112E9841EF5FEF5B837D
:101DF0004A8308E010E080E40E94D2078823E1F1E2
:101E00002E9A2F9A0E94B20782E390E00E94B407B4
:101E10000E94B9078111F8CF81E28093010181E02E
:101E20008093000180936C010E943A090E94C107CF
:101E300000E510E069E1462E512C56E1252E51E0D7
:101E4000352E8FB7F89440916D0150916E016091DD
:101E50006F01709170018FBF80917101882309F427
:101E6000D7C01092710180E0682E80E0782E67283C
:101E700041F30E940000E1CF992031F08A819B81DB
:101E8000049711F42E9A2F9881E00E9423052A814D
:101E90003B8137FF03C031952195310927703327E6
:101EA0008A819B8197FD0796E3E095958795EA9552
:101EB000E1F76A807B8077FE05C00197A801421B8D
:101EC000530B9A01AC015695542F442757954795CB
:101ED00047565E4FB0E0A0E03801621A730A8E3FA9
:101EE0006FEF960709F43BC06A01E4E9CE0ED11CFE
:101EF0007A0170E060E0FD01E455FA4F5F018F3F29
:101F0000980779F0F501E60FF71FE491F0E02F0153
:101F1000022E01C0440C0A94EAF7F701848848288D
:101F2000448A2115310581F0F501E60FF71FE49190
:101F3000F0E02F01062C02C0559447940A94E2F772
:101F4000F6018080482840826F5F7F4FFFEFCF1AF5
:101F5000DF0AEFEFEE1AFE0A6835710581F6019689
:101F6000A85ABF4F40585F4FA03BB10509F0B7CF0B
:101F70000E94DD078FE090E00E94B4072A813B8138
:101F80002F5F3F4F3B832A832931310509F033CF3F
:101F9000992011F02F9A2D9880E991E00E94B407C2
:101FA0000E94B20781E090E00E94380980FF2CCFA8
:101FB0008AE090E00E9438099FEF980F9E3F08F05A
:101FC00023CF22E330E0309376012093750128E39C
:101FD00030E030937801209377014BE050E05B8351
:101FE0004A83682F8CEF95E00E94FE078A819B81CF
:101FF0000E943809AA81BB811196BB83AA8351979D
:1020000081F70E94DD0788EE93E00E94B407FCCEC2
:1020100080917201B42FB81B8B2F90910101B917D9
:1020200048F48F5F891708F01ECFE1E0E3BF889581
:1020300013BE19CFF1E0F0937101409372018091CA
:1020400073019091740101969093740180937301D0
:1020500080917A01809379010E94B90780937A0177
:10206000809182018823A9F18091F9059091FA0568
:102070002091800130918101821793070CF031C2C9
:102080002A31310509F059C22091FB05273008F0AB
:1020900054C203969093FA058093F905E4E0F1E0C9
:1020A00042E251E0819191919F01225031090396C2
:1020B000D9018D939C93DA018D919D91AD019D0184
:1020C000225031090396D9018D939C932E163F0619
:1020D00049F780E0E9E9F1E081118FEF0024819375
:1020E0008193819381930394D1F7109376010093A8
:1020F0007501E8E2F0E0F0937801E09377018091D8
:10210000820190E00E940809109376010093750106
:1021100042E3642E712C7092780160927701609195
:10212000FB0570E090E080E04AE00E94BA0824E6F7
:1021300030E03093760120937501509278014092FF
:10214000770131E03093020180918001909181010B
:102150000E9408091093760100937501509278014E
:10216000409277018091F9059091FA050E94080943
:102170006091030170E080917301909174010E945D
:102180007813892B69F480917B0190917C010196F1
:10219000843091050CF0D4C190937C0180937B0135
:1021A00034E0A32E31E0B32E6501D6018D909D90D1
:1021B0006D01F12CE12C41E0B401C7010E94E00760
:1021C000BFEFEB1AFB0AE1E8EE16F104A1F7F6E126
:1021D000CF16F1E0DF0649F7F12CE12CD5018D9106
:1021E0009D915D0110927601109275019093780196
:1021F00080937701B1E0B0930201C7010E94080902
:10220000EFEFEE1AFE0AF9E0EF16F10439F720912C
:102210007D0130917E018091F9059091FA05409100
:102220007F01423009F4A0C108F08FC1442309F4B2
:1022300097C1413009F4ABC180917F018350823056
:1022400008F457C080E20E94D207882319F082E088
:1022500080937F0180E20E94C707811110927F0165
:1022600080E40E94D207882321F066246394609260
:102270007F0180E40E94C707811110927F01909135
:1022800079012091F9053091FA0593FD18C08091EC
:102290007A0183FF14C080918201811110C083E014
:1022A00080937F0110927C0110927B018091FB054D
:1022B0008F5F8093FB05309381012093800197FD10
:1022C00018C080917A0187FF14C08091820181112A
:1022D00010C084E080937F0110927C0110927B01FA
:1022E0008091FB0581508093FB0530938101209301
:1022F000800180E10E94D207882319F085E0809355
:102300007F0180E10E94C707811110927F0184E064
:102310000E94D20760917B01E0917F0122E8E29F59
:10232000C00111248759994FFC01B4913196349121
:102330003196EB2EF12C6623D9F081E090E0232F2B
:10234000277011F490E080E0232F2695269526959E
:10235000820F911D8E9DA0018F9D500D9E9D500D51
:102360001124649FC001659F900D1124E80FF91F8F
:1023700040917D0150917E016701C40ED51E1C1451
:102380001D040CF04CC1403851050CF048C180913F
:10239000F9059091FA05BC01630F711D1616170619
:1023A0000CF03DC1803491050CF039C1309709F42F
:1023B00036C1282F2770922EBC0197FF02C0695F9B
:1023C0007F4FA3E075956795AA95E1F7A62F97FF34
:1023D00004C0992011F0AFEFA60F88279927841B1E
:1023E000950B57FD02C090E080E060E8C616D1046E
:1023F0000CF40BC120E8622E641A681A69826A2FF5
:102400000A2E000C770BD62ED094AF3F0CF0D12CB7
:10241000BB24B394232F277009F4B12C369536953D
:102420003695B30E6B0D711D693071051CF028E0F7
:10243000B22EBA1A3D2D3A0F20E83203B001112412
:10244000460F571F480F591FBD9D800D911D112428
:102450008E0F9F1FC92C092C000CDD086FEF70E058
:10246000092C02C0660F771F0A94E2F760957095F9
:102470007D832B2D2A0F231709F4D1C0DA01A7562B
:10248000BE4FB12CA12C6980A61408F0C2C0FC017B
:10249000EA0DFB1DE491F0E03F010C2C02C0660C3C
:1024A000771C0A94E2F77B826A8237FD04C07C9035
:1024B000762276287C92992079F037306CF43D01B1
:1024C000E0E86E0E711CF3018080FD81F821FC8331
:1024D0008B808F2AF3018082FFEFAF1ABF0A11961B
:1024E000D2CF281739074CF52A31310531F5209123
:1024F000FB05222311F103979093FA058093F905C8
:10250000E4E0F1E042E251E0819191919F0122509B
:1025100031090397D9018D939C93DA018D919D9197
:10252000AD019D01225031090397D9018D939C93F0
:10253000B1E0E631FB0741F7CCCD10928201C9CD65
:1025400010927C0110927B012BCE443009F446C0DE
:1025500050F1453009F070CEF1E0F09303016CCEFC
:102560008EE18093030168CE23503109203F4FEF65
:1025700034072CF030937E0120937D0106C080E863
:1025800090E090937E0180937D0183E0EACF2D5F00
:102590003F4F2138310574F3A0EFBFEFB0937E01B8
:1025A000A0937D01F2CF25E020930301E091FB058C
:1025B000F0E0EE0FFF1FEE5DFE4F20813181281706
:1025C000390734F403979093FA058093F90534CED4
:1025D000B1E0B093820110927F012ECE25E02093CE
:1025E0000301E091FB05F0E0EE0FFF1FEE5DFE4FF3
:1025F000208131818217930714F40396E4CF10925F
:102600007F01E1E0E093820117CE7B2E781A798278
:10261000F6CE3F5F8E0D9F1D40585F4F2CCF0E941E
:10262000DD0721CCF999FECF92BD81BDF89A99279B
:1026300080B50895262FF999FECF1FBA92BD81BDAE
:1026400020BD0FB6F894FA9AF99A0FBE0196089534
:10265000052E97FB1EF400940E943F1357FD07D0F0
:102660000E94471307FC03D04EF40C943F1350957F
:102670004095309521953F4F4F4F5F4F089590956E
:102680008095709561957F4F8F4F9F4F0895A1E280
:102690001A2EAA1BBB1BFD010DC0AA1FBB1FEE1FDC
:1026A000FF1FA217B307E407F50720F0A21BB30B27
:1026B000E40BF50B661F771F881F991F1A9469F7A3
:1026C00060957095809590959B01AC01BD01CF01FF
:1026D0000895A29FB001B39FC001A39F700D811DFB
:1026E0001124911DB29F700D811D1124911D08951B
:1026F000AA1BBB1B51E107C0AA1FBB1FA617B70728
:1027000010F0A61BB70B881F991F5A95A9F7809543
:102710009095BC01CD010895EE0FFF1F0590F49137
:08272000E02D0994F894FFCFAD
:102728000110010A3F002A0015000000EBFFD6FF48
:10273800C1FFACFF97FFFFFFFFFF00E100000000B3
:1027480000002F001A000500F0FFDBFFC6FFB1FFF5
:102758009CFF87FF00C1808100000000000000810D
:10276800051907A2059705E805A605C40500000098
:0A27780000FE079406B708B608003B
:00000001FF
