:100000000C9421080C9449080C9449080C94490854
:100010000C9449080C9449080C9449080C9449081C
:100020000C9449080C9449080C9477100C94E61031
:100030000C9449080C9449080C9449080C944908FC
:100040000C9449080C9449080C9449080C944908EC
:100050000C9449080C9449080C9449080C94181302
:100060000C9449080C9449080C9449080C944908CC
:100070000C9449080C9449080C9449080C944908BC
:100080000C9462130C9449080C9449080C94490888
:100090000C9449080C9449080C9449080C9449089C
:1000A0000C9449080C9449080C944908000000007D
:1000B000003E5B4F5B3E3E6B4F6B3E1C3E7C3E1CEE
:1000C000183C7E3C181C577D571C1C5E7F5E1C0034
:1000D000183C1800FFE7C3E7FF0018241800FFE7EB
:1000E000DBE7FF30483A060E2629792926407F05AE
:1000F0000507407F05253F5A3CE73C5A7F3E1C1CC4
:1001000008081C1C3E7F14227F22145F5F005F5F83
:1001100006097F017F006689956A6060606060946F
:10012000A2FFA29408047E040810207E2010080874
:100130002A1C08081C2A08081E101010100C1E0C7F
:100140001E0C30383E3830060E3E0E060000000011
:100150000000005F00000007000700147F147F14F8
:10016000242A7F2A1223130864623649562050003D
:1001700008070300001C2241000041221C002A1C29
:100180007F1C2A08083E0808008070300008080814
:100190000808000060600020100804023E51494534
:1001A0003E00427F400072494949462141494D3352
:1001B0001814127F1027454545393C4A49493141B9
:1001C000211109073649494936464949291E000087
:1001D00014000000403400000008142241141414DC
:1001E0001414004122140802015909063E415D59C8
:1001F0004E7C1211127C7F494949363E41414122D1
:100200007F4141413E7F494949417F090909013EFA
:10021000414151737F0808087F00417F4100204021
:10022000413F017F081422417F404040407F021C33
:10023000027F7F0408107F3E4141413E7F0909094A
:10024000063E4151215E7F09192946264949493216
:1002500003017F01033F4040403F1F2040201F3FDC
:100260004038403F63140814630304780403615961
:10027000494D43007F4141410204081020004141A3
:10028000417F04020102044040404040000307084F
:100290000020545478407F2844443838444444284B
:1002A000384444287F385454541800087E090218F2
:1002B000A4A49C787F0804047800447D400020407A
:1002C000403D007F1028440000417F40007C0478BE
:1002D00004787C080404783844444438FC18242406
:1002E0001818242418FC7C08040408485454542486
:1002F00004043F44243C4040207C1C2040201C3C03
:100300004030403C44281028444C9090907C4464F9
:10031000544C44000836410000007700000041368C
:10032000080002010204023C2623263C1EA1A16112
:10033000123A4040207A3854545559215555794144
:100340002154547841215554784020545579400C1B
:100350001E527212395555555939545454593955FC
:100360005454580000457C410002457D420001453F
:100370007C40F0292429F0F0282528F07C545545AC
:10038000002054547C547C0A097F4932494949323F
:100390003248484832324A4848303A4141217A3A54
:1003A00042402078009DA0A07D39444444393D401E
:1003B00040403D3C24FF2424487E4943662B2FFCCB
:1003C0002F2BFF0929F620C0887E09032054547979
:1003D000410000447D413048484A32384040227A4A
:1003E000007A0A0A727D0D19317D2629292F2826C7
:1003F0002929292630484D402038080808080808CF
:100400000808382F10C8ACBA2F102834FA00007B27
:10041000000008142A142222142A1408950022002D
:1004200095AA005500AAAA55AA55AA000000FF00E7
:10043000101010FF00141414FF001010FF00FF1024
:1004400010F010F0141414FC001414F700FF000056
:10045000FF00FF1414F404FC141417101F10101FD5
:10046000101F1414141F00101010F0000000001FC3
:10047000101010101F10101010F010000000FF10CE
:100480001010101010101010FF10000000FF1400CA
:1004900000FF00FF00001F10170000FC04F41414FC
:1004A0001710171414F404F40000FF00F7141414C8
:1004B00014141414F700F7141414171410101F1048
:1004C0001F141414F4141010F010F000001F101F6B
:1004D0000000001F14000000FC140000F010F010D9
:1004E00010FF10FF141414FF141010101F00000050
:1004F00000F010FFFFFFFFFFF0F0F0F0F0FFFFFF54
:100500000000000000FFFF0F0F0F0F0F38444438AA
:10051000447C2A2A3E147E02020606027E027E02E5
:1005200063554941633844443C04407E201E200604
:10053000027E020299A5E7A5991C2A492A1C4C7241
:1005400001724C304A4D4D303048784830BC625AC8
:10055000463D3E494949007E0101017E2A2A2A2A58
:100560002A44445F444440514A444040444A514034
:100570000000FF0103E080FF000008086B6B0836F5
:1005800012362436060F090F060000181800000066
:100590001010003040FF0101001F01011E00191D55
:1005A0001712003C3C3C3C000000000000B0000082
:1005B000A170E150964F26900F1D070C0096690020
:1005C0004AE44A0048444000806810000F99FB8FBD
:1005D0009DBDBBFB77D4D4DF1F1A1AFE7F5D5DFF84
:1005E000805A0000A0A4AA0010BA3400FF5953F3A7
:1005F000FF9B9B9EFFB9B996FF9595D19FF4940FF1
:10060000FC295F91FF1838F8FF9294FFFF95D5F70A
:10061000BFB5DDD7F18F81F1F788C8F779C6467984
:1006200009FD9B090196F800828182805071620069
:100630007756560076763700A2B773010772060028
:100640007827500073347400775176007F55F70097
:1006500047711000324772007364730015A2750071
:1006600061679400009F6060F4F2F6F2F0F89C8EEF
:100670008783878E9CF8F00000FEFF0303030303CB
:10068000070EFCF80000FEFF0303030303070EFC44
:10069000F80000FFFF00000000000000FFFF000066
:1006A000FEFF8383838383C7EE7C380000F8FC0E53
:1006B00007030303070EFCF800003F7FE0C08080C3
:1006C000C0E07F3FFFFF01010101010101FFFF00C9
:1006D00000FFFF0C0C0C0C1C3E77E3C100007FFFF9
:1006E000C0C0C0C0C0E0703F1F00001F3F70E0C02E
:1006F000C0C0E0703F1F00007FFFC1C1C1C1C1E3A6
:10070000773E1C00001F3F70E0C0C0C0E0703F1F7C
:10071000000000000001FFFF01000000D5F08D1473
:10072000A1C881CFD9F1AF200010100080C040C017
:100730004040C04040C04060F0F880010303030324
:100740000303070F1F1F3B330303010000000000DA
:100750000000000000000080C0E000040E0F0D0F3C
:100760000D0D1F3D7D7FEDCD0F0F060080C040C0F9
:100770004040C04040C04060F0F8800103030303E4
:100780000303070F1F1F3B3303030140E0F0D0F0CA
:10079000D0D0F0D0D0F0D0D8FCFE60000000000037
:1007A0000000010307070E0C00000010100080007D
:1007B00000F88888F88888F8080808F8000F6F1F84
:1007C0004FEF4F1F7F7F7F1F48E8481F60000000EA
:1007D00000F01010F01010F0101010F0000E6F1E4E
:1007E000AE4FAF1F7F7F7F1FA848A81F600000008B
:1007F00000E02020E02020E0202020E0000C6E1C03
:100800004CEF4E1E7F7E7E1F48E8481F60000000B0
:1008100000F01010F01010F0101010F0000E6F1E0D
:10082000AE4FAF1F7F7F7F1FA848A81F601010002A
:100830001878F8FCFCFCFF7F3EFEC00000000000C2
:1008400000000107030100000000030F3CF0C0009E
:100850000080C0C0F0F0F0F0800000000000000256
:10086000070F1F3F0F03000103070E1C3870E00045
:100870000000B0F0F0F0F0C0808000000000000C3C
:100880001E3F7FFF3F0700000101030306060C0027
:100890000080C0C0F0F0F0F0800000000000000216
:1008A000070F1F3F0F03000103070E1C3870E010F5
:1008B0001030F8FCFCF8CCCEFFFFCECCF8F8FCF8FA
:1008C0003000011F3F7F7F7FFFFF7F7F7F3F1F0142
:1008D000000030F0F8FCCCCEFFFFCECCFCF8F000EE
:1008E000000000011F7FFFFFFFFF7F7F3F0F000021
:1008F0000000000038FCFEE6FFFFE6FEFE7C1C0860
:10090000000000000000030F3F7F7FFFC780000052
:10091000000030F0F8FCCCCEFFFFCECCFCF8F000AD
:10092000000000011F7FFFFFFFFF7F7F3F0F0000E0
:10093000001010000000000000082878ACBFBFFFC6
:100940003C08080000000002020202020E9FFF267F
:1009500006060E000000000000082878ACBFBFFFAC
:100960003C08080000000002020242423E0F0FB69F
:10097000C6060E408000000000082838ECBFBFFF0C
:100980003C0808150A050002028282621E0F9FE6DB
:1009900006060E408000000000082878ACBFBFFFAC
:1009A0003C0808150A05000202020282FE0F1F160B
:1009B000A6460E10100000183CB6F6FFFFFFF6B674
:1009C0003C18000000E01806C13C03CF3FCF033CB9
:1009D000C10638C000000060F0D8D8FCFCFCD8D8B4
:1009E000F060000000C03008C4320FBF7FBF0F327C
:1009F000C40830C000000080C06060F0F0F06060AB
:100A0000C080000000804021934B3FBF7FBF3F4B21
:100A10009321408000000060F0D8D8FCFCFCD8D8BE
:100A2000F060000000C03008C4320FBF7FBF0F323B
:100A3000C40830C000101000706838F0E08000007A
:100A4000000000000000000884C4C6E77F3F3FFEAE
:100A5000F8E0C06018040400706838F0E08000001E
:100A6000000000000000000884C4C2E77F3F3FFE92
:100A7000F8E0C0601804040000183828F0E0800096
:100A8000000000000000000081C2C2E67F3FBF7F7F
:100A9000F8E0C06020201000183828F0E080000046
:100AA000000000000000000182C2C6E77F3FBF7E59
:100AB000F8E0C06020201010101030080605FFFE7E
:100AC00000000000000000000000000000007FFFA8
:100AD000E0781E071E78E0781E08060507FEF8007D
:100AE000000000000000000000000000001F3F1E8A
:100AF000071E78E0781E071E7800060507FEF8003E
:100B0000000000000000000000000000003F7FE047
:100B1000781E071E78E0781E0708060507FEF80015
:100B2000000000000000000000000000001F3F1E49
:100B3000071E78E0781E071E781010000080808164
:100B4000FFFF81E0F0E08080FE828238101F1F7F6F
:100B5000DFBF7F1F1F7FDFBF7F1F1F0000828084DA
:100B6000FDFC85E0F2E08080FE828238101F1F7F4E
:100B7000BFDF7F1F1F7FBFDF7F1F1F00008A8491A1
:100B8000F4F192E8F4E08080FE828238101F1F7F2B
:100B9000DFBF7F1F1F7FDFBF7F1F1F00008280849A
:100BA000FDFC85E0F2E08080FE828238101F1F7F0E
:100BB000BFDF7F1F1F7FBFDF7F1F1F101000109040
:100BC000D0B8FEFFFE7810101000000000101012C8
:100BD0001415BDFF3D10101834525AAAAA001090E7
:100BE000D0B8FEFFFE7810101000000000101012A8
:100BF0001415BDFF3D10101834525AAAAA001090C7
:100C0000D0B8FEFFFE781010100000000010101881
:100C10001415BDFF3D10101834525AAAAA001090A6
:100C2000D0B8FEFFFE781010100000000010101861
:100C30001415BDFF3D10101834525AAAAA10100006
:100C40000000003C4ADBD7DB4A3C0000000000000B
:100C5000000884C2310D030D31C284080000000079
:100C60000010183C5ADBCFEF7E3C00000000000073
:100C7000000884C2310D030DB1C608000000000059
:100C80000000003C4ADBD7DB4A3C000000000000CB
:100C9000000884C2310D030D31C284080000000039
:100CA0000000003C7EEFCFDB5A3C18100000000033
:100CB000000008C6B10D030D31C284080000001009
:100CC00010000000003C7EEFCFDB5A3C9810000083
:100CD0000000000000026323FFA72A31000000008B
:100CE00000000000003C7EEFCFDB5A3C9810000073
:100CF0000000000000C4B60F030302031C10000034
:100D000000000000003C7EEFCFDB5A3C18100000D2
:100D1000000000662121310D0305091224C2810063
:100D200000000000003C7EEFCFDB5A3C9810000032
:100D30000000000000046A29232F32C18000000057
:100D4000001010000010983C5ADBCFEF7E3C0000F2
:100D500000000000000000312AA7FF23630200000A
:100D6000000000000010983C5ADBCFEF7E3C0000F2
:100D70000000000000101C030203030FB6C40000B3
:100D8000000000000010183C5ADBCFEF7E3C000052
:100D90000000000081C224120905030D31212166E3
:100DA000000000000010983C5ADBCFEF7E3C0000B2
:100DB00000000000000080C1322F23296A040000D7
:100DC0000000001010000000003C4ADBD7DB4A3C6A
:100DD000000000000000000884C2310D030D31C284
:100DE0008408000000000000003C6AEBE7EB6A3C6E
:100DF0000000000000000000001E817D037D811EB8
:100E00000000000000000000003C4ADBD7DB4A3C49
:100E10000000000000000000001E817D037D811E97
:100E20000000000000000000003C4ADBD7DB4A3C29
:100E30000000000000000000001E817D037D811E77
:100E40000000000000101000002040BC7ADBD7DB5F
:100E50007ABC402000000000000080C0310D030D6E
:100E600031C08000000000000000003C7ADBD7DBCE
:100E70007A3C000000000000000884C2310D030D20
:100E800031C28408000000000000003C7ADBD7DBA0
:100E90007A3C000000000000000884C2310D030D00
:100EA00031C28408000000000000003C7ADBD7DB80
:100EB0007A3C000000000000000884C2310D030DE0
:100EC00031C2840800000010108080000000000083
:100ED0000440000082200004000106182020232C7A
:100EE00030707CC2FFFFF67C38808000000000205C
:100EF00000040000A0020008000106182020232C96
:100F000030707CC2FFFFF67C38000000808000104B
:100F10000000042080000210000000003F2020207C
:100F20003F707CC2FFFFF67C38000000808000002C
:100F30000800400280002002000000003F20202026
:100F40003F707CC2FFFFF67C381010000000003CB0
:100F50007ADBD7DB7A3C000000000000000884C286
:100F6000310D030D31C2840800000000002040BC98
:100F70007ADBD7DB7ABC40200000000000030204CB
:100F800005090F090504020300000008142040842D
:100F900048502070F884FFFEE4F870000000000064
:100FA000000000000001010101000008142040843D
:100FB00048502070F884FFFEE4F870000000000044
:100FC0000000000000010101010000080B00020206
:100FD00002000009040000010202000005240010C4
:100FE000010524010101042402060524060001076D
:100FF00005810310004009040100020A00000007F7
:1010000005020240000007058302400000040309B6
:101010000412010002EF0201404123368000010169
:1010200002030141726475696E6F204C4C430041AC
:10103000726475696E6F204C656F6E6172646F00CB
:10104000F61311241FBECFEFDAE0DEBFCDBF12E0F2
:10105000A0E0B1E0EEEAFFE402C005900D92A43DED
:10106000B107D9F728E0A4EDB2E001C01D92AC377A
:10107000B207E1F718E0C1E2D8E004C02197FE0111
:101080000E94CF27C032D107C9F70E945F140C9489
:10109000D5270C9400008091D8020895E3E6F4E08F
:1010A000A0E0B8E000800EBC8111012C1197A0FDDA
:1010B000FDCF0192B9F70DB40895FC018091FB03B7
:1010C000882311F13FB7F89482E08093E9002091E2
:1010D000F200822F90E01816190614F481E090E0D7
:1010E000882339F0289844E64093FA034091F100B0
:1010F0004083222339F02091F200211103C02BE616
:101100002093E8003FBF08958FEF9FEF08952FB71A
:10111000F89483E08093E9009091E800892F807231
:1011200095FF04C09091F20080E4891B2FBF0895C1
:101130008091F20381110DC082E08093EE0384E080
:101140008093EF031092F1031092F00381E08093FB
:10115000F2038EEE93E00895CF93DF931F92CDB705
:10116000DEB76983DC01ED91FC910280F381E02D13
:1011700041E050E0BE016F5F7F4F09950F90DF9116
:10118000CF91089583E08093E9008091F200882355
:1011900019F08AE38093E80008950E94870890E0A0
:1011A0000895CF93DF931F92CDB7DEB7FC018485FE
:1011B000958597FD08C02FEF3FEF358724870F9067
:1011C000DF91CF910895CE0101960E945D080197AD
:1011D00019F4898190E0F3CF8FEF9FEFF0CF0F9359
:1011E0001F93CF93DF931F92CDB7DEB78C01FC0125
:1011F0008485958597FF0BC0CE0101960E945D08FE
:10120000019771F4898190E0F80195878487F8014E
:10121000848595850F90DF91CF911F910F9108954F
:101220008FEF9FEFF1CFFC018485958597FD0BC073
:101230009FB7F89482E08093E9008091F2009FBF0D
:1012400090E0019608959FB7F89482E08093E900BA
:101250008091F2009FBF90E008954091E803509183
:10126000E9032091E6033091E70342175307B4F4F2
:101270009091E8009570E1F39091E80092FD19C01B
:101280008093F1008091E8039091E90301968F73B8
:101290009927892B19F48EEF8093E8008091E80359
:1012A0009091E90301969093E9038093E80381E02C
:1012B000089580E00895DF92EF92FF920F931F93BD
:1012C000CF93DF93D82E8A01EB017B01E40EF51E4C
:1012D000CE15DF0559F0D7FE12C0FE0184910E94A1
:1012E0002D0921968111F4CF0FEF1FEFC801DF9177
:1012F000CF911F910F91FF90EF90DF90089588811B
:10130000EECF0F931F93CF93DF931F92CDB7DEB72E
:1013100082E0898342E450E06BEC7FE080E80E9449
:101320005B090E949808DC0112960D911C91011531
:10133000110589F0D801ED91FC910280F381E02D37
:10134000BE016F5F7F4FC801099597FD04C0F8018A
:1013500000851185ECCF89810F90DF91CF911F918E
:101360000F910895615030F02091F100FC0120832D
:101370000196F8CF289884E68093FA030895AF92F7
:10138000BF92CF92DF92EF92FF920F931F93CF9372
:10139000DF936C017B018B01040F151FEB015E01D4
:1013A000AE18BF08C017D10759F06991D601ED9169
:1013B000FC910190F081E02DC6010995892B79F708
:1013C000C501DF91CF911F910F91FF90EF90DF90BA
:1013D000CF90BF90AF9008953FB7F8948091E3020B
:1013E0009091E402A091E502B091E60226B5A89B97
:1013F00005C02F3F19F00196A11DB11D3FBFBA2FA7
:10140000A92F982F8827BC01CD01620F711D811D66
:10141000911D42E0660F771F881F991F4A95D1F7EB
:1014200008958F929F92AF92BF92CF92DF92EF92E8
:10143000FF926B017C010E94EC094B015C01C1141D
:10144000D104E104F104B9F00E94EC0968197909AA
:101450008A099B09683E73408105910580F321E06C
:10146000C21AD108E108F10888EE880E83E0981EC0
:10147000A11CB11CE4CFFF90EF90DF90CF90BF9004
:10148000AF909F908F9008958F929F92AF92BF924E
:10149000CF92DF92EF92FF920F931F93CF93DF9340
:1014A0006C017B018A0180915B01882309F45CC097
:1014B0008091FB03882309F457C08091ED0380FFDE
:1014C00005C08091E00082608093E000E801B12CCB
:1014D0008AEFA82E93E0892E2AE3922E209711F40A
:1014E000BB20D9F10E94870881110AC0AA94AA20C2
:1014F000D9F161E070E080E090E00E94110AEECF47
:101500008C171D0611F00CF08C2F9FB7F894809269
:10151000E9002091E80025FD02C09FBFDFCF282F02
:1015200030E0C21BD30BF701815020F04191409372
:10153000F100FACFE20EF31EBB2021F09092E800FA
:10154000B12CEBCF8091E80085FDE7CF9092E800C9
:10155000BB24B394209709F3F3CF5D9884E680937E
:10156000EC03101611063CF081E090E0F601938345
:10157000828310E000E0C801DF91CF911F910F91AD
:10158000FF90EF90DF90CF90BF90AF909F908F90A3
:1015900008956F927F928F929F92AF92BF92CF9257
:1015A000DF92EF92FF920F931F93CF93DF934C0143
:1015B0007B01C22F102F98E0A92EB12C642E6694C7
:1015C00066946694712CCA0187709927892B79F5E6
:1015D000D40117962D913C91C7019927B9010E941A
:1015E000BB27269DF001279DF00D369DF00D11249F
:1015F0008E0F9F1FD4011596ED91FC91E80FF91FF6
:101600002081111112C0C095C223C083DF91CF91F8
:101610001F910F91FF90EF90DF90CF90BF90AF9010
:101620009F908F907F906F900895C22BEECFD0E067
:101630004770C42ED12C83E0660C771C8A95E1F7A5
:101640009E0101C0220F4A95EAF7012FA301B701BD
:10165000C4010E94C90AA301485F5F4FC5018C19EC
:101660009D0902C0D595C7958A95E2F7A7CF5F92ED
:101670006F927F928F929F92AF92BF92CF92DF92A2
:10168000EF92FF920F931F93CF93DF93EC016A3099
:10169000F1F48D859E859C878B878C892F85388971
:1016A000820F932F911D988B8F8781E090E0DF91BF
:1016B000CF911F910F91FF90EF90DF90CF90BF904F
:1016C000AF909F908F907F906F905F900895AB84C4
:1016D000BC84693031F429E0A20EB11CBC86AB8613
:1016E000E4CF3DEFA3163FEFB3060CF45DC08F814E
:1016F0009885A816B9060CF057C0CF84D8888DEF0E
:10170000C8168FEFD8060CF44FC089859A85C81685
:10171000D9060CF049C0603208F46FE780EE860FFE
:101720009FE9960F9A3118F49FEFC91AD90A8C30A5
:1017300011F08B3119F42FEFC21AD20A869534E0DA
:10174000839FC00111249C0124553A4F7901912CAB
:10175000812C162F1170F701E80DF91D549011110D
:101760002DC0352D3F70532E3501680C791C8C81AE
:10177000882361F001E089899A89892B09F000E0CA
:101780002FE0A601B301CE010E94C90A0989252DC7
:10179000A601B301CE010E94C90A8FEF881A980AE8
:1017A00094E089169104B9F68B8990E004962B8514
:1017B0003C85820F931F9C878B8777CF52948FE055
:1017C0005822D2CF2091B403E091B203F091B30339
:1017D000CF0102969093B3038093B203222319F0B2
:1017E000859194910895808191810895CF92DF929F
:1017F000EF92FF92CF93DF930E94E20B811520E8D6
:10180000920791F4809171008D7F80937100109206
:101810009100469847981092DB02DF91CF91FF909C
:10182000EF90DF90CF90089521E02093DB0281308C
:1018300020E8920751F48091B0039091B103909306
:10184000B3038093B2030E94E20B97FD05C0209181
:10185000DA02222309F454C02091D902211150C088
:1018600021E02093DC02EC01DF77209709F04BC0E8
:1018700081E08093DD0246983FE9C32E3FE0D32EFE
:10188000E12CF12CCAEFD0E0E0915A04F0915B0416
:101890000995811103C081E08093DD028091DC0213
:1018A000882329F08091DD02882309F43FC04798FE
:1018B0000E94E20B0097F1F19C01DE010E94982743
:1018C000DC01CB0129E0B595A795979587952A95D9
:1018D000D1F7109290002AE020939100D0929900C5
:1018E000C09298008093DE029093DF02A093E00202
:1018F000B093E102809171008260809371008DCF7E
:101900001092DC02B0CF9E0150E040E060E472E44F
:101910008FE090E00E94442769017A0181E0C81AB3
:10192000D108E108F1081092DD02AECF4699BFCF91
:10193000479ABECF8FEF9FEFDC01CBCFDC01E1E711
:10194000F0E090819D7F90831092B403ECE4F4E08A
:10195000F093B303E093B203F093B103E093B003C9
:10196000B183A08373836283558344833783268343
:1019700080E090E8918780870C94F60B8F929F927D
:10198000AF92BF92CF92DF92EF92FF920F931F938D
:10199000CF93DF93EC014115510509F4C5C0FA015D
:1019A000C490319694914E5F5F4FAC2DB0E02223EE
:1019B000E1F001E010E0892F877011F410E000E001
:1019C000E92FE695E695E695E00FF12FF11DEA9FE8
:1019D0008001EB9F100DFA9F100D1124209FF00144
:1019E000219FF00D11244E0F5F1F8D010C0F1D1F45
:1019F000101611060CF098C0C038D1050CF094C038
:101A00009B01290F311D121613060CF08DC0603496
:101A100071050CF089C04115510509F485C0F62FF8
:101A2000F770EF2E9B0177FF02C0295F3F4FE3E085
:101A300035952795EA95E1F7F22F77FF04C0EE2060
:101A400011F0FFEFF20F222733272C1B3D0BD7FDA0
:101A500002C030E020E0FC2C003811051CF080E8CA
:101A6000F82EFC1AF21A6F2F0F2E000C770B162F80
:101A70001095FF3F0CF010E0E1E0892F877009F42A
:101A8000E0E09695969596959E0F690F711D6930C9
:101A9000710514F098E09F1BD12EDF0E6D2D70E8BC
:101AA000670350011124B5016C0F7D1F620F731F76
:101AB000C19E200D311D1124420F531F2E2D0E2CBF
:101AC000000C330B9F0F9D1579F1EB01CD59DB4FC6
:101AD00010E000E00F1510F5FA01E00FF11FE4919E
:101AE000F0E04F01022E02C0880C991C0A94E2F724
:101AF000D7FC03C0888188298883EE2059F086E0CE
:101B00008D1544F05E01E0E8AE0EB11CF501808158
:101B1000892980830F5F1F4F2196DCCFD3944A0F12
:101B20005B1F60587F4FCFCFDF91CF911F910F91F7
:101B3000FF90EF90DF90CF90BF90AF909F908F90ED
:101B400008952D9A0895BC0190E080E00C94110A4C
:101B50008FB18095807F669B88601C9B8460089510
:101B60001092D8023E983F9808953E9A3F9A81E09D
:101B70008093D802089580E0E3E6F4E081118FEFCE
:101B8000002481938193819381930394D1F71092E0
:101B900041031092400310924303109242030895B0
:101BA0009091D702982329F09091D602982381E052
:101BB00009F080E008959091D702982329F490913C
:101BC000D602982381E009F480E008958091D6023E
:101BD0008093D7020E94A80D8093D6020895CF93D8
:101BE000C82F0E94A80D982F9C2381E09C1380E0B1
:101BF000CF91089580E00C944E0880389105B8F498
:101C000060347105A0F420E191E061FD94E060FD95
:101C1000990F62FD9295687F269FD0011124A80F2D
:101C2000AD59BB4F8C9140FF03C0892B8C93089515
:101C300090958923FBCF2F923F924F925F926F92A4
:101C40007F928F929F92AF92BF92CF92DF92EF924C
:101C5000FF920F931F93CF93DF93CDB7DEB72997F2
:101C60000FB6F894DEBF0FBECDBF6D30F9F4809192
:101C70004403811136C081E090E029960FB6F894B4
:101C8000DEBF0FBECDBFDF91CF911F910F91FF90AF
:101C9000EF90DF90CF90BF90AF909F908F907F900C
:101CA0006F905F904F903F902F9008956A30C9F4E5
:101CB00080914403811115C0109243031092420396
:101CC0008091020198E0899F900111248091400346
:101CD00090914103820F931F90934103809340039F
:101CE000CACF20900201E091E702EA83F09101015E
:101CF000FB83209140032E83809141038F8340908A
:101D000042035090430325E0629FF0011124E45503
:101D1000FF4FF987E887622C712C4201312C85E056
:101D2000B12C381641F0888599850196E885F985AA
:101D3000B490998788870E811F81F8E0F983B0FC01
:101D40001CC02A818B81A22E281318C0B6948981C9
:101D500081508983060D171D8111F1CF3394860CB4
:101D6000971C96E03912DBCF239C400C511C1124A8
:101D700050924303409242037ECFAB80F12CE12C82
:101D8000E21420F7F401EE0DFF1DFD83EC83D12C4E
:101D9000C12CC21460F4B8016C0D7D1D4A2D8C81DC
:101DA0009D810E94FD0DFFEFCF1ADF0AF2CF2FEFCA
:101DB000E21AF20AE5CF2F923F924F925F926F9212
:101DC0007F928F929F92AF92BF92CF92DF92EF92CB
:101DD000FF920F931F93CF93DF9300D01F92CDB745
:101DE000DEB79B838A837B016A0109838901061B15
:101DF000170B17FF03C011950195110946018A8140
:101E00009B81881A990A97FE03C091948194910846
:101E1000801691065CF49C2D8D2D6901292F382F99
:101E20009A818B81FB82EA82E92EF82E8A819B813E
:101E3000C816D9065CF49E2D8F2D7901292F382FD5
:101E40009A818B81DB82CA82C92ED82E16018A81A3
:101E50009B81281A390A29014E185F0857FE03C0D2
:101E6000519441945108310137FE03C09FEF691A24
:101E7000790A759467948FEFE216F3060CF481E00B
:101E8000A82E880FBB088A819B81C816D906CCF082
:101E90004981BC01C701801691061CF0B7018A81F7
:101EA0009B810E94FD0D6418750877FE04C0EA0C42
:101EB000FB1C620C731C8A819B8101969B838A8325
:101EC000E2CF0F900F900F90DF91CF911F910F9164
:101ED000FF90EF90DF90CF90BF90AF909F908F904A
:101EE0007F906F905F904F903F902F9008958FB7A5
:101EF000F8944091E8025091E9026091EA027091F1
:101F0000EB028FBF8091D402882321F01092D4027B
:101F100080E008959091D502242F291B922F2091C3
:101F20000001921740F49F5F9217A0F491E093BFD5
:101F3000889513BE089581E08093D4024093D50222
:101F40008091BA039091BB0301969093BB03809359
:101F5000BA0381E0089560913B0170E08091BA037B
:101F60009091BB030E94A727892B89F48091CB0312
:101F70009091CC030196843091052CF49093CC037E
:101F80008093CB0308951092CC031092CB03089555
:101F9000089590E080E00895FB0101900020E9F7AA
:101FA0003197AF01461B570BDC01ED91FC9102808C
:101FB000F381E02D09948F929F92AF92BF92EF929E
:101FC000FF920F931F93CF93DF93CDB7DEB7A19707
:101FD0000FB6F894DEBF0FBECDBF7C01FA01CB0176
:101FE00019A2223008F42AE08E010F5D1F4F822EC5
:101FF000912CB12CA12CBF01A50194010E94762740
:10200000F901CA016A300CF5605DD8016E938D014B
:10201000232B242B252B79F790E080E0109721F0DB
:10202000BD01C7010E94CC0FA1960FB6F894DEBF88
:102030000FBECDBFDF91CF911F910F91FF90EF9019
:10204000BF90AF909F908F900895695CDECF462F30
:1020500050E070E060E02AE00C94DB0FCF92DF925A
:10206000EF92FF92CF93DF936C01990FEE08FF0878
:10207000F7FE1BC06DE283E698E00E94370BEC018F
:1020800044275527BA014C195D096E097F092AE0DA
:1020900083E698E00E94DB0F8C0F9D1FDF91CF91AC
:1020A000FF90EF90DF90CF9008952AE0B701A6014E
:1020B00083E698E0DF91CF91FF90EF90DF90CF9093
:1020C0000C94DB0FAC0170E060E02AE083E698E05E
:1020D0000C94DB0F0C94CC0F0C942E2782E090E034
:1020E0000E946C1081110C94B50D0C94B00D1F92D0
:1020F0000F920FB60F9211248F939F938091E1005E
:102100009091E100937F9093E10083FF0FC01092C4
:10211000E90091E09093EB001092EC0092E3909331
:10212000ED001092FB0398E09093F00082FF22C034
:1021300093E09093E9009091F200992319F09AE3CB
:102140009093E8009091EC03992341F09091EC0377
:1021500091509093EC03911101C05D9A9091FA0314
:10216000992341F09091FA0391509093FA039111C1
:1021700001C0289A84FF18C08091E2008E7E8160A1
:102180008093E2008091E1008F7E8093E100809156
:10219000ED038E7E80618093ED039F918F910F9070
:1021A0000FBE0F901F90189580FFF7CF8091E2002F
:1021B0008E7E80618093E2008091E1008E7E80932C
:1021C000E1008091ED038E7E8160E5CF1F920F923A
:1021D0000FB60F921124CF92DF92EF92FF920F93DE
:1021E0001F932F933F934F935F936F937F938F939F
:1021F0009F93AF93BF93EF93FF93CF93DF93CDB7AD
:10220000DEB76C97DEBFCDBF1092E9008091E80089
:1022100083FF25C068E0CE0145960E94B20982EF97
:102220008093E8008D8987FF39C09091E80090FF86
:10223000FCCF982F907609F034C19E894F89588D34
:102240002F89F88C911131C0803861F58091EB03B2
:102250008093F1001092F1008EEF8093E8006C966D
:102260000FB6F894DEBF0FBECDBFDF91CF91FF91C7
:10227000EF91BF91AF919F918F917F916F915F91FE
:102280004F913F912F911F910F91FF90EF90DF9011
:10229000CF900F900FBE0F901F9018959EEF9093C8
:1022A000E800C7CF1092F100D5CF913059F48111D9
:1022B000D3CF4130510581F68091EB038D7F809320
:1022C000EB03CACF933049F48111C6CF4130510599
:1022D00019F68091EB038260F2CF953041F4809142
:1022E000E80080FFFCCF20682093E300B5CF963054
:1022F00009F0A9C00B8D1C8D22E01092E90010920C
:10230000E9031092E803F2122EC01092E703109234
:10231000E6030E9481091F8299E09983FA8291E085
:102320009E8390EA98879AEF99872091E8033091ED
:10233000E903275F3F4F3C832B838D831092E90095
:102340001092E9031092E8031093E7030093E60369
:1023500049E050E0BE016F5F7F4F80E00E945B0963
:102360000E94810979CF1093E7030093E6030E944E
:102370009808DC0112960D911C910115110509F4C4
:1023800051C1D801ED91FC910480F581E02DBE0191
:102390006B5E7F4FC8010995009709F03EC1F801B7
:1023A00000851185EACFF3E0FF120EC08F898823E4
:1023B00009F440C0823061F440E860E18FE290E1CE
:1023C0000E94C313811148CF81E28093EB0047CF75
:1023D000813029F440E86BE083E290E1F1CF833073
:1023E00099F70E949808DC011296ED90FC908E01FE
:1023F0000F5F1F4F6801E114F10479F0D701ED91EF
:10240000FC910680F781E02DB801C7010995080FFE
:10241000111DF701E084F184EECFD8011C92F60182
:1024200001900020E9F73197BF016C197D0940E068
:10243000C601C6CF6DE070E1FB01449150E080E839
:102440000E945B0909CF973009F4BECF983021F480
:1024500081E08093F10000CF993009F0FDCE8370C8
:1024600009F0B2CFECE7F1E081E031E096E32191B1
:10247000222371F08093E9003093EB00DF01119784
:102480002C912093EC009093ED008F5F873079F7CB
:102490008EE78093EA001092EA008F898093FB0315
:1024A000DBCE8B8D9C8D1092E9001092E903109287
:1024B000E8039093E7038093E603898D811192C02E
:1024C0008E899D89913A49F4813209F07DCF47E0A8
:1024D00050E064E571E080E0B3CF913209F074CF51
:1024E000833269F48F89988DB0E0A0E08093500129
:1024F00090935101A0935201B0935301ADCE80321D
:1025000069F48091E80082FFFCCF67E084E591E008
:102510000E94B2098BEF8093E8009ECE823209F0D0
:102520009BCE8F8980935B01EEEFFFE785919491BD
:102530008B3F9C4D51F1E0E0F8E080915401909187
:102540005501A0915601B0915701803B9440A105DF
:10255000B105F1F480915B0180FD1AC0EE3F8AE085
:10256000F80789F587E797E791838083809160007A
:102570008093EA0388E19BE00FB6F894A8958093D6
:1025800060000FBE9093600067CEEEEFFAE0D5CF0B
:10259000808191818737974709F05ECEA895809119
:1025A00060008861809360008091EA0380936000FE
:1025B000EE3F2AE0F20789F08091FE0A9091FF0A2F
:1025C0009183808349CE808191818737980751F22A
:1025D0009093FF0A8093FE0AC5CF1092FF0A1092D3
:1025E000FE0A3ACE0E949808DC0112960D911C91C9
:1025F0000115110509F4E8CED801ED91FC91019087
:10260000F081E02DBE016B5E7F4FC80109958111FD
:1026100023CEF80100851185EBCF181619060CF4AE
:102620001BCED2CEF1E0FF12BECE61E170E104CF4D
:102630001F920F920FB60F9211242F933F938F93F7
:102640009F93AF93BF938091E8029091E902A0918C
:10265000EA02B091EB023091E20223E0230F2D3722
:1026600058F50196A11DB11D2093E2028093E80266
:102670009093E902A093EA02B093EB028091E30207
:102680009091E402A091E502B091E6020196A11DAD
:10269000B11D8093E3029093E402A093E502B0930E
:1026A000E602BF91AF919F918F913F912F910F9033
:1026B0000FBE0F901F90189526E8230F0296A11DBC
:1026C000B11DD2CF1F920F920FB60F9211242F93EC
:1026D0003F934F935F936F937F938F939F93AF93AA
:1026E000BF93EF93FF938091DE029091DF02A09160
:1026F000E002B091E102892B8A2B8B2B09F440C0B8
:102700008091DD0281110BC088B190E4892788B9DE
:102710008091DC02882319F088B1805888B98091B3
:10272000DE029091DF02A091E002B091E102181662
:1027300019061A061B069CF48091DE029091DF02B6
:10274000A091E002B091E1020197A109B109809343
:10275000DE029093DF02A093E002B093E102FF91CA
:10276000EF91BF91AF919F918F917F916F915F9109
:102770004F913F912F910F900FBE0F901F90189582
:102780000E94F60BECCFEF92FF920F931F93CF9323
:10279000DF93F82E192FE62E042F81E0860F880F85
:1027A0000E942D0983E00E942D09CF2DD12FEC0E20
:1027B000FD2EF11CCE15DF05B9F007FF13C0FE0199
:1027C00084910E942D09182F80E00E942D098123F9
:1027D00021968111EFCFDF91CF911F910F91FF9043
:1027E000EF9008958881EDCF81E0F5CFECEFF3E035
:1027F0001382128288EE93E0A0E0B0E08483958398
:10280000A683B78386E891E0918380838FEF9FEF63
:1028100095878487E8E7F8E01382128284EA91E0E2
:10282000918380838BE498E090935B0480935A04B7
:1028300080E090E8909359048093580446983E9A1B
:1028400047983F9AE3E6F8E01382128288E991E024
:102850009183808383E694E09683858380E890E08B
:102860009087878380E490E09287818785E0848BDE
:1028700081E0838B16861586108A17861486138648
:1028800081E090E0928B818B1482E0916204F0E011
:10289000EE0FFF1FE35AFE4F8081918190936104F8
:1028A0008093600480915C01282F30E030935F04B6
:1028B00020935E0480935D0480935C040895CF931D
:1028C000DF9300D000D01F92CDB7DEB7789484B5E7
:1028D000826084BD84B5816084BD85B5826085BD1C
:1028E00085B5816085BD80916E00816080936E00AA
:1028F000109281008091810082608093810080919C
:10290000810081608093810080918000816080934C
:10291000800080919100826080939100809191006D
:1029200081608093910080919000816080939000FD
:102930008091C10084608093C1008091C100826059
:102940008093C1008091C10081608093C10080911B
:10295000C30081608093C3008091C0008260809337
:10296000C0008091C20081608093C20080917A0093
:10297000846080937A0080917A00826080937A00EC
:1029800080917A00816080937A0080917A008068DB
:1029900080937A001092FB031092EB031092ED03E8
:1029A0008091D70081608093D70080EA8093D8001F
:1029B00089B5806189BD89B5826089BD09B400FE91
:1029C000FDCF61E070E080E090E00E94110A80910C
:1029D000D8008F7C80618093D8008091E000807F58
:1029E0008093E0008091E1008E7E8093E1008DE095
:1029F0008093E200559A209A81EC80937C0085B107
:102A0000806F85B984B1877E84B984B1876E84B9BB
:102A10005E9A5F988AB1806D8AB9769A6E9881B312
:102A2000806F81BB899880B38D7080BB80E58CBD41
:102A300081E08DBD85E090E00E94A30D5F9A85E066
:102A400090E00E94A30D5E985C98ECE1F7E089E2CB
:102A500097E024912EBD00000DB407FEFDCF319606
:102A60008E179F07B1F75C9A81E88093640080918C
:102A700065008160809365000E94FA0D80E80E94E5
:102A8000EF0D8823A9F05C9885EA8EBD00000DB497
:102A900007FEFDCF5C9A2E982F982D9880916400A8
:102AA00080628093640081E083BF889513BEFCCF71
:102AB00084E00E94EF0D882309F448C02D9884E833
:102AC0000E94EF0D8823E1F00E94A10D88EC90E0B8
:102AD0000E94A30D2F9882E090E00E942E278F3F46
:102AE00029F06FEF82E090E00E94362784EF91E0BA
:102AF0000E94A30D2F9A84E80E94EF0D8111FBCF55
:102B000084E10E94EF0D8823E1F00E94A10D88EC82
:102B100090E00E94A30D2E9882E090E00E942E2764
:102B2000882329F060E082E090E00E94362784EF5D
:102B300091E00E94A30D2E9A84E10E94EF0D811175
:102B4000FBCF88EC90E00E94A30DB2CF0E94A10DB4
:102B50000E946E1081E090E00E946C10282F24707B
:102B6000922E81FF12C021112E98B1EF4B2E5524C9
:102B70005A9408E010E080E40E94EF0D882309F4E5
:102B8000AEC32E9A2F9A0E94A10D82E390E00E947C
:102B9000A30D0E94A80D8111F8CF81E2809300015E
:102BA00081E0809301018093E7020E946E100E94F1
:102BB000B50D84E080933B01712C3DE2E32EF12CB6
:102BC00042E0542E55E1C52ED12C4424439462E6B4
:102BD000A62EB12C7EE1872E912CE2E83E2E0E949B
:102BE000E60D61E070E080E090E00E94110A0E9432
:102BF000770F8823B1F38091BA039091BB03B7019B
:102C00000E94A727892B29F478E0771508F430C4AF
:102C100073940E94BB0D50920201109243031092D4
:102C2000420310924103109240036CEA71E088E77E
:102C300098E00E946A101092430310924203D092CF
:102C40004103C092400364EB71E088E798E00E9482
:102C50006A1040920201B0924303A0924203909204
:102C600041038092400369EB71E088E798E00E949D
:102C70006A1001E028E230E040E850E068E270E0ED
:102C800090E080E00E94DB0E2AE230E040E850E075
:102C90006AE270E090E080E00E94DB0E6090CB037F
:102CA000739CA0011124475D584F262D68E070E009
:102CB00089E690E00E94BE0C0DE31CE082E090E00B
:102CC0009B838A83262DA8016FE270E08A819B8115
:102CD0000E94BE0CAA81BB815296BB83AA830E5769
:102CE0001F4FA038B10571F70E94AB0F88E00E941A
:102CF000DB0D882309F4BEC30E94FA0D80914F01B9
:102D0000813009F0FEC410E1F4E0EF2EF12CA8E2CE
:102D1000AA2EB12CBDE2CB2ED12C0FE5202E312CCA
:102D200080E5482E512C9EE2892E912C21E4622EC2
:102D3000712C0E94E60D0E94BB0DEEE1F0E0F093D5
:102D40004303E093420310924103109240036FEB60
:102D500071E088E798E00E946A1001E028E030E026
:102D600040E850E068E070E090E080E00E94DB0E18
:102D7000F0927108E0927008F0926F08E0926E088D
:102D8000812F90E090937308809372086DEC71E04E
:102D900083E698E00E946A102CE030E030937108DE
:102DA0002093700830936F0820936E0840E150E044
:102DB00050937308409372086FEC71E083E698E0DB
:102DC0000E946A10B0927108A0927008B0926F08C9
:102DD000A0926E0860E170E07093730860937208CF
:102DE0008091380165ED71E0811102C06DED71E0F7
:102DF00083E698E00E946A108CE090E0909371085E
:102E00008093700890936F0880936E08A6E1B0E0FD
:102E1000B0937308A093720866EE71E083E698E0C1
:102E20000E946A10D0927108C0927008D0926F0808
:102E3000C0926E08E6E1F0E0F0937308E093720848
:102E40006091C20383E698E00E9427102CE030E0F6
:102E5000309371082093700830936F0820936E08A8
:102E60004CE150E050937308409372086DEE71E0AE
:102E700083E698E00E946A10D0927108C0927008B0
:102E8000D0926F08C0926E086CE170E07093730886
:102E90006093720860915C0183E698E00E942710BD
:102EA0008CE090E0909371088093700890936F0885
:102EB00080936E08A2E2B0E0B0937308A09372080A
:102EC00064EF71E083E698E00E946A103092710826
:102ED0002092700830926F0820926E08E2E2F0E0D3
:102EE000F0937308E09372088091C60365E072E086
:102EF000811102C069E072E083E698E00E946A10E6
:102F00002CE030E0309371082093700830936F0804
:102F100020936E08B0927308A09272086CE072E081
:102F200083E698E00E946A105092710840927008FF
:102F300050926F0840926E08B0927308A092720887
:102F40008091470365E072E0811102C069E072E0A0
:102F500083E698E00E946A104CE050E050937108BC
:102F60004093700850936F0840936E0890927308D6
:102F7000809272086AE172E083E698E00E946A102B
:102F8000709271086092700870926F0860926E087B
:102F900090927308809272088091C50365E072E098
:102FA000811102C069E072E083E698E00E946A1035
:102FB0006CE070E0709371086093700870936F0814
:102FC00060936E0884E390E0909373088093720896
:102FD00065E272E083E698E00E946A10D092710880
:102FE000C0927008D0926F08C0926E08A4E3B0E05F
:102FF000B0937308A09372088091030165E072E0BA
:10300000811102C069E072E083E698E00E946A10D4
:1030100080E80E94DB0D882321F01650103108F45F
:1030200014E380E10E94DB0D882321F01A5F153341
:1030300008F010E180E40E94DB0D882399F0123241
:1030400009F43EC208F019C2163109F424C21C3139
:1030500009F42CC2103131F48091380191E08927B4
:103060008093380180E20E94DB0D882399F01232B0
:1030700009F45BC208F039C2163109F444C21C31AC
:1030800009F44AC2103131F48091380191E0892766
:103090008093380188E00E94DB0D8983882309F43E
:1030A00059C20E94FA0D80910301882309F455C288
:1030B0000E94B50D8091C2038093AC032FB7F894A2
:1030C0006091E8027091E9028091EA029091EB022E
:1030D0002FBF611571058105910511F00E9425270B
:1030E00080E290E0909319018093180180E490E0D1
:1030F00090931B0180931A0184E090E09093290142
:103100008093280185E090E090932B0180932A0121
:1031100082E080933A01ECE1F1E0FB83EA830CE288
:1031200011E078E2C72E71E0D72EE8E08E2E912CC8
:10313000A12CB12C0E94D6262CE630E040E050E0D5
:103140000E944427AA81BB816D937D93BB83AA8390
:103150000E94D626A50194010E9444276F5F7F4FED
:103160008F4F9F4FF801619371938F012A813B81AB
:10317000C216D306F9F618E9212E13E0312E0FEC12
:10318000402E03E0502E48E453E05B834A8300E77F
:1031900013E04CEA53E0780188E493E09201F101F6
:1031A0006AEFC62ED12C68E070E01192D9011D9211
:1031B0009D01DC01CD92DD92CD01D7016D937D9310
:1031C0007D014E175F0789F7B4E08B2EB1E09B2E8F
:1031D000EE24E394F401E450F1403F018091AC030C
:1031E0008E171F0609F00CF4E1C10E94D62620E7D5
:1031F00030E040E050E00E944427AA81BB816D93FB
:103200007C930E94D62627E030E040E050E00E9408
:1032100044276F5F7F4F8F4F9F4FF801718360830B
:103220000E94D6262AE030E040E050E00E94442789
:10323000D4016D934D01F101E1921F01D2011D9264
:103240002D01A091AC03EA2FF0E0FD83EC83B12CBB
:1032500090E080E02C813D81821793070CF080C1C3
:1032600086159705D1F1D801ED91FC91EE0FFF1F66
:10327000E35AFE4F20813181EA81FB8140815181F7
:10328000BC01660F771FFB01E059FC4F0190F081F4
:10329000E02DEE0FFF1FE35AFE4F0190F081E02D6D
:1032A000685B7C4FDB016D917C916B01B0E1CB0ED3
:1032B000D11C4C155D058CF4405F5F4F641775079A
:1032C00064F4AF01405F5F4F2417350734F4205F8B
:1032D0003F4FE217F3070CF4B9800196BBCF99205A
:1032E00031F034E04316510411F42E9A2F9881E006
:1032F0000E944E08920157FE04C02227332724194A
:10330000350927703327C20157FC0796A3E095952E
:103310008795AA95E1F757FE05C00197A801421BC2
:10332000530B9A01AC015695542F44275795479556
:103330004D595B4FB0E0A0E03801621A730A8E3F2E
:103340006FEF960709F43BC06A0174E9C70ED11C00
:103350007A0170E060E0FD01E459F94F5F018F3FB1
:10336000980779F0F501E60FF71FE491F0E01F01EF
:10337000022E01C0220C0A94EAF7F701848828285B
:10338000248A2115310581F0F501E60FF71FE4913C
:10339000F0E01F01062C02C0359427940A94E2F74E
:1033A000F6018080282820826F5F7F4FFFEFCF1AC1
:1033B000DF0AEFEFEE1AFE0A6835710581F6019615
:1033C000A85ABF4F40585F4FA03BB10509F0B7CF97
:1033D0000E94FA0D8FE090E00E94A30DFFEF4F1ABC
:1033E0005F0A29E14216510409F0C5CB992011F07A
:1033F0002F9A2D9880E991E00E94A30D0E94A10DC3
:1034000081E090E00E946C1080FFBFCB8AE090E0EA
:103410000E946C109FEF980F9E3F08F0B6CB22E3FE
:1034200030E0309343032093420328E330E03093AD
:103430004103209340034BE050E05B834A83682FB5
:1034400088E798E00E941B0E8A819B810E946C1085
:103450006A817B816F5F7F4F7B836A8361317105F6
:1034600071F70E94FA0D88EE93E00E94A30D8DCBB8
:10347000712CCFCB0E94FA0DB2CB1E3241F1143326
:1034800069F1183209F0EECD8091470391E0892768
:1034900080934703E7CD8091C2038F5F853118F495
:1034A0008093C203DFCD1092C203DCCD80915C011A
:1034B0008F5F863018F480935C01D4CD81E0FBCF20
:1034C0008091C60391E089278093C603CBCD80917C
:1034D000C50391E089278093C503C4CD8091030182
:1034E00091E0892780930301BDCD1E3229F1143369
:1034F00051F1183209F0CECD8091470391E0892730
:1035000080934703C7CD8091C203815018F0809308
:10351000C203C0CD84E1FBCF80915C01815019F0E2
:1035200080935C01B7CD85E0FBCF8091C60391E02D
:1035300089278093C603AECD8091C50391E089278A
:103540008093C503A7CD8091030191E089278093E3
:103550000301A0CD0E94FA0DECCB0E94B00DAACDC4
:10356000BB20E1F00E94D62620E730E040E050E0AA
:103570000E944427EA81FB81718360830E94D626E2
:1035800027E030E040E050E00E9444276F5F7F4F2B
:103590008F4F9F4FD8016D937C9353CE0E5F1F4F7B
:1035A000EA81FB813296FB83EA8314CE86E0809326
:1035B00039011092E5031092E40380915C01282FF9
:1035C00030E030935F0420935E0480935D04809329
:1035D0005C048091C2038093AC032FE330E030930E
:1035E0003E0120933D012AE230E0309340012093D8
:1035F0003F0125E130E030934201209341011092D8
:103600004401109243012BEE3FEF3093460120938B
:10361000450126ED3FEF309348012093470121EC0F
:103620003FEF30934A01209349012CEA3FEF30935A
:103630004C0120934B0127E93FEF30934E0120933B
:103640004D012FE230E030935E0120935D014AE1AD
:1036500050E05093600140935F0145E050E050938B
:1036600062014093610140EF5FEF5093640140932A
:1036700063014BED5FEF509366014093650146ECAB
:103680005FEF509368014093670141EB5FEF509308
:103690006A01409369014CE95FEF50936C014093DC
:1036A0006B0147E85FEF50936E0140936D011092FC
:1036B000CE031092620448E350E05093C803409355
:1036C000C70330936104209360041092BF031092EB
:1036D000BE031092B9031092460390E09093BD038D
:1036E0008093BC031092C1031092C00382E08093C8
:1036F0004F0180E090E0892B09F400CB0E9400008C
:10370000FDCA833009F068C10E94BB0DB4E2CB2E24
:10371000D12CD0924303C0924203109241031092E5
:1037200040036CE272E088E798E00E946A102AE0A9
:1037300030E0309371082093700830936F08209325
:103740006E0812E1E12EF12CF0927308E0927208FB
:1037500066EE71E083E698E00E946A1008E210E0ED
:10376000109371080093700810936F0800936E080F
:10377000F0927308E09272086091C20383E698E0C9
:103780000E9427104AE050E050937108409370085F
:1037900050936F0840936E0888E1E82EF12CF09268
:1037A0007308E092720869E372E083E698E00E9491
:1037B0006A10109371080093700810936F080093BB
:1037C0006E08F0927308E09272088091BE039091A7
:1037D000BF030E9462106AE070E07093710860930A
:1037E000700870936F0860936E089EE1E92EF12CCB
:1037F000F0927308E092720866E372E083E698E064
:103800000E946A1087E390E090937108809370089B
:1038100090936F0880936E08F0927308E09272089C
:10382000E091C203F0E0EE0FFF1FEA5EFC4F8081E3
:1038300091810E9462108AE090E0909371088093D9
:10384000700890936F0880936E08D0927308C092AE
:10385000720860E472E083E698E00E946A1033E246
:10386000E32EF12CF0927108E0927008F0926F084C
:10387000E0926E08D0927308C09272088091E403BF
:103880009091E5030E946210AAE0B0E0B093710845
:10389000A0937008B0936F08A0936E084AE2C42EFC
:1038A000D12CD0927308C092720866E472E083E66D
:1038B00098E00E946A1086E490E0909371088093EB
:1038C000700890936F0880936E08D0927308C0922E
:1038D0007208E091C203F0E0EE0FFF1FE451FD4FCC
:1038E000808191810E946210EAE0F0E0F09371081B
:1038F000E0937008F0936F08E0936E0860E3C62EC3
:10390000D12CD0927308C092720863E572E083E60E
:1039100098E00E946A101093710800937008109349
:103920006F0800936E08D0927308C092720880915D
:10393000C0039091C1030E942E1080913801811123
:103940002AC02AE030E03093710820937008309349
:103950006F0820936E0846E350E05093730840933D
:1039600072086AE572E083E698E00E946A10F092BD
:103970007108E0927008F0926F08E0926E0866E3BA
:1039800070E070937308609372086091460383E659
:1039900098E00E9427108BE090E09093710880934C
:1039A000700890936F0880936E088BE390E090937B
:1039B00073088093720860E672E083E698E00E94E4
:1039C0006A100E94FA0D0E94E60D88E00E94DB0D4D
:1039D0008823C9F381E08BCE843009F0DCC10E94DA
:1039E000BB0D89E090E090934303809342031092D3
:1039F00041031092400365E772E088E798E00E9477
:103A00006A108DE290E090934303809342031092FA
:103A10004103109240036091C20388E798E00E943E
:103A200027108FE390E0909343038093420310921A
:103A30004103109240036BE772E088E798E00E9430
:103A40006A10E091C203F0E08091BE039091BF0341
:103A5000EE0FFF1FEA5EFC4F2081318128173907E6
:103A6000C0F49183808388E190E090937108809303
:103A7000700890936F0880936E088AE090E09093AE
:103A800073088093720865E872E083E698E00E940C
:103A90006A108091C20390E0880F991FFC01E451E5
:103AA000FD4F408151812091E4033091E5032417BB
:103AB000350710F0452BD9F484519D4FDC012D932F
:103AC0003C938FE090E090937108809370089093FE
:103AD0006F0880936E0880E190E090937308809364
:103AE000720866E972E083E698E00E946A10EAE0F4
:103AF000F0E0F0937108E0937008F0936F08E093A2
:103B00006E0808E110E0109373080093720869E3EF
:103B100072E083E698E00E946A1038E2E32EF12C0E
:103B2000F0927108E0927008F0926F08E0926E08CF
:103B300010937308009372088091BE039091BF03A5
:103B40000E9462102AE030E03093710820937008E0
:103B500030936F0820936E080EE110E01093730805
:103B60000093720866E372E083E698E00E946A10B0
:103B700087E390E0909371088093700890936F08AA
:103B800080936E081093730800937208E091C2034B
:103B9000F0E0EE0FFF1FEA5EFC4F808191810E94F2
:103BA00062104AE050E050937108409370085093BF
:103BB0006F0840936E0854E2C52ED12CD092730842
:103BC000C092720860E472E083E698E00E946A1096
:103BD00003E210E0109371080093700810936F08CF
:103BE00000936E08D0927308C09272088091E4032B
:103BF0009091E5030E9462106AE070E07093710892
:103C00006093700870936F0860936E086AE2C62E26
:103C1000D12CD0927308C092720866E472E083E6F9
:103C200098E00E946A1086E490E090937108809377
:103C3000700890936F0880936E08D0927308C092BA
:103C40007208E091C203F0E0EE0FFF1FE451FD4F58
:103C5000808191810E9462108AE090E090937108C7
:103C60008093700890936F0880936E08E0E3CE2EE7
:103C7000D12CD0927308C092720863E572E083E69B
:103C800098E00E946A10F0927108E0927008F09239
:103C90006F08E0926E08D0927308C092720880910B
:103CA000C0039091C1030E942E10809138018111B0
:103CB0002AC0AAE0B0E0B0937108A0937008B09356
:103CC0006F08A0936E08E6E3F0E0F0937308E093CA
:103CD00072086AE572E083E698E00E946A10109329
:103CE00071080093700810936F0800936E0826E324
:103CF00030E030937308209372086091460383E6A6
:103D000098E00E9427108091C2038431B0F48CE0C7
:103D100090E0909371088093700890936F0880935F
:103D20006E088BE390E090937308809372086AEAC0
:103D300072E083E698E00E946A108091C2038431A9
:103D4000B1F488E190E090937108809370089093AB
:103D50006F0880936E088BE390E0909373088093D4
:103D600072086EEB72E083E698E00E946A100E948F
:103D7000FA0D0E94E60D88E00E94DB0D8823C9F34E
:103D80008091C2038F5F853118F48093C20322CEE5
:103D90001092C2031FCE823009F0ABCC0E94770F85
:103DA0008983882309F4A5CC2091BA033091BB0301
:103DB000C9016EE170E00E94A727892B49F4809128
:103DC000E4039091E50301969093E5038093E40367
:103DD000C9016CE370E00E94A727892B59F483E6A0
:103DE0008093E303EFECF3E083EE93E011928E1700
:103DF0009F07E1F70E94E60D8091CD038823C9F16A
:103E000080916004909161042091C9033091CA03AC
:103E1000821793070CF0B0C02650310929323105C2
:103E200008F0D8C020916204273008F0D3C0039670
:103E30009093610480936004EDE3F1E06DE571E03F
:103E40002FE431E0819191918F0102501109039685
:103E5000D8018D939C93DB018D919D91BD018D01C6
:103E6000025011090396D8018D939C932E173F079A
:103E700049F78091CE038350843008F4C9C09090F4
:103E8000CD039110C5C080E20E94EF0D882329F078
:103E900082E08093CE0380933C0180E20E94D00DAB
:103EA00081111092CE0380E40E94EF0D882329F047
:103EB00081E08093CE0380933C0180E40E94D00D8A
:103EC00081111092CE0388E00E94DB0D882309F453
:103ED0009FC0A0903A01B12C609160047091610480
:103EE000A091C703B091C8036D01E6E0CE0ED11CCE
:103EF0003D01FAE06F0E711C9091E3034091C20303
:103F000025E0429FA00111240091BE031091BF0340
:103F100028E1E22E21E0F22E30E020E04B5F5F4FFF
:103F20002A153B050CF059C0D701ED91FD917D019B
:103F3000E615F705F4F47496CE16DF06D4F4F9010D
:103F4000EE0FFF1FE85DFE4F0190F081E02DEE0FB8
:103F5000FF1FE35CFE4F0190F081E02D6E177F079D
:103F600044F036966E177F0724F4922F040F151F26
:103F7000982E2F5F3F4FD4CF281739075CF5265076
:103F800031092932310530F520916204222311F1E3
:103F900003979093610480936004EDE3F1E04DE5B5
:103FA00051E081919191BF01625071090397DB014A
:103FB0008D939C93DA018D919D91AD01BD0162506D
:103FC00071090397DB018D939C93B1E0EF34FB07FC
:103FD00041F74FCF1092CD034CCF9093E3039092D3
:103FE000AF031093BF030093BE03992009F418C1D7
:103FF00083E08093CE031092CC031092CB03809188
:1040000062048F5F809362047093CA036093C90354
:1040100080E10E94EF0D84E00E94DB0D882309F40B
:1040200066C08091BC039091BD03181619060CF070
:104030005EC08091B90381115AC08091380181110D
:1040400056C0809171008D7F809371001092B403EF
:10405000ECE4F4E0F093B303E093B203F093B10324
:10406000E093B00388EC90E090934D0480934C046F
:1040700024E630E030934F0420934E0482E390E036
:10408000909351048093500480E991E090935304FD
:10409000809352048AE090E09093550480935404F6
:1040A00084EF91E090935704809356040E94F60B9E
:1040B0008091BC039091BD0301979093BD038093C1
:1040C000BC0381E08093B90380913C01823009F008
:1040D000B3C01092B8038091C7039091C803909326
:1040E000B7038093B603809162048093B50380E8A0
:1040F0000E94EF0D882341F084E00E94EF0D882399
:1041000019F081E080934F010E94BB0D0E94AB0F1C
:104110008091BA039091BB0365E070E00E94A727ED
:10412000892B69F48091AD039091AE0301968430A0
:1041300091050CF087C09093AE038093AD038091FE
:10414000CE03833008F483C0F0E7CF2EF3E0DF2EF8
:10415000A8E48A2EA3E09A2EB8E92B2EB3E03B2EDA
:104160003B822A82512C412C8091AC03841515048A
:1041700009F00CF450C1AA81BB818D91BB83AA8345
:10418000882309F428C17090AD03F201EC5FFE4F63
:10419000A080B2E8AB9E50011124F501E75DF84F15
:1041A0005F01D6010D90BC91A02DBD83AC83F401BD
:1041B00000811181FD01EE0FFF1FE35AFE4F608168
:1041C0007181272DA501C8010E94BE0C2C813D8163
:1041D0002730310509F0F4C0E0905D01F0905E01F8
:1041E000272DA501B701C8010E94BE0C570130E17F
:1041F000A30EB11CEA14FB0409F4E2C0712C612C7B
:1042000040E0B701C3010E94FD0D42E0640E711C45
:1042100050E865167104A1F76FEFE61AF60AEACFC7
:104220007093CA036093C9031092CC031092CB031E
:1042300086E08093CE03ECCE813009F04CCF8093A2
:10424000B80349CF1092AE031092AD0378CF80919E
:10425000C7039091C8038137910508F075CF0FEC23
:1042600013E01B821A829924939432E3432E512C3B
:1042700040E9642E772473945AE0E52EF12C64EF24
:10428000C62EDD24D39475E0872EE2E0AE2EB12C4D
:104290008091AC036A817B818617170609F00CF4C4
:1042A00053CFD8018D918D01811183C0FB01E85658
:1042B000FC4F8081882309F47CC0CB01880F991FB3
:1042C000FC01E85BFC4F208131814091C703509194
:1042D000C803241735070CF06CC04A5F5F4F225F9C
:1042E0003F4F421753070CF064C080599C4FDC01CC
:1042F000ED91FC91EE0FFF1FE35AFE4F80819181FB
:104300002091600430916104A9014B5F5F4F8417D5
:1043100095070CF04EC00596281739070CF049C0D8
:10432000F801319790828091C0039091C10301966A
:104330009093C1038093C0038091470381110CC007
:104340008091CE03833041F0863031F08092CE03ED
:10435000B092C403A092C303809171008D7F8093BB
:1043600071001092B403ECE4F4E0F093B303E09333
:10437000B203F093B103E093B00324E630E030934E
:104380004D0420934C0430934F0420934E045092DC
:104390005104409250047092530460925204F0927F
:1043A0005504E0925404D0925704C09256040E94DF
:1043B000F60B4A815B814F5F5F4F5B834A8368CF17
:1043C00080915C04081B1109003F7FEF17076CF018
:1043D000D4010D931C933FEF431A530A42E0C40EDD
:1043E000D11C52E0850E911CBFCE20E830E0F401D4
:1043F000318320834C815D814730510534F44F5F18
:104400005F4FD6014D935C93E6CF21E030E0F6019B
:1044100031832083E0CF8091B903882309F491C0D0
:104420001B821A828091AC036A817B8186171706F2
:1044300009F00CF459C0D1018C91882309F44AC0C9
:10444000CB01880F991FFC01E85BFC4F2081318173
:104450004091B6035091B703B9016E5F7F4F461785
:104460005707C4F1225F3F4F421753079CF580590D
:104470009C4FDC01ED91FC91EE0FFF1FE35AFE4FC4
:1044800080819181E091B503F0E0EE0FFF1FE35AC8
:10449000FE4F20813181A901485F5F4F8417950746
:1044A000CCF4295F3F4F4096281739079CF4F1015F
:1044B0001082809146038F5F8093460322E330E0B1
:1044C00042E350E062E370E080E590E00E949E0CE1
:1044D0001092B9032A813B812F5F3F4F3B832A8390
:1044E0003FEF231A330A9ECF8091B803813009F041
:1044F000C9C04091B6035091B7035B834A83E091F2
:10450000B503F0E0EE0FFF1FE35AFE4F60817181AB
:10451000695F7F4F41E08A819B8106960E94FD0D75
:1045200080915C016A817B81680F711D6F5F7F4F95
:104530007093B7036093B6036138710514F010925D
:10454000B9033DE3E32E31E0F32E4FE4C42E41E006
:10455000D42EFB82EA82AA81BB816D917D91BB83BF
:10456000AA8301E09B0140E850E090E080E00E94D7
:10457000DB0EEA81FB81CE16DF0669F71A82D701CE
:104580008D919D917D018233910590F41092710877
:104590001092700810926F0810926E080296909315
:1045A0007308809372086A8183E698E00E9427105E
:1045B000BA81BF5FBA83B93011F708E2A02E01E0DB
:1045C000B02E88E1C82E81E0D82E93E7492E91E0E5
:1045D000592E22242394312C20913A01422F50E06D
:1045E000C20183579140841795070CF0AAC0F501CA
:1045F0000190F081E02DFB83EA83EE0FFF1FE35C67
:10460000FE4F60817181D601ED90FC903701B4E1DD
:104610006B0E711C00E09B01A301C7010E94DB0E21
:10462000EA81FB813897B1F480903D0190903E0182
:104630009401A301B401C7010E94DB0E10E000E069
:1046400041E0B401C8010E94FD0D0E5F1F4F00380C
:104650001105B1F7D2018D912D0181114DC08091CD
:104660005D04E81AF108BCEEEB16BFEFFB0684F11F
:10467000F601F182E08232E0A30EB11C42E0C40EEA
:10468000D11CAACF81115DCF8091B6039091B70361
:104690009B838A83E091B503F0E0EE0FFF1FE35A9E
:1046A000FE4F60817181695F7F4F41E006970E94F4
:1046B000FD0D80915C0190E00196AA81BB81A81B51
:1046C000B90BB093B703A093B603B7FD38CF39CF7A
:1046D000E0E8F0E0D601ED93FC932A813B8128309D
:1046E000310534F42F5F3F4FD5012D933C93C3CF59
:1046F000F50131822082BFCF813009F0BCCF80919B
:104700005D04E80EF11CF1E8EF16F10424F4D60183
:10471000ED92FC92B0CF2CEE3FEFF6013183208377
:104720004A815B814230510534F041505109D50135
:104730004D935C93A0CF28E030E0F50131832083D6
:104740009ACF8091C7039091C8033091CE03335024
:10475000323008F464C03091CD03311160C0109242
:1047600045038137910508F040C0A091E303AA2ECC
:10477000B12C809060049090610484010F5E1F4F03
:1047800070E060E07C01A7E0EA0EF11C46175707D5
:1047900051F16A157B0521F1FB01EE0FFF1FDF01CF
:1047A000A85EBE4FCD90DC908C159D05CCF0BBE093
:1047B000CB0ED11CEC14FD049CF4E85DFE4F01907F
:1047C000F081E02DEE0FFF1FE35CFE4F0190F081C2
:1047D000E02DE017F10724F4E815F9050CF0398114
:1047E0006F5F7F4FD3CF3093450330914503332321
:1047F000B1F034E03093CE031092CC031092CB038F
:1048000030916204315030936204409160045091C1
:1048100061045093CA034093C9031092CD0397FFDC
:1048200007C030913C01323051F43093CE0307C0C1
:104830008137910524F030913C013130B1F3E091A2
:10484000CE03E73000F5F0E0E85DFB4D0C94CF2798
:104850002F24C824AE24E7241C255E2588258EE15C
:1048600080933B018091BA039091BB036EE170E0AD
:104870000E94A72724E130E042E350E064E170E0C9
:10488000892B09F4C3C00091C7031091C803D090CD
:10489000CB03F091CE0342E8F49F90011124235CF6
:1048A000334F3B832A83E0906004F090610417FF4C
:1048B00009C02D2D4A815B81B701C80180589F4FE7
:1048C0000E94BE0C80E890E0801B910B801791073E
:1048D0004CF42D2D4A815B81B701C80180589109A4
:1048E0000E94BE0C2D2D4A815B81B701C8010E9438
:1048F000BE0C8091C603811150C180913901811194
:1049000003C083E080934F0181E08093440310E073
:1049100000E01B821A8288E3E82EF12C8091390195
:104920004A815B818417150609F00CF434C1109399
:10493000430300934203F0924103E09240036EEC84
:1049400072E088E798E00E946A106A817B816F5F5D
:104950007F4F7B836A83095F1F4FE0CF20915E0406
:1049600030915F04821B930B9093C8038093C7031D
:10497000813F9F4F14F580E790E09093C8038093A8
:10498000C7030E94A80D85FD18C01092CE0315C064
:1049900020915E0430915F04820F931F9093C803AF
:1049A0008093C7038038910544F01092C803109299
:1049B000C7030E94A80D86FFE8CF83E080933B01E8
:1049C0008091BA039091BB0363E070E051CF85E022
:1049D00080933B0130916204809160049091610466
:1049E000E32FF0E0EE0FFF1FE35AFE4F40815181AD
:1049F0004817590784F403979093610480936004E7
:104A000024E630E04CE251E062E370E084E690E0BE
:104A10000E949E0C38CF81E08093CD031092CE038C
:104A2000283018F42F5F20933A01383008F42BCF48
:104A300084E080934F0127CF85E080933B018091F4
:104A40006004909161042091CD0321111CCF20912D
:104A50006204E22FF0E0EE0FFF1FE35AFE4F4081A9
:104A600051818417950774F40396909361048093A1
:104A7000600424E630E044E650E062E370E08CE25B
:104A800091E0C6CF81E08093CD038091C603811170
:104A900007C0211105C080913901815080933901EF
:104AA0008091C503811131C085E08093CE0382E0FF
:104AB00090E09093C4038093C303E5CE81E080939C
:104AC0003B018091BA039091BB036FE070E00E94BC
:104AD000A727892B99F48091C3039091C403019770
:104AE0009093C4038093C30324E130E04CEB52E085
:104AF00064E170E086E193E00E949E0C8091C30324
:104B00009091C403892B09F0BECE1092CE03BBCE88
:104B10008091BA039091BB0367E070E00E94A727E1
:104B2000892B09F0B0CE2AE030E044EF51E068E292
:104B300070E088E592E00E949E0C20916004309124
:104B40006104225031093093610420936004809104
:104B5000CB039091CC03833091052CF40196909374
:104B6000CC038093CB038091C9039091CA036091D9
:104B7000C603AC01465051092417350709F083CE0E
:104B8000909361048093600461118ACF80916204E4
:104B9000811186CF80CF109244038091C203882375
:104BA00009F44AC08091C0039091C1038A309105F5
:104BB00084F42CE730E03093710820937008309330
:104BC0006F0820936E0822E030E030937308209342
:104BD00072089C012A5031092A35310580F427E7F3
:104BE00030E0309371082093700830936F08209361
:104BF0006E0822E030E030937308209372089C0125
:104C0000245631092438334008F079C080E790E019
:104C1000909371088093700890936F0880936E084A
:104C200082E090E090937308809372088091C003B3
:104C30009091C1030E942E1088E090E0909371083B
:104C40008093700890936F0880936E08E2E0F0E024
:104C5000F0937308E093720860ED72E083E698E0E9
:104C60000E946A1086E190E090937108809370082A
:104C700090936F0880936E0822E030E030937308C1
:104C8000209372088091BE039091BF030E9462102E
:104C90008091380181112FC08091BC039091BD0398
:104CA0008A30910584F42CE730E03093710820932A
:104CB000700830936F0820936E082AE330E0309339
:104CC0007308209372089C012A5031092A35310556
:104CD00080F427E730E03093710820937008309318
:104CE0006F0820936E082AE330E030937308209316
:104CF00072080E942E100E94FA0D0C94791B883EB7
:104D000093400CF493CF87EE93E09093C10380938C
:104D1000C0037CCF8F929F92AF92BF92CF92DF92CF
:104D2000EF92FF92CF93DF93EC01688179818A81C2
:104D30009B81611571058105910521F464E279ED8E
:104D40008BE597E02DE133EF41E050E00E944427EE
:104D500049015A019B01AC01A7EAB1E40E94632713
:104D60006B017C01ACEEB4EFA50194010E947127A8
:104D7000C60ED71EE81EF91EF7FE06C081E0C81A4F
:104D8000D108E10880E8F80AC882D982EA82FB8269
:104D9000C701B6019F77DF91CF91FF90EF90DF9031
:104DA000CF90BF90AF909F908F9008958F929F92D9
:104DB000AF92BF92CF92DF92EF92FF9260916F011C
:104DC000709170018091710190917201611571056E
:104DD0008105910521F464E279ED8BE597E02DE101
:104DE00033EF41E050E00E94442749015A019B0102
:104DF000AC01A7EAB1E40E9463276B017C01ACEE31
:104E0000B4EFA50194010E947127C60ED71EE81EBB
:104E1000F91EF7FE06C081E0C81AD108E10880E853
:104E2000F80AC0926F01D0927001E0927101F09285
:104E30007201C701B6019F77FF90EF90DF90CF908E
:104E4000BF90AF909F908F90089560936F01709383
:104E5000700180937101909372010895F999FECFCA
:104E600092BD81BDF89A992780B50895262FF999AA
:104E7000FECF1FBA92BD81BD20BD0FB6F894FA9A3D
:104E8000F99A0FBE01960895052E97FB1EF4009423
:104E90000E945B2757FD07D00E94762707FC03D0AE
:104EA0004EF40C945B2750954095309521953F4FDB
:104EB0004F4F5F4F089590958095709561957F4F06
:104EC0008F4F9F4F08950E949827A59F900DB49FE4
:104ED000900DA49F800D911D11240895B7FF0C948F
:104EE00063270E946327821B930B0895A1E21A2E69
:104EF000AA1BBB1BFD010DC0AA1FBB1FEE1FFF1F7E
:104F0000A217B307E407F50720F0A21BB30BE40BCD
:104F1000F50B661F771F881F991F1A9469F7609514
:104F20007095809590959B01AC01BD01CF010895CE
:104F3000A29FB001B39FC001A39F700D811D1124DA
:104F4000911DB29F700D811D1124911D0895AA1B02
:104F5000BB1B51E107C0AA1FBB1FA617B70710F064
:104F6000A61BB70B881F991F5A95A9F78095909596
:104F7000BC01CD01089597FB072E16F4009407D0CD
:104F800077FD09D00E94A72707FC05D03EF4909535
:104F900081959F4F0895709561957F4F0895EE0F0D
:0E4FA000FF1F0590F491E02D0994F894FFCFC7
:104FAE0010010101000102030400000000000000D6
:104FBE000000000000000000200040000000000083
:104FCE0000000000000000000400050000000000CA
:104FDE0000000000000000000106020A013F002A46
:104FEE000015000000EBFFD6FFC1FFACFF97FF01DD
:104FFE00FFFFFFFF00E1000000000000022F001A7B
:10500E00000500F0FFDBFFC6FFB1FF9CFF87FF012D
:10501E00000000000101010100000000C1808100BC
:10502E00000000000000AC08440ACD08C2081309B5
:10503E00D108EF0800000000370BBF09C90FC80FD9
:10504E00000000001B0EBF09C90FC80F4A554D5076
:10505E00494E47004A41434B00736D424954004745
:10506E00414D452053455454494E4753003E00543C
:10507E005950453A00434C41535349430045585407
:10508E00454E444544004C4556454C3A0053504518
:10509E0045443A00554E4C494D49544544204C49DF
:1050AE005645533A00594553004E4F00494E564906
:1050BE00534942494C4954593A0045415359204DA0
:1050CE004F44453A00534F554E443A0047414D45E3
:1050DE00204F5645520048492053434F52453A00FF
:1050EE0054494D453A0054494D45205245434F527F
:1050FE00443A004641494C533A00484954533A0009
:10510E005052455353204120544F20545259204160
:10511E004741494E004C4556454C00434F4D504C6F
:10512E004554454400212121204E455720484947EA
:10513E004820212121002121212054494D45205272
:10514E0045434F52442021212100505245535320B4
:10515E004120544F20434F4E54494E554500434F26
:10516E004E47524154554C4154494F4E5300030043
:04517E0053433A005D
:00000001FF
