:100000000C9421080C9449080C9449080C94490854
:100010000C9449080C9449080C9449080C9449081C
:100020000C9449080C9449080C94DC0F0C944B1068
:100030000C9449080C9449080C9449080C944908FC
:100040000C9449080C9449080C9449080C944908EC
:100050000C9449080C9449080C9449080C947D129E
:100060000C9449080C9449080C9449080C944908CC
:100070000C9449080C9449080C9449080C944908BC
:100080000C94C7120C9449080C9449080C94490824
:100090000C9449080C9449080C9449080C9449089C
:1000A0000C9449080C9449080C944908000000007D
:1000B000003E5B4F5B3E3E6B4F6B3E1C3E7C3E1CEE
:1000C000183C7E3C181C577D571C1C5E7F5E1C0034
:1000D000183C1800FFE7C3E7FF0018241800FFE7EB
:1000E000DBE7FF30483A060E2629792926407F05AE
:1000F0000507407F05253F5A3CE73C5A7F3E1C1CC4
:1001000008081C1C3E7F14227F22145F5F005F5F83
:1001100006097F017F006689956A6060606060946F
:10012000A2FFA29408047E040810207E2010080874
:100130002A1C08081C2A08081E101010100C1E0C7F
:100140001E0C30383E3830060E3E0E060000000011
:100150000000005F00000007000700147F147F14F8
:10016000242A7F2A1223130864623649562050003D
:1001700008070300001C2241000041221C002A1C29
:100180007F1C2A08083E0808008070300008080814
:100190000808000060600020100804023E51494534
:1001A0003E00427F400072494949462141494D3352
:1001B0001814127F1027454545393C4A49493141B9
:1001C000211109073649494936464949291E000087
:1001D00014000000403400000008142241141414DC
:1001E0001414004122140802015909063E415D59C8
:1001F0004E7C1211127C7F494949363E41414122D1
:100200007F4141413E7F494949417F090909013EFA
:10021000414151737F0808087F00417F4100204021
:10022000413F017F081422417F404040407F021C33
:10023000027F7F0408107F3E4141413E7F0909094A
:10024000063E4151215E7F09192946264949493216
:1002500003017F01033F4040403F1F2040201F3FDC
:100260004038403F63140814630304780403615961
:10027000494D43007F4141410204081020004141A3
:10028000417F04020102044040404040000307084F
:100290000020545478407F2844443838444444284B
:1002A000384444287F385454541800087E090218F2
:1002B000A4A49C787F0804047800447D400020407A
:1002C000403D007F1028440000417F40007C0478BE
:1002D00004787C080404783844444438FC18242406
:1002E0001818242418FC7C08040408485454542486
:1002F00004043F44243C4040207C1C2040201C3C03
:100300004030403C44281028444C9090907C4464F9
:10031000544C44000836410000007700000041368C
:10032000080002010204023C2623263C1EA1A16112
:10033000123A4040207A3854545559215555794144
:100340002154547841215554784020545579400C1B
:100350001E527212395555555939545454593955FC
:100360005454580000457C410002457D420001453F
:100370007C40F0292429F0F0282528F07C545545AC
:10038000002054547C547C0A097F4932494949323F
:100390003248484832324A4848303A4141217A3A54
:1003A00042402078009DA0A07D39444444393D401E
:1003B00040403D3C24FF2424487E4943662B2FFCCB
:1003C0002F2BFF0929F620C0887E09032054547979
:1003D000410000447D413048484A32384040227A4A
:1003E000007A0A0A727D0D19317D2629292F2826C7
:1003F0002929292630484D402038080808080808CF
:100400000808382F10C8ACBA2F102834FA00007B27
:10041000000008142A142222142A1408950022002D
:1004200095AA005500AAAA55AA55AA000000FF00E7
:10043000101010FF00141414FF001010FF00FF1024
:1004400010F010F0141414FC001414F700FF000056
:10045000FF00FF1414F404FC141417101F10101FD5
:10046000101F1414141F00101010F0000000001FC3
:10047000101010101F10101010F010000000FF10CE
:100480001010101010101010FF10000000FF1400CA
:1004900000FF00FF00001F10170000FC04F41414FC
:1004A0001710171414F404F40000FF00F7141414C8
:1004B00014141414F700F7141414171410101F1048
:1004C0001F141414F4141010F010F000001F101F6B
:1004D0000000001F14000000FC140000F010F010D9
:1004E00010FF10FF141414FF141010101F00000050
:1004F00000F010FFFFFFFFFFF0F0F0F0F0FFFFFF54
:100500000000000000FFFF0F0F0F0F0F38444438AA
:10051000447C2A2A3E147E02020606027E027E02E5
:1005200063554941633844443C04407E201E200604
:10053000027E020299A5E7A5991C2A492A1C4C7241
:1005400001724C304A4D4D303048784830BC625AC8
:10055000463D3E494949007E0101017E2A2A2A2A58
:100560002A44445F444440514A444040444A514034
:100570000000FF0103E080FF000008086B6B0836F5
:1005800012362436060F090F060000181800000066
:100590001010003040FF0101001F01011E00191D55
:1005A0001712003C3C3C3C000000000000B0000082
:1005B000A170E150964F26900F1D070C0096690020
:1005C0004AE44A0048444000806810000F99FB8FBD
:1005D0009DBDBBFB77D4D4DF1F1A1AFE7F5D5DFF84
:1005E000805A0000A0A4AA0010BA3400FF5953F3A7
:1005F000FF9B9B9EFFB9B996FF9595D19FF4940FF1
:10060000FC295F91FF1838F8FF9294FFFF95D5F70A
:10061000BFB5DDD7F18F81F1F788C8F779C6467984
:1006200009FD9B090196F800828182805071620069
:100630007756560076763700A2B773010772060028
:100640007827500073347400775176007F55F70097
:1006500047711000324772007364730015A2750071
:1006600061679400009F6060F4F2F6F2F0F89C8EEF
:100670008783878E9CF8F00000FEFF0303030303CB
:10068000070EFCF80000FEFF0303030303070EFC44
:10069000F80000FFFF00000000000000FFFF000066
:1006A000FEFF8383838383C7EE7C380000F8FC0E53
:1006B00007030303070EFCF800003F7FE0C08080C3
:1006C000C0E07F3FFFFF01010101010101FFFF00C9
:1006D00000FFFF0C0C0C0C1C3E77E3C100007FFFF9
:1006E000C0C0C0C0C0E0703F1F00001F3F70E0C02E
:1006F000C0C0E0703F1F00007FFFC1C1C1C1C1E3A6
:10070000773E1C00001F3F70E0C0C0C0E0703F1F7C
:10071000000000000001FFFF01000000D5F08D1473
:10072000A1C881CFD9F1AF200010100080C040C017
:100730004040C04040C04060F0F880010303030324
:100740000303070F1F1F3B330303010000000000DA
:100750000000000000000080C0E000040E0F0D0F3C
:100760000D0D1F3D7D7FEDCD0F0F060080C040C0F9
:100770004040C04040C04060F0F8800103030303E4
:100780000303070F1F1F3B3303030140E0F0D0F0CA
:10079000D0D0F0D0D0F0D0D8FCFE60000000000037
:1007A0000000010307070E0C00000010100080007D
:1007B00000F88888F88888F8080808F8000F6F1F84
:1007C0004FEF4F1F7F7F7F1F48E8481F60000000EA
:1007D00000F01010F01010F0101010F0000E6F1E4E
:1007E000AE4FAF1F7F7F7F1FA848A81F600000008B
:1007F00000E02020E02020E0202020E0000C6E1C03
:100800004CEF4E1E7F7E7E1F48E8481F60000000B0
:1008100000F01010F01010F0101010F0000E6F1E0D
:10082000AE4FAF1F7F7F7F1FA848A81F601010002A
:100830001878F8FCFCFCFF7F3EFEC00000000000C2
:1008400000000107030100000000030F3CF0C0009E
:100850000080C0C0F0F0F0F0800000000000000256
:10086000070F1F3F0F03000103070E1C3870E00045
:100870000000B0F0F0F0F0C0808000000000000C3C
:100880001E3F7FFF3F0700000101030306060C0027
:100890000080C0C0F0F0F0F0800000000000000216
:1008A000070F1F3F0F03000103070E1C3870E010F5
:1008B0001030F8FCFCF8CCCEFFFFCECCF8F8FCF8FA
:1008C0003000011F3F7F7F7FFFFF7F7F7F3F1F0142
:1008D000000030F0F8FCCCCEFFFFCECCFCF8F000EE
:1008E000000000011F7FFFFFFFFF7F7F3F0F000021
:1008F0000000000038FCFEE6FFFFE6FEFE7C1C0860
:10090000000000000000030F3F7F7FFFC780000052
:10091000000030F0F8FCCCCEFFFFCECCFCF8F000AD
:10092000000000011F7FFFFFFFFF7F7F3F0F0000E0
:10093000001010000000000000082878ACBFBFFFC6
:100940003C08080000000002020202020E9FFF267F
:1009500006060E000000000000082878ACBFBFFFAC
:100960003C08080000000002020242423E0F0FB69F
:10097000C6060E408000000000082838ECBFBFFF0C
:100980003C0808150A050002028282621E0F9FE6DB
:1009900006060E408000000000082878ACBFBFFFAC
:1009A0003C0808150A05000202020282FE0F1F160B
:1009B000A6460E10100000183CB6F6FFFFFFF6B674
:1009C0003C18000000E01806C13C03CF3FCF033CB9
:1009D000C10638C000000060F0D8D8FCFCFCD8D8B4
:1009E000F060000000C03008C4320FBF7FBF0F327C
:1009F000C40830C000000080C06060F0F0F06060AB
:100A0000C080000000804021934B3FBF7FBF3F4B21
:100A10009321408000000060F0D8D8FCFCFCD8D8BE
:100A2000F060000000C03008C4320FBF7FBF0F323B
:100A3000C40830C000101000706838F0E08000007A
:100A4000000000000000000884C4C6E77F3F3FFEAE
:100A5000F8E0C06018040400706838F0E08000001E
:100A6000000000000000000884C4C2E77F3F3FFE92
:100A7000F8E0C0601804040000183828F0E0800096
:100A8000000000000000000081C2C2E67F3FBF7F7F
:100A9000F8E0C06020201000183828F0E080000046
:100AA000000000000000000182C2C6E77F3FBF7E59
:100AB000F8E0C06020201010101030080605FFFE7E
:100AC00000000000000000000000000000007FFFA8
:100AD000E0781E071E78E0781E08060507FEF8007D
:100AE000000000000000000000000000001F3F1E8A
:100AF000071E78E0781E071E7800060507FEF8003E
:100B0000000000000000000000000000003F7FE047
:100B1000781E071E78E0781E0708060507FEF80015
:100B2000000000000000000000000000001F3F1E49
:100B3000071E78E0781E071E781010000080808164
:100B4000FFFF81E0F0E08080FE828238101F1F7F6F
:100B5000DFBF7F1F1F7FDFBF7F1F1F0000828084DA
:100B6000FDFC85E0F2E08080FE828238101F1F7F4E
:100B7000BFDF7F1F1F7FBFDF7F1F1F00008A8491A1
:100B8000F4F192E8F4E08080FE828238101F1F7F2B
:100B9000DFBF7F1F1F7FDFBF7F1F1F00008280849A
:100BA000FDFC85E0F2E08080FE828238101F1F7F0E
:100BB000BFDF7F1F1F7FBFDF7F1F1F101000109040
:100BC000D0B8FEFFFE7810101000000000101012C8
:100BD0001415BDFF3D10101834525AAAAA001090E7
:100BE000D0B8FEFFFE7810101000000000101012A8
:100BF0001415BDFF3D10101834525AAAAA001090C7
:100C0000D0B8FEFFFE781010100000000010101881
:100C10001415BDFF3D10101834525AAAAA001090A6
:100C2000D0B8FEFFFE781010100000000010101861
:100C30001415BDFF3D10101834525AAAAA10100006
:100C40000000003C4ADBD7DB4A3C0000000000000B
:100C5000000884C2310D030D31C284080000000079
:100C60000010183C5ADBCFEF7E3C00000000000073
:100C7000000884C2310D030DB1C608000000000059
:100C80000000003C4ADBD7DB4A3C000000000000CB
:100C9000000884C2310D030D31C284080000000039
:100CA0000000003C7EEFCFDB5A3C18100000000033
:100CB000000008C6B10D030D31C284080000001009
:100CC00010000000003C7EEFCFDB5A3C9810000083
:100CD0000000000000026323FFA72A31000000008B
:100CE00000000000003C7EEFCFDB5A3C9810000073
:100CF0000000000000C4B60F030302031C10000034
:100D000000000000003C7EEFCFDB5A3C18100000D2
:100D1000000000662121310D0305091224C2810063
:100D200000000000003C7EEFCFDB5A3C9810000032
:100D30000000000000046A29232F32C18000000057
:100D4000001010000010983C5ADBCFEF7E3C0000F2
:100D500000000000000000312AA7FF23630200000A
:100D6000000000000010983C5ADBCFEF7E3C0000F2
:100D70000000000000101C030203030FB6C40000B3
:100D8000000000000010183C5ADBCFEF7E3C000052
:100D90000000000081C224120905030D31212166E3
:100DA000000000000010983C5ADBCFEF7E3C0000B2
:100DB00000000000000080C1322F23296A040000D7
:100DC0000000001010000000003C4ADBD7DB4A3C6A
:100DD000000000000000000884C2310D030D31C284
:100DE0008408000000000000003C6AEBE7EB6A3C6E
:100DF0000000000000000000001E817D037D811EB8
:100E00000000000000000000003C4ADBD7DB4A3C49
:100E10000000000000000000001E817D037D811E97
:100E20000000000000000000003C4ADBD7DB4A3C29
:100E30000000000000000000001E817D037D811E77
:100E40000000000000101000002040BC7ADBD7DB5F
:100E50007ABC402000000000000080C0310D030D6E
:100E600031C08000000000000000003C7ADBD7DBCE
:100E70007A3C000000000000000884C2310D030D20
:100E800031C28408000000000000003C7ADBD7DBA0
:100E90007A3C000000000000000884C2310D030D00
:100EA00031C28408000000000000003C7ADBD7DB80
:100EB0007A3C000000000000000884C2310D030DE0
:100EC00031C2840800000010108080000000000083
:100ED0000440000082200004000106182020232C7A
:100EE00030707CC2FFFFF67C38808000000000205C
:100EF00000040000A0020008000106182020232C96
:100F000030707CC2FFFFF67C38000000808000104B
:100F10000000042080000210000000003F2020207C
:100F20003F707CC2FFFFF67C38000000808000002C
:100F30000800400280002002000000003F20202026
:100F40003F707CC2FFFFF67C381010000000003CB0
:100F50007ADBD7DB7A3C000000000000000884C286
:100F6000310D030D31C2840800000000002040BC98
:100F70007ADBD7DB7ABC40200000000000030204CB
:100F800005090F090504020300000008142040842D
:100F900048502070F884FFFEE4F870000000000064
:100FA000000000000001010101000008142040843D
:100FB00048502070F884FFFEE4F870000000000044
:100FC0000000000000010101010000080B00020206
:100FD00002000009040000010202000005240010C4
:100FE000010524010101042402060524060001076D
:100FF00005810310004009040100020A00000007F7
:1010000005020240000007058302400000040309B6
:101010000412010002EF0201404123368000010169
:1010200002030141726475696E6F204C4C430041AC
:10103000726475696E6F204C656F6E6172646F00CB
:101040005B1311241FBECFEFDAE0DEBFCDBF12E08D
:10105000A0E0B1E0E0EEF8E402C005900D92A43902
:10106000B107D9F728E0A4E9B2E001C01D92A1318F
:10107000B207E1F718E0C1E2D8E004C02197FE0111
:101080000E946824C032D107C9F70E94C4130C948F
:101090006E240C940000809196020895E8EFF3E02E
:1010A000A0E0B8E000800EBC8111012C1197A0FDDA
:1010B000FDCF0192B9F70DB408958F929F92AF9230
:1010C000BF92CF92DF92EF92FF920F931F93CF9335
:1010D000DF93EC014115510509F4C5C0FA01C49034
:1010E000319694914E5F5F4FAC2DB0E02223E1F03A
:1010F00001E010E0892F877011F410E000E0E92F83
:10110000E695E695E695E00FF12FF11DEA9F800147
:10111000EB9F100DFA9F100D1124209FF001219FCD
:10112000F00D11244E0F5F1F8D010C0F1D1F1016A7
:1011300011060CF098C0C038D1050CF094C09B018A
:10114000290F311D121613060CF08DC06034710585
:101150000CF089C04115510509F485C0F62FF770D0
:10116000EF2E9B0177FF02C0295F3F4FE3E03595EB
:101170002795EA95E1F7F22F77FF04C0EE2011F0F2
:10118000FFEFF20F222733272C1B3D0BD7FD02C0A8
:1011900030E020E0FC2C003811051CF080E8F82E2F
:1011A000FC1AF21A6F2F0F2E000C770B162F1095CA
:1011B000FF3F0CF010E0E1E0892F877009F4E0E0D8
:1011C0009695969596959E0F690F711D69307105DC
:1011D00014F098E09F1BD12EDF0E6D2D70E8670391
:1011E00050011124B5016C0F7D1F620F731FC19E4A
:1011F000200D311D1124420F531F2E2D0E2C000CDB
:10120000330B9F0F9D1579F1EB01C850DC4F10E0B7
:1012100000E00F1510F5FA01E00FF11FE491F0E086
:101220004F01022E02C0880C991C0A94E2F7D7FCE9
:1012300003C0888188298883EE2059F086E08D15C7
:1012400044F05E01E0E8AE0EB11CF5018081892911
:1012500080830F5F1F4F2196DCCFD3944A0F5B1F13
:1012600060587F4FCFCFDF91CF911F910F91FF90AB
:10127000EF90DF90CF90BF90AF909F908F900895A8
:10128000FC0180919003882311F13FB7F89482E02C
:101290008093E9002091F200822F90E01816190641
:1012A00014F481E090E0882339F0289844E64093D4
:1012B0008F034091F1004083222339F02091F20006
:1012C000211103C02BE62093E8003FBF08958FEF64
:1012D0009FEF08952FB7F89483E08093E9009091F1
:1012E000E800892F807295FF04C09091F20080E49D
:1012F000891B2FBF08958091870381110DC082E063
:101300008093830384E08093840310928603109279
:10131000850381E08093870383E893E00895CF936A
:10132000DF931F92CDB7DEB76983DC01ED91FC91AD
:101330000280F381E02D41E050E0BE016F5F7F4FFE
:1013400009950F90DF91CF91089583E08093E90094
:101350008091F200882319F08AE38093E8000895D1
:101360000E946A0990E00895CF93DF931F92CDB752
:10137000DEB7FC018485958597FD08C02FEF3FEF10
:10138000358724870F90DF91CF910895CE01019684
:101390000E944009019719F4898190E0F3CF8FEF03
:1013A0009FEFF0CF0F931F93CF93DF931F92CDB793
:1013B000DEB78C01FC018485958597FF0BC0CE01BB
:1013C00001960E944009019771F4898190E0F8012B
:1013D00095878487F801848595850F90DF91CF915B
:1013E0001F910F9108958FEF9FEFF1CFFC0184853E
:1013F000958597FD0BC09FB7F89482E08093E90034
:101400008091F2009FBF90E0019608959FB7F894F5
:1014100082E08093E9008091F2009FBF90E0089500
:1014200040917D0350917E0320917B0330917C039A
:1014300042175307B4F49091E8009570E1F390914E
:10144000E80092FD19C08093F10080917D03909196
:101450007E0301968F739927892B19F48EEF809361
:10146000E80080917D0390917E03019690937E0326
:1014700080937D0381E0089580E00895DF92EF92EC
:10148000FF920F931F93CF93DF93D82E8A01EB0126
:101490007B01E40EF51ECE15DF0559F0D7FE12C014
:1014A000FE0184910E94100A21968111F4CF0FEF62
:1014B0001FEFC801DF91CF911F910F91FF90EF9027
:1014C000DF9008958881EECF0F931F93CF93DF9322
:1014D0001F92CDB7DEB782E0898342E450E06BEC27
:1014E0007FE080E80E943E0A0E947B09DC011296A0
:1014F0000D911C910115110589F0D801ED91FC9118
:101500000280F381E02DBE016F5F7F4FC801099516
:1015100097FD04C0F80100851185ECCF89810F90FB
:10152000DF91CF911F910F910895615030F020917C
:10153000F100FC0120830196F8CF289884E680937F
:101540008F030895AF92BF92CF92DF92EF92FF92F6
:101550000F931F93CF93DF936C017B018B01040FDB
:10156000151FEB015E01AE18BF08C017D10759F077
:101570006991D601ED91FC910190F081E02DC601B9
:101580000995892B79F7C501DF91CF911F910F91B3
:10159000FF90EF90DF90CF90BF90AF9008953FB74E
:1015A000F8948091A6029091A702A091A802B09110
:1015B000A90226B5A89B05C02F3F19F00196A11DD1
:1015C000B11D3FBFBA2FA92F982F8827BC01CD018D
:1015D000620F711D811D911D42E0660F771F881FEC
:1015E000991F4A95D1F708958F929F92AF92BF921B
:1015F000CF92DF92EF92FF926B017C010E94CF0AA3
:101600004B015C01C114D104E104F104B9F00E9462
:10161000CF0A681979098A099B09683E73408105D8
:10162000910580F321E0C21AD108E108F10888EEA3
:10163000880E83E0981EA11CB11CE4CFFF90EF90B0
:10164000DF90CF90BF90AF909F908F9008958F9232
:101650009F92AF92BF92CF92DF92EF92FF920F9341
:101660001F93CF93DF936C017B018A018091590115
:10167000882309F45CC080919003882309F457C043
:101680008091820380FF05C08091E000826080939A
:10169000E000E801B12C8AEFA82E93E0892E2AE31E
:1016A000922E209711F4BB20D9F10E946A09811172
:1016B0000AC0AA94AA20D9F161E070E080E090E02D
:1016C0000E94F40AEECF8C171D0611F00CF08C2F3F
:1016D0009FB7F8948092E9002091E80025FD02C0B0
:1016E0009FBFDFCF282F30E0C21BD30BF701815003
:1016F00020F041914093F100FACFE20EF31EBB209F
:1017000021F09092E800B12CEBCF8091E80085FDAC
:10171000E7CF9092E800BB24B394209709F3F3CF6E
:101720005D9884E680938103101611063CF081E0F9
:1017300090E0F6019383828310E000E0C801DF911E
:10174000CF911F910F91FF90EF90DF90CF90BF90BE
:10175000AF909F908F9008956F927F928F929F92FB
:10176000AF92BF92CF92DF92EF92FF920F931F93AF
:10177000CF93DF934C017B01C22F102F98E0A92E4D
:10178000B12C642E669466946694712CCA0187709D
:101790009927892B79F5D40117962D913C91C70192
:1017A0009927B9010E945424269DF001279DF00D30
:1017B000369DF00D11248E0F9F1FD4011596ED91CB
:1017C000FC91E80FF91F2081111112C0C095C223AE
:1017D000C083DF91CF911F910F91FF90EF90DF9029
:1017E000CF90BF90AF909F908F907F906F90089513
:1017F000C22BEECFD0E04770C42ED12C83E0660C14
:10180000771C8A95E1F79E0101C0220F4A95EAF7FD
:10181000012FA301B701C4010E94AC0BA301485FD3
:101820005F4FC5018C199D0902C0D595C7958A9552
:10183000E2F7A7CF5F926F927F928F929F92AF92C3
:10184000BF92CF92DF92EF92FF920F931F93CF93AD
:10185000DF93EC016A30F1F48D859E859C878B8740
:101860008C892F853889820F932F911D988B8F87B4
:1018700081E090E0DF91CF911F910F91FF90EF9069
:10188000DF90CF90BF90AF909F908F907F906F90A0
:101890005F900895AB84BC84693031F429E0A20ED6
:1018A000B11CBC86AB86E4CF3DEFA3163FEFB30679
:1018B0000CF45DC08F819885A816B9060CF057C04E
:1018C000CF84D8888DEFC8168FEFD8060CF44FC0A0
:1018D00089859A85C816D9060CF049C0603208F48B
:1018E0006FE780EE860F9FE9960F9A3118F49FEF0D
:1018F000C91AD90A8C3011F08B3119F42FEFC21AA2
:10190000D20A869534E0839FC00111249C0124559E
:101910003A4F7901912C812C162F1170F701E80DA7
:10192000F91D549011112DC0352D3F70532E3501E6
:10193000680C791C8C81882361F001E089899A897F
:10194000892B09F000E02FE0A601B301CE010E942F
:10195000AC0B0989252DA601B301CE010E94AC0B69
:101960008FEF881A980A94E089169104B9F68B894A
:1019700090E004962B853C85820F931F9C878B8774
:1019800077CF52948FE05822D2CF20919E02E091DF
:101990009C02F0919D02CF01029690939D0280934C
:1019A0009C02222319F08591949108958081918160
:1019B0000895CF92DF92EF92FF92CF93DF930E9430
:1019C000C50C811520E8920791F4809171008D7FFC
:1019D00080937100109291004698479810929B0254
:1019E000DF91CF91FF90EF90DF90CF90089521E0AD
:1019F00020939B02813020E8920751F48091990254
:101A000090919A0290939D0280939C020E94C50C33
:101A100097FD05C020919802222309F454C020911B
:101A20009702211150C021E020939F02EC01DF7743
:101A3000209709F04BC081E08093A00246983FE9CF
:101A4000C32E3FE0D32EE12CF12CCAEFD0E0E09181
:101A5000EF03F091F0030995811103C081E08093B9
:101A6000A00280919F02882329F08091A002882300
:101A700009F43FC047980E94C50C0097F1F19C0102
:101A8000DE010E943124DC01CB0129E0B595A79548
:101A9000979587952A95D1F7109290002AE0209388
:101AA0009100D0929900C09298008093A1029093E7
:101AB000A202A093A302B093A4028091710082605D
:101AC000809371008DCF10929F02B0CF9E0150E0A5
:101AD00040E060E472E48FE090E00E94DD23690161
:101AE0007A0181E0C81AD108E108F1081092A00239
:101AF000AECF4699BFCF479ABECF8FEF9FEFDC01A5
:101B0000CBCF9C01E1E7F0E090819D7F9083109224
:101B10009E02E1EEF3E0F0939D02E0939C02F093CD
:101B20009A02E0939902318320837383628380E079
:101B300090E8958384830C94D90C2D9A0895BC0168
:101B400090E080E00C94F40A8FB18095807F669BD2
:101B500088601C9B846008953E9A3F9A81E0809340
:101B60009602089580E0E8EFF3E081118FEF002402
:101B700081938193819381930394D1F71092DC0236
:101B80001092DB021092DE021092DD020895909115
:101B90009502982329F090919402982381E009F00E
:101BA00080E0089590919502982329F490919402F1
:101BB000982381E009F480E0089580919402809355
:101BC00095020E94A40D809394020895CF93C82F8C
:101BD0000E94A40D982F9C2381E09C1380E0CF915C
:101BE000089580E00C944E0880389105B8F4603474
:101BF0007105A0F420E191E061FD94E060FD990F92
:101C000062FD9295687F269FD0011124A80FA850ED
:101C1000BC4F8C9140FF03C0892B8C930895909505
:101C20008923FBCF5F926F927F928F929F92AF92A8
:101C3000BF92CF92DF92EF92FF920F931F93CF93B9
:101C4000DF936D30B1F48091DF02811126C081E015
:101C500090E0DF91CF911F910F91FF90EF90DF9077
:101C6000CF90BF90AF909F908F907F906F905F903C
:101C700008956A3091F48091DF0281110EC01092B4
:101C8000DE021092DD028091DB029091DC02089668
:101C90009093DC028093DB02DACF8090AA027090EE
:101CA00000016090DB025090DC02E090DD02F090D9
:101CB000DE0285E0689FE0011124C455DF4F570123
:101CC000D12CE5E0C12CDE1629F0CE010196FE01F3
:101CD000C490EC01062D152D88E0982EC0FC18C08C
:101CE000482D871016C0C6949A940F5F1F4F91100D
:101CF000F5CFD394FFEFAF1ABF0A86E0D812E1CF39
:101D0000E6E0EE0EF11CF092DE02E092DD029FCFE3
:101D1000472DB801C5010E94F40DE5CF2F923F92E7
:101D20004F925F926F927F928F929F92AF92BF92EB
:101D3000CF92DF92EF92FF920F931F93CF93DF9397
:101D400000D01F92CDB7DEB79B838A837B016A01E7
:101D500009838901061B170B17FF03C01195019515
:101D6000110946018A819B81881A990A97FE03C04E
:101D7000919481949108801691065CF49C2D8D2D90
:101D80006901292F382F9A818B81FB82EA82E92E03
:101D9000F82E8A819B81C816D9065CF49E2D8F2D62
:101DA0007901292F382F9A818B81DB82CA82C92E33
:101DB000D82E16018A819B81281A390A29014E18CA
:101DC0005F0857FE03C0519441945108310137FE1A
:101DD00003C09FEF691A790A759467948FEFE21632
:101DE000F3060CF481E0A82E880FBB088A819B8142
:101DF000C816D906CCF04981BC01C70180169106EE
:101E00001CF0B7018A819B810E94F40D641875084B
:101E100077FE04C0EA0CFB1C620C731C8A819B8158
:101E200001969B838A83E2CF0F900F900F90DF91F2
:101E3000CF911F910F91FF90EF90DF90CF90BF90C7
:101E4000AF909F908F907F906F905F904F903F905A
:101E50002F900895089590E080E00895FB0101908F
:101E60000020E9F73197AF01461B570BDC01ED91DC
:101E7000FC910280F381E02D09948F929F92AF92A2
:101E8000BF92EF92FF920F931F93CF93DF93CDB743
:101E9000DEB7A1970FB6F894DEBF0FBECDBF7C01B1
:101EA000FA01CB0119A2223008F42AE08E010F5D5D
:101EB0001F4F822E912CB12CA12CBF01A5019401A2
:101EC0000E940F24F901CA016A300CF5605DD80147
:101ED0006E938D01232B242B252B79F790E080E046
:101EE000109721F0BD01C7010E942E0FA1960FB6D9
:101EF000F894DEBF0FBECDBFDF91CF911F910F9140
:101F0000FF90EF90BF90AF909F908F900895695C85
:101F1000DECF462F50E070E060E02AE00C943D0FE9
:101F2000CF92DF92EF92FF92CF93DF936C01990FE4
:101F3000EE08FF08F7FE1BC06DE288EF97E00E94F5
:101F40001A0CEC0144275527BA014C195D096E099A
:101F50007F092AE088EF97E00E943D0F8C0F9D1FBC
:101F6000DF91CF91FF90EF90DF90CF9008952AE01E
:101F7000B701A60188EF97E0DF91CF91FF90EF9036
:101F8000DF90CF900C943D0FAC0170E060E02AE050
:101F900088EF97E00C943D0F0C942E0F0C94C72300
:101FA00082E090E00E94CE0F81110C94AC0D109253
:101FB00096023E983F9808951F920F920FB60F9287
:101FC00011248F939F938091E1009091E100937F82
:101FD0009093E10083FF0FC01092E90091E090938D
:101FE000EB001092EC0092E39093ED0010929003BE
:101FF00098E09093F00082FF22C093E09093E90074
:102000009091F200992319F09AE39093E80090914F
:102010008103992341F09091810391509093810322
:10202000911101C05D9A90918F03992341F0909195
:102030008F03915090938F03911101C0289A84FFD0
:1020400018C08091E2008E7E81608093E2008091D2
:10205000E1008F7E8093E100809182038E7E80611B
:10206000809382039F918F910F900FBE0F901F90CE
:10207000189580FFF7CF8091E2008E7E806180937B
:10208000E2008091E1008E7E8093E10080918203E6
:102090008E7E8160E5CF1F920F920FB60F921124B2
:1020A000CF92DF92EF92FF920F931F932F933F9364
:1020B0004F935F936F937F938F939F93AF93BF9350
:1020C000EF93FF93CF93DF93CDB7DEB76C97DEBF6F
:1020D000CDBF1092E9008091E80083FF25C068E041
:1020E000CE0145960E94950A82EF8093E8008D8983
:1020F00087FF39C09091E80090FFFCCF982F907631
:1021000009F034C19E894F89588D2F89F88C91111F
:1021100031C0803861F5809180038093F100109286
:10212000F1008EEF8093E8006C960FB6F894DEBF56
:102130000FBECDBFDF91CF91FF91EF91BF91AF91D6
:102140009F918F917F916F915F914F913F912F91CF
:102150001F910F91FF90EF90DF90CF900F900FBEE7
:102160000F901F9018959EEF9093E800C7CF1092A4
:10217000F100D5CF913059F48111D3CF41305105C1
:1021800081F6809180038D7F80938003CACF933046
:1021900049F48111C6CF4130510519F68091800371
:1021A0008260F2CF953041F48091E80080FFFCCF4F
:1021B00020682093E300B5CF963009F0A9C00B8DBD
:1021C0001C8D22E01092E90010927E0310927D0394
:1021D000F2122EC010927C0310927B030E94640ABC
:1021E0001F8299E09983FA8291E09E8390EA988712
:1021F0009AEF998720917D0330917E03275F3F4FAF
:102200003C832B838D831092E90010927E03109201
:102210007D0310937C0300937B0349E050E0BE01F3
:102220006F5F7F4F80E00E943E0A0E94640A79CF70
:1022300010937C0300937B030E947B09DC011296C0
:102240000D911C910115110509F451C1D801ED91B1
:10225000FC910480F581E02DBE016B5E7F4FC801CB
:102260000995009709F03EC1F80100851185EACF74
:10227000F3E0FF120EC08F89882309F440C082303A
:1022800061F440E860E18FE290E10E94281381113F
:1022900048CF81E28093EB0047CF813029F440E8BA
:1022A0006BE083E290E1F1CF833099F70E947B09E4
:1022B000DC011296ED90FC908E010F5F1F4F6801BC
:1022C000E114F10479F0D701ED91FC910680F781DA
:1022D000E02DB801C7010995080F111DF701E08431
:1022E000F184EECFD8011C92F60101900020E9F7AD
:1022F0003197BF016C197D0940E0C601C6CF6DE082
:1023000070E1FB01449150E080E80E943E0A09CF51
:10231000973009F4BECF983021F481E08093F1002A
:1023200000CF993009F0FDCE837009F0B2CFEAE713
:10233000F1E081E031E096E32191222371F0809376
:10234000E9003093EB00DF0111972C912093EC0012
:102350009093ED008F5F873079F78EE78093EA00E6
:102360001092EA008F8980939003DBCE8B8D9C8D39
:102370001092E90010927E0310927D0390937C03EB
:1023800080937B03898D811192C08E899D89913ABA
:1023900049F4813209F07DCF47E050E062E571E019
:1023A00080E0B3CF913209F074CF833269F48F8922
:1023B000988DB0E0A0E080934E0190934F01A093E0
:1023C0005001B0935101ADCE803269F48091E800A4
:1023D00082FFFCCF67E082E591E00E94950A8BEFD7
:1023E0008093E8009ECE823209F09BCE8F89809345
:1023F0005901EEEFFFE7859194918B3F9C4D51F190
:10240000E0E0F8E08091520190915301A0915401D5
:10241000B0915501803B9440A105B105F1F4809144
:10242000590180FD1AC0EE3F8AE0F80789F587E779
:1024300097E7918380838091600080937F0388E198
:102440009BE00FB6F894A895809360000FBE909320
:10245000600067CEEEEFFAE0D5CF808191818737BB
:10246000974709F05ECEA8958091600088618093BF
:10247000600080917F0380936000EE3F2AE0F207C6
:1024800089F08091FE0A9091FF0A9183808349CE62
:10249000808191818737980751F29093FF0A80934A
:1024A000FE0AC5CF1092FF0A1092FE0A3ACE0E9491
:1024B0007B09DC0112960D911C910115110509F49F
:1024C000E8CED801ED91FC910190F081E02DBE01A4
:1024D0006B5E7F4FC8010995811123CEF8010085FD
:1024E0001185EBCF181619060CF41BCED2CEF1E0F5
:1024F000FF12BECE61E170E104CF1F920F920FB6C2
:102500000F9211242F933F938F939F93AF93BF9379
:102510008091D5029091D602A091D702B091D802B5
:102520003091A50223E0230F2D3758F50196A11D08
:10253000B11D2093A5028093D5029093D602A0935B
:10254000D702B093D8028091A6029091A702A091E1
:10255000A802B091A9020196A11DB11D8093A60207
:102560009093A702A093A802B093A902BF91AF9144
:102570009F918F913F912F910F900FBE0F901F90C1
:10258000189526E8230F0296A11DB11DD2CF1F92E8
:102590000F920FB60F9211242F933F934F935F9397
:1025A0006F937F938F939F93AF93BF93EF93FF931B
:1025B0008091A1029091A202A091A302B091A402E5
:1025C000892B8A2B8B2B09F440C08091A0028111AA
:1025D0000BC088B190E4892788B980919F02882335
:1025E00019F088B1805888B98091A1029091A20217
:1025F000A091A302B091A402181619061A061B0690
:102600009CF48091A1029091A202A091A302B091AA
:10261000A4020197A109B1098093A1029093A2029B
:10262000A093A302B093A402FF91EF91BF91AF9149
:102630009F918F917F916F915F914F913F912F91DA
:102640000F900FBE0F901F9018950E94D90CECCFE1
:10265000EF92FF920F931F93CF93DF93F82E192FD2
:10266000E62E042F81E0860F880F0E94100A83E077
:102670000E94100ACF2DD12FEC0EFD2EF11CCE158D
:10268000DF05B9F007FF13C0FE0184910E94100A14
:10269000182F80E00E94100A812321968111EFCF2C
:1026A000DF91CF911F910F91FF90EF900895888156
:1026B000EDCF81E0F5CFE1E9F3E01382128288EEFD
:1026C00093E0A0E0B0E084839583A683B78384E899
:1026D00091E0918380838FEF9FEF95878487EDE072
:1026E000F8E01382128282EA91E0918380838BE486
:1026F00098E09093F0038093EF0380E090E890934C
:10270000EE038093ED0346983E9A47983F9AE8EF90
:10271000F7E01382128286E991E09183808388EF4B
:1027200093E09683858380E890E09087878380E4B8
:1027300090E09287818785E0848B81E0838B168689
:102740001586108A17861486138681E090E0928B96
:10275000818B1482E091F703F0E0EE0FFF1FE55A42
:10276000FE4F808191819093F6038093F5038091D1
:102770005A01282F30E03093F4032093F303809321
:10278000F2038093F1030895CF93DF9300D000D03C
:10279000CDB7DEB7789484B5826084BD84B581609E
:1027A00084BD85B5826085BD85B5816085BD80911C
:1027B0006E00816080936E00109281008091810094
:1027C000826080938100809181008160809381008C
:1027D0008091800081608093800080919100826070
:1027E000809391008091910081608093910080910D
:1027F00090008160809390008091C10084608093FC
:10280000C1008091C10082608093C1008091C100AD
:1028100081608093C1008091C30081608093C30078
:102820008091C00082608093C0008091C20081606E
:102830008093C20080917A00846080937A008091B6
:102840007A00826080937A0080917A008160809320
:102850007A0080917A00806880937A0010929003C9
:1028600010928003109282038091D7008160809340
:10287000D70080EA8093D80089B5806189BD89B589
:10288000826089BD09B400FEFDCF61E070E080E0A8
:1028900090E00E94F40A8091D8008F7C8061809340
:1028A000D8008091E000807F8093E0008091E1007B
:1028B0008E7E8093E1008DE08093E200559A209A0D
:1028C00081EC80937C0085B1806F85B984B1877E6F
:1028D00084B984B1876E84B95E9A5F988AB1806D3D
:1028E0008AB9769A6E9881B3806F81BB899880B3DC
:1028F0008D7080BB80E58CBD81E08DBD85E090E072
:102900000E949F0D5F9A85E090E00E949F0D5E9867
:102910005C98ECE1F7E084918EBD00000DB407FEF9
:10292000FDCF319627E0E932F207A9F75C9A81E8FA
:1029300080936400809165008160809365000E94AF
:10294000F10D80E80E94E60D8823A9F05C9885EAE5
:102950008EBD00000DB407FEFDCF5C9A2E982F9817
:102960002D988091640080628093640081E083BF31
:10297000889513BEFCCF84E00E94E60D882309F4FD
:1029800048C02D9884E80E94E60D8823E1F00E945B
:102990009D0D88EC90E00E949F0D2F9882E090E0C2
:1029A0000E94C7238F3F29F06FEF82E090E00E94E2
:1029B000CF2384EF91E00E949F0D2F9A84E80E941C
:1029C000E60D8111FBCF84E10E94E60D8823E1F042
:1029D0000E949D0D88EC90E00E949F0D2E9882E051
:1029E00090E00E94C723882329F060E082E090E015
:1029F0000E94CF2384EF91E00E949F0D2E9A84E1E4
:102A00000E94E60D8111FBCF88EC90E00E949F0DA3
:102A1000B2CF0E949D0D0E94D00F81E090E00E94F5
:102A2000CE0F382F3470932E81FF12C031112E98A3
:102A300041EF5FEF5A83498308E010E080E40E9491
:102A4000E60D882309F459C22E9A2F9A0E949D0DF3
:102A500082E390E00E949F0D0E94A40D8111F8CFA7
:102A600081E28093010181E0809300018093AA02BA
:102A70000E94D00F0E94AC0D80914D01813009F071
:102A800037C41AE02EE1C22ED12C3AE0232E312C8D
:102A900044E1442E512C50E3A52EB12C68E2862E41
:102AA000912C72E3672E712CE5E0EE2E0E94DD0D75
:102AB0000E94B20DD092DE02C092DD021092DC02C2
:102AC0001092DB026AEA71E08DE098E00E94CC0F80
:102AD00001E028E030E040E850E068E070E090E09D
:102AE00080E00E948E0EE4E0F0E0F093DE02E093DE
:102AF000DD02812F90E09093DC028093DB0268EB93
:102B000071E08DE098E00E94CC0F2CE030E0309333
:102B1000DE022093DD023092DC022092DB026AEBBF
:102B200071E08DE098E00E94CC0F4AE250E05093B3
:102B3000DE024093DD023092DC022092DB028091C3
:102B4000370160EC71E0811102C068EC71E08DE04A
:102B500098E00E94CC0F8CE090E09093DE0280938E
:102B6000DD025092DC024092DB0261ED71E08DE00B
:102B700098E00E94CC0FB092DE02A092DD0250924B
:102B8000DC024092DB02609158038DE098E00E94E5
:102B9000890FACE0B0E0B093DE02A093DD02D092EA
:102BA000DC02C092DB0268ED71E08DE098E00E94EB
:102BB000CC0FB092DE02A092DD02D092DC02C09275
:102BC000DB0260915A018DE098E00E94890FECE0F1
:102BD000F0E0F093DE02E093DD029092DC0280925E
:102BE000DB026FED71E08DE098E00E94CC0F2CE6E7
:102BF00030E03093DE022093DD029092DC0280927E
:102C0000DB0280915B0360EF71E0811102C064EF31
:102C100071E08DE098E00E94CC0F4CE050E05093C2
:102C2000DE024093DD027092DC026092DB0267EF0D
:102C300071E08DE098E00E94CC0F8AE590E09093DF
:102C4000DE028093DD027092DC026092DB028091F2
:102C5000E20260EF71E0811102C064EF71E08DE08B
:102C600098E00E94CC0F80E80E94D20D882321F0CA
:102C70001A501A3008F412E380E10E94D20D882322
:102C800021F0165F133308F01AE080E40E94D20DA1
:102C9000882359F01E3109F41AC208F0FAC11A301B
:102CA00009F403C2143109F407C280E20E94D20D74
:102CB000882359F01E3109F438C208F019C21A30BD
:102CC00009F422C2143109F426C288E00E94D20D10
:102CD000F82E882309F409C30E94F10D809158034E
:102CE000809347032FB7F8946091D5027091D60274
:102CF0008091D7029091D8022FBF6115710581058F
:102D0000910511F00E94BE2380E290E0909317019C
:102D10008093160180E490E090931901809318014C
:102D200084E090E0909327018093260185E090E075
:102D3000909329018093280182E080933901AAE1D0
:102D4000B1E0BA83A9830AE211E00E946F232CE666
:102D500030E040E050E00E94DD23E981FA81619398
:102D60007193FA83E9830E946F2328E030E040E00A
:102D700050E00E94DD236F5F7F4F8F4F9F4FD80140
:102D80006D937D938D01E981FA81E652F140E9F678
:102D900083E3482E83E0582E94E6292E93E0392EC3
:102DA00043EE52E05C834B830BE013E047E453E0D7
:102DB000680183EE92E09101F2016AEF70E01192F6
:102DC000D9011D929D01DC016D937D93CD01D6014A
:102DD0006894AA24A3F8B12CAD92BD926D014E1750
:102DE0005F0769F7B2E08B2EB1E09B2EEE24E394EF
:102DF0009401225031403901809147038217130614
:102E000009F00CF4C9C10E946F2320E730E040E0D4
:102E100050E00E94DD23AB81BC816D937C930E94C6
:102E20006F2327E030E040E050E00E94DD236F5F39
:102E30007F4F8F4F9F4FF801718360830E946F23F4
:102E40002AE030E040E050E00E94DD23D4016D93A1
:102E50004D01F201E1922F01D1011D921D01A091BE
:102E60004703EA2FF0E0FA83E983B12C90E080E099
:102E700029813A81821793070CF068C1861597055E
:102E8000D1F1D801ED91FC91EE0FFF1FE55AFE4FF5
:102E900020813181EB81FC8140815181BC01660F31
:102EA000771FFB01E55FFC4F0190F081E02DEE0FF5
:102EB000FF1FE55AFE4F0190F081E02D6D517D4FCF
:102EC000DB016D917C916B01B0E1CB0ED11C4C15F7
:102ED0005D058CF4405F5F4F6417750764F4AF01C4
:102EE000405F5F4F2417350734F4205F3F4FE217F0
:102EF000F3070CF4BF2C0196BBCF992031F08981E8
:102F00009A81049711F42E9A2F9881E00E944E081E
:102F100029813A8137FF03C0319521953109277006
:102F2000332789819A8197FD0796A3E09595879528
:102F3000AA95E1F7A980BA80B7FE05C00197A8015C
:102F4000421B530B9A01AC015695542F44275795B9
:102F5000479548505C4FB0E0A0E03801621A730A10
:102F60008E3F6FEF960709F43BC07A01E4E9EE0E5D
:102F7000F11C6A0170E060E0FD01E459F94F5F0166
:102F80008F3F980779F0F501E60FF71FE491F0E025
:102F90002F01022E01C0440C0A94EAF7F60184883E
:102FA0004828448A2115310581F0F501E60FF71F05
:102FB000E491F0E02F01062C02C0559447940A9446
:102FC000E2F7F7018080482840826F5F7F4FFFEF74
:102FD000EF1AFF0AEFEFCE1ADE0A6835710581F6A7
:102FE0000196A85ABF4F40585F4FA03BB10509F06A
:102FF000B7CF0E94F10D8FE090E00E949F0D2981D4
:103000003A812F5F3F4F3A8329832931310509F0F7
:1030100015CD992011F02F9A2D9880E991E00E940A
:103020009F0D0E949D0D81E090E00E94CE0F80FFD9
:103030000FCD8AE090E00E94CE0F9FEF980F9E3F49
:1030400008F006CD22E330E03093DE022093DD026B
:1030500028E330E03093DC022093DB024BE050E0C9
:103060005A834983682F8DE098E00E94120E89816F
:103070009A810E94CE0FA981BA811196BA83A98341
:10308000519781F70E94F10D88EE93E00E949F0D09
:10309000DFCC183231F1123309F007CE8091E20211
:1030A00091E089278093E20200CE8091370191E080
:1030B000892780933701F9CD809158038F5F85313F
:1030C00018F480935803F1CD10925803EECD8091FF
:1030D0005A018F5F863018F480935A01E6CD81E063
:1030E000FBCF80915B0391E0892780935B03DDCD6B
:1030F000183229F1123309F0E8CD8091E20291E013
:1031000089278093E202E1CD8091370191E0892700
:1031100080933701DACD80915803815018F0809365
:103120005803D3CD10935803D0CD80915A018150CC
:1031300019F080935A01C9CDE0925A01C6CD809111
:103140005B0391E0892780935B03BFCDBB20E1F057
:103150000E946F2320E730E040E050E00E94DD2332
:10316000EB81FC81718360830E946F2327E030E054
:1031700040E050E00E94DD236F5F7F4F8F4F9F4FF5
:10318000D8016D937C936BCE0E5F1F4FEB81FC815A
:103190003296FC83EB832CCE86E08093380110922C
:1031A0007A031092790380915A01282F30E03093EE
:1031B000F4032093F3038093F2038093F10380914F
:1031C0005803809347032FE330E030933C01209372
:1031D0003B012AE230E030933E0120933D0125E19E
:1031E00030E03093400120933F0110924201109251
:1031F00041012BEE3FEF309344012093430126ED34
:103200003FEF309346012093450121EC3FEF30938F
:103210004801209347012CEA3FEF30934A01209365
:10322000490127E93FEF30934C0120934B012FE2F6
:1032300030E030935C0120935B014AE150E0509311
:103240005E0140935D0145E050E050936001409382
:103250005F0140EF5FEF50936201409361014BEDDE
:103260005FEF509364014093630146EC5FEF50932E
:1032700066014093650141EB5FEF50936801409315
:1032800067014CE95FEF50936A014093690147E899
:103290005FEF50936C0140936B01109263031092A7
:1032A000F70348E350E050935D0340935C03309391
:1032B000F6032093F50310925503109254031092D5
:1032C000E10290E0909353038093520310925703CE
:1032D0001092560382E080934D0180E090E0892BAC
:1032E00009F4CACB0E940000C7CB0E94F10DDECBCF
:1032F000833009F059C10E94B20D84E290E09093AE
:10330000DE028093DD021092DC021092DB0265E0A7
:1033100072E08DE098E00E94CC0FE0915803F0E05D
:103320008091540390915503EE0FFF1FE555FD4F1B
:103330002081318128173907C0F49183808388E187
:1033400090E090930608809305089093040880937A
:1033500003088AE090E090930808809307086FE0E4
:1033600072E088EF97E00E94CC0F1AE0A12EB12CFA
:10337000B0920608A0920508B0920408A092030833
:1033800004E1E02EF12CF0920808E092070860E2D8
:1033900072E088EF97E00E94CC0F08E210E01093F3
:1033A0000608009305081093040800930308F092A0
:1033B0000808E09207086091580388EF97E00E94A0
:1033C000890FB0920608A0920508B0920408A09256
:1033D00003088AE1E82EF12CF0920808E092070831
:1033E0006AE272E088EF97E00E94CC0F1093060823
:1033F000009305081093040800930308F09208084E
:10340000E092070880915403909155030E94C40FE5
:10341000B0920608A0920508B0920408A092030892
:1034200090E2E92EF12CF0920808E092070867E29A
:1034300072E088EF97E00E94CC0F87E390E09093D2
:103440000608809305089093040880930308F0927F
:103450000808E0920708E0915803F0E0EE0FFF1F24
:10346000E555FD4F808191810E94C40FB0920608FE
:10347000A0920508B0920408A092030836E2C32E79
:10348000D12CD0920808C092070861E372E088EF5F
:1034900097E00E94CC0F43E2E42EF12CF092060854
:1034A000E0920508F0920408E0920308D092080820
:1034B000C09207088091790390917A030E94900F3F
:1034C000B0920608A0920508B0920408A0920308E2
:1034D0005CE2C52ED12CD0920808C092070867E3A1
:1034E00072E088EF97E00E94CC0F109306080093DB
:1034F00005081093040800930308D0920808C092AE
:10350000070880915603909157030E94900F809175
:103510003701811128C0B0920608A0920508B09228
:103520000408A092030822E330E0309308082093B7
:1035300007086EE372E088EF97E00E94CC0FF092EC
:103540000608E0920508F0920408E092030842E3BE
:1035500050E050930808409307086091E10288EF1B
:1035600097E00E94890F8BE090E09093060880938B
:10357000050890930408809303088BE390E09093F0
:1035800008088093070864E472E088EF97E00E94DF
:10359000CC0F0E94F10D0E94DD0D88E00E94D20D3B
:1035A0008823C9F381E097CE843009F086C10E9458
:1035B000B20D82E190E09093DE028093DD021092E2
:1035C000DC021092DB0269E572E08DE098E00E9477
:1035D000CC0FE0915803F0E0809154039091550393
:1035E000EE0FFF1FE555FD4F208131812817390768
:1035F000C0F49183808388E190E0909306088093E3
:10360000050890930408809303088AE090E0909363
:103610000808809307086FE072E088EF97E00E9447
:10362000CC0F8AE090E09093060880930508909371
:1036300004088093030834E1E32EF12CF09208088B
:10364000E092070860E272E088EF97E00E94CC0FFA
:1036500008E210E010930608009305081093040890
:1036600000930308F0920808E0920708609158035D
:1036700088EF97E00E94890FAAE0B0E0B0930608B7
:10368000A0930508B0930408A09303084AE1E42E30
:10369000F12CF0920808E09207086AE272E088EFE5
:1036A00097E00E94CC0F1093060800930508109332
:1036B000040800930308F0920808E092070880913C
:1036C0005403909155030E94C40FEAE0F0E0F09398
:1036D0000608E0930508F0930408E093030850E21D
:1036E000E52EF12CF0920808E092070867E272E0FC
:1036F00088EF97E00E94CC0F87E390E09093060854
:10370000809305089093040880930308F0920808BA
:10371000E0920708E0915803F0E0EE0FFF1FE55537
:10372000FD4F808191810E94C40F7AE0A72EB12CB9
:10373000B0920608A0920508B0920408A09203086F
:10374000E6E2CE2ED12CD0920808C092070861E3A1
:1037500072E088EF97E00E94CC0FF3E2EF2EF12C9D
:10376000F0920608E0920508F0920408E09203083F
:10377000D0920808C09207088091790390917A034B
:103780000E94900FB0920608A0920508B09204081B
:10379000A0920308ACE2CA2ED12CD0920808C092A5
:1037A000070867E372E088EF97E00E94CC0F109360
:1037B0000608009305081093040800930308D092AC
:1037C0000808C092070880915603909157030E9401
:1037D000900F80913701811128C0B0920608A09205
:1037E0000508B0920408A092030822E330E0309369
:1037F0000808209307086EE372E088EF97E00E94C4
:10380000CC0FF0920608E0920508F0920408E092CE
:10381000030842E350E05093080840930708609182
:10382000E10288EF97E00E94890F8091580384316C
:10383000B0F48CE090E09093060880930508909394
:103840000408809303088BE390E09093080880932A
:10385000070869E672E088EF97E00E94CC0F80913C
:1038600058038431B1F488E190E090930608809386
:10387000050890930408809303088BE390E09093ED
:103880000808809307086DE772E088EF97E00E94D0
:10389000CC0F0E94F10D0E94DD0D88E00E94D20D38
:1038A0008823C9F3809158038F5F853118F4809382
:1038B000580378CE1092580375CE823009F00DCDA2
:1038C0008FB7F8944091D5025091D6026091D702FB
:1038D0007091D8028FBF8091D902882319F010927D
:1038E000D902FBCC8091DA02942F981B892F9091FA
:1038F0000101891748F48F5F891708F0EECC81E049
:1039000083BF889513BEE9CC81E08093D9024093B0
:10391000DA0220915003309151032F5F3F4F3093D3
:10392000510320935003C9016EE170E00E944024CE
:10393000892B49F48091790390917A0301969093B1
:103940007A0380937903C9016CE370E00E944024FC
:10395000892B59F483E680937803E4E6F3E088E763
:1039600093E011928E179F07E1F70E94DD0D809181
:1039700063038350843008F499C0A0906203A98245
:10398000A11094C080E20E94E60D882329F082E015
:10399000809363038093360180E20E94C70D8111FA
:1039A0001092630380E40E94E60D882329F081E0F1
:1039B000809363038093360180E40E94C70D8111D8
:1039C0001092630388E00E94D20D882309F46EC030
:1039D000A0903901B12C6091F5037091F603A0918C
:1039E0005C03B0915D036D0126E0C20ED11C4D0158
:1039F0003AE0830E911C9091780340915803A5E022
:103A00004A9FA0011124009154031091550326E10F
:103A1000E22E21E0F22E30E020E04B5F5F4F2A15CE
:103A20003B0544F5D701ED91FD917D01E815F905C0
:103A3000F4F47496CE16DF06D4F4F901EE0FFF1FEE
:103A4000EA5DFE4F0190F081E02DEE0FFF1FE55C77
:103A5000FE4F0190F081E02D6E177F0744F03696FF
:103A60006E177F0724F4922F040F151F89832F5F91
:103A70003F4FD5CF90937803A980A0924A0310932B
:103A8000550300935403AA2009F42DC183E08093C9
:103A9000630310926103109260038091F7038F5FBC
:103AA0008093F70370935F0360935E0380E10E944D
:103AB000E60D84E00E94D20D8823A1F1809152038B
:103AC00090915303181619066CF580914F038111DC
:103AD00029C080913701811125C064E670E08CE235
:103AE00091E00E94810D80915203909153030197C0
:103AF000909353038093520381E080934F0380910E
:103B00003601823009F0FBC010924E0380915C03B5
:103B100090915D0390934D0380934C038091F70344
:103B200080934B03809162038823B1F18091F50368
:103B30009091F60320915E0330915F038217930703
:103B40000CF0E3C02A31310509F00BC12091F703D5
:103B5000273008F006C103969093F6038093F5038F
:103B6000EBE3F1E04BE551E081919191BF016250AF
:103B700071090396DB018D939C93DA018D919D91E0
:103B8000AD01BD01625071090396DB018D939C93D9
:103B9000B1E0ED34FB0741F70E94B20D20915003D4
:103BA0003091510360913A0170E0C9010E944024B4
:103BB000892B69F4809160039091610301968430B0
:103BC00091050CF0D1C09093610380936003C9010B
:103BD00065E070E00E944024892B69F480914803DD
:103BE000909149030196843091050CF0C2C09093E6
:103BF00049038093480304E613E01A821982DD2406
:103C0000D39435E0C32E42E0E42EF12C809147039B
:103C1000A980BA808A151B0409F00CF4AFC0D80142
:103C20008D918D01811159C0F501ED5CFC4F8081B2
:103C3000882309F452C0C501880F991FFC01ED517A
:103C4000FD4F2081318140915C0350915D03241729
:103C500035070CF042C04A5F5F4F225F3F4F42176B
:103C60005307DCF5855F9C4FDC01ED91FC91EE0F75
:103C7000FF1FE55AFE4F808191812091F50330911D
:103C8000F603A9014B5F5F4F8417950734F505963E
:103C90002817390714F5F8013197D082809156031F
:103CA0009091570301969093570380935603809108
:103CB000E20281110CC080916303833041F08630B1
:103CC00031F0C0926303F0925A03E092590364E624
:103CD00070E084E893E00E94810DE981FA813196D9
:103CE000FA83E98393CF70935F0360935E0310922E
:103CF00061031092600386E080936303D7CE813026
:103D000009F004CF80934E0301CF281739074CF5F3
:103D10002A31310531F52091F703222311F1039760
:103D20009093F6038093F503EBE3F1E04BE551E06C
:103D300081919191BF01625071090397DB018D93CD
:103D40009C93DA018D919D91AD01BD016250710985
:103D50000397DB018D939C93B1E0ED34FB0741F7B2
:103D60001BCF1092620318CF109261031092600370
:103D70002ECF10924903109248033DCF1BE3E12E52
:103D800011E0F12EFA82E982A981BA816D917D91CB
:103D9000BA83A98301E09B0140E850E090E080E015
:103DA0000E948E0EE981FA81ED54F14069F71A8282
:103DB0001982D7018D919D917D018233910588F4FF
:103DC0001092060810920508109204081092030839
:103DD0000296909308088093070889819A810E942F
:103DE000900FE981FA813196FA83E983399709F7CF
:103DF000E6E2AE2EE1E0BE2EF6E1CF2EF1E0DF2EC0
:103E0000A1E74A2EA1E05A2E22242394312C20919E
:103E10003901C201815791402817190611F00CF0A1
:103E200056C00BE013E023EE32E03A83298353E3DC
:103E3000A52E53E0B52E4501712C612C60E8462E6D
:103E4000512C22242394312C80914703861517048A
:103E500009F00CF4D4C0D4018D914D01882359F19F
:103E6000F801E080F180A981BA81CD90DC90F30166
:103E7000EE5FFE4F4081B2E84B9FA0011124475DE9
:103E8000584FF701EE0FFF1FE55AFE4F6081718119
:103E900020914803C6010E945D088091F103C81A71
:103EA000D108E0EFCE16EFEFDE060CF495C0A98145
:103EB000BA81CD92DC92FFEF6F1A7F0A0E5F1F4F1F
:103EC00029813A812E5F3F4F3A832983BDCFD501A7
:103ED0000D90BC91A02DBA83A983FD01EE0FFF1FA9
:103EE000E55CFE4F60817181F601E080F180370171
:103EF000F4E16F0E711C00E09B01A301C7010E9459
:103F00008E0E29813A8128303105B1F480903B0131
:103F100090903C019401A301B401C7010E948E0E50
:103F200010E000E041E0B401C8010E94F40D0E5F12
:103F30001F4F00381105B1F7D2018D912D0181116C
:103F400027C08091F203E81AF108BCEEEB16BFEF30
:103F5000FB0654F0F601F182E08232E0A30EB11CC0
:103F600042E0C40ED11C53CFE0E8F0E0D601ED935F
:103F7000FC9329813A812830310534F42F5F3F4F7B
:103F8000D5012D933C93E9CFF50131822082E5CF15
:103F9000813019F78091F203E80EF11CF1E8EF1679
:103FA000F10424F4D601ED92FC92D7CF2CEE3FEF32
:103FB000F6013183208349815A814230510534F022
:103FC00041505109D5014D935C93C7CF28E030E0B3
:103FD000F50131832083C1CFE981FA81518240828A
:103FE000F7E0EF16F1043CF42FEFE21AF20AD801E1
:103FF000ED92FC9260CFF801318220825CCF8091FB
:104000004F03882309F489C01A82198280914703DB
:1040100049815A818417150609F00CF455C0D50161
:104020008C91882309F446C0CA01880F991FFC01AE
:10403000ED51FD4F2081318140914C0350914D0352
:10404000B9016E5F7F4F46175707A4F1225F3F4FBC
:10405000421753077CF5855F9C4FDC01ED91FC9185
:10406000EE0FFF1FE55AFE4F80819181E0914B03D7
:10407000F0E0EE0FFF1FE55AFE4F20813181A901CC
:10408000485F5F4F84179507ACF4295F3F4F409618
:10409000281739077CF4F50110828091E1028F5FC7
:1040A0008093E10264E670E088E592E00E94810D71
:1040B00010924F0329813A812F5F3F4F3A83298322
:1040C0003FEFA31AB30AA2CF80914E03813009F0CB
:1040D0007DC0A0904C03B0904D03E0914B03F0E005
:1040E000EE0FFF1FE55AFE4F60817181695F7F4FC0
:1040F00041E0C50106960E94F40D80915A01A80E78
:10410000B11C95012F5F3F4F30934D0320934C031B
:104110002138310514F010924F03809163038350CE
:10412000823008F48EC08091620381118AC010929F
:10413000E0021A82198211E080913901A980BA80C7
:104140008A151B0409F00CF464C0809178038A1569
:104150001B04B1F1C501880F991FFC01EA5EFE4FF7
:104160002081318140915C0350915D0342175307D8
:104170003CF1495F5F4F255F3F4F4217530704F5FE
:104180008A5D9E4FDC01ED91FC91EE0FFF1FE55C17
:10419000FE4F208131818091F5039091F603AC01AF
:1041A0004F5E5F4F241735075CF42817390744F03A
:1041B0001093E00268EC70E088E592E00E94810DC7
:1041C000E981FA813196FA83E983B6CF8111A5CFCF
:1041D000A0904C03B0904D03E0914B03F0E0EE0F44
:1041E000FF1FE55AFE4F60817181695F7F4F41E09B
:1041F000C50106970E94F40D80915A0190E0019646
:10420000A81AB90AB0924D03A0924C03B7FC83CF11
:1042100084CF8091E0028823A1F084E0809363033F
:1042200010926103109260038091F7038150809394
:10423000F7038091F5039091F60390935F038093C9
:104240005E03E0916303E73078F4F0E0E65DFE4D55
:104250000C946824312195217C21A921D6210422A6
:1042600025228EE180933A014091630322E8429F28
:10427000A0011124435C534F6091F5037091F60344
:104280002091600380915C0390915D030E945D0822
:1042900080915B0381111AC180913801811103C0A3
:1042A00083E080934D0181E08093DF0210E000E025
:1042B0001A82198288E3E82EF12C80913801A980B6
:1042C000BA808A151B0409F00CF4FEC01093DE02BC
:1042D0000093DD02F092DC02E092DB026DE872E016
:1042E0008DE098E00E94CC0F95012F5F3F4F3A83FD
:1042F0002983095F1F4FE1CF80915C0390915D039B
:104300002091F3033091F403821B930B90935D0390
:1043100080935C03803F9F4F34F480E890E090935B
:104320005D0380935C0383E09DCF80915C0390915B
:104330005D032091F3033091F403820F931F909358
:104340005D0380935C03813891056CF380EF9FEFF0
:10435000E6CF85E080933A012091F7038091F50341
:104360009091F603E22FF0E0EE0FFF1FE55AFE4FAB
:10437000408151814817590734F403979093F6030D
:104380008093F50371CF81E0809362031092630301
:1043900080913901883018F48F5F8093390128307B
:1043A00008F462CF84E080934D015ECF85E0809376
:1043B0003A012091F7038091F5039091F603309133
:1043C0005B03E22FF0E0EE0FFF1FE55AFE4F408146
:1043D00051818417950714F40396D0CF81E0809320
:1043E0006203311107C0211105C08091380181504D
:1043F0008093380185E08093630382E090E090939E
:104400005A038093590330CF81E080933A01209181
:10441000590330915A0380915003909151036EE1FA
:1044200070E00E944024892B31F4215031093093EF
:104430005A03209359038091590390915A03892B71
:1044400009F012CF109263030FCF80915003909127
:10445000510367E070E00E944024892B09F004CFEB
:1044600062E370E084E690E00E94810D8091F503A4
:104470009091F60302979093F6038093F5032091B1
:104480006003309161032330310534F42F5F3F4FD7
:10449000309361032093600320915E0330915F03AA
:1044A00060915B03A901465051098417950709F0F3
:1044B000DBCE3093F6032093F50361119BCF8091FF
:1044C000F703811197CF91CF1092DF0280915803AB
:1044D000882309F44AC080915603909157038A308B
:1044E000910584F42CE730E030930608209305080A
:1044F000309304082093030822E030E0309308084A
:10450000209307089C012A5031092A35310580F48F
:1045100027E730E03093060820930508309304081D
:104520002093030822E030E0309308082093070826
:104530009C01245631092438334008F079C080E7C3
:1045400090E0909306088093050890930408809368
:10455000030882E090E09093080880930708809118
:104560005603909157030E94900F88E090E090933B
:104570000608809305089093040880930308A2E03E
:10458000B0E0B0930808A09307086FE872E088EFE6
:1045900097E00E94CC0F86E190E09093060880930C
:1045A00005089093040880930308E2E0F0E0F0939C
:1045B0000808E093070880915403909155030E94E6
:1045C000C40F8091370181112FC0809152039091C7
:1045D00053038A30910584F42CE730E030930608C9
:1045E0002093050830930408209303082AE330E061
:1045F00030930808209307089C012A5031092A3576
:10460000310580F427E730E0309306082093050851
:1046100030930408209303082AE330E0309308081D
:10462000209307080E94900F0E94F10D0C946D19C1
:10463000883E93400CF493CF87EE93E0909357031A
:10464000809356037CCF8F929F92AF92BF92CF926E
:10465000DF92EF92FF92CF93DF93EC016881798133
:104660008A819B81611571058105910521F464E2C0
:1046700079ED8BE597E02DE133EF41E050E00E94CA
:10468000DD2349015A019B01AC01A7EAB1E40E9474
:10469000FC236B017C01ACEEB4EFA50194010E94F8
:1046A0000A24C60ED71EE81EF91EF7FE06C081E0DA
:1046B000C81AD108E10880E8F80AC882D982EA82DB
:1046C000FB82C701B6019F77DF91CF91FF90EF90FA
:1046D000DF90CF90BF90AF909F908F9008958F9272
:1046E0009F92AF92BF92CF92DF92EF92FF92609132
:1046F0006D0170916E0180916F0190917001611553
:1047000071058105910521F464E279ED8BE597E06F
:104710002DE133EF41E050E00E94DD2349015A01D1
:104720009B01AC01A7EAB1E40E94FC236B017C0170
:10473000ACEEB4EFA50194010E940A24C60ED71E68
:10474000E81EF91EF7FE06C081E0C81AD108E1088C
:1047500080E8F80AC0926D01D0926E01E0926F017C
:10476000F0927001C701B6019F77FF90EF90DF9044
:10477000CF90BF90AF909F908F90089560936D0100
:1047800070936E0180936F01909370010895F99971
:10479000FECF92BD81BDF89A992780B50895262F46
:1047A000F999FECF1FBA92BD81BD20BD0FB6F89416
:1047B000FA9AF99A0FBE01960895052E97FB1EF4FA
:1047C00000940E94F42357FD07D00E940F2407FC99
:1047D00003D04EF40C94F4235095409530952195D8
:1047E0003F4F4F4F5F4F089590958095709561951D
:1047F0007F4F8F4F9F4F08950E943124A59F900DAA
:10480000B49F900DA49F800D911D11240895B7FFB2
:104810000C94FC230E94FC23821B930B0895A1E2BD
:104820001A2EAA1BBB1BFD010DC0AA1FBB1FEE1F2A
:10483000FF1FA217B307E407F50720F0A21BB30B75
:10484000E40BF50B661F771F881F991F1A9469F7F1
:1048500060957095809590959B01AC01BD01CF014D
:104860000895A29FB001B39FC001A39F700D811D49
:104870001124911DB29F700D811D1124911D089569
:10488000AA1BBB1B51E107C0AA1FBB1FA617B70776
:1048900010F0A61BB70B881F991F5A95A9F7809592
:1048A0009095BC01CD01089597FB072E16F4009456
:1048B00007D077FD09D00E94402407FC05D03EF4C4
:1048C000909581959F4F0895709561957F4F0895BC
:1048D000EE0FFF1F0590F491E02D0994F894FFCF9F
:1048E00001100001020304000000000000000000AD
:1048F0000000000000002000400000000000000058
:10490000000000000000040005000000000000009E
:10491000000000000000010106020A3F002A001505
:10492000000000EBFFD6FFC1FFACFF97FF01FFFFC8
:10493000FFFF00E1000000000000022F001A000548
:1049400000F0FFDBFFC6FFB1FF9CFF87FF01000007
:1049500000000101010100000000C1808100000091
:10496000000000008F09270BB009A509F609B4095A
:10497000D209000000001A0CA20A2B0F2A0F000017
:104980000000120EA20A2B0F2A0F47414D4520535B
:10499000455454494E4753003E00547970653A00DF
:1049A000436C617373696300457874656E64656414
:1049B000004C6576656C3A0053706565643A005545
:1049C0006E6C696D69746564204C697665733A0034
:1049D000596573004E6F00496E7669736962696C40
:1049E0006974793A0047414D45204F5645520021A0
:1049F0002121204E455720484947482021212100A8
:104A00004C4556454C3A0048492053434F52453A8D
:104A10000054494D453A004641494C533A004849F3
:104A200054533A005052455353204120544F205480
:104A3000525920414741494E004C4556454C204370
:104A40004F4D504C4554454400505245535320411E
:104A500020544F20434F4E54494E554500434F4E2E
:104A600047524154554C4154494F4E530003005353
:044A7000433A0000C5
:00000001FF
