:100000000C9437050C945F050C945F050C945F0508
:100010000C945F050C945F050C945F050C945F05D0
:100020000C945F050C945F050C94B70A0C94260B96
:100030000C945F050C945F050C945F050C945F05B0
:100040000C945F050C945F050C945F050C945F05A0
:100050000C945F050C945F050C945F050C94580D8F
:100060000C945F050C945F050C945F050C945F0580
:100070000C945F050C945F050C945F050C945F0570
:100080000C94A20D0C945F050C945F050C945F0515
:100090000C945F050C945F050C945F050C945F0550
:1000A0000C945F050C945F050C945F050000000044
:1000B000003E5B4F5B3E3E6B4F6B3E1C3E7C3E1CEE
:1000C000183C7E3C181C577D571C1C5E7F5E1C0034
:1000D000183C1800FFE7C3E7FF0018241800FFE7EB
:1000E000DBE7FF30483A060E2629792926407F05AE
:1000F0000507407F05253F5A3CE73C5A7F3E1C1CC4
:1001000008081C1C3E7F14227F22145F5F005F5F83
:1001100006097F017F006689956A6060606060946F
:10012000A2FFA29408047E040810207E2010080874
:100130002A1C08081C2A08081E101010100C1E0C7F
:100140001E0C30383E3830060E3E0E060000000011
:100150000000005F00000007000700147F147F14F8
:10016000242A7F2A1223130864623649562050003D
:1001700008070300001C2241000041221C002A1C29
:100180007F1C2A08083E0808008070300008080814
:100190000808000060600020100804023E51494534
:1001A0003E00427F400072494949462141494D3352
:1001B0001814127F1027454545393C4A49493141B9
:1001C000211109073649494936464949291E000087
:1001D00014000000403400000008142241141414DC
:1001E0001414004122140802015909063E415D59C8
:1001F0004E7C1211127C7F494949363E41414122D1
:100200007F4141413E7F494949417F090909013EFA
:10021000414151737F0808087F00417F4100204021
:10022000413F017F081422417F404040407F021C33
:10023000027F7F0408107F3E4141413E7F0909094A
:10024000063E4151215E7F09192946264949493216
:1002500003017F01033F4040403F1F2040201F3FDC
:100260004038403F63140814630304780403615961
:10027000494D43007F4141410204081020004141A3
:10028000417F04020102044040404040000307084F
:100290000020545478407F2844443838444444284B
:1002A000384444287F385454541800087E090218F2
:1002B000A4A49C787F0804047800447D400020407A
:1002C000403D007F1028440000417F40007C0478BE
:1002D00004787C080404783844444438FC18242406
:1002E0001818242418FC7C08040408485454542486
:1002F00004043F44243C4040207C1C2040201C3C03
:100300004030403C44281028444C9090907C4464F9
:10031000544C44000836410000007700000041368C
:10032000080002010204023C2623263C1EA1A16112
:10033000123A4040207A3854545559215555794144
:100340002154547841215554784020545579400C1B
:100350001E527212395555555939545454593955FC
:100360005454580000457C410002457D420001453F
:100370007C40F0292429F0F0282528F07C545545AC
:10038000002054547C547C0A097F4932494949323F
:100390003248484832324A4848303A4141217A3A54
:1003A00042402078009DA0A07D39444444393D401E
:1003B00040403D3C24FF2424487E4943662B2FFCCB
:1003C0002F2BFF0929F620C0887E09032054547979
:1003D000410000447D413048484A32384040227A4A
:1003E000007A0A0A727D0D19317D2629292F2826C7
:1003F0002929292630484D402038080808080808CF
:100400000808382F10C8ACBA2F102834FA00007B27
:10041000000008142A142222142A1408950022002D
:1004200095AA005500AAAA55AA55AA000000FF00E7
:10043000101010FF00141414FF001010FF00FF1024
:1004400010F010F0141414FC001414F700FF000056
:10045000FF00FF1414F404FC141417101F10101FD5
:10046000101F1414141F00101010F0000000001FC3
:10047000101010101F10101010F010000000FF10CE
:100480001010101010101010FF10000000FF1400CA
:1004900000FF00FF00001F10170000FC04F41414FC
:1004A0001710171414F404F40000FF00F7141414C8
:1004B00014141414F700F7141414171410101F1048
:1004C0001F141414F4141010F010F000001F101F6B
:1004D0000000001F14000000FC140000F010F010D9
:1004E00010FF10FF141414FF141010101F00000050
:1004F00000F010FFFFFFFFFFF0F0F0F0F0FFFFFF54
:100500000000000000FFFF0F0F0F0F0F38444438AA
:10051000447C2A2A3E147E02020606027E027E02E5
:1005200063554941633844443C04407E201E200604
:10053000027E020299A5E7A5991C2A492A1C4C7241
:1005400001724C304A4D4D303048784830BC625AC8
:10055000463D3E494949007E0101017E2A2A2A2A58
:100560002A44445F444440514A444040444A514034
:100570000000FF0103E080FF000008086B6B0836F5
:1005800012362436060F090F060000181800000066
:100590001010003040FF0101001F01011E00191D55
:1005A0001712003C3C3C3C0000000000F0F89C8E20
:1005B0008783878E9CF8F00000FEFF03030303038C
:1005C000070EFCF80000FEFF0303030303070EFC05
:1005D000F80000FFFF00000000000000FFFF000027
:1005E000FEFF8383838383C7EE7C380000F8FC0E14
:1005F00007030303070EFCF800003F7FE0C0808084
:10060000C0E07F3FFFFF01010101010101FFFF0089
:1006100000FFFF0C0C0C0C1C3E77E3C100007FFFB9
:10062000C0C0C0C0C0E0703F1F00001F3F70E0C0EE
:10063000C0C0E0703F1F00007FFFC1C1C1C1C1E366
:10064000773E1C00001F3F70E0C0C0C0E0703F1F3D
:10065000000000000001FFFF01000000D5F08D1434
:10066000A1C881CFD9F1AF20001010000000003CDC
:100670004ADBD7DB4A3C000000000000000884C2CF
:10068000310D030D31C28408000000000010183C39
:100690005ADBCFEF7E3C000000000000000884C25F
:1006A000310D030DB1C60800000000000000003C41
:1006B0004ADBD7DB4A3C000000000000000884C28F
:1006C000310D030D31C28408000000000000003C21
:1006D0007EEFCFDB5A3C181000000000000008C677
:1006E000B10D030D31C2840800000010100000009D
:1006F000003C7EEFCFDB5A3C981000000000000069
:1007000000026323FFA72A31000000000000000060
:10071000003C7EEFCFDB5A3C981000000000000048
:1007200000C4B60F030302031C1000000000000009
:10073000003C7EEFCFDB5A3C181000000000006642
:100740002121310D0305091224C28100000000009F
:10075000003C7EEFCFDB5A3C981000000000000008
:1007600000046A29232F32C180000000001010000D
:100770000010983C5ADBCFEF7E3C000000000000E8
:10078000000000312AA7FF236302000000000000E0
:100790000010983C5ADBCFEF7E3C000000000000C8
:1007A00000101C030203030FB6C400000000000089
:1007B0000010183C5ADBCFEF7E3C00000000000028
:1007C00081C224120905030D3121216600000000B9
:1007D0000010983C5ADBCFEF7E3C00000000000088
:1007E000000080C1322F23296A040000000000109D
:1007F00010000000003C4ADBD7DB4A3C0000000050
:100800000000000884C2310D030D31C284080000CD
:1008100000000000003C6AEBE7EB6A3C00000000CF
:1008200000000000001E817D037D811E000000008D
:1008300000000000003C4ADBD7DB4A3C000000001F
:1008400000000000001E817D037D811E000000006D
:1008500000000000003C4ADBD7DB4A3C00000000FF
:1008600000000000001E817D037D811E000000004D
:1008700000101000002040BC7ADBD7DB7ABC40209F
:1008800000000000000080C0310D030D31C0800069
:10089000000000000000003C7ADBD7DB7A3C00005F
:1008A00000000000000884C2310D030D31C284082D
:1008B000000000000000003C7ADBD7DB7A3C00003F
:1008C00000000000000884C2310D030D31C284080D
:1008D000000000000000003C7ADBD7DB7A3C00001F
:1008E00000000000000884C2310D030D31C28408ED
:1008F0000000001010808000000000000440000094
:1009000082200004000106182020232C30707CC2B5
:10091000FFFFF67C3880800000000020000400000B
:10092000A0020008000106182020232C30707CC291
:10093000FFFFF67C380000008080001000000420DB
:1009400080000210000000003F2020203F707CC289
:10095000FFFFF67C380000008080000008004002A5
:1009600080002002000000003F2020203F707CC259
:10097000FFFFF67C381010000000003C7ADBD7DB6C
:100980007A3C000000000000000884C2310D030D15
:1009900031C2840800000000002040BC7ADBD7DBB5
:1009A0007ABC4020000000000003020405090F0982
:1009B0000504020300000008142040844850207001
:1009C000F884FFFEE4F87000000000000000000062
:1009D00000010101010000081420408448502070EB
:1009E000F884FFFEE4F87000000000000000000042
:1009F00000010101010000080B00020202000009D1
:100A00000400000102020000052400100105240179
:100A100001010424020605240600010705810310D4
:100A2000004009040100020A00000007050202401C
:100A300000000705830240000004030904120100BE
:100A400002EF02014041233680000101020301410F
:100A5000726475696E6F204C4C4300417264756915
:100A60006E6F204C656F6E6172646F00360E1124DC
:100A70001FBECFEFDAE0DEBFCDBF11E0A0E0B1E0F6
:100A8000E0E2FCE202C005900D92AA38B107D9F766
:100A900026E0AAE8B1E001C01D92A533B207E1F754
:100AA00015E0C7E3D5E004C02197FE010E940816B7
:100AB000C633D107C9F70E94700E0C940E160C9421
:100AC000000080918A010895EEECF1E0A0E0B8E02A
:100AD00000800EBC8111012C1197A0FDFDCF019269
:100AE000B9F70DB40895FC018091CD01882311F16F
:100AF0003FB7F89482E08093E9002091F200822FC2
:100B000090E01816190614F481E090E0882339F07B
:100B1000289844E64093CC014091F1004083222381
:100B200039F02091F200211103C02BE62093E80058
:100B30003FBF08958FEF9FEF08952FB7F89483E09C
:100B40008093E9009091E800892F807295FF04C09E
:100B50009091F20080E4891B2FBF08958091C40119
:100B600081110DC082E08093C00184E08093C101B7
:100B70001092C3011092C20181E08093C40180EC05
:100B800091E00895CF93DF931F92CDB7DEB76983CD
:100B9000DC01ED91FC910280F381E02D41E050E019
:100BA000BE016F5F7F4F09950F90DF91CF91089540
:100BB00083E08093E9008091F200882319F08AE3B2
:100BC0008093E80008950E949D0590E00895CF93DA
:100BD000DF931F92CDB7DEB7FC018485958597FD25
:100BE00008C02FEF3FEF358724870F90DF91CF911B
:100BF0000895CE0101960E947305019719F4898129
:100C000090E0F3CF8FEF9FEFF0CF0F931F93CF9331
:100C1000DF931F92CDB7DEB78C01FC0184859585EB
:100C200097FF0BC0CE0101960E947305019771F4E6
:100C3000898190E0F80195878487F80184859585FE
:100C40000F90DF91CF911F910F9108958FEF9FEF3C
:100C5000F1CFFC018485958597FD0BC09FB7F89473
:100C600082E08093E9008091F2009FBF90E00196BE
:100C700008959FB7F89482E08093E9008091F20094
:100C80009FBF90E008954091BA015091BB0120911F
:100C9000B8013091B90142175307B4F49091E800BC
:100CA0009570E1F39091E80092FD19C08093F100F6
:100CB0008091BA019091BB0101968F739927892B7E
:100CC00019F48EEF8093E8008091BA019091BB01F6
:100CD00001969093BB018093BA0181E0089580E072
:100CE0000895DF92EF92FF920F931F93CF93DF93BC
:100CF000D82E8A01EB017B01E40EF51ECE15DF052F
:100D000059F0D7FE12C0FE0184910E94430621963D
:100D10008111F4CF0FEF1FEFC801DF91CF911F9129
:100D20000F91FF90EF90DF9008958881EECF0F93A1
:100D30001F93CF93DF931F92CDB7DEB782E08983F5
:100D400042E450E067EF79E080E80E9471060E947B
:100D5000AE05DC0112960D911C910115110589F06B
:100D6000D801ED91FC910280F381E02DBE016F5F0F
:100D70007F4FC801099597FD04C0F80100851185D2
:100D8000ECCF89810F90DF91CF911F910F91089542
:100D9000615030F02091F100FC0120830196F8CFE2
:100DA000289884E68093CC010895AF92BF92CF92A9
:100DB000DF92EF92FF920F931F93CF93DF936C011B
:100DC0007B018B01040F151FEB015E01AE18BF08FC
:100DD000C017D10759F06991D601ED91FC910190AE
:100DE000F081E02DC6010995892B79F7C501DF91C6
:100DF000CF911F910F91FF90EF90DF90CF90BF9018
:100E0000AF9008953FB7F89480919A0190919B011B
:100E1000A0919C01B0919D0126B5A89B05C02F3FD4
:100E200019F00196A11DB11D3FBFBA2FA92F982F10
:100E30008827BC01CD01620F711D811D911D42E00B
:100E4000660F771F881F991F4A95D1F708958F92D3
:100E50009F92AF92BF92CF92DF92EF92FF926B017F
:100E60007C010E9402074B015C01C114D104E10422
:100E7000F104B9F00E940207681979098A099B09EF
:100E8000683E73408105910580F321E0C21AD108C4
:100E9000E108F10888EE880E83E0981EA11CB11CC1
:100EA000E4CFFF90EF90DF90CF90BF90AF909F90F6
:100EB0008F9008958F929F92AF92BF92CF92DF92C0
:100EC000EF92FF920F931F93CF93DF936C017B01FF
:100ED0008A0180914E01882309F45CC08091CD0184
:100EE000882309F457C08091BF0180FF05C080911D
:100EF000E00082608093E000E801B12C8AEFA82E28
:100F000093E0892E2AE3922E209711F4BB20D9F189
:100F10000E949D0581110AC0AA94AA20D9F161E01E
:100F200070E080E090E00E942707EECF8C171D064E
:100F300011F00CF08C2F9FB7F8948092E90020916B
:100F4000E80025FD02C09FBFDFCF282F30E0C21B85
:100F5000D30BF701815020F041914093F100FACF7B
:100F6000E20EF31EBB2021F09092E800B12CEBCFF3
:100F70008091E80085FDE7CF9092E800BB24B39410
:100F8000209709F3F3CF5D9884E68093BE01101695
:100F900011063CF081E090E0F6019383828310E03B
:100FA00000E0C801DF91CF911F910F91FF90EF906A
:100FB000DF90CF90BF90AF909F908F900895209139
:100FC0009201E0919001F0919101CF0102969093EE
:100FD000910180939001222319F0859194910895B5
:100FE000808191810895CF92DF92EF92FF92CF930B
:100FF000DF930E94DF07811520E8920791F480912A
:1010000071008D7F809371001092910046984798EF
:1010100010928F01DF91CF91FF90EF90DF90CF90F2
:10102000089521E020938F01813020E8920751F448
:1010300080918D0190918E01909391018093900108
:101040000E94DF0797FD05C020918C01222309F43F
:1010500054C020918B01211150C021E020939301B5
:10106000EC01DF77209709F04BC081E08093940179
:1010700046983FE9C32E3FE0D32EE12CF12CCAEF76
:10108000D0E0E0912C06F0912D060995811103C066
:1010900081E08093940180919301882329F08091CD
:1010A0009401882309F43FC047980E94DF07009706
:1010B000F1F19C01DE010E94E515DC01CB0129E084
:1010C000B595A795979587952A95D1F71092900099
:1010D0002AE020939100D0929900C09298008093CA
:1010E000950190939601A0939701B09398018091F8
:1010F00071008260809371008DCF10929301B0CF08
:101100009E0150E040E060E472E48FE090E00E94D5
:10111000911569017A0181E0C81AD108E108F10846
:1011200010929401AECF4699BFCF479ABECF8FEFB2
:101130009FEFDC01CBCF9C01E1E7F0E090819D7F48
:10114000908310929201EEE1F6E0F0939101E0932A
:101150009001F0938E01E0938D013183208373839E
:10116000628380E090E8958384830C94F3072D9A42
:101170000895BC0190E080E00C9427078FB1809522
:10118000807F669B88601C9B846008953E9A3F9A8E
:1011900081E080938A0108959091AB01982329F012
:1011A0009091AC01982381E009F080E00895CF93FD
:1011B000C82F0E94BE08982F9C2381E09C1380E0DA
:1011C000CF91089580E00C94640580389105B8F4BF
:1011D00060347105A0F420E191E061FD94E060FDD0
:1011E000990F62FD9295687F269FD0011124A80F68
:1011F000A253BE4F8C9140FF03C0892B8C9308955E
:1012000090958923FBCF2F923F924F925F926F92DE
:101210007F928F929F92AF92BF92CF92DF92EF9286
:10122000FF920F931F93CF93DF93CDB7DEB729972C
:101230000FB6F894DEBF0FBECDBF6D30D9F0309041
:101240002F014090A9015090AA01832D90E0998729
:1012500088876A3051F51092A8011092A70123E007
:10126000880F991F2A95E1F7480E591E5092AA013E
:101270004092A90181E090E029960FB6F894DEBF74
:101280000FBECDBFDF91CF911F910F91FF90EF90D7
:10129000DF90CF90BF90AF909F908F907F906F9096
:1012A0005F904F903F902F90089590919E019B8367
:1012B000E0910001EC83A090A701B090A801F5E0B7
:1012C0006F9FB0011124CB0184559F4F3C016501F4
:1012D00019829981212C953029F0C3010196F301DF
:1012E00024903C014201F8E0FA8320FE1EC08C816C
:1012F0008D8302C02B812D8310E000E00315C8F41C
:10130000C601800F911F9F838E83F12CE12CE31483
:1013100078F5B4016E0D7F1D4D818E819F810E94F5
:10132000E5089FEFE91AF90AF2CF9B81EC819E1341
:10133000E1CF2694EA81E150EA8388859985880E79
:10134000991EE111D2CF99819F5F9983E885F98534
:10135000CE0EDF1E963009F0BCCFC501F9813F9E4D
:10136000800D911D11249093A8018093A70182CF35
:101370000F5F1F4FC3CF2F923F924F925F926F929A
:101380007F928F929F92AF92BF92CF92DF92EF9215
:10139000FF920F931F93CF93DF9300D01F92CDB78F
:1013A000DEB79B838A837B016A0109838901061B5F
:1013B000170B17FF03C011950195110946018A818A
:1013C0009B81881A990A97FE03C091948194910891
:1013D000801691065CF49C2D8D2D6901292F382FE4
:1013E0009A818B81FB82EA82E92EF82E8A819B8189
:1013F000C816D9065CF49E2D8F2D7901292F382F20
:101400009A818B81DB82CA82C92ED82E16018A81ED
:101410009B81281A390A29014E185F0857FE03C01C
:10142000519441945108310137FE03C09FEF691A6E
:10143000790A759467948FEFE216F3060CF481E055
:10144000A82E880FBB088A819B81C816D906CCF0CC
:101450004981BC01C701801691061CF0B7018A8141
:101460009B810E94E5086418750877FE04C0EA0CA9
:10147000FB1C620C731C8A819B8101969B838A836F
:10148000E2CF0F900F900F90DF91CF911F910F91AE
:10149000FF90EF90DF90CF90BF90AF909F908F9094
:1014A0007F906F905F904F903F902F900895089598
:1014B00090E080E008958F929F92AF92BF920F9339
:1014C0001F93CF93DF93CDB7DEB7A1970FB6F894F4
:1014D000DEBF0FBECDBF19A2423008F44AE08E0134
:1014E0000F5D1F4F842E912CB12CA12CA5019401CE
:1014F0000E94C315E62FB901CA01EA3044F5E05D48
:10150000D801EE938D01232B242B252B79F790E026
:1015100080E0109769F0FD0101900020E9F7319714
:10152000AF014A1B5B0BBD0181E396E00E94D5062B
:10153000A1960FB6F894DEBF0FBECDBFDF91CF915D
:101540001F910F91BF90AF909F908F900895E95C8D
:10155000D7CF0C947B1582E090E00E94A90A8111FC
:101560000C94C60810928A013E983F9808951F92E5
:101570000F920FB60F9211248F939F938091E100E9
:101580009091E100937F9093E10083FF0FC0109250
:10159000E90091E09093EB001092EC0092E39093BD
:1015A000ED001092CD0198E09093F00082FF22C0F0
:1015B00093E09093E9009091F200992319F09AE357
:1015C0009093E8009091BE01992341F09091BE0163
:1015D00091509093BE01911101C05D9A9091CC0100
:1015E000992341F09091CC0191509093CC019111AD
:1015F00001C0289A84FF18C08091E2008E7E81602D
:101600008093E2008091E1008F7E8093E1008091E1
:10161000BF018E7E80618093BF019F918F910F905B
:101620000FBE0F901F90189580FFF7CF8091E200BA
:101630008E7E80618093E2008091E1008E7E8093B7
:10164000E1008091BF018E7E8160E5CF1F920F92F5
:101650000FB60F921124CF92DF92EF92FF920F9369
:101660001F932F933F934F935F936F937F938F932A
:101670009F93AF93BF93EF93FF93CF93DF93CDB738
:10168000DEB76C97DEBFCDBF1092E9008091E80015
:1016900083FF25C068E0CE0145960E94C80682EF10
:1016A0008093E8008D8987FF39C09091E80090FF12
:1016B000FCCF982F907609F034C19E894F89588DC0
:1016C0002F89F88C911131C0803861F58091BD016E
:1016D0008093F1001092F1008EEF8093E8006C96F9
:1016E0000FB6F894DEBF0FBECDBFDF91CF91FF9153
:1016F000EF91BF91AF919F918F917F916F915F918A
:101700004F913F912F911F910F91FF90EF90DF909C
:10171000CF900F900FBE0F901F9018959EEF909353
:10172000E800C7CF1092F100D5CF913059F4811164
:10173000D3CF4130510581F68091BD018D7F8093DB
:10174000BD01CACF933049F48111C6CF4130510554
:1017500019F68091BD018260F2CF953041F48091FD
:10176000E80080FFFCCF20682093E300B5CF9630DF
:1017700009F0A9C00B8D1C8D22E01092E900109297
:10178000BB011092BA01F2122EC01092B901109250
:10179000B8010E9497061F8299E09983FA8291E02E
:1017A0009E8390EA98879AEF99872091BA013091A9
:1017B000BB01275F3F4F3C832B838D831092E90051
:1017C0001092BB011092BA011093B9010093B801B5
:1017D00049E050E0BE016F5F7F4F80E00E947106DC
:1017E0000E94970679CF1093B9010093B8010E9427
:1017F000AE05DC0112960D911C910115110509F43D
:1018000051C1D801ED91FC910480F581E02DBE011C
:101810006B5E7F4FC8010995009709F03EC1F80142
:1018200000851185EACFF3E0FF120EC08F8988236F
:1018300009F440C0823061F440E860E18BE59AE051
:101840000E94030E811148CF81E28093EB0047CFC5
:10185000813029F440E86BE08FE49AE0F1CF8330E7
:1018600099F70E94AE05DC011296ED90FC908E0176
:101870000F5F1F4F6801E114F10479F0D701ED917A
:10188000FC910680F781E02DB801C7010995080F8A
:10189000111DF701E084F184EECFD8011C92F6010E
:1018A00001900020E9F73197BF016C197D0940E0F4
:1018B000C601C6CF69E37AE0FB01449150E080E8BD
:1018C0000E94710609CF973009F4BECF983021F4F9
:1018D00081E08093F10000CF993009F0FDCE837054
:1018E00009F0B2CFE6E6F1E081E031E096E3219144
:1018F000222371F08093E9003093EB00DF01119710
:101900002C912093EC009093ED008F5F873079F756
:101910008EE78093EA001092EA008F898093CD01D0
:10192000DBCE8B8D9C8D1092E9001092BB01109242
:10193000BA019093B9018093B801898D811192C049
:101940008E899D89913A49F4813209F07DCF47E033
:1019500050E067E471E080E0B3CF913209F074CFDA
:10196000833269F48F89988DB0E0A0E080934301C1
:1019700090934401A0934501B0934601ADCE8032CF
:1019800069F48091E80082FFFCCF67E087E491E092
:101990000E94C8068BEF8093E8009ECE823209F049
:1019A0009BCE8F8980934E01EEEFFFE78591949156
:1019B0008B3F9C4D51F1E0E0F8E080914701909120
:1019C0004801A0914901B0914A01803B9440A10592
:1019D000B105F1F480914E0180FD1AC0EE3F8AE01E
:1019E000F80789F587E797E7918380838091600006
:1019F0008093BC0188E19BE00FB6F894A895809392
:101A000060000FBE9093600067CEEEEFFAE0D5CF96
:101A1000808191818737974709F05ECEA8958091A4
:101A200060008861809360008091BC0180936000B9
:101A3000EE3F2AE0F20789F08091FE0A9091FF0ABA
:101A40009183808349CE808191818737980751F2B5
:101A50009093FF0A8093FE0AC5CF1092FF0A10925E
:101A6000FE0A3ACE0E94AE05DC0112960D911C9141
:101A70000115110509F4E8CED801ED91FC91019012
:101A8000F081E02DBE016B5E7F4FC8010995811189
:101A900023CEF80100851185EBCF181619060CF43A
:101AA0001BCED2CEF1E0FF12BECE6DE37AE004CFC2
:101AB0001F920F920FB60F9211242F933F938F9383
:101AC0009F93AF93BF9380919F019091A001A091AC
:101AD000A101B091A2013091990123E0230F2D378C
:101AE00058F50196A11DB11D2093990180939F0186
:101AF0009093A001A093A101B093A20180919A01BB
:101B000090919B01A0919C01B0919D010196A11D16
:101B1000B11D80939A0190939B01A0939C01B09377
:101B20009D01BF91AF919F918F913F912F910F9008
:101B30000FBE0F901F90189526E8230F0296A11D47
:101B4000B11DD2CF1F920F920FB60F9211242F9377
:101B50003F934F935F936F937F938F939F93AF9335
:101B6000BF93EF93FF938091950190919601A0917F
:101B70009701B0919801892B8A2B8B2B09F440C0D7
:101B80008091940181110BC088B190E4892788B9B4
:101B900080919301882319F088B1805888B9809189
:101BA000950190919601A0919701B0919801181616
:101BB00019061A061B069CF48091950190919601D6
:101BC000A0919701B09198010197A109B109809363
:101BD000950190939601A0939701B0939801FF917E
:101BE000EF91BF91AF919F918F917F916F915F9195
:101BF0004F913F912F910F900FBE0F901F9018950E
:101C00000E94F307ECCFEF92FF920F931F93CF93B5
:101C1000DF93F82E192FE62E042F81E0860F880F10
:101C20000E94430683E00E944306CF2DD12FEC0E85
:101C3000FD2EF11CCE15DF05B9F007FF13C0FE0124
:101C400084910E944306182F80E00E94430681235E
:101C500021968111EFCFDF91CF911F910F91FF90CE
:101C6000EF9008958881EDCF81E0F5CFEEECF5E0BF
:101C70001382128288EE93E0A0E0B0E08483958323
:101C8000A683B78380E791E0918380838FEF9FEFF6
:101C900095878487E1E3F6E01382128282E891E07F
:101CA0009183808381E695E090932D0680932C06A6
:101CB00080E090E890932B0680932A0646983E9AFF
:101CC00047983F9AE0913006F0E0EE0FFF1FE15B8E
:101CD000FE4F8081918190932F0680932E06089568
:101CE000789484B5826084BD84B5816084BD85B5F7
:101CF000826085BD85B5816085BD80916E00816003
:101D000080936E00109281008091810082608093A8
:101D100081008091810081608093810080918000AA
:101D20008160809380008091910082608093910017
:101D300080919100816080939100809190008160FA
:101D4000809390008091C10084608093C100809155
:101D5000C10082608093C1008091C1008160809346
:101D6000C1008091C30081608093C3008091C00056
:101D700082608093C0008091C20081608093C20025
:101D800080917A00846080937A0080917A008260EA
:101D900080937A0080917A00816080937A008091AC
:101DA0007A00806880937A001092CD011092BD0174
:101DB0001092BF018091D70081608093D70080EAA4
:101DC0008093D80089B5806189BD89B5826089BD5D
:101DD00009B400FEFDCF61E070E080E090E00E9479
:101DE00027078091D8008F7C80618093D8008091F4
:101DF000E000807F8093E0008091E1008E7E809300
:101E0000E1008DE08093E200559A209A81EC809366
:101E10007C0085B1806F85B984B1877E84B984B137
:101E2000876E84B95E9A5F988AB1806D8AB9769A16
:101E30006E9881B3806F81BB899880B38D7080BBB1
:101E400080E58CBD81E08DBD85E090E00E94B90801
:101E50005F9A85E090E00E94B9085E985C98ECE596
:101E6000F6E089E696E024912EBD00000DB407FE51
:101E7000FDCF31968E179F07B1F75C9A81E880936A
:101E80006400809165008160809365000E94E20893
:101E900080E80E94D7088823A9F05C9885EA8EBD67
:101EA00000000DB407FEFDCF5C9A2E982F982D9858
:101EB0008091640080628093640081E083BF889594
:101EC00013BEFCCF84E00E94D708882309F448C0E1
:101ED0002D9884E80E94D7088823E1F00E94B70873
:101EE00088EC90E00E94B9082F9882E090E00E9470
:101EF0007B158F3F29F06FEF82E090E00E94831501
:101F000084EF91E00E94B9082F9A84E80E94D708D4
:101F10008111FBCF84E10E94D7088823E1F00E9461
:101F2000B70888EC90E00E94B9082E9882E090E013
:101F30000E947B15882329F060E082E090E00E94F7
:101F4000831584EF91E00E94B9082E9A84E10E94E3
:101F5000D7088111FBCF88EC90E00E94B908B2CF7E
:101F60000E94B7080E94AB0A81E090E00E94A90A93
:101F7000082F0470702E81FF13C001112E98C1EF3D
:101F8000DFEF08E010E06CE6E62EF12C80E40E9422
:101F9000D708882309F46AC02E9A2F9A0E94B7089E
:101FA00082E390E00E94B9080E94BE088111F8CF38
:101FB00081E28093010181E08093000180939E0182
:101FC0000E94AB0A0E94C60802E011E08DE1E82EF3
:101FD00081E0F82ECBE0D1E09BE6492E512C612C1C
:101FE000712C26E0822E912CA12CB12C0E9423155D
:101FF000A30192010E949115699379930E94231580
:10200000A50194010E9491156F5F7F4F8F4F9F4FE5
:10201000D7016D937D937D010E942315F8011192E4
:102020008F01F1E0CD31DF0709F7D3E42D2ED1E0A8
:102030003D2E17E0612E712C11E08FB7F89440917E
:102040009F015091A0016091A1017091A2018FBFE9
:102050008091A301882309F4C7C01092A301E0E096
:10206000F0E0EF2B51F30E940000E6CF772029F03B
:10207000C430D10511F42E9A2F9881E00E94640596
:102080009E01D7FF04C0222733272C1B3D0B27704E
:102090003327CE01D7FD079653E0959587955A953E
:1020A000E1F7D7FF05C00197A801421B530B9A0126
:1020B000BC017695762F66277795679562537E4F9C
:1020C000B0E0A0E02801421A530A8E3F5FEF950767
:1020D00009F43CC048E550E0FD01EC5FF94F5F01B9
:1020E0004B01F0E88F0E911C8F3F9807A1F0F5018E
:1020F000E41BF50BE4916701C41AD50AC60ED71E7E
:10210000F0E01F01022E01C0220C0A94EAF7F6014A
:1021100060802628208221153105A9F0F501E41BF5
:10212000F50BE4916701C41AD50AC80CD91CF0E07C
:102130001F01042C02C0359427940A94E2F7F6019B
:102140006080262820824150510971F60196A85AD4
:10215000BF4F60587F4FA03BB10509F0B6CF0E943A
:10216000E2088FE090E00E94B9082196C931D105BC
:1021700009F00CCF772011F02F9A2D9880E991E08B
:102180000E94B9080E94B70881E090E00E94A90A65
:1021900080FF06CF8AE090E00E94A90A9FEF980F87
:1021A0009E3F08F0FDCE22E330E03093A80120935B
:1021B000A70128E330E03093AA012093A901CBE0E6
:1021C000D0E0682F81E396E00E940309CE010E94CF
:1021D000A90A2196C131D105A1F70E94E20888EE33
:1021E00093E00E94B908DCCE8091A401042F081B63
:1021F000802F90910101091740F48F5F891708F033
:102200002ECF13BF889513BE2ACF1093A3014093FE
:10221000A401C091AD01D091AE012196D093AE0141
:10222000C093AD01CE016CE370E00E94F415892BE0
:1022300019F483E68093B7018091AC018093AB01E0
:102240000E94BE088093AC018091B5018823B1F152
:1022500080912E0690912F062091B1013091B2010C
:10226000821793070CF0BBC02A31310509F0E2C098
:1022700020913006273008F0DDC0039690932F069A
:1022800080932E06E1E3F1E04FE451E081919191DA
:102290009F01225031090396D9018D939C93DA0155
:1022A0008D919D91AD019D01225031090396D90177
:1022B0008D939C93B1E0E334FB0741F780E0EEECB3
:1022C000F1E081118FEF00248193819381938193B9
:1022D0000394D1F71092AA011092A9011092A801BB
:1022E0001092A7016091300170E0CE010E94F415B8
:1022F000892B69F48091B3019091B40101968430E7
:1023000091050CF09AC09093B4018093B301C1E39E
:10231000EC2EC1E0FC2EE7016991799101E09B016F
:1023200040E850E090E080E00E94BB092C163D069A
:1023300099F7812C912C5401E701899199917E01A3
:102340001092A8011092A7019093AA018093A9016D
:1023500010932F014AE0C501B4010E945B0ADFEF30
:102360008D1A9D0AAD0ABD0AE9E08E169104A104FA
:10237000B10411F7E2E04E2EE1E05E2EFBE0AF2E5D
:10238000F1E0BF2EADE1CA2EA1E0DA2EB0E88B2E2F
:10239000912CD601ED90FD906D01F701EE0FFF1F1E
:1023A000EF5CFE4F60817181F501C191D1915F01B8
:1023B000AE014C5E5F4F00E09B01CE010E94BB0965
:1023C000D2018D912D018111D5C02297F50132974F
:1023D000CC3EBFEFDB07B4F1D183C08345C02817E3
:1023E000390744F52A31310529F520913006222399
:1023F00009F1039790932F0680932E06E1E3F1E015
:102400004FE451E0819191919F012250310903974E
:10241000D9018D939C93DA018D919D91AD019D0120
:10242000225031090397D9018D939C932E163F06B4
:1024300049F744CF1092B50141CF1092B4011092E8
:10244000B30165CF91828082F6013297C7E0EC1626
:10245000F10434F4DFEFED1AFD0AF182E08204C0EA
:1024600021E030E031832083A5E2B1E0AC15BD0569
:1024700009F08FCF8091B6018350823008F469C093
:102480008091B501811165C01092A6015BE0E52E37
:1024900051E0F52E6DE1C62E61E0D62ED0E0C0E011
:1024A0008091B7018C171D0689F1D601ED91FC9141
:1024B000EE0FFF1FEF5CFE4F60817181F70180819D
:1024C000918140912E0650912F062091AF013091BD
:1024D000B001DC011596F9013A96AE17BF07B4F4C6
:1024E0002A5F3F4F0F962817390784F4CA01419697
:1024F000681779075CF46417750744F01093A60118
:1025000068EC70E088E592E00E949B082196F2E07A
:10251000CF0ED11C02E0E00EF11CC430D10509F051
:10252000BFCF8091A6018823A1F084E08093B601FB
:102530001092B4011092B3018091300681508093C3
:10254000300680912E0690912F069093B2018093D1
:10255000B1012091B601273058F5E22FF0E0ED549B
:10256000FD4E0C940816D5124714351456147414E5
:1025700089148C14813009F077CF2296F5013297B7
:10258000C138D1050CF428CF4CEE5FEF5183408366
:10259000F601329752E0E516F10424F081E0E81AE2
:1025A000F1085BCF718260825FCF8EE18093300152
:1025B0002091B6018DEF820F823008F477C08091B0
:1025C000B501811173C0263009F470C080E20E9409
:1025D000D708882319F082E08093B60180E20E9438
:1025E000CC0881111092B60180E40E94D7088111B5
:1025F0001093B60180E40E94CC0881111092B601BC
:102600008091AB01082F087083FD50C08091AC0110
:1026100083FF4CC01092A501ABE0B1E0EDE1F1E029
:10262000C191D191CC0FDD1FCF5CDE4F2881398164
:102630004D915D9180912E0690912F066091AF0192
:102640007091B0017A01C5E0EC0EF11CEB012A9605
:10265000EC16FD069CF46A5F7F4F415F5F4F641785
:10266000750764F4821793074CF0205F3F4F821781
:10267000930724F41093A5010093B7010F5F043072
:1026800079F62091A501222309F47CC123E020934F
:10269000B6011092B4011092B301209130062F5F61
:1026A000209330069093B2018093B10180E10E94A3
:1026B000D708882319F085E08093B60180E10E9455
:1026C000CC0881111092B60184E00E94D708A09135
:1026D000B301E091B601D2E8ED9FC0011124875902
:1026E000994FFC01F4903196349131966F2D70E042
:1026F000AA23D9F081E090E0232F277011F490E015
:1027000080E0232F269526952695820F911D869F82
:10271000A001879F500D969F500D1124A49FC001CA
:10272000A59F900D1124E80FF91F4091AF01509122
:10273000B001EB01C40FD51F1C161D060CF034C1EF
:10274000403851050CF030C180912E0690912F0633
:10275000DC01A30FB11D1A161B060CF025C1803435
:1027600091050CF021C1309709F41EC1082F0770A4
:10277000902EDC0197FD179603E0B595A7950A9575
:10278000E1F72A2F97FF04C0992011F02FEF2A0FAD
:1027900088279927841B950B57FD02C090E080E0A5
:1027A000A0E8AA2EA41AC038D1050CF4AF2CA81AA0
:1027B000A22F022E000CBB0BCA2FC0952F3F0CF08E
:1027C000C0E0EE24E394D32FD77009F4E12C3695C2
:1027D00036953695E30EAE0DB11D19971CF038E015
:1027E000E32EE21AB22EBC0E3B2D00E83003D001DE
:1027F00011244A0F5B1F480F591FFC9E800D911D2D
:1028000011248E0F9F1F492C092C000C55082E0DEA
:102810002B1509F4C9C0DA01A253BE4FF12CE12CEB
:10282000EA1408F0BBC0FC01EE0DFF1DE491F0E0DE
:10283000042C02C0EE0FFF1F0A94E2F7B7FC03C09E
:102840003C913E2B3C93992059F036E03B1544F0E7
:102850006D01C0E8CC0ED11CE60138813F2B3883D6
:10286000DFEFED1AFD0A1196DBCF8091AF01909159
:10287000B0010297803F2FEF920734F09093B001A0
:102880008093AF0183E092CE80E890E0F7CF809113
:10289000AF019091B0010296813891057CF340EF31
:1028A0005FEF5093B0014093AF01ECCF85E0809390
:1028B000300180912E0690912F06E0913006F0E0D5
:1028C000EE0FFF1FE15BFE4F208131812817390792
:1028D00034F4039790932F0680932E0669CE1093BD
:1028E000B5011092B60164CE85E0809330018091ED
:1028F0002E0690912F06E0913006F0E0EE0FFF1FBC
:10290000E15BFE4F208131818217930744F70396E4
:10291000E1CF109330014CCE8091AD019091AE018A
:10292000B3010E94F415892B09F049CE62E370E0EF
:1029300084E690E00E949B0880912E0690912F06DD
:10294000029790932F0680932E062091B301309129
:10295000B4012330310534F42F5F3F4F3093B4017D
:102960002093B3012091B1013091B201A9014650E9
:1029700051098417950709F01BCE30932F06209339
:102980002E06AFCF9093B2018093B1011092B401A3
:102990001092B30186E08093B60188CEB394860F7F
:1029A000971F40585F4F34CF0E94E20858CB8F9258
:1029B0009F92AF92BF92CF92DF92EF92FF92CF930E
:1029C000DF93EC01688179818A819B8161157105B2
:1029D0008105910521F464E279ED8BE597E02DE125
:1029E00033EF41E050E00E94911549015A019B01EB
:1029F000AC01A7EAB1E40E94B0156B017C01ACEE1A
:102A0000B4EFA50194010E94BE15C60ED71EE81EA4
:102A1000F91EF7FE06C081E0C81AD108E10880E877
:102A2000F80AC882D982EA82FB82C701B6019F7781
:102A3000DF91CF91FF90EF90DF90CF90BF90AF905C
:102A40009F908F9008958F929F92AF92BF92CF9256
:102A5000DF92EF92FF92609161017091620180912B
:102A6000630190916401611571058105910521F45F
:102A700064E279ED8BE597E02DE133EF41E050E042
:102A80000E94911549015A019B01AC01A7EAB1E4EA
:102A90000E94B0156B017C01ACEEB4EFA50194016E
:102AA0000E94BE15C60ED71EE81EF91EF7FE06C010
:102AB00081E0C81AD108E10880E8F80AC0926101F3
:102AC000D0926201E0926301F0926401C701B60105
:102AD0009F77FF90EF90DF90CF90BF90AF909F9047
:102AE0008F900895609361017093620180936301F8
:102AF000909364010895F999FECF92BD81BDF89A33
:102B0000992780B50895262FF999FECF1FBA92BD57
:102B100081BD20BD0FB6F894FA9AF99A0FBE0196BE
:102B20000895052E97FB1EF400940E94A81557FDEA
:102B300007D00E94C31507FC03D04EF40C94A815CF
:102B400050954095309521953F4F4F4F5F4F0895D9
:102B500090958095709561957F4F8F4F9F4F089509
:102B60000E94E515A59F900DB49F900DA49F800D28
:102B7000911D11240895B7FF0C94B0150E94B01553
:102B8000821B930B0895A1E21A2EAA1BBB1BFD0109
:102B90000DC0AA1FBB1FEE1FFF1FA217B307E4073C
:102BA000F50720F0A21BB30BE40BF50B661F771F94
:102BB000881F991F1A9469F7609570958095909574
:102BC0009B01AC01BD01CF010895A29FB001B39F4D
:102BD000C001A39F700D811D1124911DB29F700D26
:102BE000811D1124911D0895AA1BBB1B51E107C033
:102BF000AA1FBB1FA617B70710F0A61BB70B881F8D
:102C0000991F5A95A9F780959095BC01CD0108951B
:102C1000EE0FFF1F0590F491E02D0994F894FFCF7B
:102C200001100001000100010000004000400040D0
:102C300000400022000F0018000000000001000208
:102C40000003000500010002000300000000000175
:102C50000A3F002A0015000000EBFFD6FFC1FFACC1
:102C6000FF97FFFFFFFFFF00E10000000000002FC3
:102C7000001A000500F0FFDBFFC6FFB1FF9CFF87D5
:102C8000FF0100000000C180810000000000000082
:102C9000C2055A07E305D8052906E7050506000021
:0A2CA00000000309D506580A570A80
:00000001FF
