:100000000C9421080C9449080C9449080C94490854
:100010000C9449080C9449080C9449080C9449081C
:100020000C9449080C9449080C946B100C94DA1049
:100030000C9449080C9449080C9449080C944908FC
:100040000C9449080C9449080C9449080C944908EC
:100050000C9449080C9449080C9449080C940C130E
:100060000C9449080C9449080C9449080C944908CC
:100070000C9449080C9449080C9449080C944908BC
:100080000C9456130C9449080C9449080C94490894
:100090000C9449080C9449080C9449080C9449089C
:1000A0000C9449080C9449080C944908000000007D
:1000B000003E5B4F5B3E3E6B4F6B3E1C3E7C3E1CEE
:1000C000183C7E3C181C577D571C1C5E7F5E1C0034
:1000D000183C1800FFE7C3E7FF0018241800FFE7EB
:1000E000DBE7FF30483A060E2629792926407F05AE
:1000F0000507407F05253F5A3CE73C5A7F3E1C1CC4
:1001000008081C1C3E7F14227F22145F5F005F5F83
:1001100006097F017F006689956A6060606060946F
:10012000A2FFA29408047E040810207E2010080874
:100130002A1C08081C2A08081E101010100C1E0C7F
:100140001E0C30383E3830060E3E0E060000000011
:100150000000005F00000007000700147F147F14F8
:10016000242A7F2A1223130864623649562050003D
:1001700008070300001C2241000041221C002A1C29
:100180007F1C2A08083E0808008070300008080814
:100190000808000060600020100804023E51494534
:1001A0003E00427F400072494949462141494D3352
:1001B0001814127F1027454545393C4A49493141B9
:1001C000211109073649494936464949291E000087
:1001D00014000000403400000008142241141414DC
:1001E0001414004122140802015909063E415D59C8
:1001F0004E7C1211127C7F494949363E41414122D1
:100200007F4141413E7F494949417F090909013EFA
:10021000414151737F0808087F00417F4100204021
:10022000413F017F081422417F404040407F021C33
:10023000027F7F0408107F3E4141413E7F0909094A
:10024000063E4151215E7F09192946264949493216
:1002500003017F01033F4040403F1F2040201F3FDC
:100260004038403F63140814630304780403615961
:10027000494D43007F4141410204081020004141A3
:10028000417F04020102044040404040000307084F
:100290000020545478407F2844443838444444284B
:1002A000384444287F385454541800087E090218F2
:1002B000A4A49C787F0804047800447D400020407A
:1002C000403D007F1028440000417F40007C0478BE
:1002D00004787C080404783844444438FC18242406
:1002E0001818242418FC7C08040408485454542486
:1002F00004043F44243C4040207C1C2040201C3C03
:100300004030403C44281028444C9090907C4464F9
:10031000544C44000836410000007700000041368C
:10032000080002010204023C2623263C1EA1A16112
:10033000123A4040207A3854545559215555794144
:100340002154547841215554784020545579400C1B
:100350001E527212395555555939545454593955FC
:100360005454580000457C410002457D420001453F
:100370007C40F0292429F0F0282528F07C545545AC
:10038000002054547C547C0A097F4932494949323F
:100390003248484832324A4848303A4141217A3A54
:1003A00042402078009DA0A07D39444444393D401E
:1003B00040403D3C24FF2424487E4943662B2FFCCB
:1003C0002F2BFF0929F620C0887E09032054547979
:1003D000410000447D413048484A32384040227A4A
:1003E000007A0A0A727D0D19317D2629292F2826C7
:1003F0002929292630484D402038080808080808CF
:100400000808382F10C8ACBA2F102834FA00007B27
:10041000000008142A142222142A1408950022002D
:1004200095AA005500AAAA55AA55AA000000FF00E7
:10043000101010FF00141414FF001010FF00FF1024
:1004400010F010F0141414FC001414F700FF000056
:10045000FF00FF1414F404FC141417101F10101FD5
:10046000101F1414141F00101010F0000000001FC3
:10047000101010101F10101010F010000000FF10CE
:100480001010101010101010FF10000000FF1400CA
:1004900000FF00FF00001F10170000FC04F41414FC
:1004A0001710171414F404F40000FF00F7141414C8
:1004B00014141414F700F7141414171410101F1048
:1004C0001F141414F4141010F010F000001F101F6B
:1004D0000000001F14000000FC140000F010F010D9
:1004E00010FF10FF141414FF141010101F00000050
:1004F00000F010FFFFFFFFFFF0F0F0F0F0FFFFFF54
:100500000000000000FFFF0F0F0F0F0F38444438AA
:10051000447C2A2A3E147E02020606027E027E02E5
:1005200063554941633844443C04407E201E200604
:10053000027E020299A5E7A5991C2A492A1C4C7241
:1005400001724C304A4D4D303048784830BC625AC8
:10055000463D3E494949007E0101017E2A2A2A2A58
:100560002A44445F444440514A444040444A514034
:100570000000FF0103E080FF000008086B6B0836F5
:1005800012362436060F090F060000181800000066
:100590001010003040FF0101001F01011E00191D55
:1005A0001712003C3C3C3C000000000000B0000082
:1005B000A170E150964F26900F1D070C0096690020
:1005C0004AE44A0048444000806810000F99FB8FBD
:1005D0009DBDBBFB77D4D4DF1F1A1AFE7F5D5DFF84
:1005E000805A0000A0A4AA0010BA3400FF5953F3A7
:1005F000FF9B9B9EFFB9B996FF9595D19FF4940FF1
:10060000FC295F91FF1838F8FF9294FFFF95D5F70A
:10061000BFB5DDD7F18F81F1F788C8F779C6467984
:1006200009FD9B090196F800828182805071620069
:100630007756560076763700A2B773010772060028
:100640007827500073347400775176007F55F70097
:1006500047711000324772007364730015A2750071
:1006600061679400009F6060F4F2F6F2F0F89C8EEF
:100670008783878E9CF8F00000FEFF0303030303CB
:10068000070EFCF80000FEFF0303030303070EFC44
:10069000F80000FFFF00000000000000FFFF000066
:1006A000FEFF8383838383C7EE7C380000F8FC0E53
:1006B00007030303070EFCF800003F7FE0C08080C3
:1006C000C0E07F3FFFFF01010101010101FFFF00C9
:1006D00000FFFF0C0C0C0C1C3E77E3C100007FFFF9
:1006E000C0C0C0C0C0E0703F1F00001F3F70E0C02E
:1006F000C0C0E0703F1F00007FFFC1C1C1C1C1E3A6
:10070000773E1C00001F3F70E0C0C0C0E0703F1F7C
:10071000000000000001FFFF01000000D5F08D1473
:10072000A1C881CFD9F1AF200010100080C040C017
:100730004040C04040C04060F0F880010303030324
:100740000303070F1F1F3B330303010000000000DA
:100750000000000000000080C0E000040E0F0D0F3C
:100760000D0D1F3D7D7FEDCD0F0F060080C040C0F9
:100770004040C04040C04060F0F8800103030303E4
:100780000303070F1F1F3B3303030140E0F0D0F0CA
:10079000D0D0F0D0D0F0D0D8FCFE60000000000037
:1007A0000000010307070E0C00000010100080007D
:1007B00000F88888F88888F8080808F8000F6F1F84
:1007C0004FEF4F1F7F7F7F1F48E8481F60000000EA
:1007D00000F01010F01010F0101010F0000E6F1E4E
:1007E000AE4FAF1F7F7F7F1FA848A81F600000008B
:1007F00000E02020E02020E0202020E0000C6E1C03
:100800004CEF4E1E7F7E7E1F48E8481F60000000B0
:1008100000F01010F01010F0101010F0000E6F1E0D
:10082000AE4FAF1F7F7F7F1FA848A81F601010002A
:100830001878F8FCFCFCFF7F3EFEC00000000000C2
:1008400000000107030100000000030F3CF0C0009E
:100850000080C0C0F0F0F0F0800000000000000256
:10086000070F1F3F0F03000103070E1C3870E00045
:100870000000B0F0F0F0F0C0808000000000000C3C
:100880001E3F7FFF3F0700000101030306060C0027
:100890000080C0C0F0F0F0F0800000000000000216
:1008A000070F1F3F0F03000103070E1C3870E010F5
:1008B0001030F8FCFCF8CCCEFFFFCECCF8F8FCF8FA
:1008C0003000011F3F7F7F7FFFFF7F7F7F3F1F0142
:1008D000000030F0F8FCCCCEFFFFCECCFCF8F000EE
:1008E000000000011F7FFFFFFFFF7F7F3F0F000021
:1008F0000000000038FCFEE6FFFFE6FEFE7C1C0860
:10090000000000000000030F3F7F7FFFC780000052
:10091000000030F0F8FCCCCEFFFFCECCFCF8F000AD
:10092000000000011F7FFFFFFFFF7F7F3F0F0000E0
:10093000001010000000000000082878ACBFBFFFC6
:100940003C08080000000002020202020E9FFF267F
:1009500006060E000000000000082878ACBFBFFFAC
:100960003C08080000000002020242423E0F0FB69F
:10097000C6060E408000000000082838ECBFBFFF0C
:100980003C0808150A050002028282621E0F9FE6DB
:1009900006060E408000000000082878ACBFBFFFAC
:1009A0003C0808150A05000202020282FE0F1F160B
:1009B000A6460E10100000183CB6F6FFFFFFF6B674
:1009C0003C18000000E01806C13C03CF3FCF033CB9
:1009D000C10638C000000060F0D8D8FCFCFCD8D8B4
:1009E000F060000000C03008C4320FBF7FBF0F327C
:1009F000C40830C000000080C06060F0F0F06060AB
:100A0000C080000000804021934B3FBF7FBF3F4B21
:100A10009321408000000060F0D8D8FCFCFCD8D8BE
:100A2000F060000000C03008C4320FBF7FBF0F323B
:100A3000C40830C000101000706838F0E08000007A
:100A4000000000000000000884C4C6E77F3F3FFEAE
:100A5000F8E0C06018040400706838F0E08000001E
:100A6000000000000000000884C4C2E77F3F3FFE92
:100A7000F8E0C0601804040000183828F0E0800096
:100A8000000000000000000081C2C2E67F3FBF7F7F
:100A9000F8E0C06020201000183828F0E080000046
:100AA000000000000000000182C2C6E77F3FBF7E59
:100AB000F8E0C06020201010101030080605FFFE7E
:100AC00000000000000000000000000000007FFFA8
:100AD000E0781E071E78E0781E08060507FEF8007D
:100AE000000000000000000000000000001F3F1E8A
:100AF000071E78E0781E071E7800060507FEF8003E
:100B0000000000000000000000000000003F7FE047
:100B1000781E071E78E0781E0708060507FEF80015
:100B2000000000000000000000000000001F3F1E49
:100B3000071E78E0781E071E781010000080808164
:100B4000FFFF81E0F0E08080FE828238101F1F7F6F
:100B5000DFBF7F1F1F7FDFBF7F1F1F0000828084DA
:100B6000FDFC85E0F2E08080FE828238101F1F7F4E
:100B7000BFDF7F1F1F7FBFDF7F1F1F00008A8491A1
:100B8000F4F192E8F4E08080FE828238101F1F7F2B
:100B9000DFBF7F1F1F7FDFBF7F1F1F00008280849A
:100BA000FDFC85E0F2E08080FE828238101F1F7F0E
:100BB000BFDF7F1F1F7FBFDF7F1F1F101000109040
:100BC000D0B8FEFFFE7810101000000000101012C8
:100BD0001415BDFF3D10101834525AAAAA001090E7
:100BE000D0B8FEFFFE7810101000000000101012A8
:100BF0001415BDFF3D10101834525AAAAA001090C7
:100C0000D0B8FEFFFE781010100000000010101881
:100C10001415BDFF3D10101834525AAAAA001090A6
:100C2000D0B8FEFFFE781010100000000010101861
:100C30001415BDFF3D10101834525AAAAA10100006
:100C40000000003C4ADBD7DB4A3C0000000000000B
:100C5000000884C2310D030D31C284080000000079
:100C60000010183C5ADBCFEF7E3C00000000000073
:100C7000000884C2310D030DB1C608000000000059
:100C80000000003C4ADBD7DB4A3C000000000000CB
:100C9000000884C2310D030D31C284080000000039
:100CA0000000003C7EEFCFDB5A3C18100000000033
:100CB000000008C6B10D030D31C284080000001009
:100CC00010000000003C7EEFCFDB5A3C9810000083
:100CD0000000000000026323FFA72A31000000008B
:100CE00000000000003C7EEFCFDB5A3C9810000073
:100CF0000000000000C4B60F030302031C10000034
:100D000000000000003C7EEFCFDB5A3C18100000D2
:100D1000000000662121310D0305091224C2810063
:100D200000000000003C7EEFCFDB5A3C9810000032
:100D30000000000000046A29232F32C18000000057
:100D4000001010000010983C5ADBCFEF7E3C0000F2
:100D500000000000000000312AA7FF23630200000A
:100D6000000000000010983C5ADBCFEF7E3C0000F2
:100D70000000000000101C030203030FB6C40000B3
:100D8000000000000010183C5ADBCFEF7E3C000052
:100D90000000000081C224120905030D31212166E3
:100DA000000000000010983C5ADBCFEF7E3C0000B2
:100DB00000000000000080C1322F23296A040000D7
:100DC0000000001010000000003C4ADBD7DB4A3C6A
:100DD000000000000000000884C2310D030D31C284
:100DE0008408000000000000003C6AEBE7EB6A3C6E
:100DF0000000000000000000001E817D037D811EB8
:100E00000000000000000000003C4ADBD7DB4A3C49
:100E10000000000000000000001E817D037D811E97
:100E20000000000000000000003C4ADBD7DB4A3C29
:100E30000000000000000000001E817D037D811E77
:100E40000000000000101000002040BC7ADBD7DB5F
:100E50007ABC402000000000000080C0310D030D6E
:100E600031C08000000000000000003C7ADBD7DBCE
:100E70007A3C000000000000000884C2310D030D20
:100E800031C28408000000000000003C7ADBD7DBA0
:100E90007A3C000000000000000884C2310D030D00
:100EA00031C28408000000000000003C7ADBD7DB80
:100EB0007A3C000000000000000884C2310D030DE0
:100EC00031C2840800000010108080000000000083
:100ED0000440000082200004000106182020232C7A
:100EE00030707CC2FFFFF67C38808000000000205C
:100EF00000040000A0020008000106182020232C96
:100F000030707CC2FFFFF67C38000000808000104B
:100F10000000042080000210000000003F2020207C
:100F20003F707CC2FFFFF67C38000000808000002C
:100F30000800400280002002000000003F20202026
:100F40003F707CC2FFFFF67C381010000000003CB0
:100F50007ADBD7DB7A3C000000000000000884C286
:100F6000310D030D31C2840800000000002040BC98
:100F70007ADBD7DB7ABC40200000000000030204CB
:100F800005090F090504020300000008142040842D
:100F900048502070F884FFFEE4F870000000000064
:100FA000000000000001010101000008142040843D
:100FB00048502070F884FFFEE4F870000000000044
:100FC0000000000000010101010000080B00020206
:100FD00002000009040000010202000005240010C4
:100FE000010524010101042402060524060001076D
:100FF00005810310004009040100020A00000007F7
:1010000005020240000007058302400000040309B6
:101010000412010002EF0201404123368000010169
:1010200002030141726475696E6F204C4C430041AC
:10103000726475696E6F204C656F6E6172646F00CB
:10104000EA1311241FBECFEFDAE0DEBFCDBF12E0FE
:10105000A0E0B1E0E6E9FCE402C005900D92AC3AF4
:10106000B107D9F728E0ACEAB2E001C01D92AA327C
:10107000B207E1F718E0C1E2D8E004C02197FE0111
:101080000E944326C032D107C9F70E9453140C9422
:1010900049260C9400008091B0020895E1E1F4E04B
:1010A000A0E0B8E000800EBC8111012C1197A0FDDA
:1010B000FDCF0192B9F70DB40895FC018091A90309
:1010C000882311F13FB7F89482E08093E9002091E2
:1010D000F200822F90E01816190614F481E090E0D7
:1010E000882339F0289844E64093A8034091F10002
:1010F0004083222339F02091F200211103C02BE616
:101100002093E8003FBF08958FEF9FEF08952FB71A
:10111000F89483E08093E9009091E800892F807231
:1011200095FF04C09091F20080E4891B2FBF0895C1
:101130008091A00381110DC082E080939C0384E024
:1011400080939D0310929F0310929E0381E08093F1
:10115000A0038CE993E00895CF93DF931F92CDB75E
:10116000DEB76983DC01ED91FC910280F381E02D13
:1011700041E050E0BE016F5F7F4F09950F90DF9116
:10118000CF91089583E08093E9008091F200882355
:1011900019F08AE38093E80008950E94870890E0A0
:1011A0000895CF93DF931F92CDB7DEB7FC018485FE
:1011B000958597FD08C02FEF3FEF358724870F9067
:1011C000DF91CF910895CE0101960E945D080197AD
:1011D00019F4898190E0F3CF8FEF9FEFF0CF0F9359
:1011E0001F93CF93DF931F92CDB7DEB78C01FC0125
:1011F0008485958597FF0BC0CE0101960E945D08FE
:10120000019771F4898190E0F80195878487F8014E
:10121000848595850F90DF91CF911F910F9108954F
:101220008FEF9FEFF1CFFC018485958597FD0BC073
:101230009FB7F89482E08093E9008091F2009FBF0D
:1012400090E0019608959FB7F89482E08093E900BA
:101250008091F2009FBF90E00895409196035091D5
:101260009703209194033091950342175307B4F4E8
:101270009091E8009570E1F39091E80092FD19C01B
:101280008093F100809196039091970301968F735C
:101290009927892B19F48EEF8093E80080919603AB
:1012A000909197030196909397038093960381E022
:1012B000089580E00895DF92EF92FF920F931F93BD
:1012C000CF93DF93D82E8A01EB017B01E40EF51E4C
:1012D000CE15DF0559F0D7FE12C0FE0184910E94A1
:1012E0002D0921968111F4CF0FEF1FEFC801DF9177
:1012F000CF911F910F91FF90EF90DF90089588811B
:10130000EECF0F931F93CF93DF931F92CDB7DEB72E
:1013100082E0898342E450E06BEC7FE080E80E9449
:101320005B090E949808DC0112960D911C91011531
:10133000110589F0D801ED91FC910280F381E02D37
:10134000BE016F5F7F4FC801099597FD04C0F8018A
:1013500000851185ECCF89810F90DF91CF911F918E
:101360000F910895615030F02091F100FC0120832D
:101370000196F8CF289884E68093A8030895AF9249
:10138000BF92CF92DF92EF92FF920F931F93CF9372
:10139000DF936C017B018B01040F151FEB015E01D4
:1013A000AE18BF08C017D10759F06991D601ED9169
:1013B000FC910190F081E02DC6010995892B79F708
:1013C000C501DF91CF911F910F91FF90EF90DF90BA
:1013D000CF90BF90AF9008953FB7F8948091BB0233
:1013E0009091BC02A091BD02B091BE0226B5A89B0F
:1013F00005C02F3F19F00196A11DB11D3FBFBA2FA7
:10140000A92F982F8827BC01CD01620F711D811D66
:10141000911D42E0660F771F881F991F4A95D1F7EB
:1014200008958F929F92AF92BF92CF92DF92EF92E8
:10143000FF926B017C010E94EC094B015C01C1141D
:10144000D104E104F104B9F00E94EC0968197909AA
:101450008A099B09683E73408105910580F321E06C
:10146000C21AD108E108F10888EE880E83E0981EC0
:10147000A11CB11CE4CFFF90EF90DF90CF90BF9004
:10148000AF909F908F9008958F929F92AF92BF924E
:10149000CF92DF92EF92FF920F931F93CF93DF9340
:1014A0006C017B018A0180915A01882309F45CC098
:1014B0008091A903882309F457C080919B0380FF82
:1014C00005C08091E00082608093E000E801B12CCB
:1014D0008AEFA82E93E0892E2AE3922E209711F40A
:1014E000BB20D9F10E94870881110AC0AA94AA20C2
:1014F000D9F161E070E080E090E00E94110AEECF47
:101500008C171D0611F00CF08C2F9FB7F894809269
:10151000E9002091E80025FD02C09FBFDFCF282F02
:1015200030E0C21BD30BF701815020F04191409372
:10153000F100FACFE20EF31EBB2021F09092E800FA
:10154000B12CEBCF8091E80085FDE7CF9092E800C9
:10155000BB24B394209709F3F3CF5D9884E680937E
:101560009A03101611063CF081E090E0F601938397
:10157000828310E000E0C801DF91CF911F910F91AD
:10158000FF90EF90DF90CF90BF90AF909F908F90A3
:1015900008956F927F928F929F92AF92BF92CF9257
:1015A000DF92EF92FF920F931F93CF93DF934C0143
:1015B0007B01C22F102F98E0A92EB12C642E6694C7
:1015C00066946694712CCA0187709927892B79F5E6
:1015D000D40117962D913C91C7019927B9010E941A
:1015E0002F26269DF001279DF00D369DF00D11242C
:1015F0008E0F9F1FD4011596ED91FC91E80FF91FF6
:101600002081111112C0C095C223C083DF91CF91F8
:101610001F910F91FF90EF90DF90CF90BF90AF9010
:101620009F908F907F906F900895C22BEECFD0E067
:101630004770C42ED12C83E0660C771C8A95E1F7A5
:101640009E0101C0220F4A95EAF7012FA301B701BD
:10165000C4010E94C90AA301485F5F4FC5018C19EC
:101660009D0902C0D595C7958A95E2F7A7CF5F92ED
:101670006F927F928F929F92AF92BF92CF92DF92A2
:10168000EF92FF920F931F93CF93DF93EC016A3099
:10169000F1F48D859E859C878B878C892F85388971
:1016A000820F932F911D988B8F8781E090E0DF91BF
:1016B000CF911F910F91FF90EF90DF90CF90BF904F
:1016C000AF909F908F907F906F905F900895AB84C4
:1016D000BC84693031F429E0A20EB11CBC86AB8613
:1016E000E4CF3DEFA3163FEFB3060CF45DC08F814E
:1016F0009885A816B9060CF057C0CF84D8888DEF0E
:10170000C8168FEFD8060CF44FC089859A85C81685
:10171000D9060CF049C0603208F46FE780EE860FFE
:101720009FE9960F9A3118F49FEFC91AD90A8C30A5
:1017300011F08B3119F42FEFC21AD20A869534E0DA
:10174000839FC00111249C0124553A4F7901912CAB
:10175000812C162F1170F701E80DF91D549011110D
:101760002DC0352D3F70532E3501680C791C8C81AE
:10177000882361F001E089899A89892B09F000E0CA
:101780002FE0A601B301CE010E94C90A0989252DC7
:10179000A601B301CE010E94C90A8FEF881A980AE8
:1017A00094E089169104B9F68B8990E004962B8514
:1017B0003C85820F931F9C878B8777CF52948FE055
:1017C0005822D2CF2091F802E091F602F091F70270
:1017D000CF0102969093F7028093F602222319F02C
:1017E000859194910895808191810895CF92DF929F
:1017F000EF92FF92CF93DF930E94E20B811520E8D6
:10180000920791F4809171008D7F80937100109206
:101810009100469847981092B302DF91CF91FF90C4
:10182000EF90DF90CF90089521E02093B3028130B4
:1018300020E8920751F48091F4029091F502909380
:10184000F7028093F6020E94E20B97FD05C02091FB
:10185000B202222309F454C02091B102211150C0D8
:1018600021E02093B402EC01DF77209709F04BC010
:1018700081E08093B50246983FE9C32E3FE0D32E26
:10188000E12CF12CCAEFD0E0E0910804F0910904BA
:101890000995811103C081E08093B5028091B40263
:1018A000882329F08091B502882309F43FC0479826
:1018B0000E94E20B0097F1F19C01DE010E940C26D0
:1018C000DC01CB0129E0B595A795979587952A95D9
:1018D000D1F7109290002AE020939100D0929900C5
:1018E000C09298008093B6029093B702A093B8027A
:1018F000B093B902809171008260809371008DCFA6
:101900001092B402B0CF9E0150E040E060E472E477
:101910008FE090E00E94B82569017A0181E0C81A41
:10192000D108E108F1081092B502AECF4699BFCFB9
:10193000479ABECF8FEF9FEFDC01CBCF9C01E1E751
:10194000F0E090819D7F90831092F802EAEFF3E03F
:10195000F093F702E093F602F093F502E093F402BD
:10196000318320837383628380E090E8958384834E
:101970000C94F60B8F929F92AF92BF92CF92DF9210
:10198000EF92FF920F931F93CF93DF93EC014115DA
:10199000510509F4C5C0FA01C490319694914E5F87
:1019A0005F4FAC2DB0E02223E1F001E010E0892F81
:1019B000877011F410E000E0E92FE695E695E695D2
:1019C000E00FF12FF11DEA9F8001EB9F100DFA9FB0
:1019D000100D1124209FF001219FF00D11244E0FB6
:1019E0005F1F8D010C0F1D1F101611060CF098C003
:1019F000C038D1050CF094C09B01290F311D12167F
:101A000013060CF08DC0603471050CF089C04115CF
:101A1000510509F485C0F62FF770EF2E9B0177FF73
:101A200002C0295F3F4FE3E035952795EA95E1F73E
:101A3000F22F77FF04C0EE2011F0FFEFF20F222704
:101A400033272C1B3D0BD7FD02C030E020E0FC2CDF
:101A5000003811051CF080E8F82EFC1AF21A6F2FDE
:101A60000F2E000C770B162F1095FF3F0CF010E097
:101A7000E1E0892F877009F4E0E0969596959695B8
:101A80009E0F690F711D6930710514F098E09F1B5E
:101A9000D12EDF0E6D2D70E8670350011124B501C2
:101AA0006C0F7D1F620F731FC19E200D311D11240D
:101AB000420F531F2E2D0E2C000C330B9F0F9D1524
:101AC00079F1EB01CF5EDB4F10E000E00F1510F570
:101AD000FA01E00FF11FE491F0E04F01022E02C085
:101AE000880C991C0A94E2F7D7FC03C088818829E6
:101AF0008883EE2059F086E08D1544F05E01E0E821
:101B0000AE0EB11CF5018081892980830F5F1F4FC4
:101B10002196DCCFD3944A0F5B1F60587F4FCFCF05
:101B2000DF91CF911F910F91FF90EF90DF90CF90B9
:101B3000BF90AF909F908F9008952D9A0895BC010B
:101B400090E080E00C94110A8FB18095807F669BB5
:101B500088601C9B846008953E9A3F9A81E0809340
:101B6000B002089580E0E1E1F4E081118FEF0024FC
:101B700081938193819381930394D1F71092EF0223
:101B80001092EE021092F1021092F00208959091DC
:101B9000AF02982329F09091AE02982381E009F0DA
:101BA00080E008959091AF02982329F49091AE02BD
:101BB000982381E009F480E008958091AE0280933B
:101BC000AF020E94A40D8093AE020895CF93C82F58
:101BD0000E94A40D982F9C2381E09C1380E0CF915C
:101BE000089580E00C944E0880389105B8F4603474
:101BF0007105A0F420E191E061FD94E060FD990F92
:101C000062FD9295687F269FD0011124A80FAF5ED8
:101C1000BB4F8C9140FF03C0892B8C930895909506
:101C20008923FBCF2F923F924F925F926F927F92C8
:101C30008F929F92AF92BF92CF92DF92EF92FF92DC
:101C40000F931F93CF93DF93CDB7DEB729970FB6CE
:101C5000F894DEBF0FBECDBF6D30F9F48091F20273
:101C6000811136C081E090E029960FB6F894DEBF6E
:101C70000FBECDBFDF91CF911F910F91FF90EF90DD
:101C8000DF90CF90BF90AF909F908F907F906F909C
:101C90005F904F903F902F9008956A30C9F48091E3
:101CA000F202811115C01092F1021092F00280919F
:101CB000020198E0899F900111248091EE02909199
:101CC000EF02820F931F9093EF028093EE02CACF30
:101CD00020900201E091BF02EA83F0910101FB83B1
:101CE0002091EE022E838091EF028F834090F002CC
:101CF0005090F10225E0629FF0011124E455FF4F5E
:101D0000F987E887622C712C4201312C85E0B12CD7
:101D1000381641F0888599850196E885F985B49053
:101D2000998788870E811F81F8E0F983B0FC1CC079
:101D30002A818B81A22E281318C0B69489818150E4
:101D40008983060D171D8111F1CF3394860C971CE2
:101D500096E03912DBCF239C400C511C1124509289
:101D6000F1024092F0027ECFAB80F12CE12CE21424
:101D700020F7F401EE0DFF1DFD83EC83D12CC12C67
:101D8000C21460F4B8016C0D7D1D4A2D8C819D81BB
:101D90000E94F40DFFEFCF1ADF0AF2CF2FEFE21A05
:101DA000F20AE5CF2F923F924F925F926F927F920D
:101DB0008F929F92AF92BF92CF92DF92EF92FF925B
:101DC0000F931F93CF93DF9300D01F92CDB7DEB751
:101DD0009B838A837B016A0109838901061B170B98
:101DE00017FF03C011950195110946018A819B8156
:101DF000881A990A97FE03C09194819491088016DD
:101E000091065CF49C2D8D2D6901292F382F9A8124
:101E10008B81FB82EA82E92EF82E8A819B81C8168B
:101E2000D9065CF49E2D8F2D7901292F382F9A81A8
:101E30008B81DB82CA82C92ED82E16018A819B81B2
:101E4000281A390A29014E185F0857FE03C0519419
:101E500041945108310137FE03C09FEF691A790A96
:101E6000759467948FEFE216F3060CF481E0A82EC8
:101E7000880FBB088A819B81C816D906CCF049819E
:101E8000BC01C701801691061CF0B7018A819B81B5
:101E90000E94F40D6418750877FE04C0EA0CFB1C60
:101EA000620C731C8A819B8101969B838A83E2CF9B
:101EB0000F900F900F90DF91CF911F910F91FF9096
:101EC000EF90DF90CF90BF90AF909F908F907F90DA
:101ED0006F905F904F903F902F9008958FB7F89438
:101EE0004091C0025091C1026091C2027091C30240
:101EF0008FBF8091AC02882321F01092AC0280E069
:101F000008959091AD02242F291B922F209100015A
:101F1000921740F49F5F9217A0F491E093BF8895C9
:101F200013BE089581E08093AC024093AD0280918E
:101F30006803909169030196909369038093680305
:101F400081E0089560913A0170E08091680390917A
:101F500069030E941B26892B89F480917903909153
:101F60007A030196843091052CF490937A03809340
:101F70007903089510927A031092790308950895D1
:101F800090E080E00895FB0101900020E9F731978F
:101F9000AF01461B570BDC01ED91FC910280F381F0
:101FA000E02D09948F929F92AF92BF920F931F934F
:101FB000CF93DF93CDB7DEB7A1970FB6F894DEBF0E
:101FC0000FBECDBF19A2423008F44AE08E010F5D6A
:101FD0001F4F842E912CB12CA12CA50194010E949D
:101FE000EA25E62FB901CA01EA3044F5E05DD801DF
:101FF000EE938D01232B242B252B79F790E080E0A5
:10200000109769F0FD0101900020E9F73197AF01C9
:102010004A1B5B0BBD0181E198E00E94BF09A196BC
:102020000FB6F894DEBF0FBECDBFDF91CF911F91E9
:102030000F91BF90AF909F908F900895E95CD7CF9C
:10204000682F70E090E080E04AE00C94D20FCF92CD
:10205000DF92EF92FF92CF93DF936C01990FEE081E
:10206000FF08F7FE19C06DE281E198E00E94370B8E
:10207000EC0166277727CB016C197D098E099F0932
:102080004AE00E94D20F8C0F9D1FDF91CF91FF90ED
:10209000EF90DF90CF9008954AE0C701B601DF913D
:1020A000CF91FF90EF90DF90CF900C94D20FBC01B6
:1020B00090E080E04AE00C94D20F0C94A22582E0DC
:1020C00090E00E945D1081110C94AC0D1092B00252
:1020D0003E983F9808951F920F920FB60F921124C9
:1020E0008F939F938091E1009091E100937F909373
:1020F000E10083FF0FC01092E90091E09093EB00A4
:102100001092EC0092E39093ED001092A90398E0F6
:102110009093F00082FF22C093E09093E9009091A9
:10212000F200992319F09AE39093E80090919A03B2
:10213000992341F090919A03915090939A039111B1
:1021400001C05D9A9091A803992341F09091A80352
:1021500091509093A803911101C0289A84FF18C050
:102160008091E2008E7E81608093E2008091E100A8
:102170008F7E8093E10080919B038E7E80618093AF
:102180009B039F918F910F900FBE0F901F901895FA
:1021900080FFF7CF8091E2008E7E80618093E20025
:1021A0008091E1008E7E8093E10080919B038E7E82
:1021B0008160E5CF1F920F920FB60F921124CF923C
:1021C000DF92EF92FF920F931F932F933F934F93C2
:1021D0005F936F937F938F939F93AF93BF93EF938F
:1021E000FF93CF93DF93CDB7DEB76C97DEBFCDBF44
:1021F0001092E9008091E80083FF25C068E0CE01DD
:1022000045960E94B20982EF8093E8008D8987FF8E
:1022100039C09091E80090FFFCCF982F907609F09C
:1022200034C19E894F89588D2F89F88C911131C006
:10223000803861F5809199038093F1001092F1004C
:102240008EEF8093E8006C960FB6F894DEBF0FBE59
:10225000CDBFDF91CF91FF91EF91BF91AF919F9152
:102260008F917F916F915F914F913F912F911F912E
:102270000F91FF90EF90DF90CF900F900FBE0F90D7
:102280001F9018959EEF9093E800C7CF1092F10031
:10229000D5CF913059F48111D3CF4130510581F61A
:1022A000809199038D7F80939903CACF933049F42D
:1022B0008111C6CF4130510519F680919903826092
:1022C000F2CF953041F48091E80080FFFCCF206888
:1022D0002093E300B5CF963009F0A9C00B8D1C8D7B
:1022E00022E01092E9001092970310929603F212E6
:1022F0002EC010929503109294030E9481091F82B0
:1023000099E09983FA8291E09E8390EA98879AEF08
:1023100099872091960330919703275F3F4F3C8325
:102320002B838D831092E9001092970310929603ED
:10233000109395030093940349E050E0BE016F5F52
:102340007F4F80E00E945B090E94810979CF109342
:102350009503009394030E949808DC0112960D9156
:102360001C910115110509F451C1D801ED91FC91A1
:102370000480F581E02DBE016B5E7F4FC801099599
:10238000009709F03EC1F80100851185EACFF3E01E
:10239000FF120EC08F89882309F440C0823061F497
:1023A00040E860E18FE290E10E94B713811148CFCD
:1023B00081E28093EB0047CF813029F440E86BE065
:1023C00083E290E1F1CF833099F70E949808DC0115
:1023D0001296ED90FC908E010F5F1F4F6801E11483
:1023E000F10479F0D701ED91FC910680F781E02DA1
:1023F000B801C7010995080F111DF701E084F184A8
:10240000EECFD8011C92F60101900020E9F7319738
:10241000BF016C197D0940E0C601C6CF6DE070E1D7
:10242000FB01449150E080E80E945B0909CF97309E
:1024300009F4BECF983021F481E08093F10000CF01
:10244000993009F0FDCE837009F0B2CFEBE7F1E0EF
:1024500081E031E096E32191222371F08093E9003D
:102460003093EB00DF0111972C912093EC009093B7
:10247000ED008F5F873079F78EE78093EA00109246
:10248000EA008F898093A903DBCE8B8D9C8D1092FF
:10249000E90010929703109296039093950380930E
:1024A0009403898D811192C08E899D89913A49F456
:1024B000813209F07DCF47E050E063E571E080E0D4
:1024C000B3CF913209F074CF833269F48F89988D3C
:1024D000B0E0A0E080934F0190935001A093510190
:1024E000B0935201ADCE803269F48091E80082FF52
:1024F000FCCF67E083E591E00E94B2098BEF809307
:10250000E8009ECE823209F09BCE8F8980935A01DB
:10251000EEEFFFE7859194918B3F9C4D51F1E0E008
:10252000F8E08091530190915401A0915501B09130
:102530005601803B9440A105B105F1F480915A0108
:1025400080FD1AC0EE3F8AE0F80789F587E797E734
:1025500091838083809160008093980388E19BE061
:102560000FB6F894A895809360000FBE909360001A
:1025700067CEEEEFFAE0D5CF80819181873797471C
:1025800009F05ECEA895809160008861809360001C
:102590008091980380936000EE3F2AE0F20789F073
:1025A0008091FE0A9091FF0A9183808349CE8081B9
:1025B00091818737980751F29093FF0A8093FE0A22
:1025C000C5CF1092FF0A1092FE0A3ACE0E949808D8
:1025D000DC0112960D911C910115110509F4E8CE4C
:1025E000D801ED91FC910190F081E02DBE016B5E70
:1025F0007F4FC8010995811123CEF801008511850F
:10260000EBCF181619060CF41BCED2CEF1E0FF1258
:10261000BECE61E170E104CF1F920F920FB60F9210
:1026200011242F933F938F939F93AF93BF938091E8
:10263000C0029091C102A091C202B091C302309138
:10264000BA0223E0230F2D3758F50196A11DB11DC5
:102650002093BA028093C0029093C102A093C20259
:10266000B093C3028091BB029091BC02A091BD02C5
:10267000B091BE020196A11DB11D8093BB02909343
:10268000BC02A093BD02B093BE02BF91AF919F91D7
:102690008F913F912F910F900FBE0F901F90189523
:1026A00026E8230F0296A11DB11DD2CF1F920F92D3
:1026B0000FB60F9211242F933F934F935F936F9315
:1026C0007F938F939F93AF93BF93EF93FF938091EB
:1026D000B6029091B702A091B802B091B902892BCD
:1026E0008A2B8B2B09F440C08091B50281110BC05D
:1026F00088B190E4892788B98091B402882319F0C1
:1027000088B1805888B98091B6029091B702A091A3
:10271000B802B091B902181619061A061B069CF4E5
:102720008091B6029091B702A091B802B091B9021F
:102730000197A109B1098093B6029093B702A093C3
:10274000B802B093B902FF91EF91BF91AF919F9101
:102750008F917F916F915F914F913F912F910F904A
:102760000FBE0F901F9018950E94F60BECCFEF92C2
:10277000FF920F931F93CF93DF93F82E192FE62E1E
:10278000042F81E0860F880F0E942D0983E00E94AC
:102790002D09CF2DD12FEC0EFD2EF11CCE15DF050E
:1027A000B9F007FF13C0FE0184910E942D09182F74
:1027B00080E00E942D09812321968111EFCFDF91C6
:1027C000CF911F910F91FF90EF9008958881EDCFE9
:1027D00081E0F5CFEAEAF3E01382128288EE93E01B
:1027E000A0E0B0E084839583A683B78385E891E079
:1027F000918380838FEF9FEF95878487E6E2F8E0EF
:102800001382128283EA91E0918380838BE498E0C3
:10281000909309048093080480E090E89093070463
:102820008093060446983E9A47983F9AE1E1F8E083
:102830001382128287E991E09183808381E194E0A1
:102840009683858380E890E09087878380E490E09A
:102850009287818785E0848B81E0838B168615863D
:10286000108A17861486138681E090E0928B818B04
:102870001482E0911004F0E0EE0FFF1FE45AFE4FC7
:102880008081918190930F0480930E0480915B016D
:10289000282F30E030930D0420930C0480930B0418
:1028A00080930A040895CF93DF9300D000D01F9245
:1028B000CDB7DEB7789484B5826084BD84B581607D
:1028C00084BD85B5826085BD85B5816085BD8091FB
:1028D0006E00816080936E00109281008091810073
:1028E000826080938100809181008160809381006B
:1028F000809180008160809380008091910082604F
:1029000080939100809191008160809391008091EB
:1029100090008160809390008091C10084608093DA
:10292000C1008091C10082608093C1008091C1008C
:1029300081608093C1008091C30081608093C30057
:102940008091C00082608093C0008091C20081604D
:102950008093C20080917A00846080937A00809195
:102960007A00826080937A0080917A0081608093FF
:102970007A0080917A00806880937A001092A9038F
:102980001092990310929B038091D70081608093ED
:10299000D70080EA8093D80089B5806189BD89B568
:1029A000826089BD09B400FEFDCF61E070E080E087
:1029B00090E00E94110A8091D8008F7C8061809302
:1029C000D8008091E000807F8093E0008091E1005A
:1029D0008E7E8093E1008DE08093E200559A209AEC
:1029E00081EC80937C0085B1806F85B984B1877E4E
:1029F00084B984B1876E84B95E9A5F988AB1806D1C
:102A00008AB9769A6E9881B3806F81BB899880B3BA
:102A10008D7080BB80E58CBD81E08DBD85E090E050
:102A20000E949F0D5F9A85E090E00E949F0D5E9846
:102A30005C98ECE1F7E084918EBD00000DB407FED8
:102A4000FDCF319627E0E932F207A9F75C9A81E8D9
:102A500080936400809165008160809365000E948E
:102A6000F10D80E80E94E60D8823A9F05C9885EAC4
:102A70008EBD00000DB407FEFDCF5C9A2E982F98F6
:102A80002D988091640080628093640081E083BF10
:102A9000889513BEFCCF84E00E94E60D882309F4DC
:102AA00048C02D9884E80E94E60D8823E1F00E943A
:102AB0009D0D88EC90E00E949F0D2F9882E090E0A1
:102AC0000E94A2258F3F29F06FEF82E090E00E94E4
:102AD000AA2584EF91E00E949F0D2F9A84E80E941E
:102AE000E60D8111FBCF84E10E94E60D8823E1F021
:102AF0000E949D0D88EC90E00E949F0D2E9882E030
:102B000090E00E94A225882329F060E082E090E016
:102B10000E94AA2584EF91E00E949F0D2E9A84E1E5
:102B20000E94E60D8111FBCF88EC90E00E949F0D82
:102B3000B2CF0E949D0D0E945F1081E090E00E9444
:102B40005D10382F3470932E81FF12C031112E98F2
:102B5000E1EF4E2E55245A9408E010E080E40E94E4
:102B6000E60D882309F45FC32E9A2F9A0E949D0DCB
:102B700082E390E00E949F0D0E94A40D8111F8CF86
:102B800081E28093000181E0809301018093BF0284
:102B90000E945F100E94AC0D84E080933A01712C7A
:102BA000ADE2EA2EF12CB2E05B2E15E1C12ED12C64
:102BB0004424439402E6A02EB12C8EE1882E912C61
:102BC00092E8392E61E070E080E090E00E94110A06
:102BD0000E946E0F8823B1F380916803909169037E
:102BE000B7010E941B26892B29F455E0571508F4DC
:102BF000DFC373940E94B20D509202011092F10251
:102C00001092F0021092EF021092EE026BEA71E065
:102C100086E298E00E94C30F1092F1021092F00237
:102C2000D092EF02C092EE0263EB71E086E298E090
:102C30000E94C30F40920201B092F102A092F002F2
:102C40009092EF028092EE0268EB71E086E298E0EB
:102C50000E94C30F01E028E230E040E850E068E263
:102C600070E090E080E00E94D20E2AE230E040E87E
:102C700050E06AE270E090E080E00E94D20E609046
:102C80007903739CA0011124435C534F262D68E007
:102C900070E089E690E00E94BA0C0DE31CE082E04F
:102CA00090E09B838A83262DA8016FE270E08A81E1
:102CB0009B810E94BA0CAA81BB815296BB83AA83D6
:102CC0000E571F4FA038B10571F70E94A20F88E080
:102CD0000E94D20D882309F46DC30E94F10D8091EA
:102CE0004E01813009F0A8C410E134E0E32EF12C4C
:102CF00048E2C42ED12C5DE2A52EB12C6FE5262E24
:102D0000312C70E5472E512CEEE28E2E912CF1E401
:102D10006F2E712C0E94DD0D0E94B20DEEE1F0E0ED
:102D2000F093F102E093F0021092EF021092EE02A3
:102D30006EEB71E086E298E00E94C30F01E028E0AC
:102D400030E040E850E068E070E090E080E00E9411
:102D5000D20EF0921F08E0921E08F0921D08E09239
:102D60001C08812F90E090932108809320086CEC40
:102D700071E081E198E00E94C30F2CE030E03093D5
:102D80001F0820931E0830931D0820931C0840E163
:102D900050E050932108409320086EEC71E081E1EF
:102DA00098E00E94C30FD0921F08C0921E08D092D4
:102DB0001D08C0921C0880E190E090932108809348
:102DC00020088091370164ED71E0811102C06CED43
:102DD00071E081E198E00E94C30FACE0B0E0B093F5
:102DE0001F08A0931E08B0931D08A0931C08E6E1DD
:102DF000F0E0F0932108E093200865EE71E081E1B6
:102E000098E00E94C30FB0921F08A0921E08B092D3
:102E10001D08A0921C0826E130E030932108209381
:102E20002008809170030E9420104CE050E05093E5
:102E30001F0840931E0850931D0840931C088CE106
:102E400090E090932108809320086CEE71E081E17E
:102E500098E00E94C30FB0921F08A0921E08B09283
:102E60001D08A0921C08ACE1B0E0B0932108A0932B
:102E7000200880915B010E942010ECE0F0E0F093CC
:102E80001F08E0931E08F0931D08E0931C0822E23F
:102E900030E0309321082093200863EF71E081E156
:102EA00098E00E94C30F30921F0820921E083092B3
:102EB0001D0820921C0842E250E0509321084093E4
:102EC00020088091740364E072E0811102C068E020
:102ED00072E081E198E00E94C30F8CE090E0909353
:102EE0001F0880931E0890931D0880931C08D092A1
:102EF0002108C09220086BE072E081E198E00E9416
:102F0000C30F50921F0840921E0850921D08409215
:102F10001C08D0922108C09220088091FA0264E037
:102F200072E0811102C068E072E081E198E00E94E5
:102F3000C30FACE0B0E0B0931F08A0931E08B0939D
:102F40001D08A0931C08909221088092200869E136
:102F500072E081E198E00E94C30F70921F086092B6
:102F60001E0870921D0860921C08909221088092A1
:102F700020088091730364E072E0811102C068E070
:102F800072E081E198E00E94C30F80E80E94D20DB8
:102F9000882321F01650103108F41EE280E10E94CF
:102FA000D20D882321F01A5F1F3208F010E180E46F
:102FB0000E94D20D882359F01C3109F41EC208F07A
:102FC000FCC1103109F407C2163109F40BC280E2CA
:102FD0000E94D20D882359F01C3109F444C208F034
:102FE00024C2103109F42FC2163109F433C288E02B
:102FF0000E94D20D8983882309F41BC30E94F10D1E
:103000008091700380935F032FB7F8946091C002A2
:103010007091C1028091C2029091C3022FBF6115CD
:1030200071058105910511F00E94992580E290E0DB
:10303000909318018093170180E490E090931A0117
:103040008093190184E090E09093280180932701F8
:1030500085E090E090932A018093290182E080939B
:103060003901EBE1F1E0FB83EA830BE211E027E2B7
:10307000C22E21E0D22E0E944A252CE630E040E00C
:1030800050E00E94B825AA81BB816D937D93BB83DC
:10309000AA830E944A2528E030E040E050E00E94E8
:1030A000B8256F5F7F4F8F4F9F4FF80161937193EA
:1030B0008F012A813B81C216D306E9F68BE4482EA4
:1030C00083E0582E9DE7292E93E0392E4BEF52E0F6
:1030D0005B834A8303E213E04FE553E078018BEF13
:1030E00092E09101F2016AEF70E01192D9011D9214
:1030F0009D01DC016D937D93CD01D7016894CC24B3
:10310000C3F8D12CCD92DD927D014E175F0769F790
:10311000B3E08B2EB1E09B2EEE24E3949401235078
:103120003140390180915F038217130609F00CF4D6
:10313000D7C10E944A2520E730E040E050E00E94DD
:10314000B825AA81BB816D937C930E944A2527E014
:1031500030E040E050E00E94B8256F5F7F4F8F4F16
:103160009F4FF801718360830E944A252AE030E076
:1031700040E050E00E94B825D4016D934D01F2016A
:10318000E1922F01D1011D921D01A0915F03EA2F51
:10319000F0E0FD83EC83B12C90E080E0CC80DD801A
:1031A0008C159D050CF076C186159705D1F1D801D7
:1031B000ED91FC91EE0FFF1FE45AFE4F208131810B
:1031C000EA81FB8140815181BC01660F771FFB01C1
:1031D000ED5DFC4F0190F081E02DEE0FFF1FE45AF2
:1031E000FE4F0190F081E02D65507D4FDB016D9128
:1031F0007C916B01B0E1CB0ED11C4C155D058CF4BC
:10320000405F5F4F6417750764F4AF01405F5F4F25
:103210002417350734F4205F3F4FE217F3070CF40F
:10322000B9800196BBCF992031F044E04416510497
:1032300011F42E9A2F9881E00E944E08920157FEB9
:1032400004C0222733272419350927703327C201E8
:1032500057FC079673E0959587957A95E1F757FEA9
:1032600005C00197D801A21BB30B9D01AC01569577
:10327000542F4427579547954F5E5B4FD12CC12C57
:103280003801621A730A8E3FBFEF9B07B1F1DA0172
:10329000AC56BF4F7A0170E060E0F601E459F94F97
:1032A0005F018F3F980779F0F501E60FF71FE49172
:1032B000F0E01F01022E01C0220C0A94EAF7F70188
:1032C00084882828248A2115310571F0F501E60F3C
:1032D000F71FE491F0E0062C02C0F595E7950A94FB
:1032E000E2F7FC91EF2BEC936F5F7F4F1196FFEFAE
:1032F000EF1AFF0A68357105A1F6019668E5C60E5A
:10330000D11C40585F4FA0EBCA16D10409F0BBCFC7
:103310000E94F10D8FE090E00E949F0DBFEF4B1ACD
:103320005B0AE9E14E16510409F018CC992011F01E
:103330002F9A2D9880E991E00E949F0D0E949D0D8B
:1033400081E090E00E945D1080FF12CC8AE090E066
:103350000E945D109FEF980F9E3F08F009CC22E37A
:1033600030E03093F1022093F00228E330E0309314
:10337000EF022093EE022BE030E03B832A83682F9C
:1033800086E298E00E94120E8A819B810E945D1065
:103390004A815B814F5F5F4F5B834A8341315105B7
:1033A00071F70E94F10D88EE93E00E949F0DE0CB33
:1033B000712C20CC0E94F10D05CC183241F11E3247
:1033C00069F1123209F003CE8091740391E08927EC
:1033D00080937403FCCD8091370191E0892780931D
:1033E0003701F5CD809170038F5F853118F480939C
:1033F0007003EDCD10927003EACD80915B018F5F79
:10340000863018F480935B01E2CD81E0FBCF8091A0
:10341000FA0291E089278093FA02D9CD8091730353
:1034200091E0892780937303D2CD183229F11E329F
:1034300051F1123209F0DBCD8091740391E08927BC
:1034400080937403D4CD8091370191E089278093D4
:103450003701CDCD80917003815018F080937003B7
:10346000C6CD84E1FBCF80915B01815019F0809340
:103470005B01BDCD85E0FBCF8091FA0291E0892709
:103480008093FA02B4CD8091730391E089278093F1
:103490007303ADCDBB20E1F00E944A2520E730E068
:1034A00040E050E00E94B825EA81FB81718360838F
:1034B0000E944A2527E030E040E050E00E94B82515
:1034C0006F5F7F4F8F4F9F4FD8016D937C935DCE81
:1034D0000E5F1F4FEA81FB813296FB83EA831ECE8B
:1034E00086E08093380110929303109292038091AA
:1034F0005B01282F30E030930D0420930C0480935F
:103500000B0480930A048091700380935F032FE380
:1035100030E030933D0120933C012AE230E03093CB
:103520003F0120933E0125E130E03093410120939B
:10353000400110924301109242012BEE3FEF309375
:1035400045012093440126ED3FEF3093470120933E
:10355000460121EC3FEF30934901209348012CEACA
:103560003FEF30934B0120934A0127E93FEF30931F
:103570004D0120934C012FE230E030935D01209308
:103580005C014AE150E050935F0140935E0145E0E9
:1035900050E0509361014093600140EF5FEF509322
:1035A0006301409362014BED5FEF509365014093DF
:1035B000640146EC5FEF509367014093660141EB75
:1035C0005FEF50936901409368014CE95FEF5093BE
:1035D0006B0140936A0147E85FEF50936D014093A0
:1035E0006C0110927C031092100448E350E0509359
:1035F00076034093750330930F0420930E041092CA
:103600006D0310926C031092F90290E090936B039B
:1036100080936A0310926F0310926E0382E080938E
:103620004E0180E090E0892B09F459CB0E94000004
:1036300056CB0E94F10D6ECB833009F059C10E9428
:10364000B20D84E290E09093F1028093F002109228
:10365000EF021092EE0264E272E086E298E00E94CD
:10366000C30FE0917003F0E080916C0390916D03C3
:10367000EE0FFF1FEC53FD4F2081318128173907D2
:10368000C0F49183808388E190E090931F08809339
:103690001E0890931D0880931C088AE090E0909388
:1036A0002108809320086EE272E081E198E00E9498
:1036B000C30FEAE0CE2ED12CD0921F08C0921E0874
:1036C000D0921D08C0921C08F4E1EF2EF12CF0926C
:1036D0002108E092200865EE71E081E198E00E9407
:1036E000C30F08E210E010931F0800931E08109308
:1036F0001D0800931C08F0922108E0922008809198
:1037000070030E942010D0921F08C0921E08D09211
:103710001D08C0921C08AAE1EA2EF12CF0922108A3
:10372000E092200862E472E081E198E00E94C30F19
:1037300010931F0800931E0810931D0800931C0887
:10374000F0922108E092200880916C0390916D0323
:103750000E945710D0921F08C0921E08D0921D08D8
:10376000C0921C08B0E2EB2EF12CF0922108E092FE
:1037700020086FE372E081E198E00E94C30F87E3C5
:1037800090E090931F0880931E0890931D088093EB
:103790001C08F0922108E0922008E0917003F0E00C
:1037A000EE0FFF1FEC53FD4F808191810E94571057
:1037B000D0921F08C0921E08D0921D08C0921C080B
:1037C00096E2C92ED12CD0922108C092200869E43B
:1037D00072E081E198E00E94C30F23E2E22EF12C17
:1037E000F0921F08E0921E08F0921D08E0921C085B
:1037F000D0922108C0922008809192039091930367
:103800000E9427102AE030E030931F0820931E0802
:1038100030931D0820931C083CE2C32ED12CD0927B
:103820002108C09220086FE472E081E198E00E94D4
:10383000C30F10931F0800931E0810931D080093D8
:103840001C08D0922108C092200880916E039091AC
:103850006F030E94271080913701811128C04AE030
:1038600050E050931F0840931E0850931D0840934A
:103870001C0882E390E0909321088093200866E57D
:1038800072E081E198E00E94C30FF0921F08E0927D
:103890001E08F0921D08E0921C08A2E3B0E0B0936D
:1038A0002108A09320088091F9020E9420108BE04B
:1038B00090E090931F0880931E0890931D088093BA
:1038C0001C088BE390E090932108809320086CE51E
:1038D00072E081E198E00E94C30F0E94F10D0E9406
:1038E000DD0D88E00E94D20D8823C9F381E097CED8
:1038F000843009F082C10E94B20D82E190E0909381
:10390000F1028093F0021092EF021092EE0261E752
:1039100072E086E298E00E94C30FE0917003F0E04D
:1039200080916C0390916D03EE0FFF1FEC53FD4FE0
:103930002081318128173907C0F49183808388E181
:1039400090E090931F0880931E0890931D08809329
:103950001C088AE090E090932108809320086EE292
:1039600072E081E198E00E94C30FEAE0F0E0F0939A
:103970001F08E0931E08F0931D08E0931C0814E153
:10398000E12EF12CF0922108E092200865EE71E022
:1039900081E198E00E94C30F08E210E010931F0835
:1039A00000931E0810931D0800931C08F092210834
:1039B000E0922008809170030E9420108AE0C82EB7
:1039C000D12CD0921F08C0921E08D0921D08C09220
:1039D0001C089AE1E92EF12CF0922108E0922008CF
:1039E00062E472E081E198E00E94C30F10931F0827
:1039F00000931E0810931D0800931C08F0922108E4
:103A0000E092200880916C0390916D030E94571002
:103A1000D0921F08C0921E08D0921D08C0921C08A8
:103A200020E2E22EF12CF0922108E09220086FE3D0
:103A300072E081E198E00E94C30F87E390E09093E9
:103A40001F0880931E0890931D0880931C08F09215
:103A50002108E0922008E0917003F0E0EE0FFF1FD4
:103A6000EC53FD4F808191810E945710D0921F0826
:103A7000C0921E08D0921D08C0921C0846E2C42EB7
:103A8000D12CD0922108C092200869E472E081E133
:103A900098E00E94C30F53E2E52EF12CF0921F082C
:103AA000E0921E08F0921D08E0921C08D0922108B6
:103AB000C092200880919203909193030E94271056
:103AC0002AE030E030931F0820931E0830931D0831
:103AD00020931C086CE2C62ED12CD0922108C092F3
:103AE00020086FE472E081E198E00E94C30F109318
:103AF0001F0800931E0810931D0800931C08D09205
:103B00002108C092200880916E0390916F030E945B
:103B1000271080913701811128C04AE050E050936E
:103B20001F0840931E0850931D0840931C0882E311
:103B300090E0909321088093200866E572E081E18F
:103B400098E00E94C30FF0921F08E0921E08F092C6
:103B50001D08E0921C08A2E3B0E0B0932108A093F6
:103B600020088091F9020E94201080917003843116
:103B7000B0F48CE090E090931F0880931E0890931F
:103B80001D0880931C088BE390E09093210880939C
:103B9000200861E872E081E198E00E94C30F809103
:103BA00070038431B1F488E190E090931F08809312
:103BB0001E0890931D0880931C088BE390E090935F
:103BC00021088093200865E972E081E198E00E9475
:103BD000C30F0E94F10D0E94DD0D88E00E94D20DFE
:103BE0008823C9F3809170038F5F853118F4809327
:103BF00070037CCE1092700379CE823009F011CD23
:103C00000E946E0F882309F40CCD20916803309137
:103C10006903C9016EE170E00E941B26892B49F4FB
:103C200080919203909193030196909393038093D4
:103C30009203C9016CE370E00E941B26892B59F4A2
:103C400083E680939103EDE7F3E081E993E011923D
:103C50008E179F07E1F70E94DD0D80917B0388237B
:103C6000B1F180910E0490910F042091770330916F
:103C70007803821793070CF0ADC02A31310509F0A3
:103C8000D5C020911004273008F0D0C0039690933F
:103C90000F0480930E04ECE3F1E04CE551E08191D8
:103CA0009191BF01625071090396DB018D939C9342
:103CB000DA018D919D91AD01BD01625071090396AC
:103CC000DB018D939C93B1E0EE34FB0741F78091CB
:103CD0007C038350843008F4C7C090907B0391101C
:103CE000C3C080E20E94E60D882329F082E0809321
:103CF0007C0380933B0180E20E94C70D81111092EA
:103D00007C0380E40E94E60D882329F081E0809303
:103D10007C0380933B0180E40E94C70D81111092C7
:103D20007C0388E00E94D20D882309F49DC0A090F6
:103D30003901B12C60910E0470910F04A0917503AC
:103D4000B09176036D01E6E0CE0ED11C3D01FAE0A4
:103D50006F0E711C909191034091700325E0429F7A
:103D6000A001112400916C0310916D03B7E1EB2EBB
:103D7000B1E0FB2E30E020E04B5F5F4F2A153B05A2
:103D80000CF057C0D701ED91FD917D01E615F705C7
:103D9000F4F47496CE16DF06D4F4F901EE0FFF1F8B
:103DA000E95DFE4F0190F081E02DEE0FFF1FE45C16
:103DB000FE4F0190F081E02D6E177F0744F036969C
:103DC0006E177F0724F4922F040F151F982E2F5F74
:103DD0003F4FD4CF281739074CF52A31310531F53B
:103DE00020911004222311F1039790930F048093E4
:103DF0000E04ECE3F1E04CE551E081919191BF01BB
:103E0000625071090397DB018D939C93DA018D91C8
:103E10009D91AD01BD01625071090397DB018D9346
:103E20009C93B1E0EE34FB0741F751CF10927B0336
:103E30004ECF909391039092620310936D03009381
:103E40006C03992009F4E7C083E080937C0310920F
:103E50007A0310927903809110048F5F809310048D
:103E6000709378036093770380E10E94E60D84E00D
:103E70000E94D20D8823A1F180916A0390916B0377
:103E8000181619066CF580916703811129C080917D
:103E90003701811125C064E670E08CE291E00E9458
:103EA0009E0C80916A0390916B03019790936B0332
:103EB00080936A0381E08093670380913B018230A5
:103EC00009F0B5C010926603809175039091760356
:103ED000909365038093640380911004809363033F
:103EE0000E94B20D0E94A20F809168039091690315
:103EF00065E070E00E941B26892B69F480916003C5
:103F0000909161030196843091050CF096C09093D6
:103F100061038093600380917503909176038137EC
:103F2000910508F08FC00DE713E01B821A82DD2493
:103F3000D394F5E0CF2EA2E0EA2EF12C80915F031E
:103F4000EA81FB818E171F0609F00CF47BC0D801B3
:103F50008D918D01811159C0E55BFC4F80818823D3
:103F600009F453C08A819B81880F991FFC01E55099
:103F7000FD4F2081318140917503509176032417C4
:103F800035070CF042C04A5F5F4F225F3F4F421738
:103F90005307DCF58D5D9C4FDC01ED91FC91EE0F3C
:103FA000FF1FE45AFE4F8081918120910E043091D1
:103FB0000F04A9014B5F5F4F8417950734F50596F1
:103FC0002817390714F5F8013197D08280916E03D4
:103FD00090916F03019690936F0380936E0380918D
:103FE000FA0281110CC080917C03833041F086304D
:103FF00031F0C0927C03F0927203E092710364E6A8
:1040000070E084E893E00E949E0CEA81FB81319687
:10401000FB83EA8393CF70937803609377031092C6
:104020007A031092790386E080937C031DCF813060
:1040300009F04ACF8093660347CF10926103109234
:10404000600369CF6CE3E62E61E0F62EFB82EA8224
:10405000AA81BB816D917D91BB83AA8301E09B0105
:1040600040E850E090E080E00E94D20EEA81FB81BF
:10407000EE54F14069F71B821A82D7018D919D9110
:104080007D018233910588F410921F0810921E085A
:1040900010921D0810921C0802969093210880939C
:1040A00020088A819B810E942710EA81FB8131963A
:1040B000FB83EA83399709F727E2A22E21E0B22E8B
:1040C00037E1C32E31E0D32E42E7442E41E0542E97
:1040D00022242394312C20913901C201825791402E
:1040E0002817190611F00CF057C02BEF32E03B8374
:1040F0002A831BE4612E13E0712E430110E000E0DF
:1041000080E8482E512C22242394312C80915F0387
:104110008017110609F00CF4D7C0D4018D914D0120
:10412000882389F1C801880F991FFC01ED5DFC4FC0
:104130007F01C080D180AA81BB81AD90BC90F80185
:10414000ED5FFE4F4081B2E84B9FA0011124475D17
:10415000584FF601EE0FFF1FE45AFE4F6081718148
:1041600020916003C5010E94BA0C80910A04A81A2C
:10417000B108E0EFAE16EFEFBE060CF492C0AA81D4
:10418000BB81AD92BC920F5F1F4F2A813B812E5F96
:104190003F4F3B832A83BACFD5010D90BC91A02D10
:1041A000BB83AA83FD01EE0FFF1FE45CFE4F60811D
:1041B0007181F601E080F1804701F4E18F0E911CDE
:1041C00000E09B01A401C7010E94D20E2A813B811D
:1041D00028303105B1F460903C0170903D019301AD
:1041E000A401B301C7010E94D20E10E000E041E03B
:1041F000B301C8010E94F40D0E5F1F4F0038110576
:10420000B1F7D2018D912D01811127C080910B044E
:10421000E81AF108BCEEEB16BFEFFB0654F0F6010E
:10422000F182E08232E0A30EB11C42E0C40ED11C48
:1042300052CFE0E8F0E0D601ED93FC932A813B8178
:104240002830310534F42F5F3F4FD5012D933C9337
:10425000E9CFF50131822082E5CF813019F78091D5
:104260000B04E80EF11CF1E8EF16F10424F4D6017A
:10427000ED92FC92D7CF2CEE3FEFF60131832083F5
:104280004A815B814230510534F041505109D501DA
:104290004D935C93C7CF28E030E0F5013183208354
:1042A000C1CFEA81FB8151824082F7E0CF16D10471
:1042B0003CF42FEFC21AD20AD701CD92DC9263CF21
:1042C000F701318220825FCF80916703882309F450
:1042D000B6C01B821A824AEFA42E43E0B42E50E5EA
:1042E000E52EF12C02E310E0C12C60E8D62E80917F
:1042F0005F034A815B818417150609F00CF476C0D0
:10430000D3018C91882309F467C0CA01880F991FD3
:10431000FC01E550FD4F20813181409164035091B3
:104320006503B9016E5F7F4F461757070CF454C001
:10433000225F3F4F421753070CF04EC08D5D9C4FDC
:10434000DC01ED91FC91EE0FFF1FE45AFE4F8081DE
:104350009181E0916303F0E0EE0FFF1FE45AFE4FFE
:1043600020813181A901485F5F4F84179507A4F52B
:10437000295F3F4F40962817390774F5F3011082E3
:104380008091F9028F5F8093F902809171008D7F97
:10439000809371001092F802B092F702A092F60298
:1043A000B092F502A092F402F092FB03E092FA03BD
:1043B0001093FD030093FC031093FF030093FE038F
:1043C0001093010400930004D0920304C0920204ED
:1043D0000E94F60B109267032A813B812F5F3F4FAB
:1043E0003B832A833FEF631A730A81CF8091660370
:1043F000813009F085C0C0906403D0906503E091DE
:104400006303F0E0EE0FFF1FE45AFE4F60817181FD
:10441000695F7F4F41E0C60106960E94F40D8091CE
:104420005B01C80ED11C96012F5F3F4F309365038F
:10443000209364032138310514F0109267038091B2
:104440007C038350823008F496C080917B038111F5
:1044500092C080917503909176031092F302813798
:10446000910508F070C01B821A8211E08091390119
:10447000CA80DB808C151D0409F00CF464C08091A7
:1044800091038C151D04B1F1C601880F991FFC0121
:10449000E95EFE4F20813181409175035091760392
:1044A000421753073CF1495F5F4F255F3F4F42176B
:1044B000530704F5895D9E4FDC01ED91FC91EE0FF1
:1044C000FF1FE45CFE4F2081318180910E049091AA
:1044D0000F04AC014F5E5F4F241735075CF42817BB
:1044E000390744F01093F30268EC70E088E592E03D
:1044F0000E949E0CEA81FB813196FB83EA83B6CF52
:1045000081119DCFC0906403D0906503E091630357
:10451000F0E0EE0FFF1FE45AFE4F60817181695F8A
:104520007F4F41E0C60106970E94F40D80915B0128
:1045300090E00196C81AD90AD0926503C09264032C
:10454000D7FC7BCF7CCF8091F3028823A1F084E05D
:1045500080937C0310927A03109279038091100467
:1045600081508093100480910E0490910F049093D9
:10457000780380937703809175039091760397FF7A
:1045800007C020913B01223051F420937C0307C0E7
:104590008137910524F020913B012130B1F3E09166
:1045A0007C03E73078F4F0E0E852FD4D0C944326AC
:1045B000DF2266234C237C23A923DF2300248EE102
:1045C00080933A010091750310917603D09079039E
:1045D000C0907C0342E8C49E90011124235C334FB9
:1045E0003B832A83E0900E04F0900F0417FF09C06C
:1045F0002D2D4A815B81B701C80180589F4F0E94D1
:10460000BA0C80E890E0801B910B801791074CF466
:104610002D2D4A815B81B701C801805891090E9404
:10462000BA0C2D2D4A815B81B701C8010E94BA0CDA
:1046300080917403811125C180913801811103C0DB
:1046400083E080934E0181E08093F20210E000E06D
:104650001B821A8288E3E82EF12C80913801CA80EF
:10466000DB808C151D0409F00CF409C11093F102D4
:104670000093F002F092EF02E092EE0265EA72E03F
:1046800086E298E00E94C30F96012F5F3F4F3B8365
:104690002A83095F1F4FE1CF20910C0430910D0454
:1046A000821B930B9093760380937503813F9F4FFA
:1046B0005CF480E790E090937603809375030E940A
:1046C000A40D85FF10927C0383E07ACF20910C0427
:1046D00030910D04820F931F90937603809375039E
:1046E000803891058CF310927603109275030E9426
:1046F000A40D86FFE7CFE8CF85E080933A012091B3
:10470000100480910E0490910F04E22FF0E0EE0F60
:10471000FF1FE45AFE4F408151814817590734F476
:10472000039790930F0480930E044CCF81E0809305
:104730007B0310927C0380913901883018F48F5FDD
:1047400080933901283008F43DCF84E080934E01F6
:1047500039CF85E080933A0180910E0490910F0447
:1047600020917B0321112ECF20911004E22FF0E045
:10477000EE0FFF1FE45AFE4F4081518184179507C9
:1047800014F40396CECF8091740391E090937B0351
:10479000811107C0211105C080913801815080939B
:1047A000380180917303811128C085E080937C03D8
:1047B00082E090E0909372038093710303CF81E0D5
:1047C00080933A01209171033091720380916803C4
:1047D000909169036EE170E00E941B26892B31F4F1
:1047E000215031093093720320937103809171033A
:1047F00090917203892B09F0E5CE10927C03E2CEF2
:10480000809168039091690367E070E00E941B2625
:10481000892B09F0D7CE62E370E084E690E00E9435
:104820009E0C80910E0490910F04029790930F04B8
:1048300080930E042091790330917A03233031055F
:1048400034F42F5F3F4F30937A0320937903209104
:1048500077033091780360917403A90146505109A0
:104860008417950709F0AECE30930F0420930E0401
:10487000611197CF80911004811193CF8DCF109249
:10488000F20280917003882309F44AC080916E037C
:1048900090916F038A30910584F42CE730E03093D7
:1048A0001F0820931E0830931D0820931C0822E047
:1048B00030E030932108209320089C012A503109D0
:1048C0002A35310580F427E730E030931F08209324
:1048D0001E0830931D0820931C0822E030E030931E
:1048E0002108209320089C012456310924383340A4
:1048F00008F079C080E790E090931F0880931E082D
:1049000090931D0880931C0882E090E0909321080A
:104910008093200880916E0390916F030E9427106E
:1049200088E090E090931F0880931E0890931D08E4
:1049300080931C08A2E0B0E0B0932108A093200867
:1049400067EA72E081E198E00E94C30F86E190E09F
:1049500090931F0880931E0890931D0880931C0855
:10496000E2E0F0E0F0932108E093200880916C03EE
:1049700090916D030E9457108091370181112FC0D3
:1049800080916A0390916B038A30910584F42CE73F
:1049900030E030931F0820931E0830931D082093A9
:1049A0001C082AE330E030932108209320089C0162
:1049B0002A5031092A35310580F427E730E0309359
:1049C0001F0820931E0830931D0820931C082AE31B
:1049D00030E030932108209320080E9427100E9485
:1049E000F10D0C94111B883E93400CF493CF87EE8D
:1049F00093E090936F0380936E037CCF8F929F928E
:104A0000AF92BF92CF92DF92EF92FF92CF93DF935C
:104A1000EC01688179818A819B816115710581052D
:104A2000910521F464E279ED8BE597E02DE133EF18
:104A300041E050E00E94B82549015A019B01AC01B8
:104A4000A7EAB1E40E94D7256B017C01ACEEB4EF7C
:104A5000A50194010E94E525C60ED71EE81EF91E89
:104A6000F7FE06C081E0C81AD108E10880E8F80A1C
:104A7000C882D982EA82FB82C701B6019F77DF91A3
:104A8000CF91FF90EF90DF90CF90BF90AF909F902D
:104A90008F9008958F929F92AF92BF92CF92DF92A4
:104AA000EF92FF9260916E0170916F0180917001A1
:104AB00090917101611571058105910521F464E200
:104AC00079ED8BE597E02DE133EF41E050E00E9476
:104AD000B82549015A019B01AC01A7EAB1E40E9443
:104AE000D7256B017C01ACEEB4EFA50194010E94C7
:104AF000E525C60ED71EE81EF91EF7FE06C081E0AA
:104B0000C81AD108E10880E8F80AC0926E01D09274
:104B10006F01E0927001F0927101C701B6019F77B9
:104B2000FF90EF90DF90CF90BF90AF909F908F90CD
:104B3000089560936E0170936F018093700190935C
:104B400071010895F999FECF92BD81BDF89A992718
:104B500080B50895262FF999FECF1FBA92BD81BD69
:104B600020BD0FB6F894FA9AF99A0FBE01960895EF
:104B7000052E97FB1EF400940E94CF2557FD07D009
:104B80000E94EA2507FC03D04EF40C94CF255095E3
:104B90004095309521953F4F4F4F5F4F0895909529
:104BA0008095709561957F4F8F4F9F4F08950E941C
:104BB0000C26A59F900DB49F900DA49F800D911D74
:104BC00011240895B7FF0C94D7250E94D725821B86
:104BD000930B0895A1E21A2EAA1BBB1BFD010DC069
:104BE000AA1FBB1FEE1FFF1FA217B307E407F5079D
:104BF00020F0A21BB30BE40BF50B661F771F881F79
:104C0000991F1A9469F760957095809590959B010E
:104C1000AC01BD01CF010895A29FB001B39FC001B7
:104C2000A39F700D811D1124911DB29F700D811DD8
:104C30001124911D0895AA1BBB1B51E107C0AA1F97
:104C4000BB1FA617B70710F0A61BB70B881F991F2D
:104C50005A95A9F780959095BC01CD01089597FBD1
:104C6000072E16F4009407D077FD09D00E941B266A
:104C700007FC05D03EF4909581959F4F089570955F
:104C800061957F4F0895EE0FFF1F0590F491E02D81
:064C90000994F894FFCF27
:104C960010010100010203040000000000000000F2
:104CA600000000000000002000400000000000009E
:104CB60000000000000000040005000000000000E5
:104CC600000000000000000106020A013F002A0061
:104CD60015000000EBFFD6FFC1FFACFF97FF01FFF9
:104CE600FFFFFF00E1000000000000022F001A0095
:104CF6000500F0FFDBFFC6FFB1FF9CFF87FF010049
:104D06000000000101010100000000C180810000D7
:104D16000000000000AC08440ACD08C2081309D1FF
:104D260008EF0800000000370BBF09C00FBF0F00D7
:104D3600000000120EBF09C00FBF0F4A554D504963
:104D46004E47004A41434B00736D42495400474168
:104D56004D452053455454494E4753003E0054593F
:104D660050453A00434C4153534943004558544536
:104D76004E444544004C4556454C3A005350454533
:104D8600443A00554E4C494D49544544204C4956E9
:104D960045533A00594553004E4F00494E56495324
:104DA6004942494C4954593A0045415359204D4FBF
:104DB60044453A0047414D45204F56455200212172
:104DC60021204E45572048494748202121210048A7
:104DD600492053434F52453A0054494D453A0046FF
:104DE60041494C533A00484954533A0050524553AE
:104DF60053204120544F2054525920414741494E97
:104E0600004C4556454C20434F4D504C4554454467
:104E1600005052455353204120544F20434F4E5487
:104E2600494E554500434F4E47524154554C415407
:0C4E3600494F4E5300030053433A000064
:00000001FF
