:100000000C9471040C9499040C9499040C94990424
:100010000C9499040C9499040C9499040C949904EC
:100020000C9499040C9499040C942D0E0C949C0E31
:100030000C9499040C9499040C9499040C949904CC
:100040000C9499040C9499040C9499040C949904BC
:100050000C9499040C9499040C9499040C94CE106B
:100060000C9499040C9499040C9499040C9499049C
:100070000C9499040C9499040C9499040C9499048C
:100080000C9418110C9499040C9499040C949904F0
:100090000C9499040C9499040C9499040C9499046C
:1000A0000C9499040C9499040C9499040000000099
:1000B000003E5B4F5B3E3E6B4F6B3E1C3E7C3E1CEE
:1000C000183C7E3C181C577D571C1C5E7F5E1C0034
:1000D000183C1800FFE7C3E7FF0018241800FFE7EB
:1000E000DBE7FF30483A060E2629792926407F05AE
:1000F0000507407F05253F5A3CE73C5A7F3E1C1CC4
:1001000008081C1C3E7F14227F22145F5F005F5F83
:1001100006097F017F006689956A6060606060946F
:10012000A2FFA29408047E040810207E2010080874
:100130002A1C08081C2A08081E101010100C1E0C7F
:100140001E0C30383E3830060E3E0E060000000011
:100150000000005F00000007000700147F147F14F8
:10016000242A7F2A1223130864623649562050003D
:1001700008070300001C2241000041221C002A1C29
:100180007F1C2A08083E0808008070300008080814
:100190000808000060600020100804023E51494534
:1001A0003E00427F400072494949462141494D3352
:1001B0001814127F1027454545393C4A49493141B9
:1001C000211109073649494936464949291E000087
:1001D00014000000403400000008142241141414DC
:1001E0001414004122140802015909063E415D59C8
:1001F0004E7C1211127C7F494949363E41414122D1
:100200007F4141413E7F494949417F090909013EFA
:10021000414151737F0808087F00417F4100204021
:10022000413F017F081422417F404040407F021C33
:10023000027F7F0408107F3E4141413E7F0909094A
:10024000063E4151215E7F09192946264949493216
:1002500003017F01033F4040403F1F2040201F3FDC
:100260004038403F63140814630304780403615961
:10027000494D43007F4141410204081020004141A3
:10028000417F04020102044040404040000307084F
:100290000020545478407F2844443838444444284B
:1002A000384444287F385454541800087E090218F2
:1002B000A4A49C787F0804047800447D400020407A
:1002C000403D007F1028440000417F40007C0478BE
:1002D00004787C080404783844444438FC18242406
:1002E0001818242418FC7C08040408485454542486
:1002F00004043F44243C4040207C1C2040201C3C03
:100300004030403C44281028444C9090907C4464F9
:10031000544C44000836410000007700000041368C
:10032000080002010204023C2623263C1EA1A16112
:10033000123A4040207A3854545559215555794144
:100340002154547841215554784020545579400C1B
:100350001E527212395555555939545454593955FC
:100360005454580000457C410002457D420001453F
:100370007C40F0292429F0F0282528F07C545545AC
:10038000002054547C547C0A097F4932494949323F
:100390003248484832324A4848303A4141217A3A54
:1003A00042402078009DA0A07D39444444393D401E
:1003B00040403D3C24FF2424487E4943662B2FFCCB
:1003C0002F2BFF0929F620C0887E09032054547979
:1003D000410000447D413048484A32384040227A4A
:1003E000007A0A0A727D0D19317D2629292F2826C7
:1003F0002929292630484D402038080808080808CF
:100400000808382F10C8ACBA2F102834FA00007B27
:10041000000008142A142222142A1408950022002D
:1004200095AA005500AAAA55AA55AA000000FF00E7
:10043000101010FF00141414FF001010FF00FF1024
:1004400010F010F0141414FC001414F700FF000056
:10045000FF00FF1414F404FC141417101F10101FD5
:10046000101F1414141F00101010F0000000001FC3
:10047000101010101F10101010F010000000FF10CE
:100480001010101010101010FF10000000FF1400CA
:1004900000FF00FF00001F10170000FC04F41414FC
:1004A0001710171414F404F40000FF00F7141414C8
:1004B00014141414F700F7141414171410101F1048
:1004C0001F141414F4141010F010F000001F101F6B
:1004D0000000001F14000000FC140000F010F010D9
:1004E00010FF10FF141414FF141010101F00000050
:1004F00000F010FFFFFFFFFFF0F0F0F0F0FFFFFF54
:100500000000000000FFFF0F0F0F0F0F38444438AA
:10051000447C2A2A3E147E02020606027E027E02E5
:1005200063554941633844443C04407E201E200604
:10053000027E020299A5E7A5991C2A492A1C4C7241
:1005400001724C304A4D4D303048784830BC625AC8
:10055000463D3E494949007E0101017E2A2A2A2A58
:100560002A44445F444440514A444040444A514034
:100570000000FF0103E080FF000008086B6B0836F5
:1005800012362436060F090F060000181800000066
:100590001010003040FF0101001F01011E00191D55
:1005A0001712003C3C3C3C000000000000B0000082
:1005B000A170E150964F26900F1D070C0096690020
:1005C0004AE44A0048444000806810000F99FB8FBD
:1005D0009DBDBBFB77D4D4DF1F1A1AFE7F5D5DFF84
:1005E000805A0000A0A4AA0010BA3400FF5953F3A7
:1005F000FF9B9B9EFFB9B996FF9595D19FF4940FF1
:10060000FC295F91FF1838F8FF9294FFFF95D5F70A
:10061000BFB5DDD7F18F81F1F788C8F779C6467984
:1006200009FD9B090196F800828182805071620069
:100630007756560076763700A2B773010772060028
:100640007827500073347400775176007F55F70097
:1006500047711000324772007364730015A2750071
:1006600061679400009F6060F4F2F6F2F0F89C8EEF
:100670008783878E9CF8F00000FEFF0303030303CB
:10068000070EFCF80000FEFF0303030303070EFC44
:10069000F80000FFFF00000000000000FFFF000066
:1006A000FEFF8383838383C7EE7C380000F8FC0E53
:1006B00007030303070EFCF800003F7FE0C08080C3
:1006C000C0E07F3FFFFF01010101010101FFFF00C9
:1006D00000FFFF0C0C0C0C1C3E77E3C100007FFFF9
:1006E000C0C0C0C0C0E0703F1F00001F3F70E0C02E
:1006F000C0C0E0703F1F00007FFFC1C1C1C1C1E3A6
:10070000773E1C00001F3F70E0C0C0C0E0703F1F7C
:10071000000000000001FFFF01000000D5F08D1473
:10072000A1C881CFD9F1AF20000808000000000067
:1007300000000008083F0B070F1B0F17170808AA37
:10074000BBAAEEAABBAAEE0808132D13430D13078C
:10075000070808132D13430D1307070808132D135B
:10076000430D13070708084B4E64644E4B6161103C
:1007700010000004BEFEF6BF1300000000000000E1
:1007800000000CEFFFBF5BF7EF8C000000000000E3
:1007900000000004BEFEF6BF1300000000000000D1
:1007A0000000000F1FF8F79F0F000000000000007E
:1007B00000000004BEFEF6BF1300000000000000B1
:1007C00000000CEFFFBF5BF7EF8C000000000000A3
:1007D00000000004BEFEF6BF130000000000000091
:1007E000000CCEE7BF3F1F3F77CE6C00000000003B
:1007F00000101000000013BFF6FEBE040000000051
:10080000000000006CCE773F1F3FBFE7CE0C00001A
:1008100000000000000013BFF6FEBE040000000050
:1008200000000000008CEFF75BBFFFEF0C00000042
:1008300000000000000013BFF6FEBE040000000030
:100840000000000000000F9FF7F91F0F00000000DC
:1008500000000000000013BFF6FEBE040000000010
:1008600000000000008CEFF75BBFFFEF0C00000002
:10087000000000080B000202020000090400000151
:1008800002020000052400100105240101010424D6
:100890000206052406000107058103100040090433
:1008A0000100020A000000070502024000000705DF
:1008B00083024000000403090412010002EF020158
:1008C00040412336800001010203014172647569D1
:1008D0006E6F204C4C430041726475626F7900006A
:1008E000921111241FBECFEFDAE0DEBFCDBF13E0BF
:1008F000A0E0B1E0ECE6FFE202C005900D92AA355F
:10090000B107D9F728E0AAE5B3E001C01D92A631EE
:10091000B207E1F714E0C1E7D4E004C02197FE017B
:100920000E94AE17C037D107C9F70E94EF110C948F
:10093000B4170C940000809160030895EEEFF3E08B
:10094000A0E0B8E000800EBC8111012C1197A0FD41
:10095000FDCF0192B9F70DB40895FC018091940385
:10096000882311F13FB7F89482E08093E900209149
:10097000F200822F90E01816190614F481E090E03E
:10098000882339F0289844E6409393034091F1007E
:100990004083222339F02091F200211103C02BE67D
:1009A0002093E8003FBF08958FEF9FEF08952FB782
:1009B000F89483E08093E9009091E800892F807299
:1009C00095FF04C09091F20080E4891B2FBF089529
:1009D00080918B0381110DC082E08093870384E0B6
:1009E0008093880310928A031092890381E0809398
:1009F0008B0387E893E00895CF93DF931F92CDB7E1
:100A0000DEB76983DC01ED91FC910280F381E02D7A
:100A100041E050E0BE016F5F7F4F09950F90DF917D
:100A2000CF91089583E08093E9008091F2008823BC
:100A300019F08AE38093E80008950E94D70490E0BB
:100A40000895CF93DF931F92CDB7DEB7FC01848565
:100A5000958597FD08C02FEF3FEF358724870F90CE
:100A6000DF91CF910895CE0101960E94AD040197C8
:100A700019F4898190E0F3CF8FEF9FEFF0CF0F93C0
:100A80001F93CF93DF931F92CDB7DEB78C01FC018C
:100A90008485958597FF0BC0CE0101960E94AD0419
:100AA000019771F4898190E0F80195878487F801B6
:100AB000848595850F90DF91CF911F910F910895B7
:100AC0008FEF9FEFF1CFFC018485958597FD0BC0DB
:100AD0009FB7F89482E08093E9008091F2009FBF75
:100AE00090E0019608959FB7F89482E08093E90022
:100AF0008091F2009FBF90E0089540918103509152
:100B0000820320917F033091800342175307B4F48E
:100B10009091E8009570E1F39091E80092FD19C082
:100B20008093F100809181039091820301968F73ED
:100B30009927892B19F48EEF8093E8008091810327
:100B4000909182030196909382038093810381E0C8
:100B5000089580E00895DF92EF92FF920F931F9324
:100B6000CF93DF93D82E8A01EB017B01E40EF51EB3
:100B7000CE15DF0559F0D7FE12C0FE0184910E9408
:100B80007D0521968111F4CF0FEF1FEFC801DF9192
:100B9000CF911F910F91FF90EF90DF900895888182
:100BA000EECF0F931F93CF93DF931F92CDB7DEB796
:100BB00082E0898342E450E063E778E080E80E94C5
:100BC000AB050E94E804DC0112960D911C91011501
:100BD000110589F0D801ED91FC910280F381E02D9F
:100BE000BE016F5F7F4FC801099597FD04C0F801F2
:100BF00000851185ECCF89810F90DF91CF911F91F6
:100C00000F910895615030F02091F100FC01208394
:100C10000196F8CF289884E6809393030895AF92C5
:100C2000BF92CF92DF92EF92FF920F931F93CF93D9
:100C3000DF936C017B018B01040F151FEB015E013B
:100C4000AE18BF08C017D10759F06991D601ED91D0
:100C5000FC910190F081E02DC6010995892B79F76F
:100C6000C501DF91CF911F910F91FF90EF90DF9021
:100C7000CF90BF90AF900895FC010E94D3063197AA
:100C800028F068517C4F8F4F9F4FF9CFAB01FC018B
:100C90000E94D306641775078E079F07C8F308954F
:100CA0008F929F92AF92BF92CF92DF92EF92FF927C
:100CB0000F931F93CF93DF936C017B018A01809187
:100CC0000D01882309F45AC080919403882309F404
:100CD00055C08091860380FF05C08091E00082604E
:100CE0008093E000E801B12C8AEFA82E93E0892ED2
:100CF0002AE3922E209711F4BB20C9F10E94D70459
:100D0000811108C0AA94AA20C9F181E090E00E9454
:100D10003C06F0CF8C171D0611F00CF08C2F9FB7FE
:100D2000F8948092E9002091E80025FD02C09FBF61
:100D3000E1CF282F30E0C21BD30BF701815020F008
:100D400041914093F100FACFE20EF31EBB2021F057
:100D50009092E800B12CEBCF8091E80085FDE7CFC1
:100D60009092E800BB24B394209709F3F3CF5D98E9
:100D700084E680938503101611063CF081E090E034
:100D8000F6019383828310E000E0C801DF91CF91E8
:100D90001F910F91FF90EF90DF90CF90BF90AF9099
:100DA0009F908F900895ACE6B3E02FB7F8947D91B3
:100DB0008D919C9166B52FBFA89B05C06F3F18F41D
:100DC0007F5F8F4F9F4F22E0660F771F881F991F0D
:100DD0002A95D1F708956F927F928F929F92AF924A
:100DE000BF92CF92DF92EF92FF920F931F93CF9318
:100DF000DF934C017B01C22F102F98E0A92EB12C5C
:100E0000642E669466946694712CCA018770992743
:100E1000892B79F5D40117962D913C91C70199271B
:100E2000B9010E949A17269DF001279DF00D369D6D
:100E3000F00D11248E0F9F1FD4011596ED91FC919A
:100E4000E80FF91F2081111112C0C095C223C08381
:100E5000DF91CF911F910F91FF90EF90DF90CF9096
:100E6000BF90AF909F908F907F906F900895C22B0E
:100E7000EECFD0E04770C42ED12C83E0660C771CF7
:100E80008A95E1F79E0101C0220F4A95EAF7012FEA
:100E9000A301B701C4010E94EB06A301485F5F4FA5
:100EA000C5018C199D0902C0D595C7958A95E2F7B1
:100EB000A7CF5F926F927F928F929F92AF92BF92D5
:100EC000CF92DF92EF92FF920F931F93CF93DF9316
:100ED000EC016A30F1F48D859E859C878B878B8928
:100EE0002F853889820F932F911D988B8F8781E0F2
:100EF00090E0DF91CF911F910F91FF90EF90DF90E5
:100F0000CF90BF90AF909F908F907F906F905F90A9
:100F10000895AB84BC84693031F429E0A20EB11C81
:100F2000BC86AB86E4CF3DEFA3163FEFB3060CF4CF
:100F30005BC08F819885A816B9060CF055C0CF8488
:100F4000D8888DEFC8168FEFD8060CF44DC0898570
:100F50009A85C816D9060CF047C060320CF46FE7CA
:100F600080EE860F9FE9960F9A3118F49FEFC91A09
:100F7000D90A8C3011F08B3119F42FEFC21AD20A32
:100F8000869534E0839FC00111249C0124553A4F7B
:100F90007901912C812C162F1170F701E80DF91DA4
:100FA000549011112BC0352D3F70532E3501680C14
:100FB000791C8C81882351F001E08989811100E03E
:100FC0002FE0A601B301CE010E94EB060989252D71
:100FD000A601B301CE010E94EB068FEF881A980A92
:100FE00094E089169104C9F68A8990E004962B85CD
:100FF0003C85820F931F9C878B8779CF52948FE01B
:101000005822D4CF20919903E0919703F09198034F
:10101000CF0102969093980380939703222319F0AF
:10102000859194910895808191810895CF92DF9266
:10103000EF92FF92CF93DF930E940208811520E880
:10104000920791F4809171008D7F809371001092CE
:1010500091004698479810926303DF91CF91FF90DB
:10106000EF90DF90CF90089521E0209363038130CB
:1010700020E8920751F48091950390919603909304
:101080009803809397030E94020897FD05C0209162
:101090006203222309F454C020916103211150C03E
:1010A00021E020936403EC01DF77209709F04BC027
:1010B00081E08093650346983FE9C32E3FE0D32E3D
:1010C000E12CF12CCAEFD0E0E091F803F091F903A4
:1010D0000995811103C081E08093650380916403C9
:1010E000882329F080916503882309F43FC047983D
:1010F0000E9402080097F1F19C01DE010E9477171F
:10110000DC01CB0129E0B595A795979587952A95A0
:10111000D1F7109290002AE020939100D09299008C
:10112000C09298008093660390936703A09368032E
:10113000B0936903809171008260809371008DCFBC
:1011400010926403B0CF9E0150E040E060E472E48E
:101150008FE090E00E94361769017A0181E0C81A99
:10116000D108E108F10810926503AECF4699BFCFD0
:10117000479ABECF8FEF9FEFDC01CBCFE1E7F0E0E6
:1011800080818D7F808310929903EAEEF3E0F093E3
:101190009803E0939703F0939603E093950380E917
:1011A00091E09183808384E690E09383828380E062
:1011B00090E8958384830C9416084F925F926F9207
:1011C0007F928F929F92AF92BF92CF92DF92EF92D7
:1011D000FF920F931F93CF93DF934C015901FC2D86
:1011E000C02FD0E0CE01880D991D181619060CF0FD
:1011F0006CC020E8821691040CF067C09B012E0D94
:10120000311D121613060CF060C0603471050CF02D
:101210005CC04115510509F458C0E62FE770FE2E59
:10122000DB0177FD179633E0B595A7953A95E1F781
:101230003A2F77FF04C0FF2011F03FEF3A0F6627E7
:1012400077276819790997FC02C070E060E0803860
:1012500091050CF44BC090E89819961BA32F032E10
:10126000000CBB0B1A2F10953F3F0CF010E021E053
:101270008E2D877009F420E0E694E694E694E20E61
:10128000AE0DB11D19971CF028E0E22EE31AE11A09
:10129000310F20E83203D0011124A80DB91DA60F8B
:1012A000B71F019F600D711D1124460F571F0F2D91
:1012B0000F2C000C110BF33009F41CC1C8F4F130F1
:1012C00009F4D0C0F23009F47CC0DF91CF911F91B6
:1012D0000F91FF90EF90DF90CF90BF90AF909F90D5
:1012E0008F907F906F905F904F900895902FB5CF23
:1012F000FA3FB1F1232F2E0DFB3F39F7321729F3B7
:10130000BD0162507C4FD12CC12CC91608F0A4C07D
:10131000FA01EC0DFD1DE491F0E04F01002E02C03A
:10132000880C991C0A94E2F737FD06C0FB01808106
:10133000E82CE0948E218083FF2061F0373054F454
:101340005B01F0E8AF0EB11CE92CE094F50180815F
:101350008E218083FFEFCF1ADF0A6F5F7F4FD5CFDB
:10136000232F2E0D321709F4B0CFBD0162507C4FF0
:10137000D12CC12CC91608F069C0FA01EC0DFD1D75
:10138000E491F0E04F01002E02C0880C991C0A94F1
:10139000E2F737FD04C0FB01808188298083FF20AC
:1013A00051F0373044F45B01F0E8AF0EB11CF501A9
:1013B000808189298083FFEFCF1ADF0A6F5F7F4F1B
:1013C000D9CF6FEF70E00F2C02C0660F771F0A9421
:1013D000E2F760957095772E232F2E0D321709F4C2
:1013E00074CFFD01E250FC4F6F01B12CA12CA91666
:1013F00038F5FA01EA0DFB1DE491F0E02F01002E13
:1014000002C0440C551C0A94E2F737FD05C0F601F2
:101410008081862384298083FF2059F037304CF463
:101420004601F0E88F0E911CF40180818721852907
:101430008083FFEFAF1ABF0A8FEFC81AD80AD7CF41
:101440003F5F4C0F5D1FA058BF4FC8CF3F5F4C0F91
:101450005D1FA058BF4F86CF3F5F4C0F5D1FA05848
:10146000BF4F4CCF6A0D7B1D232F2E0D321709F471
:101470002CCFFD01E250FC4F6F01B12CA12CA9161D
:1014800088F5FB01EA0DFB1D8490912C002E02C013
:10149000880C991C0A94E2F780949094FA01EA0D62
:1014A000FB1D6490712C002E02C0660C771C0A9400
:1014B000E2F737FD05C0F601808188218629808307
:1014C000FF2049F037303CF4F601E058FF4F8081AF
:1014D000892187298083FFEFAF1ABF0A8FEFC81ACF
:1014E000D80ACDCF3F5F4C0F5D1F6C0F7D1FA058FA
:1014F000BF4FBCCFC92ED12CFA01E60FF71FA25067
:10150000BC4F00E810E00C191D09CC19DD09BE0123
:10151000660F771F41E050E06A010F2C01C0CC0C30
:101520000A94EAF7592F2E2D792ECF93DF93ED01F0
:10153000EF96EF9622968590A590FF2059F08C9C0F
:101540004001AC9C500137302CF4E880B094EB2083
:10155000E928E99233233AF0EC90A094EA20E828B5
:10156000ED920C94B40A11965A9529F72A9551F0E8
:10157000572D33951124E60FF11DA00FB11DC00F9B
:10158000D11DD9CFDF91CF9111249FCE90E00C9443
:101590003C068FB18095807F669B88601C9B846031
:1015A00008953E9A3F9A81E0809360030895909158
:1015B0007903982329F090917A03982381E009F028
:1015C00080E0089590917903982329F490917A030B
:1015D000982381E009F480E00895CF93C82F0E94FA
:1015E000C90A982F9C2381E09C1380E0CF91089535
:1015F00080E00C949E0480389105B8F46034710545
:10160000A0F490E121E061FD24E060FD220F62FD85
:101610002295687F969FD0011124A80FA250BC4F3D
:101620000C90022A40FF02260C9208955F926F925E
:101630007F928F929F92AF92BF92CF92DF92EF9262
:10164000FF920F931F93CF93DF936D3089F0C0907B
:101650007D03D0907E036A30E9F410927C031092EF
:101660007B0388E0C80ED11CD0927E03C0927D031C
:1016700081E090E0DF91CF911F910F91FF90EF906B
:10168000DF90CF90BF90AF909F908F907F906F90A2
:101690005F900895609070035090000100917B036B
:1016A00010917C03E5E06E9FE0011124C455DF4FEB
:1016B0005801F12CF5E0E12CFF1629F0CE0101963E
:1016C000FE01E490EC01460188E0782EE0FC18C0B1
:1016D000462D651016C0E6947A94FFEF8F1A9F0A84
:1016E0007110F4CFF3948FEFA81AB80AE6E0FE1257
:1016F000E1CF0A5F1F4F10937C0300937B03B8CFA9
:10170000452DB401C5010E94FB0AE5CFCF92DF92BF
:10171000EF92FF920F931F93CF93DF937EE1C72E3B
:1017200071E0D72ED0E0C0E080E07E01289610E086
:1017300000E0F601E00FF11F9081923009F0B1C096
:1017400090911C01911152C090911801911126C0E5
:10175000980163E0220F331F6A95E1F76091100151
:101760007091110140910E0150910F01FA013C96C8
:101770002E173F079CF4465F5F4F285F3F4F42178D
:10178000530764F49B01205F3F4FE216F30634F4E5
:101790006C177D071CF40E94BE0881E0909118012F
:1017A000913021F5980153E0220F331F5A95E1F74C
:1017B000409110015091110160910E0170910F0143
:1017C000FB0132962E173F078CF4285F3F4F6217BC
:1017D000730764F49A01205F3F4FE216F30634F476
:1017E0004C175D071CF40E94BE0881E090911C011B
:1017F000911105C090911D01992309F452C0909157
:101800001801911126C0980143E0220F331F4A9519
:10181000E1F7609110017091110140910E0150911A
:101820000F01FA013C962E173F079CF4465F5F4F6D
:10183000285F3F4F4217530764F49B01285F3F4FD7
:10184000E216F30634F46C177D071CF40E94BE0800
:1018500081E090911801913021F5980193E0220FD9
:10186000331F9A95E1F74091100150911101609159
:101870000E0170910F01FB0132962E173F078CF479
:10188000285F3F4F6217730764F49A01285F3F4F48
:10189000E216F30634F44C175D071CF40E94BE08F0
:1018A00081E00F5F1F4F0032110509F042CF90E237
:1018B000C90ED11CC038D10509F037CFDF91CF91C7
:1018C0001F910F91FF90EF90DF90CF9008950895B2
:1018D00090E080E008958F929F92AF92BF920F9315
:1018E0001F93CF93DF93CDB7DEB7A1970FB6F894D0
:1018F000DEBF0FBECDBF19A2423008F44AE08E0110
:101900000F5D1F4F842E912CB12CA12CA5019401A9
:101910000E945517E62FB901CA01EA3044F5E05D8F
:10192000D801EE938D01232B242B252B79F790E002
:1019300080E0109769F0FD0101900020E9F73197F0
:10194000AF014A1B5B0BBD018EEF97E00E940F06B3
:10195000A1960FB6F894DEBF0FBECDBFDF91CF9139
:101960001F910F91BF90AF909F908F900895E95C69
:10197000D7CFCF92DF92EF92FF92CF93DF936C019C
:10198000990FEE08FF08F7FE19C06DE28EEF97E0A1
:101990000E945907EC0166277727CB016C197D0956
:1019A0008E099F094AE00E946B0C8C0F9D1FDF91EE
:1019B000CF91FF90EF90DF90CF9008954AE0C7015C
:1019C000B601DF91CF91FF90EF90DF90CF900C9414
:1019D0006B0C6F927F928F929F92AF92BF92CF9239
:1019E000DF92EF92FF920F931F93CF93DF9380913B
:1019F0001801813009F07FC080910E0190910F0194
:101A00008C01085F1F4F17FF02C0095F1F4FB3E033
:101A100015950795BA95E1F72091100130911101C4
:101A2000E9016096D7FD2796E3E0D595C795EA953D
:101A3000E1F7FE01A5E0EE0FFF1FAA95E1F7E25ED8
:101A4000FE4FE00FF11F218121110AC08C0197FF89
:101A500002C0095F1F4F43E0159507954A95E1F7CE
:101A60003E0122E0621A710823E0660C771C2A9579
:101A7000E1F78091FC039091FD03681A790A7801DF
:101A80008FEFE81AF80A33E0EE0CFF1C3A95E1F705
:101A90008091FA039091FB036701C81AD90A28E0E4
:101AA000E21AF108E81AF90ACE14DF042CF49E2D8C
:101AB0008F2D7601C92ED82E46018E189F0854010D
:101AC00097FE03C08FEFA81AB80AB594A794CE1456
:101AD000DF040CF442C041E0B301C7010E94FB0ADD
:101AE000B7FE05C021E0621A7108A80CB91C8FEF7F
:101AF000E81AF80AECCF8111B3CF80910E019091D2
:101B00000F018C0197FF02C0095F1F4F73E015950D
:101B100007957A95E1F72091100130911101E901C3
:101B20006096D7FD279653E0D595C7955A95E1F76E
:101B3000FE0165E0EE0FFF1F6A95E1F7E00FF11F70
:101B4000E35EFE4F208121118BCF8C01085F1F4F78
:101B500017FF81CF095F1F4F7ECF8EE190E09093FA
:101B60000C0880930B0890930A0880930908109240
:101B70000E0810920D08CE010E94B90C82E390E08D
:101B800090930C0880930B0890930A08809309089F
:101B900010920E0810920D08C8010E94B90C85E041
:101BA000CC0FDD1F8A95E1F7C25EDE4FC00FD11F5B
:101BB0008881882371F180911001909111018770C3
:101BC0009927892B31F510920C0810920B0810926E
:101BD0000A08109209088AE090E090930E0880931A
:101BE0000D0845E050E06FE473E08EEF97E00E944F
:101BF0000F0681E0DF91CF911F910F91FF90EF9041
:101C0000DF90CF90BF90AF909F908F907F906F901C
:101C1000089510920C0810920B0810920A08109266
:101C200009088AE090E090930E0880930D0843E045
:101C300050E065E573E08EEF97E00E940F0680E0CC
:101C4000D9CF82E090E00E941C1781110C94D10A38
:101C5000109260033E983F9808951F920F920FB61E
:101C60000F9211248F939F938091E1009091E10056
:101C7000937F9093E10083FF0FC01092E90091E001
:101C80009093EB001092EC0092E39093ED00109291
:101C9000940398E09093F00082FF22C093E0909329
:101CA000E9009091F200992319F09AE39093E800EB
:101CB00090918503992341F09091850391509093E1
:101CC0008503911101C05D9A90919303992341F08E
:101CD00090919303915090939303911101C0289A8E
:101CE00084FF18C08091E2008E7E81608093E200C4
:101CF0008091E1008F7E8093E100809186038E7E4B
:101D00008061809386039F918F910F900FBE0F90FB
:101D10001F90189580FFF7CF8091E2008E7E806142
:101D20008093E2008091E1008E7E8093E1008091BB
:101D300086038E7E8160E5CF1F920F920FB60F92C1
:101D40001124CF92DF92EF92FF920F931F932F9364
:101D50003F934F935F936F937F938F939F93AF9333
:101D6000BF93EF93FF93CF93DF93CDB7DEB76C971D
:101D7000DEBFCDBF1092E9008091E80083FF25C04F
:101D800068E0CE0145960E94020682EF8093E8004B
:101D90008D8987FF39C09091E80090FFFCCF982F84
:101DA000907609F034C19E894F89588D2F89F88C1F
:101DB000911131C0803861F5809184038093F100E6
:101DC0001092F1008EEF8093E8006C960FB6F894B5
:101DD000DEBF0FBECDBFDF91CF91FF91EF91BF91DD
:101DE000AF919F918F917F916F915F914F913F91B3
:101DF0002F911F910F91FF90EF90DF90CF900F9058
:101E00000FBE0F901F9018959EEF9093E800C7CFDC
:101E10001092F100D5CF913059F48111D3CF4130D8
:101E2000510581F6809184038D7F80938403CACF0E
:101E3000933049F48111C6CF4130510519F6809194
:101E400084038260F2CF953041F48091E80080FFF6
:101E5000FCCF20682093E300B5CF963009F0A9C0ED
:101E60000B8D1C8D22E01092E900109282031092DB
:101E70008103F2122EC01092800310927F030E9401
:101E8000D1051F8299E09983FA8291E09E8390EABE
:101E900098879AEF99872091810330918203275F79
:101EA0003F4F3C832B838D831092E9001092820375
:101EB000109281031093800300937F0349E050E068
:101EC000BE016F5F7F4F80E00E94AB050E94D1058D
:101ED00079CF1093800300937F030E94E804DC0114
:101EE00012960D911C910115110509F451C1D801EB
:101EF000ED91FC910480F581E02DBE016B5E7F4F7A
:101F0000C8010995009709F03EC1F80100851185C7
:101F1000EACFF3E0FF120EC08F89882309F440C096
:101F2000823061F440E867E087ED98E00E945F113D
:101F3000811148CF81E28093EB0047CF813029F4B3
:101F400040E86BE08BEC98E0F1CF833099F70E948A
:101F5000E804DC011296ED90FC908E010F5F1F4F9C
:101F60006801E114F10479F0D701ED91FC9106804C
:101F7000F781E02DB801C7010995080F111DF70180
:101F8000E084F184EECFD8011C92F601019000208C
:101F9000E9F73197BF016C197D0940E0C601C6CF52
:101FA00065EB78E0FB01449150E080E80E94AB05CE
:101FB00009CF973009F4BECF983021F481E08093A7
:101FC000F10000CF993009F0FDCE837009F0B2CF57
:101FD000EFE1F3E081E031E096E32191222371F01B
:101FE0008093E9003093EB00DF0111972C9120934F
:101FF000EC009093ED008F5F873079F78EE7809348
:10200000EA001092EA008F8980939403DBCE8B8DD7
:102010009C8D1092E900109282031092810390939C
:10202000800380937F03898D811192C08E899D8961
:10203000913A49F4813209F07DCF47E050E066E003
:1020400071E080E0B3CF913209F074CF833269F44C
:102050008F89988DB0E0A0E08093020190930301F6
:10206000A0930401B0930501ADCE803269F4809154
:10207000E80082FFFCCF67E086E091E00E94020664
:102080008BEF8093E8009ECE823209F09BCE8F8941
:1020900080930D01EEEFFFE7859194918B3F9C4D6E
:1020A00051F1E0E0F8E08091060190910701A091E4
:1020B0000801B0910901803B9440A105B105F1F4FC
:1020C00080910D0180FD1AC0EE3F8AE0F80789F586
:1020D00087E797E7918380838091600080938303F3
:1020E00088E19BE00FB6F894A895809360000FBE3E
:1020F0009093600067CEEEEFFAE0D5CF80819181BA
:102100008737974709F05ECEA89580916000886177
:10211000809360008091830380936000EE3F2AE00B
:10212000F20789F08091FE0A9091FF0A91838083E3
:1021300049CE808191818737980751F29093FF0AA9
:102140008093FE0AC5CF1092FF0A1092FE0A3ACE83
:102150000E94E804DC0112960D911C9101151105F5
:1021600009F4E8CED801ED91FC910190F081E02DC9
:10217000BE016B5E7F4FC8010995811123CEF80126
:1021800000851185EBCF181619060CF41BCED2CEA4
:10219000F1E0FF12BECE69EB78E004CF0F920FB6EC
:1021A0008F939F93EF93FF9380916B038D5F8D3798
:1021B00008F08D5780936B03E3E7F3E080818E4F47
:1021C000808391819F4F918382818F4F828383810E
:1021D0008F4F8383ECE6F3E080818F5F8083818182
:1021E0008F4F818382818F4F828383818F4F83833F
:1021F0008FB18F6066991C9B88278F3681F4809100
:102200006A03981B963068F0E0E0F8E087E7808387
:10221000818388E180936000F0936000FFCF90930A
:102220006A03FF91EF919F918F910FBE0F901895C8
:102230001F920F920FB60F9211242F933F934F933B
:102240005F936F937F938F939F93AF93BF93EF931E
:10225000FF938091660390916703A0916803B0910A
:1022600069030097A105B10539F12091650321119A
:1022700005C0369A209164032111379A0197A1096C
:10228000B109B7FD08C08093660390936703A093DC
:102290006803B0936903FF91EF91BF91AF919F9154
:1022A0008F917F916F915F914F913F912F910F90FF
:1022B0000FBE0F901F9018950E941608ECCFEF925A
:1022C000FF920F931F93CF93DF93F82E192FE62ED3
:1022D000042F81E0860F880F0E947D0583E00E9415
:1022E0007D05CF2DD12FEC0EFD2EF11CCE15DF0577
:1022F000B9F007FF13C0FE0184910E947D05182FDD
:1023000080E00E947D05812321968111EFCFDF912E
:10231000CF911F910F91FF90EF9008958881EDCF9D
:1023200081E0F5CFEAE9F3E01382128288EE93E0D0
:10233000A0E0B0E084839583A683B78389E293E02D
:10234000918380838FEF9FEF95878487E2E1F8E0A8
:102350001382128287E493E0918380838BE994E077
:102360009093F9038093F80380E090E89093F7034B
:102370008093F60346983E9A47983F9AEEEFF7E02F
:10238000138212828BE393E0918380838EEF93E03C
:102390009683858380E890E09087878380E490E04F
:1023A0009287818785E0838B81E0828B16861586F4
:1023B000108A178614861386818B1482EAEFF3E065
:1023C000AEE0B1E08D919C911197CC979183808381
:1023D00012968D919C918897938382830895789427
:1023E00083E084BD83E085BD81E080936E00E1E8F9
:1023F000F0E083E08083E0E881E08083E1E983E04E
:102400008083E0E981E08083E1EC87E08083E3EC96
:1024100081E08083E0EC82E08083E2EC81E08083F5
:10242000EAE787E0808380688083109294031092AB
:102430008403109286038091D70081608093D70037
:1024400080EA8093D80089B5806189BD89B58260B2
:1024500089BD09B400FEFDCF81E090E00E943C06FA
:102460008091D8008F7C80618093D8008091E000BB
:10247000807F8093E0008091E1008E7E8093E10078
:102480008DE08093E200559A209A81EC80937C0045
:1024900081EF85B987EE84B982E38BB982EF8AB97F
:1024A000769A6E9880EF81BB10BA80E58CBD81E092
:1024B0008DBD85E00E94C60A5F9A85E00E94C60A2B
:1024C0005C98ECE1F7E085918EBD00000DB407FE4D
:1024D000FDCFE932C1F75C9A81E88093640081E026
:1024E000809365000E94F80A80E80E94ED0A882324
:1024F000A9F05C9885EA8EBD00000DB407FEFDCF03
:102500005C9A2E982F982D98809164008062809319
:10251000640081E083BF889513BEFCCF84E00E94F5
:10252000ED0A8823B9F12D9884E80E94ED0A8823EA
:10253000A1F02D9A88EC0E94C60A2F986FEF82E0D6
:1025400090E00E94241784EF91E00E943C062F9AAD
:1025500084E80E94ED0A8111FBCF84E10E94ED0A1C
:102560008823A1F02D9A88EC0E94C60A2E9860E07C
:1025700082E090E00E94241784EF91E00E943C06E4
:102580002E9A84E10E94ED0A8111FBCF88EC0E9413
:10259000C60AC4CF2D9A0E94210E81E090E00E94CD
:1025A0001C17382F3470F32E81FF0BC031112E9879
:1025B000C1EFDFEF80E40E94ED0A882389F12E9AB3
:1025C0002F9A82E30E94C60A0E94C90A8111F9CF9C
:1025D00081E28093010181E0809300018093700388
:1025E0000E94210E0E94D10AC0E52C2E312CD4E18C
:1025F0006D2E712C14E6412E512C11E0AAE0FA2E1A
:10260000B2E8DB2E20917103222309F4A4C01092BA
:10261000710380E090E0892BA9F30E940000EDCFC8
:10262000FF2029F0C430D10511F42E9A2F9881E0B3
:102630000E949E044C2F4770D42E9E0103E03595D6
:1026400027950A95E1F7C9019695982F88279795C0
:10265000879582509C4F70E060E02E3FEFEF3E0781
:1026600071F18C010C561F4FDC0150E040E0FB0182
:10267000E459F94F5F01F501E40FF51FE491F0E033
:102680004F010D2C02C0880C991C0A94E2F72F3FD1
:10269000320739F05496EC905497E8285496EC920F
:1026A0005497DD2021F0F801E080E928E0824F5FB7
:1026B0005F4F0F5F1F4F119648355105E1F62F5FB1
:1026C0003F4F80589F4F685A7F4F603B710529F6F6
:1026D0000E94F80A8FE00E94C60A2196C931D105EE
:1026E00009F068CFFF2011F02F9A2D9880E991E032
:1026F0000E943C062D9A81E090E00E941C1780FF0A
:1027000060CF8AE090E00E941C179FEF980F9E3FD9
:1027100008F057CF22E330E030937C0320937B0313
:1027200028E330E030937E0320937D03CAE0D0E0BD
:10273000682F82E198E00E94160B2196CE010E943C
:102740001C17C031D105A1F70E94F80A88EE93E06A
:102750000E943C0636CF9091730380917203F92F4B
:10276000F81B8F2F30910101F31740F48F5F83170F
:1027700008F04FCF13BF889513BE4BCF1093710352
:1027800090937203E7E7F3E0808191810196808363
:102790009183EEEFF3E021112FEF8FEF219321933F
:1027A000219321938150D0F710927E0310927D03E4
:1027B00010927C0310927B0380917A0380937903BB
:1027C0000E94C90A80937A03FEE18F2EF1E09F2ECA
:1027D000B12CA12CD0E0C0E0F401EC0FFD1F408132
:1027E000442321F14F9DA0011124475D584FFA0168
:1027F00004913196E4904E5F5F4F8091FC0390917D
:10280000FD03B501681B790BA091FA03B091FB039E
:102810003AEFC32E30E020E0CE01E3E0880F991FAD
:10282000EA95E1F78A1B9B0B0E94DD082196C032D6
:10283000D10591F6F0E28F0E911C38E0A30EB11C89
:1028400040E8A416B10409F0C5CF80E20E94ED0A69
:102850008823A1F080911901811110C080911A0183
:1028600081110CC080911C01811108C080911D0153
:10287000811104C01093180110931B0180E20E9483
:10288000D70A811110921B0180E40E94ED0A88236F
:10289000A1F080911901811110C080911A0181115C
:1028A0000CC080911C01811108C080911D01811113
:1028B00004C01092180110931B0180E40E94D70AF3
:1028C000811110921B0188E00E94E20A8823C1F066
:1028D0008091190190911B01911188C2811110C042
:1028E00080911A0181110CC080911C01811108C0D6
:1028F00080911D01811104C01092140110931901DF
:1029000080E10E94ED0A81110E94E90C30920C08CE
:1029100020920B0830920A082092090870920E0843
:1029200060920D0880910E0190910F010E94B90CE8
:1029300050920C0840920B0850920A0840920908E5
:1029400070920E0860920D08809110019091110113
:102950000E94B90C80911B01882309F45CC20E947B
:10296000E90C8823D9F10E94860B811137C0809130
:102970001801809315018111D8C06091130170E096
:1029800080917703909178030E948617892B31F507
:1029900080910E0190910F018E3E91052CF40296CC
:1029A00090930F0180930E0180910E0190910F0181
:1029B000CD978138910548F48091FA039091FB03FB
:1029C00002969093FB038093FA03809116018F5F28
:1029D00080931601843010F01092160180911C0132
:1029E00090911B01992309F418C29091190191113A
:1029F00014C290911A01911110C2811111C28091DB
:102A00001D01811102C010931A0180911D018823BC
:102A100059F080911401843108F431C110921401ED
:102A200010921D0110931A0180911901882349F019
:102A300080911401843108F4A6C110931A011092F8
:102A4000190180911A01882349F10E94E90C811132
:102A5000CAC160911301669570E0809177039091EF
:102A600078030E948617892BC9F4809110019091F8
:102A700011019C01295131092034310550F4209174
:102A8000FC033091FD032F5F3F4F3093FD032093F4
:102A9000FC0301969093110180931001C0911601DF
:102AA000409118014D9DA00111244159584F60914A
:102AB0001001709111018091FC039091FD03681B3E
:102AC000790B80910E0190910F012091FA033091C2
:102AD000FB03821B930BFA0104913196E4904E5F45
:102AE0005F4FCC23C9F021E030E0EE2DE77011F408
:102AF00030E020E0EE2DE695E695E6952E0F311DAF
:102B0000029FD001039FB00D1124CA9F9001CB9F5B
:102B1000300D1124420F531F2AEFC22E30E020E067
:102B20000E94DD080E94F80A74CD813009F056CF6A
:102B30006091130170E080917703909178030E9477
:102B40008617892B09F04ACF80910E0190910F01D1
:102B5000893091052CF0029790930F0180930E011C
:102B600080910E0190910F01CD978138910508F069
:102B70002CCF8091FA039091FB03029722CF0E9401
:102B8000860B811152C120911301E0917703F091DE
:102B90007803622F669570E0CF010E948617892B1B
:102BA000F1F48091100190911101AC01495151094A
:102BB0004034510550F44091FC035091FD034150C5
:102BC00051095093FD034093FC0301979093110129
:102BD00080931001809114018F5F80931401622F04
:102BE00070E0CF010E948617892B09F00ECF8091EB
:102BF0001801811128C080910E0190910F018E3E25
:102C000091052CF4029690930F0180930E01809110
:102C10000E0190910F01CD978138910548F4809174
:102C2000FA039091FB0302969093FB038093FA03BF
:102C3000809116018F5F80931601843008F4E5CEF1
:102C400010921601E2CE813099F780910E01909199
:102C50000F01893091052CF0029790930F0180931A
:102C60000E0180910E0190910F01CD978138910551
:102C7000F8F68091FA039091FB030297D5CF0E945A
:102C8000E90C8111CBCE0E94860B8111C7CE209119
:102C90001301E0917703F0917803622F669570E05D
:102CA000CF010E948617892BF1F480911001909139
:102CB0001101AC01495151094034510550F4409182
:102CC000FC035091FD034F5F5F4F5093FD03409312
:102CD000FC030196909311018093100180911401DF
:102CE0008F5F80931401622F70E0CF010E948617DE
:102CF000892B09F099CE80911801811128C080910B
:102D00000E0190910F018E3E91052CF40296909346
:102D10000F0180930E0180910E0190910F01CD97CC
:102D20008138910548F48091FA039091FB03029653
:102D30009093FB038093FA03809116018F5F809339
:102D40001601843008F470CE109216016DCE8130D9
:102D500099F780910E0190910F01893091052CF027
:102D6000029790930F0180930E0180910E01909134
:102D70000F01CD9781389105F8F68091FA03909173
:102D8000FB030297D5CF0E94860B811156CE60912E
:102D90001301669570E080917703909178030E940B
:102DA0008617892B09F04DCE809110019091110169
:102DB0009C01295131092134310550F42091FC0343
:102DC0003091FD03215031093093FD032093FC0322
:102DD00001979093110180931001809114018F5FEE
:102DE000809314012ECE10921A0158CE811188CDF5
:102DF00080911A01811184CD80911C01811180CDB7
:102E000080911D0181117CCD1092140110921B0143
:102E100010931C0175CD80911C01882309F4F5CD18
:102E200080911401843108F4AACE109214011093F9
:102E30001D0110921C01E9CDF999FECF92BD81BD13
:102E4000F89A992780B50895262FF999FECF92BD5B
:102E500081BDF89A019700B4021639F01FBA20BD5F
:102E60000FB6F894FA9AF99A0FBE0895052E97FBBB
:102E70001EF400940E944D1757FD07D00E9455176D
:102E800007FC03D04EF40C944D17509540953095A7
:102E900021953F4F4F4F5F4F0895909580957095C6
:102EA00061957F4F8F4F9F4F0895A1E21A2EAA1B65
:102EB000BB1BFD010DC0AA1FBB1FEE1FFF1FA217EA
:102EC000B307E407F50720F0A21BB30BE40BF50BE7
:102ED000661F771F881F991F1A9469F76095709570
:102EE000809590959B01AC01BD01CF010895A29FF3
:102EF000B001B39FC001A39F700D811D1124911DCE
:102F0000B29F700D811D1124911D0895AA1BBB1B3A
:102F100051E107C0AA1FBB1FA617B70710F0A61BD9
:102F2000B70B881F991F5A95A9F780959095BC01FA
:102F3000CD01089597FB072E16F4009407D077FD76
:102F400009D00E94861707FC05D03EF49095819524
:102F50009F4F0895709561957F4F0895EE0FFF1F65
:0C2F60000590F491E02D0994F894FFCF47
:102F6C000110FFFFFFFF00E10000000000003C002B
:102F7C0068000202000000020000000000000200D5
:102F8C000000000000000000000000000000000035
:102F9C000000000000000000000000000002020021
:102FAC000000000000000000000000000000000015
:102FBC000000000000000000000000000002020001
:102FCC0000000000000000000000000000000000F5
:102FDC0000000000000000000000000000020200E1
:102FEC0000000000000000000000000000000000D5
:102FFC0000000000000000000000000000020200C1
:10300C0000000000000000000000000000000000B4
:10301C00000000000000000000000000000202019F
:10302C00010101010101010101010101030303037C
:10303C00010303030301010101010101010202006B
:10304C000000000000000000000000000000000074
:10305C00000000000000000000000000000202015F
:10306C000101000000000000000000000000000052
:10307C000000000000000000000000000002020040
:10308C000000000000000000000000000000000232
:10309C00020200000000000000000000000202011B
:1030AC0001010100000006060606060606060606D5
:1030BC0006060606060606060606000000020200C4
:1030CC0000000000000000000000000000000000F4
:1030DC0000000000000000000000000101020200DE
:1030EC0000000000000000000000000000000000D4
:1030FC0000000000000000000000000000020200C0
:10310C0000000000000000000000000000000000B3
:10311C000000020202030303030301010102020087
:10312C000000000101010101010101010101010186
:10313C00010100000000000000000000000202007D
:10314C000000000000000000000000000000000073
:10315C00000000000000000000000000000202015E
:10316C000101010101010101010101010101010143
:10317C00010101010101010101010101010200C173
:10318C00808100000000000000FC0450061D0512A8
:10319C0005630521053F050000000059070F06686F
:1031AC000C670C00000000160B0F06680C670C5324
:0A31BC004F4C4944004E4F540000F0
:00000001FF
