:100000000C94B4070C94DC070C94DC070C94DC070C
:100010000C94DC070C94DC070C94DC070C94DC07D4
:100020000C94DC070C94DC070C94C6100C9435116E
:100030000C94DC070C94DC070C94DC070C94DC07B4
:100040000C94DC070C94DC070C94DC070C94DC07A4
:100050000C94DC070C94DC070C94DC070C946713FD
:100060000C94DC070C94DC070C94DC070C94DC0784
:100070000C94DC070C94DC070C94DC070C94DC0774
:100080000C94B1130C94DC070C94DC070C94DC0783
:100090000C94DC070C94DC070C94DC070C94DC0754
:1000A0000C94DC070C94DC070C94DC0700000000C7
:1000B000003E5B4F5B3E3E6B4F6B3E1C3E7C3E1CEE
:1000C000183C7E3C181C577D571C1C5E7F5E1C0034
:1000D000183C1800FFE7C3E7FF0018241800FFE7EB
:1000E000DBE7FF30483A060E2629792926407F05AE
:1000F0000507407F05253F5A3CE73C5A7F3E1C1CC4
:1001000008081C1C3E7F14227F22145F5F005F5F83
:1001100006097F017F006689956A6060606060946F
:10012000A2FFA29408047E040810207E2010080874
:100130002A1C08081C2A08081E101010100C1E0C7F
:100140001E0C30383E3830060E3E0E060000000011
:100150000000005F00000007000700147F147F14F8
:10016000242A7F2A1223130864623649562050003D
:1001700008070300001C2241000041221C002A1C29
:100180007F1C2A08083E0808008070300008080814
:100190000808000060600020100804023E51494534
:1001A0003E00427F400072494949462141494D3352
:1001B0001814127F1027454545393C4A49493141B9
:1001C000211109073649494936464949291E000087
:1001D00014000000403400000008142241141414DC
:1001E0001414004122140802015909063E415D59C8
:1001F0004E7C1211127C7F494949363E41414122D1
:100200007F4141413E7F494949417F090909013EFA
:10021000414151737F0808087F00417F4100204021
:10022000413F017F081422417F404040407F021C33
:10023000027F7F0408107F3E4141413E7F0909094A
:10024000063E4151215E7F09192946264949493216
:1002500003017F01033F4040403F1F2040201F3FDC
:100260004038403F63140814630304780403615961
:10027000494D43007F4141410204081020004141A3
:10028000417F04020102044040404040000307084F
:100290000020545478407F2844443838444444284B
:1002A000384444287F385454541800087E090218F2
:1002B000A4A49C787F0804047800447D400020407A
:1002C000403D007F1028440000417F40007C0478BE
:1002D00004787C080404783844444438FC18242406
:1002E0001818242418FC7C08040408485454542486
:1002F00004043F44243C4040207C1C2040201C3C03
:100300004030403C44281028444C9090907C4464F9
:10031000544C44000836410000007700000041368C
:10032000080002010204023C2623263C1EA1A16112
:10033000123A4040207A3854545559215555794144
:100340002154547841215554784020545579400C1B
:100350001E527212395555555939545454593955FC
:100360005454580000457C410002457D420001453F
:100370007C40F0292429F0F0282528F07C545545AC
:10038000002054547C547C0A097F4932494949323F
:100390003248484832324A4848303A4141217A3A54
:1003A00042402078009DA0A07D39444444393D401E
:1003B00040403D3C24FF2424487E4943662B2FFCCB
:1003C0002F2BFF0929F620C0887E09032054547979
:1003D000410000447D413048484A32384040227A4A
:1003E000007A0A0A727D0D19317D2629292F2826C7
:1003F0002929292630484D402038080808080808CF
:100400000808382F10C8ACBA2F102834FA00007B27
:10041000000008142A142222142A1408950022002D
:1004200095AA005500AAAA55AA55AA000000FF00E7
:10043000101010FF00141414FF001010FF00FF1024
:1004400010F010F0141414FC001414F700FF000056
:10045000FF00FF1414F404FC141417101F10101FD5
:10046000101F1414141F00101010F0000000001FC3
:10047000101010101F10101010F010000000FF10CE
:100480001010101010101010FF10000000FF1400CA
:1004900000FF00FF00001F10170000FC04F41414FC
:1004A0001710171414F404F40000FF00F7141414C8
:1004B00014141414F700F7141414171410101F1048
:1004C0001F141414F4141010F010F000001F101F6B
:1004D0000000001F14000000FC140000F010F010D9
:1004E00010FF10FF141414FF141010101F00000050
:1004F00000F010FFFFFFFFFFF0F0F0F0F0FFFFFF54
:100500000000000000FFFF0F0F0F0F0F38444438AA
:10051000447C2A2A3E147E02020606027E027E02E5
:1005200063554941633844443C04407E201E200604
:10053000027E020299A5E7A5991C2A492A1C4C7241
:1005400001724C304A4D4D303048784830BC625AC8
:10055000463D3E494949007E0101017E2A2A2A2A58
:100560002A44445F444440514A444040444A514034
:100570000000FF0103E080FF000008086B6B0836F5
:1005800012362436060F090F060000181800000066
:100590001010003040FF0101001F01011E00191D55
:1005A0001712003C3C3C3C000000000000B0000082
:1005B000A170E150964F26900F1D070C0096690020
:1005C0004AE44A0048444000806810000F99FB8FBD
:1005D0009DBDBBFB77D4D4DF1F1A1AFE7F5D5DFF84
:1005E000805A0000A0A4AA0010BA3400FF5953F3A7
:1005F000FF9B9B9EFFB9B996FF9595D19FF4940FF1
:10060000FC295F91FF1838F8FF9294FFFF95D5F70A
:10061000BFB5DDD7F18F81F1F788C8F779C6467984
:1006200009FD9B090196F800828182805071620069
:100630007756560076763700A2B773010772060028
:100640007827500073347400775176007F55F70097
:1006500047711000324772007364730015A2750071
:1006600061679400009F6060F4F2F6F2F0F89C8EEF
:100670008783878E9CF8F00000FEFF0303030303CB
:10068000070EFCF80000FEFF0303030303070EFC44
:10069000F80000FFFF00000000000000FFFF000066
:1006A000FEFF8383838383C7EE7C380000F8FC0E53
:1006B00007030303070EFCF800003F7FE0C08080C3
:1006C000C0E07F3FFFFF01010101010101FFFF00C9
:1006D00000FFFF0C0C0C0C1C3E77E3C100007FFFF9
:1006E000C0C0C0C0C0E0703F1F00001F3F70E0C02E
:1006F000C0C0E0703F1F00007FFFC1C1C1C1C1E3A6
:10070000773E1C00001F3F70E0C0C0C0E0703F1F7C
:10071000000000000001FFFF01000000D5F08D1473
:10072000A1C881CFD9F1AF20001010000F46667F1D
:10073000F9F9FFF742E050000000000000010383D8
:10074000FFFFFF830000010000000000002F267F54
:10075000F9F9FFF74240400000000000004242F378
:10076000BF0FBFF340400000000000000F46667F4F
:10077000F9F9FFF742E0500000000000102173BBC0
:100780001F0F1FBB702011000000000F06C6E6FF00
:10079000F9F9FFF742F0480000000000004143F380
:1007A000BF0FBFF340410200000000101008089482
:1007B0006E8BDFFEF0000000000000000000001F54
:1007C000A0A1E7B03F1F200000000000000808942F
:1007D0006E8BDFFEF0000000000000000000005FF4
:1007E000A0E1A7F0BF1F200000000000000808944F
:1007F0006E8BDFFEF0000000000000000000205FB4
:10080000A0E1A7B0FF9F20000000000000080894AE
:100810006E8BDFFEF0000000000000000000005FB3
:10082000A0E1A7F0BF1F2000000000000010105042
:10083000E042F7FFF9F97F66460F00000000000173
:10084000000083FFFFFF8303010000000000004061
:100850004042F7FFF9F97F262F000000000000005A
:100860004040F3BF0FBFF3424200000000000050C1
:10087000E042F7FFF9F97F66460F00000000001123
:100880002070BB1F0F1FBB73211000000000004829
:10089000F042F7FFF9F9FFE6C6060F00000000027C
:1008A0004140F3BF0FBFF3434100000000000010C0
:1008B000100000F0FEDF8B6E9408080000000000BE
:1008C00000201F3FB0E7A1A01F00000000000000B3
:1008D000000000F0FEDF8B6E9408080000000000AE
:1008E00000201FBFF0A7E1A05F0000000000000093
:1008F000000000F0FEDF8B6E94080800000000008E
:1009000000209FFFB0A7E1A05F20000000000000D2
:10091000000000F0FEDF8B6E94080800000000006D
:1009200000201FBFF0A7E1A05F0000000000000052
:1009300000080800000000000000000808173F0B36
:10094000070F1B0F1708086B57576B6B57576B0830
:10095000083F53533F3F53533F0808570F2B13276C
:100960000B570B08080607070BFF1F0E060808E3C6
:10097000D3CBC7E3D3CBC70808FF010101010101B5
:10098000FF080803FFFF33130B0703080803070BD7
:100990001333FFFF030808030303FFFF03030308E8
:1009A00008172F5B2F172F5B2F08081F0F1F0F1F14
:1009B0000F1F0F0808246912FC423520180808622E
:1009C00095721E65A4AAC40808D6EF7CA664FED75B
:1009D000AA0808492AF53C3CF52A4908083C18BDF4
:1009E000E7E7BD183C0808E0FFF080E0FFF0800872
:1009F00008FC3EE32B3FE32AFC08084A6A941F9454
:100A00006A4A000808000000FF0000000008080310
:100A10003F0F0FFF3F07010808033F0B07FF3F078A
:100A200001080801031FFF070100000808EEAABB28
:100A3000AAEEAABBAA0808FF422418182442FF08FD
:100A40000877DDDD7777DDDD770808FF00FF000040
:100A5000FF00FF0808FFC03FE718EF10FF08085528
:100A6000AA55AA55AA55AA08088143271F173B7DF6
:100A7000FE080892FF5252FF94949F0808FF99DDE8
:100A8000FFFF99DDFF0808FF999999999999FF0847
:100A900008654F4F65604A4A600808614B4E6464C0
:100AA0004E4B610808604A4A60654F4F650808640C
:100AB0004E4B61614B4E640808604A4A60654F4F77
:100AC000650808614B4E64644E4B610808604A4AF1
:100AD00060654F4F650808644E4B61614B4E64087A
:100AE00008071D1F0502181A00080803191E04062E
:100AF0001C1B01080802181A00071D1F050808061C
:100B00001C1B0103191E040808050F0A00050F0F1E
:100B1000050808040E0F05010B0F050808050F0F47
:100B200005050D0B000808010B0F05040E0F050845
:100B30000800050707050007020808010306050469
:100B40000603050808070200050707050008080452
:100B5000060305010306050808050F0F05000A0A2C
:100B6000000808010B0E04040E0B010808000A0A15
:100B700000050F0F050808040E0B01010B0E0408F9
:100B800008000A0A00050F0F050808010B0E0404EF
:100B90000E0B010808050F0F05000A0A00080804DB
:100BA0000E0B01010B0E04080805030705050607D7
:100BB00005080805070700050707050808050607D3
:100BC00005050307050808050707050507070008C9
:100BD000080D070F0508020A0008080C060B01099A
:100BE000030E04080808020A000D070F050808098B
:100BF000030E040C060B01080808020A000D070F7B
:100C00000508080C060B0109030E0408080D070F60
:100C10000508020A00080809030E040C060B010867
:100C200008FAF0F0FAFFF5F5FF0808FBF1F4FEFE14
:100C3000F4F1FB0808FFF5F5FFFAF0F0FA0808FEFA
:100C4000F4F1FBFBF1F4FE08080C12110956A04068
:100C50000008080A152A152A3440800808F88C8AEA
:100C600089F97D3F1F0808C72E1C2854A4C8800896
:100C70000840A2550A2854240408080078C49C9F00
:100C8000BCBC78080830FCC492B684DC300808FF8D
:100C90003CFF3CFF3CFF00080878AD87ABBBBD784C
:100CA000000808F0909CF4273D090F08083C7A8161
:100CB000FFC3BD423C080807132D13430D1307085B
:100CC000080E265A26861A260E08081C4CB44C0C10
:100CD000344C1C08083898689818689838080870C8
:100CE00030D03030D030700808E060A06060A06084
:100CF000E00808C0C040C0C040C0C0080880808074
:100D0000808080808008084B57472B6B07570B0863
:100D10000896AE8E56D60EAE1608082C5C1CACACEF
:100D20001C5C2C080858B838585838B8580808B00F
:100D30007070B0B07070B0080860E0E06060E0E033
:100D4000600808C0C0C0C0C0C0C0C00808808080A3
:100D500080808080800808AB55AB55AB55AB5508FB
:100D60000856AA56AA56AA56AA0808AC54AC54ACBF
:100D700054AC54080858A858A858A858A80808B04F
:100D800050B050B050B050080860A060A060A060A3
:100D9000A00808C040C040C040C040080880808013
:100DA00080808080800808070303037B0F06060805
:100DB000080E060606F61E0C0C08081C0C0C0CECA3
:100DC0003C1818080838181818D8783030080870F7
:100DD000303030B0F060600808E060606060E0C013
:100DE000C00808C0C0C0C0C0C08080080880808023
:100DF00080808000001010000004BEFEF6BF1300CB
:100E000000000000000000000CEFFFBF5BF7EF8C5C
:100E100000000000000000000004BEFEF6BF13004A
:100E20000000000000000000000F1FF8F79F0F00F7
:100E300000000000000000000004BEFEF6BF13002A
:100E400000000000000000000CEFFFBF5BF7EF8C1C
:100E500000000000000000000004BEFEF6BF13000A
:100E6000000000000000000CCEE7BF3F1F3F77CE20
:100E70006C000000000000101000000013BFF6FE20
:100E8000BE0400000000000000006CCE773F1F3F52
:100E9000BFE7CE0C000000000000000013BFF6FE0C
:100EA000BE040000000000000000008CEFF75BBFF4
:100EB000FFEF0C00000000000000000013BFF6FE72
:100EC000BE04000000000000000000000F9FF7F9C2
:100ED0001F0F0000000000000000000013BFF6FE1E
:100EE000BE040000000000000000008CEFF75BBFB4
:100EF000FFEF0C000000000000080B0002020200DF
:100F00000009040000010202000005240010010590
:100F100024010101042402060524060001070581BD
:100F20000310004009040100020A00000007050246
:100F30000240000007058302400000040309041278
:100F4000010002EF0201404123368000010102034B
:100F50000141726475696E6F204C4C4300417264AC
:100F600075626F7900002B1411241FBECFEFDAE0F9
:100F7000DEBFCDBF13E0A0E0B1E0E2E9FDE302C0D7
:100F800005900D92A035B107D9F728E0A0E5B3E0B0
:100F900001C01D92AC33B207E1F717E0C4EBD7E014
:100FA00004C02197FE010E94C11EC33BD107C9F7AF
:100FB0000E9498140C94C71E0C9400008091560354
:100FC0000895EF92FF920F931F93CF93DF93CDB7C6
:100FD000DEB72C970FB6F894DEBF0FBECDBF4983A6
:100FE0005A836B837C839E83EF82F88609871A87F6
:100FF0003C8749815A812F813885840F952F911D17
:1010000028173907C4F4285F3F4F421753079CF451
:101010004B815C8169857A858E81840F952F911D26
:101020006817790744F42C85260F372F311D81E08E
:10103000421753070CF080E02C960FB6F894DEBFF1
:101040000FBECDBFDF91CF911F910F91FF90EF9019
:1010500008955F926F927F928F929F92AF92BF920C
:10106000CF92DF92EF92FF920F931F93CF93DF9374
:10107000CDB7DEB72C970FB6F894DEBF0FBECDBF4D
:101080008EE0882E81E0982ED12CC12C512C340179
:10109000B12CA12CF30181913F019FEF980F973064
:1010A00038F097EE980F963318F08A55803248F54D
:1010B0008091180381114EC0EA2CBA82A9820C2DAE
:1010C000DC82CB8280911003909111034096209195
:1010D0000E0330910F032F5F3F4F422F38872F832E
:1010E000682F9A878987FA801C8128E031E058852B
:1010F0007A8586E091E00E94E107882311F055246B
:101100005394F8E0AF0EB11CA11481E0B80611F6BB
:10111000E8E0CE0ED11CF0E28F0E911C80E8C816DC
:10112000D10409F0B4CF852D2C960FB6F894DEBF0C
:101130000FBECDBFDF91CF911F910F91FF90EF9028
:10114000DF90CF90BF90AF909F908F907F906F90E7
:101150005F9008958130A9F6AFCF3F924F925F9292
:101160006F927F928F929F92AF92BF92CF92DF92B7
:10117000EF92FF920F931F93CF93DF93CDB7DEB71C
:101180002D970FB6F894DEBF0FBECDBF8EE0882E30
:1011900081E0982ED12CC12C412C3324339434017E
:1011A000B12CA12CF30151903F01FDEDF50DFD8710
:1011B000FC3208F05BC0EA2CBA82A9820C2DDC82DA
:1011C000CB828091100390911103409620910E03E1
:1011D00030910F03422F2F833887682F9A87898792
:1011E000FA801C8128E031E058857A8588E091E01A
:1011F0000E94E1078823D1F19D85943060F095ED40
:10120000950D903140F091EC950D943020F099EBD4
:10121000950D943078F490911803911108C0409086
:101220001C0341104FC090911B03911103C03092D9
:101230001803482E99ED950D943048F095EC950DD6
:10124000943028F0952D977F9354943078F49091B2
:101250001803913041F440901C03411035C0909127
:101260001B03911103C010921803482EE8E0AE0E44
:10127000B11CA114F1E0BF0609F094CF80E2880E02
:10128000911C98E0C90ED11CE0E8CE16D10409F0FB
:1012900086CF842D2D960FB6F894DEBF0FBECDBF3E
:1012A000DF91CF911F910F91FF90EF90DF90CF9042
:1012B000BF90AF909F908F907F906F905F904F9076
:1012C0003F900895412CB6CF412CD0CFE4E2F4E01A
:1012D000A0E0B8E000800EBC8111012C1197A0FDA8
:1012E000FDCF0192B9F70DB40895FC0180918A03F6
:1012F000882311F13FB7F89482E08093E9002091B0
:10130000F200822F90E01816190614F481E090E0A4
:10131000882339F0289844E6409389034091F100EE
:101320004083222339F02091F200211103C02BE6E3
:101330002093E8003FBF08958FEF9FEF08952FB7E8
:10134000F89483E08093E9009091E800892F8072FF
:1013500095FF04C09091F20080E4891B2FBF08958F
:101360008091810381110DC082E080937D0384E030
:1013700080937E031092800310927F0381E080931C
:1013800081038DE793E00895CF93DF931F92CDB74C
:10139000DEB76983DC01ED91FC910280F381E02DE1
:1013A00041E050E0BE016F5F7F4F09950F90DF91E4
:1013B000CF91089583E08093E9008091F200882323
:1013C00019F08AE38093E80008950E949F0990E055
:1013D0000895CF93DF931F92CDB7DEB7FC018485CC
:1013E000958597FD08C02FEF3FEF358724870F9035
:1013F000DF91CF910895CE0101960E947509019762
:1014000019F4898190E0F3CF8FEF9FEFF0CF0F9326
:101410001F93CF93DF931F92CDB7DEB78C01FC01F2
:101420008485958597FF0BC0CE0101960E947509B2
:10143000019771F4898190E0F80195878487F8011C
:10144000848595850F90DF91CF911F910F9108951D
:101450008FEF9FEFF1CFFC018485958597FD0BC041
:101460009FB7F89482E08093E9008091F2009FBFDB
:1014700090E0019608959FB7F89482E08093E90088
:101480008091F2009FBF90E00895409177035091C2
:101490007803209175033091760342175307B4F413
:1014A0009091E8009570E1F39091E80092FD19C0E9
:1014B0008093F100809177039091780301968F7368
:1014C0009927892B19F48EEF8093E8008091770398
:1014D000909178030196909378038093770381E04D
:1014E000089580E00895DF92EF92FF920F931F938B
:1014F000CF93DF93D82E8A01EB017B01E40EF51E1A
:10150000CE15DF0559F0D7FE12C0FE0184910E946E
:10151000450A21968111F4CF0FEF1FEFC801DF912B
:10152000CF911F910F91FF90EF90DF9008958881E8
:10153000EECF0F931F93CF93DF931F92CDB7DEB7FC
:1015400082E0898342E450E069EF7EE080E80E9417
:10155000730A0E94B009DC0112960D911C910115CD
:10156000110589F0D801ED91FC910280F381E02D05
:10157000BE016F5F7F4FC801099597FD04C0F80158
:1015800000851185ECCF89810F90DF91CF911F915C
:101590000F910895615030F02091F100FC012083FB
:1015A0000196F8CF289884E6809389030895AF9236
:1015B000BF92CF92DF92EF92FF920F931F93CF9340
:1015C000DF936C017B018B01040F151FEB015E01A2
:1015D000AE18BF08C017D10759F06991D601ED9137
:1015E000FC910190F081E02DC6010995892B79F7D6
:1015F000C501DF91CF911F910F91FF90EF90DF9088
:10160000CF90BF90AF900895FC010E949B0B319743
:1016100028F068517C4F8F4F9F4FF9CFAB01FC01F1
:101620000E949B0B641775078E079F07C8F30895E8
:101630008F929F92AF92BF92CF92DF92EF92FF92E2
:101640000F931F93CF93DF936C017B018A018091ED
:101650000D01882309F45AC080918A03882309F474
:1016600055C080917C0380FF05C08091E0008260BE
:101670008093E000E801B12C8AEFA82E93E0892E38
:101680002AE3922E209711F4BB20C9F10E949F09F2
:10169000811108C0AA94AA20C9F181E090E00E94BB
:1016A000040BF0CF8C171D0611F00CF08C2F9FB798
:1016B000F8948092E9002091E80025FD02C09FBFC8
:1016C000E1CF282F30E0C21BD30BF701815020F06F
:1016D00041914093F100FACFE20EF31EBB2021F0BE
:1016E0009092E800B12CEBCF8091E80085FDE7CF28
:1016F0009092E800BB24B394209709F3F3CF5D9850
:1017000084E680937B03101611063CF081E090E0A4
:10171000F6019383828310E000E0C801DF91CF914E
:101720001F910F91FF90EF90DF90CF90BF90AF90FF
:101730009F908F900895A2E6B3E02FB7F8947D9123
:101740008D919C9166B52FBFA89B05C06F3F18F483
:101750007F5F8F4F9F4F22E0660F771F881F991F73
:101760002A95D1F708956F927F928F929F92AF92B0
:10177000BF92CF92DF92EF92FF920F931F93CF937E
:10178000DF934C017B01C22F102F98E0A92EB12CC2
:10179000642E669466946694712CCA0187709927AA
:1017A000892B79F5D40117962D913C91C701992782
:1017B000B9010E94AD1E269DF001279DF00D369DBA
:1017C000F00D11248E0F9F1FD4011596ED91FC9101
:1017D000E80FF91F2081111112C0C095C223C083E8
:1017E000DF91CF911F910F91FF90EF90DF90CF90FD
:1017F000BF90AF909F908F907F906F900895C22B75
:10180000EECFD0E04770C42ED12C83E0660C771C5D
:101810008A95E1F79E0101C0220F4A95EAF7012F50
:10182000A301B701C4010E94B30BA301485F5F4F3E
:10183000C5018C199D0902C0D595C7958A95E2F717
:10184000A7CF5F926F927F928F929F92AF92BF923B
:10185000CF92DF92EF92FF920F931F93CF93DF937C
:10186000EC016A30F1F48D859E859C878B878B898E
:101870002F853889820F932F911D988B8F8781E058
:1018800090E0DF91CF911F910F91FF90EF90DF904B
:10189000CF90BF90AF909F908F907F906F905F9010
:1018A0000895AB84BC84693031F429E0A20EB11CE8
:1018B000BC86AB86E4CF3DEFA3163FEFB3060CF436
:1018C0005BC08F819885A816B9060CF055C0CF84EF
:1018D000D8888DEFC8168FEFD8060CF44DC08985D7
:1018E0009A85C816D9060CF047C060320CF46FE731
:1018F00080EE860F9FE9960F9A3118F49FEFC91A70
:10190000D90A8C3011F08B3119F42FEFC21AD20A98
:10191000869534E0839FC00111249C0124553A4FE1
:101920007901912C812C162F1170F701E80DF91D0A
:10193000549011112BC0352D3F70532E3501680C7A
:10194000791C8C81882351F001E08989811100E0A4
:101950002FE0A601B301CE010E94B30B0989252D0A
:10196000A601B301CE010E94B30B8FEF881A980A2B
:1019700094E089169104C9F68A8990E004962B8533
:101980003C85820F931F9C878B8779CF52948FE081
:101990005822D4CF20918F03E0918D03F0918E03D4
:1019A000CF01029690938E0380938D03222319F02A
:1019B000859194910895808191810895CF92DF92CD
:1019C000EF92FF92CF93DF930E94CA0C811520E81B
:1019D000920791F4809171008D7F80937100109235
:1019E00091004698479810925903DF91CF91FF904C
:1019F000EF90DF90CF90089521E02093590381303C
:101A000020E8920751F480918B0390918C0390937E
:101A10008E0380938D030E94CA0C97FD05C0209110
:101A20005803222309F454C020915703211150C0B8
:101A300021E020935A03EC01DF77209709F04BC097
:101A400081E080935B0346983FE9C32E3FE0D32EAD
:101A5000E12CF12CCAEFD0E0E091EE03F091EF031E
:101A60000995811103C081E080935B0380915A0343
:101A7000882329F080915B03882309F43FC04798AD
:101A80000E94CA0C0097F1F19C01DE010E948A1E9F
:101A9000DC01CB0129E0B595A795979587952A9507
:101AA000D1F7109290002AE020939100D0929900F3
:101AB000C092980080935C0390935D03A0935E03B3
:101AC000B0935F03809171008260809371008DCF2D
:101AD00010925A03B0CF9E0150E040E060E472E4FF
:101AE0008FE090E00E94491E69017A0181E0C81AE6
:101AF000D108E108F10810925B03AECF4699BFCF41
:101B0000479ABECF8FEF9FEFDC01CBCF9C01E1E77F
:101B1000F0E090819D7F908310928F03E0EEF3E0E0
:101B2000F0938E03E0938D03F0938C03E0938B038B
:101B30003183208384E690E09383828380E090E881
:101B4000958384830C94DE0C4F925F926F927F9208
:101B50008F929F92AF92BF92CF92DF92EF92FF92BD
:101B60000F931F93CF93DF93CDB7DEB72C970FB6AC
:101B7000F894DEBF0FBECDBF9EE0892E91E0992E76
:101B8000D12CC12C512C3401B12CA12C89E1482E2F
:101B9000F3018081841117C180911B03882309F40C
:101BA00055C080911803811127C0EA2CBA82A982FE
:101BB0000C2DDC82CB822091100330911103809197
:101BC0000E0390910F030296482F98878F83622F00
:101BD00029873A87FA801C8128E038E058857A8581
:101BE00088E090E10E94E107082F882329F084E62D
:101BF00090E00E94860D502E80911803813031F5BF
:101C0000EA2CBA82A9820C2DDC82CB82809110034F
:101C10002091110390910E0330910F03492F9F8360
:101C20003887682F89872A87FA801C8128E038E066
:101C300058857A8582E090E10E94E107082F882389
:101C400029F088EC90E00E94860D502E80911C03B4
:101C5000811105C080911D03882309F455C080912E
:101C60001803811127C0EA2CBA82A9820C2DDC82CC
:101C7000CB82209110033091110380910E0390913B
:101C80000F030A96482F98878F83622F29873A87F8
:101C9000FA801C8128E038E058857A8584E098E055
:101CA0000E94E107082F882329F08CE291E00E942E
:101CB000860D502E80911803813031F5EA2CBA82BE
:101CC000A9820C2DDC82CB8280911003209111031C
:101CD00090910E0330910F03492F9F833887682F0F
:101CE00089872A87FA801C8128E038E058857A8520
:101CF00082E098E00E94E107082F882329F080E91C
:101D000091E00E94860D502E80911903811105C02B
:101D100080911A03882309F456C080911803811119
:101D200027C0EA2CBA82A9820C2DDC82CB822091BA
:101D300010033091110380910E0390910F030296CE
:101D4000482F98878F83622F29873A87FA801C81D2
:101D500028E038E058857A8586E098E00E94E1071F
:101D6000082F882329F08CEB92E00E94860D502EDC
:101D700080911803813039F5EA2CBA82A9820C2DA2
:101D8000DC82CB82209110033091110380910E03ED
:101D900090910F030296482F98878F83622F29878F
:101DA0003A87FA801C8128E038E058857A8586E0F9
:101DB00098E00E94E107082F882329F08CEB92E03D
:101DC0000E94860D502E4394F3E24F12E1CE8FEF26
:101DD000681A780AE8E0AE0EB11CA114F1E0BF0663
:101DE00009F0D4CE88E0C80ED11CE0E28E0E911C22
:101DF000F0E8CF16D10409F0C6CE852D2C960FB68B
:101E0000F894DEBF0FBECDBFDF91CF911F910F9130
:101E1000FF90EF90DF90CF90BF90AF909F908F900A
:101E20007F906F905F904F9008958F929F92AF92A6
:101E3000BF92CF92DF92EF92FF920F931F93CF93B7
:101E4000DF93EC014115510509F4C5C0FA01C490B6
:101E5000319694914E5F5F4FAC2DB0E02223E1F0BC
:101E600001E010E0892F877011F410E000E0E92F05
:101E7000E695E695E695E00FF12FF11DEA9F8001CA
:101E8000EB9F100DFA9F100D1124209FF001219F50
:101E9000F00D11244E0F5F1F8D010C0F1D1F10162A
:101EA00011060CF098C0C038D1050CF094C09B010D
:101EB000290F311D121613060CF08DC06034710508
:101EC0000CF089C04115510509F485C0F62FF77053
:101ED000EF2E9B0177FF02C0295F3F4FE3E035956E
:101EE0002795EA95E1F7F22F77FF04C0EE2011F075
:101EF000FFEFF20F222733272C1B3D0BD7FD02C02B
:101F000030E020E0FC2C003811051CF080E8F82EB1
:101F1000FC1AF21A6F2F0F2E000C770B162F10954C
:101F2000FF3F0CF010E0E1E0892F877009F4E0E05A
:101F30009695969596959E0F690F711D693071055E
:101F400014F098E09F1BD12EDF0E6D2D70E8670313
:101F500050011124B5016C0F7D1F620F731FC19ECC
:101F6000200D311D1124420F531F2E2D0E2C000C5D
:101F7000330B9F0F9D1579F1EB01CC5DDB4F10E02A
:101F800000E00F1510F5FA01E00FF11FE491F0E009
:101F90004F01022E02C0880C991C0A94E2F7D7FC6C
:101FA00003C0888188298883EE2059F086E08D154A
:101FB00044F05E01E0E8AE0EB11CF5018081892994
:101FC00080830F5F1F4F2196DCCFD3944A0F5B1F96
:101FD00060587F4FCFCFDF91CF911F910F91FF902E
:101FE000EF90DF90CF90BF90AF909F908F9008952B
:101FF00090E00C94040B8FB18095807F669B886085
:102000001C9B846008953E9A3F9A81E0809356031A
:1020100008956F927F928F929F92AF92BF92CF92CC
:10202000DF92EF92FF920F931F93CF93DF9300D035
:102030001F92CDB7DEB76D3081F060907303709062
:1020400074036A30F1F41092720310927103C301A9
:102050000896909374038093730381E090E00F904F
:102060000F900F90DF91CF911F910F91FF90EF9004
:10207000DF90CF90BF90AF909F908F907F906F90A8
:102080000895B0906603A0900001209171033091F3
:10209000720395E0699FF0011124E455FF4FC901D7
:1020A000812C50E1F52EA5E050E08A1629F0BF0101
:1020B0006F5F7F4F5491FB01B30148E0E42E50FD68
:1020C00015C09B2CBA1013C05695EA946F5F7F4FD2
:1020D000E110F5CF83940196A6E08A12E4CF2A5F3F
:1020E0003F4F3093720320937103B7CF9A2C8038FF
:1020F000910550F76034710538F78B0141E001FD1F
:1021000044E000FD440F02FD4295087FF09ED0019F
:102110001124A80FAC5DBB4F0C90042A90FE04263E
:102120000C92D2CF90916F03982329F09091700375
:10213000982381E009F080E0089590916F0398233F
:1021400029F490917003982381E009F480E00895C8
:10215000CF93C82F0E94FB0F982F9C2381E09C13E4
:1021600080E0CF91089580E00C946609089590E096
:1021700080E0089582E090E00E942F1E81110C946F
:102180000310109256033E983F9808951F920F92A5
:102190000FB60F9211248F939F938091E10090913D
:1021A000E100937F9093E10083FF0FC01092E9005C
:1021B00091E09093EB001092EC0092E39093ED008D
:1021C00010928A0398E09093F00082FF22C093E07F
:1021D0009093E9009091F200992319F09AE390937B
:1021E000E80090917B03992341F090917B039150FB
:1021F00090937B03911101C05D9A9091890399237B
:1022000041F090918903915090938903911101C0FD
:10221000289A84FF18C08091E2008E7E81608093AE
:10222000E2008091E1008F7E8093E10080917C0349
:102230008E7E806180937C039F918F910F900FBE63
:102240000F901F90189580FFF7CF8091E2008E7E4F
:1022500080618093E2008091E1008E7E8093E100B6
:1022600080917C038E7E8160E5CF1F920F920FB626
:102270000F921124CF92DF92EF92FF920F931F9350
:102280002F933F934F935F936F937F938F939F937E
:10229000AF93BF93EF93FF93CF93DF93CDB7DEB7A9
:1022A0006C97DEBFCDBF1092E9008091E80083FFFC
:1022B00025C068E0CE0145960E94CA0A82EF80934D
:1022C000E8008D8987FF39C09091E80090FFFCCF2E
:1022D000982F907609F034C19E894F89588D2F89A7
:1022E000F88C911131C0803861F580917A03809328
:1022F000F1001092F1008EEF8093E8006C960FB61B
:10230000F894DEBF0FBECDBFDF91CF91FF91EF916B
:10231000BF91AF919F918F917F916F915F914F91FD
:102320003F912F911F910F91FF90EF90DF90CF90F1
:102330000F900FBE0F901F9018959EEF9093E8009E
:10234000C7CF1092F100D5CF913059F48111D3CF7E
:102350004130510581F680917A038D7F80937A0315
:10236000CACF933049F48111C6CF4130510519F6D7
:1023700080917A038260F2CF953041F48091E80039
:1023800080FFFCCF20682093E300B5CF963009F0A2
:10239000A9C00B8D1C8D22E01092E90010927803E9
:1023A00010927703F2122EC01092760310927503EA
:1023B0000E94990A1F8299E09983FA8291E09E8394
:1023C00090EA98879AEF9987209177033091780364
:1023D000275F3F4F3C832B838D831092E90010923F
:1023E000780310927703109376030093750349E006
:1023F00050E0BE016F5F7F4F80E00E94730A0E9431
:10240000990A79CF10937603009375030E94B0095F
:10241000DC0112960D911C910115110509F451C1B1
:10242000D801ED91FC910480F581E02DBE016B5E39
:102430007F4FC8010995009709F03EC1F80100855A
:102440001185EACFF3E0FF120EC08F89882309F4CB
:1024500040C0823061F440E867E08DE59FE00E9473
:10246000F813811148CF81E28093EB0047CF813090
:1024700029F440E86BE081E59FE0F1CF833099F7E4
:102480000E94B009DC011296ED90FC908E010F5F66
:102490001F4F6801E114F10479F0D701ED91FC912F
:1024A0000680F781E02DB801C7010995080F111DBD
:1024B000F701E084F184EECFD8011C92F60101907F
:1024C0000020E9F73197BF016C197D0940E0C60192
:1024D000C6CF6BE37FE0FB01449150E080E80E94AF
:1024E000730A09CF973009F4BECF983021F481E008
:1024F0008093F10000CF993009F0FDCE837009F090
:10250000B2CFEFE1F3E081E031E096E321912223C5
:1025100071F08093E9003093EB00DF0111972C916B
:102520002093EC009093ED008F5F873079F78EE772
:102530008093EA001092EA008F8980938A03DBCEB1
:102540008B8D9C8D1092E900109278031092770386
:102550009093760380937503898D811192C08E8943
:102560009D89913A49F4813209F07DCF47E050E0EE
:1025700066E071E080E0B3CF913209F074CF83322E
:1025800069F48F89988DB0E0A0E080930201909368
:102590000301A0930401B0930501ADCE803269F42C
:1025A0008091E80082FFFCCF67E086E091E00E9426
:1025B000CA0A8BEF8093E8009ECE823209F09BCE50
:1025C0008F8980930D01EEEFFFE7859194918B3F0A
:1025D0009C4D51F1E0E0F8E08091060190910701F7
:1025E000A0910801B0910901803B9440A105B1057B
:1025F000F1F480910D0180FD1AC0EE3F8AE0F807EA
:1026000089F587E797E791838083809160008093C5
:10261000790388E19BE00FB6F894A8958093600059
:102620000FBE9093600067CEEEEFFAE0D5CF8081C9
:1026300091818737974709F05ECEA8958091600019
:102640008861809360008091790380936000EE3F01
:102650002AE0F20789F08091FE0A9091FF0A9183A7
:10266000808349CE808191818737980751F290937A
:10267000FF0A8093FE0AC5CF1092FF0A1092FE0A4D
:102680003ACE0E94B009DC0112960D911C91011501
:10269000110509F4E8CED801ED91FC910190F0818B
:1026A000E02DBE016B5E7F4FC8010995811123CEDD
:1026B000F80100851185EBCF181619060CF41BCE16
:1026C000D2CEF1E0FF12BECE6FE37FE004CF0F92D7
:1026D0000FB68F939F93EF93FF93809161038D5F6C
:1026E0008D3708F08D5780936103E9E6F3E0808130
:1026F0008E4F808391819F4F918382818F4F828300
:1027000083818F4F8383E2E6F3E080818F5F808354
:1027100081818F4F818382818F4F828383818F4F0D
:1027200083838FB18F6066991C9B88278F3681F4D5
:1027300080916003981B963068F0E0E0F8E087E74E
:102740008083818388E180936000F0936000FFCFF5
:1027500090936003FF91EF919F918F910FBE0F9027
:1027600018951F920F920FB60F9211242F933F933B
:102770004F935F936F937F938F939F93AF93BF9389
:10278000EF93FF9380915C0390915D03A0915E03B2
:10279000B0915F030097A105B10539F120915B036A
:1027A000211105C0369A20915A032111379A0197B9
:1027B000A109B109B7FD08C080935C0390935D0344
:1027C000A0935E03B0935F03FF91EF91BF91AF9130
:1027D0009F918F917F916F915F914F913F912F9139
:1027E0000F900FBE0F901F9018950E94DE0CECCF3B
:1027F000EF92FF920F931F93CF93DF93F82E192F31
:10280000E62E042F81E0860F880F0E94450A83E0A0
:102810000E94450ACF2DD12FEC0EFD2EF11CCE15B6
:10282000DF05B9F007FF13C0FE0184910E94450A3D
:10283000182F80E00E94450A812321968111EFCF55
:10284000DF91CF911F910F91FF90EF9008958881B4
:10285000EDCF81E0F5CFE0E9F3E01382128288EE5C
:1028600093E0A0E0B0E084839583A683B78389E2F8
:1028700093E0918380838FEF9FEF95878487E8E3D0
:10288000F8E01382128287E493E0918380838EEDD7
:1028900097E09093EF038093EE0380E090E89093AD
:1028A000ED038093EC0346983E9A47983F9AE4E202
:1028B000F8E0138212828BE393E09183808384E2B9
:1028C00094E09683858380E890E09087878380E416
:1028D00090E09287818785E0838B81E0828B1686EA
:1028E0001586108A178614861386818B1482E0E27F
:1028F000F4E0AEE0B3E02D913C9111972C533109F7
:102900003183208312962D913C91285231093383D3
:102910002283E0EFF3E01082818713861486858B93
:10292000178A108E81A313A214A285A717A6089553
:10293000CDB7DEB76A97DEBFCDBF789483E084BDA4
:1029400083E085BD81E080936E00E1E8F0E083E004
:102950008083E0E881E08083E1E983E08083E0E94F
:1029600081E08083E1EC87E08083E3EC81E0808399
:10297000E0EC82E08083E2EC81E08083EAE787E0BC
:1029800080838068808310928A0310927A03109269
:102990007C038091D70081608093D70080EA809388
:1029A000D80089B5806189BD89B5826089BD09B4C7
:1029B00000FEFDCF81E090E00E94040B8091D800E2
:1029C0008F7C80618093D8008091E000807F80932D
:1029D000E0008091E1008E7E8093E1008DE08093A5
:1029E000E200559A209A81EC80937C0081EF85B9B2
:1029F00087EE84B982E38BB982EF8AB9769A6E98B2
:102A000080EF81BB10BA80E58CBD81E08DBD85E093
:102A10000E94F80F5F9A85E00E94F80F5C98ECE145
:102A2000F7E085918EBD00000DB407FEFDCFE932C1
:102A3000C1F75C9A81E88093640081E0809365002F
:102A40000E94B31080E80E94A8108823A9F05C9827
:102A500085EA8EBD00000DB407FEFDCF5C9A2E986E
:102A60002F982D988091640080628093640081E0AB
:102A700083BF889513BEFCCF84E00E94A8108823F2
:102A8000B9F12D9884E80E94A8108823A1F02D9A0E
:102A900088EC0E94F80F2F986FEF82E090E00E9480
:102AA000371E84EF91E00E94040B2F9A84E80E9465
:102AB000A8108111FBCF84E10E94A8108823A1F007
:102AC0002D9A88EC0E94F80F2E9860E082E090E04A
:102AD0000E94371E84EF91E00E94040B2E9A84E13D
:102AE0000E94A8108111FBCF88EC0E94F80FC4CF80
:102AF0002D9A0E94BA1081E090E00E942F1E382F7C
:102B00003470D32E81FF0CC031112E9801EF1FEFCE
:102B100080E40E94A810882309F4FCC02E9A2F9A02
:102B200082E30E94F80F0E94FB0F8111F9CF81E22E
:102B30008093010181E080930001809366030E94ED
:102B4000BA100E9403100091FC03B090FD03B88EF0
:102B50008090FE0390900004A0900104B090FF03C9
:102B6000C090F603CD8A7090F7033091F0033D8753
:102B70004091F1034B8B3090F2034090F40350905E
:102B8000F5036090F30350910E045A8B80910F046B
:102B90008A8F1091080490910904998BD0900A04AF
:102BA000B0910C04A0910D04E0910B04E98FF09119
:102BB0000204FC8BC0900304E0901A04F0901B0404
:102BC000709114042090150460911604309118043B
:102BD0003E8B409119044F8B509117045E8750E053
:102BE00040E0242F220F220F220FFA0135E0EE0FD2
:102BF000FF1F3A95E1F7CF01825F9E4F988B8F8739
:102C000090E080E0EF85F8893191F88BEF87383CD0
:102C100009F01AC18B8B392E622E2C01F1E0FD8751
:102C20000896811531E0930769F74F5F5F4F403198
:102C30005105B9F64D854093F0035B895093F1033C
:102C40003092F2034092F4035092F5036092F30342
:102C50008D898093F6037092F7030093FC03988D9F
:102C60009093FD038092FE0390920004A0920104D1
:102C7000B092FF03EC89E0930204C0920304109326
:102C80000804F989F0930904D0920A04B0930C0463
:102C9000A0930D04B98CB0920B04CA88C0920E04A4
:102CA0003A8D30930F0470931404209215046093AE
:102CB00016044E89409318045F89509319048E8539
:102CC00080931704E0921A04F0921B04E0EFF3E003
:102CD00021E02287448155818681978148175907D1
:102CE0000CF0E1C010863C9694E0E032F90789F7D9
:102CF00090EE292E93E0392E20916703222309F4C8
:102D0000DEC01092670380E090E0892BA9F30E9457
:102D10000000F2CFDD2029F00430110511F42E9AC5
:102D20002F9881E00E946609402F4770C42E9801B9
:102D300043E0359527954A95E1F7C9019695982F77
:102D40008827979587958C5D9B4F70E060E02E3FBC
:102D50005FEF350759F1DC01AC56BF4F7C0150E005
:102D600040E0FB01E459F94F5F01F501E40FF51F65
:102D7000E491F0E03F010C2C02C0660C771C0A9431
:102D8000E2F72F3F320721F0F70194889628948AC2
:102D9000CC2019F0EC91E729EC934F5F5F4F11962F
:102DA000FFEFEF1AFF0A48355105F9F62F5F3F4F45
:102DB00080589F4F685A7F4F603B710541F60E94D3
:102DC000B3108FE00E94F80F0F5F1F4F09311105FC
:102DD00009F09ECEDD2011F02F9A2D9880E991E028
:102DE0000E94040B2D9A81E090E00E942F1E80FF2C
:102DF00097CE8AE090E00E942F1E9FEF980F9E3F93
:102E000008F08ECE22E330E03093720320937103FA
:102E100028E330E030937403209373030AE010E05A
:102E2000682F88E398E00E9409100F5F1F4FC801C8
:102E30000E942F1E0031110599F70E94B31088EEF1
:102E400093E00E94040B6CCE393C19F48D8B792EE3
:102E5000E7CE3B3C39F4888F892EB22E982EA92ECE
:102E600001E0DECE3C3C19F48C8BC92ED9CE3D3C22
:102E700039F4898BD92E298FB82FA92F11E0D0CE04
:102E80003E3C19F48A8B9A8FCBCE3F3C39F4282EE6
:102E9000692F2E878E8B9F8B71E0C2CE303D09F05B
:102EA000BFCE7C01BDCE841795070CF01CCF2087C8
:102EB00095838483818192819783868314CF9091B7
:102EC000690380916803A92FA81B8A2F3091010103
:102ED000A31748F48F5F831708F015CF81E083BFF5
:102EE000889513BE10CF81E08093670390936803A9
:102EF000EDE6F3E080819181019680839183E4E2A5
:102F0000F4E021112FEF8FEF21932193219321934F
:102F10008150D0F7109274031092730310927203D1
:102F2000109271038091700380936F030E94FB0FD6
:102F3000809370030EE0C02E01E0D02E10E000E080
:102F40008AE0982E5601F12CE12CF50141915F01A8
:102F50008FEF840F8937B8F4499DA00111244F5C8D
:102F6000564F8091220490912304B801681B790B7D
:102F7000809120049091210420E0D701A81BB90B77
:102F8000CD010E94150FB8E0EB0EF11CE114E1E059
:102F9000FE06D9F6F0E2CF0ED11C085F1F4F0038B5
:102FA000110581F680916D0380FF09C3BEE08B2E71
:102FB000B1E09B2ED12CC12C18E0412E3401B12C54
:102FC000A12C5DE0552ED3018C91851156C0EA2CC1
:102FD000B886AF820C2DDA86C9864B864C86209146
:102FE00010033091110380910E0390910F0301960D
:102FF000482F9A838983622F2B833C83B6E0BD835D
:10300000E0E1EE83F8841A8528E038E05A817C817B
:1030100086E090E10E94E107882379F180917100B8
:103020008D7F8093710010928F0330928E032092D7
:103030008D0330928C0320928B0340E253E0509337
:10304000E1034093E00384E690E09093E3038093F0
:10305000E203A0E9B1E0B093E503A093E403E2E367
:10306000F0E0F093E703E093E60340E050E850938C
:10307000E9034093E8030E94DE0C539459E1551292
:10308000A2CF88E0A80EB11C9FEF691A790AA1149B
:10309000A1E0BA0609F095CFB8E0CB0ED11CE0E272
:1030A0008E0E911CF0E8CF16D10409F087CF3EE0D8
:1030B000632E31E0732ED12CC12C48E0442E430105
:1030C000B12CA12C2FE4522ED4018C91851158C023
:1030D000EA2CB886AF820C2DDA86C9864B864C86E0
:1030E000209110033091110380910E0390910F03F2
:1030F0000196482F9A838983622F2B833C83B6E005
:10310000BD83E0E1EE83F8841A8528E038E05A8137
:103110007C8186E090E10E94E107882389F180911B
:1031200071008D7F8093710010928F0330928E0317
:1031300020928D0330928C0320928B0348EE53E053
:103140005093E1034093E00384E690E09093E3031F
:103150008093E203A0EBB4E0B093E503A093E40313
:10316000E2E3F0E0F093E703E093E60340E050E8A9
:103170005093E9034093E8030E94DE0CD4011C92B3
:103180005394BAE55B12A0CFEFEF8E1A9E0AF8E0D7
:10319000AF0EB11CA11431E0B30609F093CF48E0A3
:1031A000C40ED11C50E2650E711C80E8C816D10413
:1031B00009F085CF80E20E94A8108823A9F08091B1
:1031C0001903811111C080911A0381110DC08091E2
:1031D0001C03811109C080911D03811105C081E08C
:1031E0008093180380931B0380E20E949210811148
:1031F00010921B0380E40E94A8108823A9F08091FC
:103200001903811111C080911A0381110DC08091A1
:103210001C03811109C080911D03811105C010920A
:10322000180381E080931B0380E40E9492108111B7
:1032300010921B0388E00E949D108823C9F08091A2
:10324000190390911B039111F4C4811111C0809155
:103250001A0381110DC080911C03811109C0809156
:103260001D03811105C01092140381E0809319039E
:1032700080E10E94A81000EF13E084E0F82E92E8AD
:10328000E92EDD24D3946091170370E080916D03E3
:1032900090916E030E94991E892B51F4D8011B96C0
:1032A0008C911B978F5F843008F084C31B968C939E
:1032B000D8018C91882309F476C018968C911897C0
:1032C000811132C019962C91199711968D919C916C
:1032D0001297820F911D12969C938E9311971A96B6
:1032E0004C911A974E9DA0011124435D574F1396A0
:1032F0006C91139770E02091220430912304621B9B
:10330000730BE0912004F09121041B962C918E1BED
:103310009F0B0E94150FF8012181328186819781D0
:10332000821793070CF4D086D80118968C911897C1
:103330008130C9F519969C91199711962D913C9160
:103340001297F901E91BF109CF011296FC93EE9354
:1033500011971A964C911A974E9DA0011124475D22
:10336000584F13966C91139770E02091220430917E
:103370002304621B730BE0912004F09121041B963F
:103380002C918E1B9F0B0E94150FD80111962D9129
:103390003C91129714968D919C9115972817390797
:1033A00014F418961C92FA94045F1F4FF1106BCF1F
:1033B0000E94AD08882359F00E94A40D811107C016
:1033C0000E942908882319F081E080931B03209133
:1033D0001B036091170370E080916D0390916E0361
:1033E0000E94991E892BA1F4211109C080911C0310
:1033F000811105C080911D03882309F440C080918C
:1034000016038F5F80931603843010F0109216031A
:103410002223A9F10E942908882389F10E94A40D82
:1034200081112DC080911803809315038111C5C2AD
:103430006091130370E080916D0390916E030E9480
:10344000991E892BE1F480910E0390910F038F3F19
:10345000910509F0A4F49C012F5F3F4F30930F03B7
:1034600020930E03CC978238910548F48091200474
:1034700090912104019690932104809320048091DF
:103480001B038823B9F080911903811113C0809127
:103490001A0381110FC080911C0381110FC080910C
:1034A0001D03811119C00E94AD08811103C081E084
:1034B00080931A0380911C03882371F010921B03E0
:1034C00080911403853108F4A1C21092140381E0A5
:1034D00080931D0310921C0380911D03882371F0BB
:1034E00010921B0380911403853108F4FEC21092E0
:1034F000140310921D0381E080931A038091190335
:10350000882361F010921B0380911403853108F425
:103510005FC381E080931A031092190380911A030C
:10352000882351F10E942908811180C360911303FF
:1035300070E080916D0390916E030E94991E892B1B
:10354000D9F480911003909111039C012951310904
:103550002034310550F420912204309123042F5F50
:103560003F4F30932304209322040196909311033C
:103570008093100310921B0340911803B2E84B9FF5
:10358000A00111244B50524F609110037091110310
:103590008091220490912304681B790B80910E0383
:1035A00090910F03E0912004F091210420911603E3
:1035B0008E1B9F0B0E94150F0E94B310A4CBAEE090
:1035C0006A2EA1E07A2EB12CA12C442443946301ED
:1035D000912C812CD6015C9086EA850D883040F5CF
:1035E000E82C98868F820A2DBA86A98680911003CE
:1035F00090911103409620910E0330910F03422FBA
:1036000029833A83682F9C838B83F8841A8528E06A
:1036100031E05A817C8188E091E00E94E1078823B3
:1036200039F081E0850D813608F09CC1F601808378
:10363000F60150808EE9850D883040F5E82C98869B
:103640008F820A2DBA86A98680911003909111036A
:10365000409620910E0330910F03422F29833A8325
:10366000682F9C838B83F8841A8528E031E05A8187
:103670007C8188E091E00E94E107882339F081E0B5
:10368000850D893608F073C1D6018C93D6015C9004
:1036900086E9850D883040F5E82C98868F820A2DC2
:1036A000BA86A986809110039091110340962091CB
:1036B0000E0330910F03422F29833A83682F9C8396
:1036C0008B83F8841A8528E031E05A817C8188E078
:1036D00091E00E94E107882339F081E0850D813770
:1036E00008F04AC1F6018083F60150808EE8850D0E
:1036F000883040F5E82C98868F820A2DBA86A986F4
:103700008091100390911103409620910E03309107
:103710000F03422F29833A83682F9C838B83F8847D
:103720001A8528E031E05A817C8188E091E00E948E
:10373000E107882339F081E0850D893708F021C140
:10374000D6018C93FFEFCF1ADF0A38E0830E911C6D
:10375000811441E0940609F03DCF58E0A50EB11C5C
:1037600080E2680E711C90E8A916B10409F02FCF11
:1037700030E020E090E080E043E257E26BE27FE25D
:10378000A3E3B7E31BE30FE3E3E4FE2EF7E4EF2E3E
:10379000F901689414F8EE0FFF1F1694E1F7E25F49
:1037A000FE4FE80FF91FD0800F2EFDEDCF2EF02D2C
:1037B000CD0C0F2EF3E0BF2EF02DBC1448F0D394A7
:1037C0000F2EF7E2CF2EF02DDC1409F4DFC0D082EB
:1037D000D0800F2EF9EDCF2EF02DCD0C0F2EF3E073
:1037E000BF2EF02DBC1448F0D3940F2EFBE2CF2E49
:1037F000F02DDC1409F4CCC0D082D0800F2EF5ED72
:10380000CF2EF02DCD0C0F2EF3E0BF2EF02DBC14DB
:1038100048F0D3940F2EFFE2CF2EF02DDC1409F4E4
:10382000B9C0D082D0800F2EF1EDCF2EF02DCD0C6F
:103830000F2EF3E0BF2EF02DBC1448F0D3940F2EC2
:10384000F3E3CF2EF02DDC1409F4A6C0D082D08093
:103850000F2EFDECCF2EF02DCD0C0F2EF3E0BF2E52
:10386000F02DBC1448F0D3940F2EF7E3CF2EF02D9B
:10387000DC1409F493C0D082D0800F2EF9ECCF2E47
:10388000F02DCD0C0F2EF3E0BF2EF02DBC1448F020
:10389000D3940F2EFBE3CF2EF02DDC1409F480C05F
:1038A000D082D0800F2EF5ECCF2EF02DCD0C0F2E28
:1038B000F3E0BF2EF02DBC1448F0D3940F2EFFE39D
:1038C000CF2EF02DDC1409F46DC0D082D0800F2EE5
:1038D000F1ECCF2EF02DCD0C0F2EF3E0BF2EF02DFE
:1038E000BC1448F0D3940F2EF3E4CF2EF02DDC144B
:1038F00009F45AC0D082D0800F2EFDEBCF2EF02DD0
:10390000CD0C0F2EF3E0BF2EF02DBC1448F0D39455
:103910000F2EF7E4CF2EF02DDC1409F447C0D0822F
:10392000D0800F2EF9EBCF2EF02DCD0C0F2EF3E023
:10393000BF2EF02DBC1440F0D3940F2EFBE4CF2EFD
:10394000F02DDC14A9F1D08201968032910509F0A6
:103950001FCF2F5F3F4F2031310509F427CB90E077
:1039600080E016CFD6011C9240921A0361CEF60178
:10397000108240921A038ACED6011C9240921A03FA
:10398000B3CEF601108240921A03DCCE408320CFE2
:10399000508333CF608346CF708359CFA0836CCFE1
:1039A000B0837FCF108392CF0083A5CFF082B8CFB2
:1039B000E082CACFF80113867BCC813009F05FCD5D
:1039C0006091130370E080916D0390916E030E94EB
:1039D000991E892B09F053CD80910E0390910F030E
:1039E000181619060CF04BCD9C012150310930936B
:1039F0000F0320930E03CD978238910508F03FCD39
:103A00008091200490912104019735CD0E94A40D4E
:103A100081115BCD6091130370E080916D039091F3
:103A20006E030E94991E892B09F056CD80911003D8
:103A3000909111039C01295131092034310550F432
:103A40002091220430912304215031093093230422
:103A50002093220401979093110380931003809187
:103A600014038F5F809314038091180381111FC08A
:103A700080910E0390910F038E3E91052CF40196D8
:103A800090930F0380930E0380910E0390910F0388
:103A9000CD978138910508F01FCD80912004909139
:103AA00021040196909321048093200415CD813048
:103AB00009F012CD80910E0390910F03893091058A
:103AC0002CF0019790930F0380930E0380910E03C7
:103AD00090910F03CD978138910508F0FDCC80912E
:103AE0002004909121040197DDCF0E9429088111C3
:103AF000FECC0E94A40D8111FACC6091130370E0FA
:103B000080916D0390916E030E94991E892B09F09C
:103B1000F5CC80911003909111039C01295131093A
:103B20002034310550F420912204309123042F5F7A
:103B30003F4F309323042093220401969093110366
:103B400080931003809114038F5F809314038091FE
:103B5000180381111FC080910E0390910F038E3EB8
:103B600091052CF4019690930F0380930E0380919E
:103B70000E0390910F03CD978138910508F0BECCCC
:103B800080912004909121040196909321048093C8
:103B90002004B4CC813009F0B1CC80910E03909117
:103BA0000F03893091052CF0019790930F038093B8
:103BB0000E0380910E0390910F03CD9781389105EC
:103BC00008F09CCC80912004909121040197DDCFD6
:103BD0000E94A40D81119DCC2091100330911103FE
:103BE000E0912204F09123046091130370E080912E
:103BF0006D0390916E030E94991E892B09F08ECC63
:103C0000C90149978134910528F43197F093230431
:103C1000E0932204215031093093110320931003C3
:103C2000809114038F5F8093140378CC10921A0351
:103C3000A3CC81111DCB80911A03811119CB8091E6
:103C40001C03811115CB80911D03811111CB1092A2
:103C5000140310921B0381E080931C0309CBF99994
:103C6000FECF92BD81BDF89A992780B50895262F81
:103C7000F999FECF92BD81BDF89A019700B4021662
:103C800039F01FBA20BD0FB6F894FA9AF99A0FBE10
:103C90000895052E97FB1EF400940E94601E57FDA8
:103CA00007D00E94681E07FC03D04EF40C94601EDF
:103CB00050954095309521953F4F4F4F5F4F089558
:103CC00090958095709561957F4F8F4F9F4F089588
:103CD000A1E21A2EAA1BBB1BFD010DC0AA1FBB1F10
:103CE000EE1FFF1FA217B307E407F50720F0A21B82
:103CF000B30BE40BF50B661F771F881F991F1A94EF
:103D000069F760957095809590959B01AC01BD0118
:103D1000CF010895A29FB001B39FC001A39F700D72
:103D2000811D1124911DB29F700D811D1124911DC3
:103D30000895AA1BBB1B51E107C0AA1FBB1FA617F2
:103D4000B70710F0A61BB70B881F991F5A95A9F744
:103D500080959095BC01CD01089597FB072E16F430
:103D6000009407D077FD09D00E94991E07FC05D06A
:103D70003EF4909581959F4F0895709561957F4F82
:103D80000895EE0FFF1F0590F491E02D0994F8942B
:023D9000FFCF63
:103D92000110FFFFFFFF00E100000000000019001A
:103DA2000000000000000000000000000000000011
:103DB20000191919191919191919191919191900A3
:103DC20000000000005000000000000000000000A1
:103DD2000000000000005000000000001719190048
:103DE20000000000000000000000000000000000D1
:103DF200000000000000000000000000001919008F
:103E020000000000000000000000CC0000000000E4
:103E1200CB00005A5A5A0100000000000019190094
:103E22000000000000000000000000000000000090
:103E3200000000000000000000000000001919014D
:103E42000101010101010101010101010101010160
:103E52000101000000000000000019000019190013
:103E62000000000000000000000000000000000050
:103E720000000001010101195A5A19000019190123
:103E82005A5A5A5A5A00000000000000000000006E
:103E920000000000000000195A5A19000019190008
:103EA2000000000000000000000000000000000010
:103EB20000000000000000195A5A190000191900E8
:103EC2000050000000000001010101010101000099
:103ED20000000000000000195A5A190000191900C8
:103EE20000000000000000000000000000000000D0
:103EF200005A5A5A5A0000195A5A19000019190040
:103F02000027272727000000000000000000000013
:103F120000000000000000195A5A19000019190087
:103F2200000000000000000000000000010101018B
:103F320000500000000000195A5A19000019190017
:103F4200C900000000005A5A5A5A0000000000003E
:103F5200C800000000000000000000000019190065
:103F6200000000000000000000000000000000004F
:103F7200000000000000000000000000001919010C
:103F8200010101010101010101010101010101011F
:103F920001010101010101010101010101193C00BD
:103FA200680002010000000400000000000000C1DF
:103FB200808100000000000000C409180BE509DA46
:103FC200092B0AE909070A00000000210CD70AB7E9
:103FD20010B610000000000910D70AB710B6100082
:00000001FF
