:100000000C9499040C94C1040C94C1040C94C10484
:100010000C94C1040C94C1040C94C1040C94C1044C
:100020000C94C1040C94C1040C94550E0C94C40E91
:100030000C94C1040C94C1040C94C1040C94C1042C
:100040000C94C1040C94C1040C94C1040C94C1041C
:100050000C94C1040C94C1040C94C1040C94F610CB
:100060000C94C1040C94C1040C94C1040C94C104FC
:100070000C94C1040C94C1040C94C1040C94C104EC
:100080000C9440110C94C1040C94C1040C94C10450
:100090000C94C1040C94C1040C94C1040C94C104CC
:1000A0000C94C1040C94C1040C94C1040000000021
:1000B000003E5B4F5B3E3E6B4F6B3E1C3E7C3E1CEE
:1000C000183C7E3C181C577D571C1C5E7F5E1C0034
:1000D000183C1800FFE7C3E7FF0018241800FFE7EB
:1000E000DBE7FF30483A060E2629792926407F05AE
:1000F0000507407F05253F5A3CE73C5A7F3E1C1CC4
:1001000008081C1C3E7F14227F22145F5F005F5F83
:1001100006097F017F006689956A6060606060946F
:10012000A2FFA29408047E040810207E2010080874
:100130002A1C08081C2A08081E101010100C1E0C7F
:100140001E0C30383E3830060E3E0E060000000011
:100150000000005F00000007000700147F147F14F8
:10016000242A7F2A1223130864623649562050003D
:1001700008070300001C2241000041221C002A1C29
:100180007F1C2A08083E0808008070300008080814
:100190000808000060600020100804023E51494534
:1001A0003E00427F400072494949462141494D3352
:1001B0001814127F1027454545393C4A49493141B9
:1001C000211109073649494936464949291E000087
:1001D00014000000403400000008142241141414DC
:1001E0001414004122140802015909063E415D59C8
:1001F0004E7C1211127C7F494949363E41414122D1
:100200007F4141413E7F494949417F090909013EFA
:10021000414151737F0808087F00417F4100204021
:10022000413F017F081422417F404040407F021C33
:10023000027F7F0408107F3E4141413E7F0909094A
:10024000063E4151215E7F09192946264949493216
:1002500003017F01033F4040403F1F2040201F3FDC
:100260004038403F63140814630304780403615961
:10027000494D43007F4141410204081020004141A3
:10028000417F04020102044040404040000307084F
:100290000020545478407F2844443838444444284B
:1002A000384444287F385454541800087E090218F2
:1002B000A4A49C787F0804047800447D400020407A
:1002C000403D007F1028440000417F40007C0478BE
:1002D00004787C080404783844444438FC18242406
:1002E0001818242418FC7C08040408485454542486
:1002F00004043F44243C4040207C1C2040201C3C03
:100300004030403C44281028444C9090907C4464F9
:10031000544C44000836410000007700000041368C
:10032000080002010204023C2623263C1EA1A16112
:10033000123A4040207A3854545559215555794144
:100340002154547841215554784020545579400C1B
:100350001E527212395555555939545454593955FC
:100360005454580000457C410002457D420001453F
:100370007C40F0292429F0F0282528F07C545545AC
:10038000002054547C547C0A097F4932494949323F
:100390003248484832324A4848303A4141217A3A54
:1003A00042402078009DA0A07D39444444393D401E
:1003B00040403D3C24FF2424487E4943662B2FFCCB
:1003C0002F2BFF0929F620C0887E09032054547979
:1003D000410000447D413048484A32384040227A4A
:1003E000007A0A0A727D0D19317D2629292F2826C7
:1003F0002929292630484D402038080808080808CF
:100400000808382F10C8ACBA2F102834FA00007B27
:10041000000008142A142222142A1408950022002D
:1004200095AA005500AAAA55AA55AA000000FF00E7
:10043000101010FF00141414FF001010FF00FF1024
:1004400010F010F0141414FC001414F700FF000056
:10045000FF00FF1414F404FC141417101F10101FD5
:10046000101F1414141F00101010F0000000001FC3
:10047000101010101F10101010F010000000FF10CE
:100480001010101010101010FF10000000FF1400CA
:1004900000FF00FF00001F10170000FC04F41414FC
:1004A0001710171414F404F40000FF00F7141414C8
:1004B00014141414F700F7141414171410101F1048
:1004C0001F141414F4141010F010F000001F101F6B
:1004D0000000001F14000000FC140000F010F010D9
:1004E00010FF10FF141414FF141010101F00000050
:1004F00000F010FFFFFFFFFFF0F0F0F0F0FFFFFF54
:100500000000000000FFFF0F0F0F0F0F38444438AA
:10051000447C2A2A3E147E02020606027E027E02E5
:1005200063554941633844443C04407E201E200604
:10053000027E020299A5E7A5991C2A492A1C4C7241
:1005400001724C304A4D4D303048784830BC625AC8
:10055000463D3E494949007E0101017E2A2A2A2A58
:100560002A44445F444440514A444040444A514034
:100570000000FF0103E080FF000008086B6B0836F5
:1005800012362436060F090F060000181800000066
:100590001010003040FF0101001F01011E00191D55
:1005A0001712003C3C3C3C000000000000B0000082
:1005B000A170E150964F26900F1D070C0096690020
:1005C0004AE44A0048444000806810000F99FB8FBD
:1005D0009DBDBBFB77D4D4DF1F1A1AFE7F5D5DFF84
:1005E000805A0000A0A4AA0010BA3400FF5953F3A7
:1005F000FF9B9B9EFFB9B996FF9595D19FF4940FF1
:10060000FC295F91FF1838F8FF9294FFFF95D5F70A
:10061000BFB5DDD7F18F81F1F788C8F779C6467984
:1006200009FD9B090196F800828182805071620069
:100630007756560076763700A2B773010772060028
:100640007827500073347400775176007F55F70097
:1006500047711000324772007364730015A2750071
:1006600061679400009F6060F4F2F6F2F0F89C8EEF
:100670008783878E9CF8F00000FEFF0303030303CB
:10068000070EFCF80000FEFF0303030303070EFC44
:10069000F80000FFFF00000000000000FFFF000066
:1006A000FEFF8383838383C7EE7C380000F8FC0E53
:1006B00007030303070EFCF800003F7FE0C08080C3
:1006C000C0E07F3FFFFF01010101010101FFFF00C9
:1006D00000FFFF0C0C0C0C1C3E77E3C100007FFFF9
:1006E000C0C0C0C0C0E0703F1F00001F3F70E0C02E
:1006F000C0C0E0703F1F00007FFFC1C1C1C1C1E3A6
:10070000773E1C00001F3F70E0C0C0C0E0703F1F7C
:10071000000000000001FFFF01000000D5F08D1473
:10072000A1C881CFD9F1AF20000808000000000067
:1007300000000008083F0B070F1B0F17170808AA37
:10074000BBAAEEAABBAAEE0808132D13430D13078C
:10075000070808265A26861A260E0E08084CB44C9E
:100760000C344C1C1C08089868981868983838088D
:100770000830D03030D0307070080860A06060A0C1
:1007800060E0E00808C040C0C040C0C0C0080880A9
:10079000808080808080800808654F4F65604A4A6D
:1007A000600808614B4E64644E4B610808604A4A19
:1007B00060654F4F650808644E4B61614B4E641095
:1007C00010000004BEFEF6BF130000000000000091
:1007D00000000CEFFFBF5BF7EF8C00000000000093
:1007E00000000004BEFEF6BF130000000000000081
:1007F0000000000F1FF8F79F0F000000000000002E
:1008000000000004BEFEF6BF130000000000000060
:1008100000000CEFFFBF5BF7EF8C00000000000052
:1008200000000004BEFEF6BF130000000000000040
:10083000000CCEE7BF3F1F3F77CE6C0000000000EA
:1008400000101000000013BFF6FEBE040000000000
:10085000000000006CCE773F1F3FBFE7CE0C0000CA
:1008600000000000000013BFF6FEBE040000000000
:1008700000000000008CEFF75BBFFFEF0C000000F2
:1008800000000000000013BFF6FEBE0400000000E0
:100890000000000000000F9FF7F91F0F000000008C
:1008A00000000000000013BFF6FEBE0400000000C0
:1008B00000000000008CEFF75BBFFFEF0C000000B2
:1008C000000000080B000202020000090400000101
:1008D0000202000005240010010524010101042486
:1008E00002060524060001070581031000400904E3
:1008F0000100020A0000000705020240000007058F
:1009000083024000000403090412010002EF020107
:100910004041233680000101020301417264756980
:100920006E6F204C4C430041726475626F79000019
:10093000BA1111241FBECFEFDAE0DEBFCDBF13E046
:10094000A0E0B1E0E4ECF1E302C005900D92AA351D
:10095000B107D9F728E0AAE5B3E001C01D92A6319E
:10096000B207E1F714E0C9E9D4E004C02197FE0121
:100970000E94DA18C839D107C9F70E9417120C94DF
:10098000E0180C940000809160030895EEEFF3E00E
:10099000A0E0B8E000800EBC8111012C1197A0FDF1
:1009A000FDCF0192B9F70DB40895FC018091940335
:1009B000882311F13FB7F89482E08093E9002091F9
:1009C000F200822F90E01816190614F481E090E0EE
:1009D000882339F0289844E6409393034091F1002E
:1009E0004083222339F02091F200211103C02BE62D
:1009F0002093E8003FBF08958FEF9FEF08952FB732
:100A0000F89483E08093E9009091E800892F807248
:100A100095FF04C09091F20080E4891B2FBF0895D8
:100A200080918B0381110DC082E08093870384E065
:100A30008093880310928A031092890381E0809347
:100A40008B0387E893E00895CF93DF931F92CDB790
:100A5000DEB76983DC01ED91FC910280F381E02D2A
:100A600041E050E0BE016F5F7F4F09950F90DF912D
:100A7000CF91089583E08093E9008091F20088236C
:100A800019F08AE38093E80008950E94FF0490E043
:100A90000895CF93DF931F92CDB7DEB7FC01848515
:100AA000958597FD08C02FEF3FEF358724870F907E
:100AB000DF91CF910895CE0101960E94D504019750
:100AC00019F4898190E0F3CF8FEF9FEFF0CF0F9370
:100AD0001F93CF93DF931F92CDB7DEB78C01FC013C
:100AE0008485958597FF0BC0CE0101960E94D504A1
:100AF000019771F4898190E0F80195878487F80166
:100B0000848595850F90DF91CF911F910F91089566
:100B10008FEF9FEFF1CFFC018485958597FD0BC08A
:100B20009FB7F89482E08093E9008091F2009FBF24
:100B300090E0019608959FB7F89482E08093E900D1
:100B40008091F2009FBF90E0089540918103509101
:100B5000820320917F033091800342175307B4F43E
:100B60009091E8009570E1F39091E80092FD19C032
:100B70008093F100809181039091820301968F739D
:100B80009927892B19F48EEF8093E80080918103D7
:100B9000909182030196909382038093810381E078
:100BA000089580E00895DF92EF92FF920F931F93D4
:100BB000CF93DF93D82E8A01EB017B01E40EF51E63
:100BC000CE15DF0559F0D7FE12C0FE0184910E94B8
:100BD000A50521968111F4CF0FEF1FEFC801DF911A
:100BE000CF911F910F91FF90EF90DF900895888132
:100BF000EECF0F931F93CF93DF931F92CDB7DEB746
:100C000082E0898342E450E063EC78E080E80E946F
:100C1000D3050E941005DC0112960D911C9101155F
:100C2000110589F0D801ED91FC910280F381E02D4E
:100C3000BE016F5F7F4FC801099597FD04C0F801A1
:100C400000851185ECCF89810F90DF91CF911F91A5
:100C50000F910895615030F02091F100FC01208344
:100C60000196F8CF289884E6809393030895AF9275
:100C7000BF92CF92DF92EF92FF920F931F93CF9389
:100C8000DF936C017B018B01040F151FEB015E01EB
:100C9000AE18BF08C017D10759F06991D601ED9180
:100CA000FC910190F081E02DC6010995892B79F71F
:100CB000C501DF91CF911F910F91FF90EF90DF90D1
:100CC000CF90BF90AF900895FC010E94FB06319732
:100CD00028F068517C4F8F4F9F4FF9CFAB01FC013B
:100CE0000E94FB06641775078E079F07C8F30895D7
:100CF0008F929F92AF92BF92CF92DF92EF92FF922C
:100D00000F931F93CF93DF936C017B018A01809136
:100D10000D03882309F45AC080919403882309F4B1
:100D200055C08091860380FF05C08091E0008260FD
:100D30008093E000E801B12C8AEFA82E93E0892E81
:100D40002AE3922E209711F4BB20C9F10E94FF04E0
:100D5000811108C0AA94AA20C9F181E090E00E9404
:100D60006406F0CF8C171D0611F00CF08C2F9FB786
:100D7000F8948092E9002091E80025FD02C09FBF11
:100D8000E1CF282F30E0C21BD30BF701815020F0B8
:100D900041914093F100FACFE20EF31EBB2021F007
:100DA0009092E800B12CEBCF8091E80085FDE7CF71
:100DB0009092E800BB24B394209709F3F3CF5D9899
:100DC00084E680938503101611063CF081E090E0E4
:100DD000F6019383828310E000E0C801DF91CF9198
:100DE0001F910F91FF90EF90DF90CF90BF90AF9049
:100DF0009F908F900895ACE6B3E02FB7F8947D9163
:100E00008D919C9166B52FBFA89B05C06F3F18F4CC
:100E10007F5F8F4F9F4F22E0660F771F881F991FBC
:100E20002A95D1F708956F927F928F929F92AF92F9
:100E3000BF92CF92DF92EF92FF920F931F93CF93C7
:100E4000DF934C017B01C22F102F98E0A92EB12C0B
:100E5000642E669466946694712CCA0187709927F3
:100E6000892B79F5D40117962D913C91C7019927CB
:100E7000B9010E94C618269DF001279DF00D369DF0
:100E8000F00D11248E0F9F1FD4011596ED91FC914A
:100E9000E80FF91F2081111112C0C095C223C08331
:100EA000DF91CF911F910F91FF90EF90DF90CF9046
:100EB000BF90AF909F908F907F906F900895C22BBE
:100EC000EECFD0E04770C42ED12C83E0660C771CA7
:100ED0008A95E1F79E0101C0220F4A95EAF7012F9A
:100EE000A301B701C4010E941307A301485F5F4F2C
:100EF000C5018C199D0902C0D595C7958A95E2F761
:100F0000A7CF5F926F927F928F929F92AF92BF9284
:100F1000CF92DF92EF92FF920F931F93CF93DF93C5
:100F2000EC016A30F1F48D859E859C878B878B89D7
:100F30002F853889820F932F911D988B8F8781E0A1
:100F400090E0DF91CF911F910F91FF90EF90DF9094
:100F5000CF90BF90AF909F908F907F906F905F9059
:100F60000895AB84BC84693031F429E0A20EB11C31
:100F7000BC86AB86E4CF3DEFA3163FEFB3060CF47F
:100F80005BC08F819885A816B9060CF055C0CF8438
:100F9000D8888DEFC8168FEFD8060CF44DC0898520
:100FA0009A85C816D9060CF047C060320CF46FE77A
:100FB00080EE860F9FE9960F9A3118F49FEFC91AB9
:100FC000D90A8C3011F08B3119F42FEFC21AD20AE2
:100FD000869534E0839FC00111249C0124553A4F2B
:100FE0007901912C812C162F1170F701E80DF91D54
:100FF000549011112BC0352D3F70532E3501680CC4
:10100000791C8C81882351F001E08989811100E0ED
:101010002FE0A601B301CE010E9413070989252DF7
:10102000A601B301CE010E9413078FEF881A980A18
:1010300094E089169104C9F68A8990E004962B857C
:101040003C85820F931F9C878B8779CF52948FE0CA
:101050005822D4CF20919903E0919703F0919803FF
:10106000CF0102969093980380939703222319F05F
:10107000859194910895808191810895CF92DF9216
:10108000EF92FF92CF93DF930E942A08811520E808
:10109000920791F4809171008D7F8093710010927E
:1010A00091004698479810926303DF91CF91FF908B
:1010B000EF90DF90CF90089521E02093630381307B
:1010C00020E8920751F480919503909196039093B4
:1010D0009803809397030E942A0897FD05C02091EA
:1010E0006203222309F454C020916103211150C0EE
:1010F00021E020936403EC01DF77209709F04BC0D7
:1011000081E08093650346983FE9C32E3FE0D32EEC
:10111000E12CF12CCAEFD0E0E091F803F091F90353
:101120000995811103C081E0809365038091640378
:10113000882329F080916503882309F43FC04798EC
:101140000E942A080097F1F19C01DE010E94A31879
:10115000DC01CB0129E0B595A795979587952A9550
:10116000D1F7109290002AE020939100D09299003C
:10117000C09298008093660390936703A0936803DE
:10118000B0936903809171008260809371008DCF6C
:1011900010926403B0CF9E0150E040E060E472E43E
:1011A0008FE090E00E94621869017A0181E0C81A1C
:1011B000D108E108F10810926503AECF4699BFCF80
:1011C000479ABECF8FEF9FEFDC01CBCFE1E7F0E096
:1011D00080818D7F808310929903EAEEF3E0F09393
:1011E0009803E0939703F0939603E093950380E9C7
:1011F00091E09183808384E690E09383828380E012
:1012000090E8958384830C943E084F925F926F928E
:101210007F928F929F92AF92BF92CF92DF92EF9286
:10122000FF920F931F93CF93DF934C015901FC2D35
:10123000C02FD0E0CE01880D991D181619060CF0AC
:101240006CC020E8821691040CF067C09B012E0D43
:10125000311D121613060CF060C0603471050CF0DD
:101260005CC04115510509F458C0E62FE770FE2E09
:10127000DB0177FD179633E0B595A7953A95E1F731
:101280003A2F77FF04C0FF2011F03FEF3A0F662797
:1012900077276819790997FC02C070E060E0803810
:1012A00091050CF44BC090E89819961BA32F032EC0
:1012B000000CBB0B1A2F10953F3F0CF010E021E003
:1012C0008E2D877009F420E0E694E694E694E20E11
:1012D000AE0DB11D19971CF028E0E22EE31AE11AB9
:1012E000310F20E83203D0011124A80DB91DA60F3B
:1012F000B71F019F600D711D1124460F571F0F2D41
:101300000F2C000C110BF33009F41CC1C8F4F130A0
:1013100009F4D0C0F23009F47CC0DF91CF911F9165
:101320000F91FF90EF90DF90CF90BF90AF909F9084
:101330008F907F906F905F904F900895902FB5CFD2
:10134000FA3FB1F1232F2E0DFB3F39F7321729F366
:10135000BD0162507C4FD12CC12CC91608F0A4C02D
:10136000FA01EC0DFD1DE491F0E04F01002E02C0EA
:10137000880C991C0A94E2F737FD06C0FB018081B6
:10138000E82CE0948E218083FF2061F0373054F404
:101390005B01F0E8AF0EB11CE92CE094F50180810F
:1013A0008E218083FFEFCF1ADF0A6F5F7F4FD5CF8B
:1013B000232F2E0D321709F4B0CFBD0162507C4FA0
:1013C000D12CC12CC91608F069C0FA01EC0DFD1D25
:1013D000E491F0E04F01002E02C0880C991C0A94A1
:1013E000E2F737FD04C0FB01808188298083FF205C
:1013F00051F0373044F45B01F0E8AF0EB11CF50159
:10140000808189298083FFEFCF1ADF0A6F5F7F4FCA
:10141000D9CF6FEF70E00F2C02C0660F771F0A94D0
:10142000E2F760957095772E232F2E0D321709F471
:1014300074CFFD01E250FC4F6F01B12CA12CA91615
:1014400038F5FA01EA0DFB1DE491F0E02F01002EC2
:1014500002C0440C551C0A94E2F737FD05C0F601A2
:101460008081862384298083FF2059F037304CF413
:101470004601F0E88F0E911CF401808187218529B7
:101480008083FFEFAF1ABF0A8FEFC81AD80AD7CFF1
:101490003F5F4C0F5D1FA058BF4FC8CF3F5F4C0F41
:1014A0005D1FA058BF4F86CF3F5F4C0F5D1FA058F8
:1014B000BF4F4CCF6A0D7B1D232F2E0D321709F421
:1014C0002CCFFD01E250FC4F6F01B12CA12CA916CD
:1014D00088F5FB01EA0DFB1D8490912C002E02C0C3
:1014E000880C991C0A94E2F780949094FA01EA0D12
:1014F000FB1D6490712C002E02C0660C771C0A94B0
:10150000E2F737FD05C0F6018081882186298083B6
:10151000FF2049F037303CF4F601E058FF4F80815E
:10152000892187298083FFEFAF1ABF0A8FEFC81A7E
:10153000D80ACDCF3F5F4C0F5D1F6C0F7D1FA058A9
:10154000BF4FBCCFC92ED12CFA01E60FF71FA25016
:10155000BC4F00E810E00C191D09CC19DD09BE01D3
:10156000660F771F41E050E06A010F2C01C0CC0CE0
:101570000A94EAF7592F2E2D792ECF93DF93ED01A0
:10158000EF96EF9622968590A590FF2059F08C9CBF
:101590004001AC9C500137302CF4E880B094EB2033
:1015A000E928E99233233AF0EC90A094EA20E82865
:1015B000ED920C94DC0A11965A9529F72A9551F070
:1015C000572D33951124E60FF11DA00FB11DC00F4B
:1015D000D11DD9CFDF91CF9111249FCE90E00C94F3
:1015E00064068FB18095807F669B88601C9B8460B9
:1015F00008953E9A3F9A81E0809360030895909108
:101600007903982329F090917A03982381E009F0D7
:1016100080E0089590917903982329F490917A03BA
:10162000982381E009F480E00895CF93C82F0E94A9
:10163000F10A982F9C2381E09C1380E0CF910895BC
:1016400080E00C94C60480389105B8F460347105CC
:10165000A0F490E121E061FD24E060FD220F62FD35
:101660002295687F969FD0011124A80FA250BC4FED
:101670000C90022A40FF02260C9208955F926F920E
:101680007F928F929F92AF92BF92CF92DF92EF9212
:10169000FF920F931F93CF93DF936D3089F0C0902B
:1016A0007D03D0907E036A30E9F410927C0310929F
:1016B0007B0388E0C80ED11CD0927E03C0927D03CC
:1016C00081E090E0DF91CF911F910F91FF90EF901B
:1016D000DF90CF90BF90AF909F908F907F906F9052
:1016E0005F900895609070035090000100917B031B
:1016F00010917C03E5E06E9FE0011124C455DF4F9B
:101700005801F12CF5E0E12CFF1629F0CE010196ED
:10171000FE01E490EC01460188E0782EE0FC18C060
:10172000462D651016C0E6947A94FFEF8F1A9F0A33
:101730007110F4CFF3948FEFA81AB80AE6E0FE1206
:10174000E1CF0A5F1F4F10937C0300937B03B8CF58
:10175000452DB401C5010E94230BE5CFCF92DF9246
:10176000EF92FF920F931F93CF93DF9372E0C72EF8
:1017700071E0D72ED0E0C0E080E07E01289610E036
:1017800000E0F601E00FF11F9081923009F0B1C046
:1017900090911C03911152C090911803911126C091
:1017A000980163E0220F331F6A95E1F760911003FF
:1017B0007091110340910E0350910F03FA013C9672
:1017C0002E173F079CF4465F5F4F285F3F4F42173D
:1017D000530764F49B01205F3F4FE216F30634F495
:1017E0006C177D071CF40E94E60881E090911803B5
:1017F000913021F5980153E0220F331F5A95E1F7FC
:10180000409110035091110360910E0370910F03EA
:10181000FB0132962E173F078CF4285F3F4F62176B
:10182000730764F49A01205F3F4FE216F30634F425
:101830004C175D071CF40E94E60881E090911C03A0
:10184000911105C090911D03992309F452C0909104
:101850001803911126C0980143E0220F331F4A95C7
:10186000E1F7609110037091110340910E035091C4
:101870000F03FA013C962E173F079CF4465F5F4F1B
:10188000285F3F4F4217530764F49B01285F3F4F87
:10189000E216F30634F46C177D071CF40E94E60888
:1018A00081E090911803913021F5980193E0220F87
:1018B000331F9A95E1F74091100350911103609105
:1018C0000E0370910F03FB0132962E173F078CF425
:1018D000285F3F4F6217730764F49A01285F3F4FF8
:1018E000E216F30634F44C175D071CF40E94E60878
:1018F00081E00F5F1F4F0032110509F042CF90E2E7
:10190000C90ED11CC038D10509F037CFDF91CF9176
:101910001F910F91FF90EF90DF90CF900895089561
:1019200090E080E008958F929F92AF92BF920F93C4
:101930001F93CF93DF93CDB7DEB7A1970FB6F8947F
:10194000DEBF0FBECDBF19A2423008F44AE08E01BF
:101950000F5D1F4F842E912CB12CA12CA501940159
:101960000E948118E62FB901CA01EA3044F5E05D12
:10197000D801EE938D01232B242B252B79F790E0B2
:1019800080E0109769F0FD0101900020E9F73197A0
:10199000AF014A1B5B0BBD018EEF97E00E9437063B
:1019A000A1960FB6F894DEBF0FBECDBFDF91CF91E9
:1019B0001F910F91BF90AF909F908F900895E95C19
:1019C000D7CFCF92DF92EF92FF92CF93DF936C014C
:1019D000990FEE08FF08F7FE19C06DE28EEF97E051
:1019E0000E948107EC0166277727CB016C197D09DE
:1019F0008E099F094AE00E94930C8C0F9D1FDF9176
:101A0000CF91FF90EF90DF90CF9008954AE0C7010B
:101A1000B601DF91CF91FF90EF90DF90CF900C94C3
:101A2000930C6F927F928F929F92AF92BF92CF92C0
:101A3000DF92EF92FF920F931F93CF93DF938091EA
:101A40001803813009F07FC080910E0390910F033D
:101A50008C01085F1F4F17FF02C0095F1F4FB3E0E3
:101A600015950795BA95E1F7209110033091110370
:101A7000E9016096D7FD2796E3E0D595C795EA95ED
:101A8000E1F7FE01A5E0EE0FFF1FAA95E1F7EE5F7B
:101A9000FE4FE00FF11F218121110AC08C0197FF39
:101AA00002C0095F1F4F43E0159507954A95E1F77E
:101AB0003E0122E0621A710823E0660C771C2A9529
:101AC000E1F78091FC039091FD03681A790A78018F
:101AD0008FEFE81AF80A33E0EE0CFF1C3A95E1F7B5
:101AE0008091FA039091FB036701C81AD90A28E094
:101AF000E21AF108E81AF90ACE14DF042CF49E2D3C
:101B00008F2D7601C92ED82E46018E189F085401BC
:101B100097FE03C08FEFA81AB80AB594A794CE1405
:101B2000DF040CF442C041E0B301C7010E94230B63
:101B3000B7FE05C021E0621A7108A80CB91C8FEF2E
:101B4000E81AF80AECCF8111B3CF80910E0390917F
:101B50000F038C0197FF02C0095F1F4F73E01595BB
:101B600007957A95E1F72091100330911103E9016F
:101B70006096D7FD279653E0D595C7955A95E1F71E
:101B8000FE0165E0EE0FFF1F6A95E1F7E00FF11F20
:101B9000EF5FFE4F208121118BCF8C01085F1F4F1B
:101BA00017FF81CF095F1F4F7ECF8EE190E09093AA
:101BB0000C0880930B0890930A08809309081092F0
:101BC0000E0810920D08CE010E94E10C82E390E015
:101BD00090930C0880930B0890930A08809309084F
:101BE00010920E0810920D08C8010E94E10C85E0C9
:101BF000CC0FDD1F8A95E1F7CE5FDE4FC00FD11FFE
:101C00008881882371F1809110039091110387706E
:101C10009927892B31F510920C0810920B0810921D
:101C20000A08109209088AE090E090930E088093C9
:101C30000D0845E050E06FE473E08EEF97E00E94FE
:101C4000370681E0DF91CF911F910F91FF90EF90C8
:101C5000DF90CF90BF90AF909F908F907F906F90CC
:101C6000089510920C0810920B0810920A08109216
:101C700009088AE090E090930E0880930D0843E0F5
:101C800050E065E573E08EEF97E00E94370680E054
:101C9000D9CF82E090E00E94481881110C94F90A93
:101CA000109260033E983F9808951F920F920FB6CE
:101CB0000F9211248F939F938091E1009091E10006
:101CC000937F9093E10083FF0FC01092E90091E0B1
:101CD0009093EB001092EC0092E39093ED00109241
:101CE000940398E09093F00082FF22C093E09093D9
:101CF000E9009091F200992319F09AE39093E8009B
:101D000090918503992341F0909185039150909390
:101D10008503911101C05D9A90919303992341F03D
:101D200090919303915090939303911101C0289A3D
:101D300084FF18C08091E2008E7E81608093E20073
:101D40008091E1008F7E8093E100809186038E7EFA
:101D50008061809386039F918F910F900FBE0F90AB
:101D60001F90189580FFF7CF8091E2008E7E8061F2
:101D70008093E2008091E1008E7E8093E10080916B
:101D800086038E7E8160E5CF1F920F920FB60F9271
:101D90001124CF92DF92EF92FF920F931F932F9314
:101DA0003F934F935F936F937F938F939F93AF93E3
:101DB000BF93EF93FF93CF93DF93CDB7DEB76C97CD
:101DC000DEBFCDBF1092E9008091E80083FF25C0FF
:101DD00068E0CE0145960E942A0682EF8093E800D3
:101DE0008D8987FF39C09091E80090FFFCCF982F34
:101DF000907609F034C19E894F89588D2F89F88CCF
:101E0000911131C0803861F5809184038093F10095
:101E10001092F1008EEF8093E8006C960FB6F89464
:101E2000DEBF0FBECDBFDF91CF91FF91EF91BF918C
:101E3000AF919F918F917F916F915F914F913F9162
:101E40002F911F910F91FF90EF90DF90CF900F9007
:101E50000FBE0F901F9018959EEF9093E800C7CF8C
:101E60001092F100D5CF913059F48111D3CF413088
:101E7000510581F6809184038D7F80938403CACFBE
:101E8000933049F48111C6CF4130510519F6809144
:101E900084038260F2CF953041F48091E80080FFA6
:101EA000FCCF20682093E300B5CF963009F0A9C09D
:101EB0000B8D1C8D22E01092E9001092820310928B
:101EC0008103F2122EC01092800310927F030E94B1
:101ED000F9051F8299E09983FA8291E09E8390EA46
:101EE00098879AEF99872091810330918203275F29
:101EF0003F4F3C832B838D831092E9001092820325
:101F0000109281031093800300937F0349E050E017
:101F1000BE016F5F7F4F80E00E94D3050E94F905EC
:101F200079CF1093800300937F030E941005DC019A
:101F300012960D911C910115110509F451C1D8019A
:101F4000ED91FC910480F581E02DBE016B5E7F4F29
:101F5000C8010995009709F03EC1F8010085118577
:101F6000EACFF3E0FF120EC08F89882309F440C046
:101F7000823061F440E867E087E299E00E948711CF
:101F8000811148CF81E28093EB0047CF813029F463
:101F900040E86BE08BE199E0F1CF833099F70E9444
:101FA0001005DC011296ED90FC908E010F5F1F4F23
:101FB0006801E114F10479F0D701ED91FC910680FC
:101FC000F781E02DB801C7010995080F111DF70130
:101FD000E084F184EECFD8011C92F601019000203C
:101FE000E9F73197BF016C197D0940E0C601C6CF02
:101FF00065E079E0FB01449150E080E80E94D30560
:1020000009CF973009F4BECF983021F481E0809356
:10201000F10000CF993009F0FDCE837009F0B2CF06
:10202000EFE1F3E081E031E096E32191222371F0CA
:102030008093E9003093EB00DF0111972C912093FE
:10204000EC009093ED008F5F873079F78EE78093F7
:10205000EA001092EA008F8980939403DBCE8B8D87
:102060009C8D1092E900109282031092810390934C
:10207000800380937F03898D811192C08E899D8911
:10208000913A49F4813209F07DCF47E050E066E0B3
:1020900073E080E0B3CF913209F074CF833269F4FA
:1020A0008F89988DB0E0A0E08093020390930303A2
:1020B000A0930403B0930503ADCE803269F4809100
:1020C000E80082FFFCCF67E086E093E00E942A06EA
:1020D0008BEF8093E8009ECE823209F09BCE8F89F1
:1020E00080930D03EEEFFFE7859194918B3F9C4D1C
:1020F00051F1E0E0F8E08091060390910703A09190
:102100000803B0910903803B9440A105B105F1F4A7
:1021100080910D0380FD1AC0EE3F8AE0F80789F533
:1021200087E797E7918380838091600080938303A2
:1021300088E19BE00FB6F894A895809360000FBEED
:102140009093600067CEEEEFFAE0D5CF8081918169
:102150008737974709F05ECEA89580916000886127
:10216000809360008091830380936000EE3F2AE0BB
:10217000F20789F08091FE0A9091FF0A9183808393
:1021800049CE808191818737980751F29093FF0A59
:102190008093FE0AC5CF1092FF0A1092FE0A3ACE33
:1021A0000E941005DC0112960D911C91011511057C
:1021B00009F4E8CED801ED91FC910190F081E02D79
:1021C000BE016B5E7F4FC8010995811123CEF801D6
:1021D00000851185EBCF181619060CF41BCED2CE54
:1021E000F1E0FF12BECE69E079E004CF0F920FB6A6
:1021F0008F939F93EF93FF9380916B038D5F8D3748
:1022000008F08D5780936B03E3E7F3E080818E4FF6
:10221000808391819F4F918382818F4F82838381BD
:102220008F4F8383ECE6F3E080818F5F8083818131
:102230008F4F818382818F4F828383818F4F8383EE
:102240008FB18F6066991C9B88278F3681F48091AF
:102250006A03981B963068F0E0E0F8E087E7808337
:10226000818388E180936000F0936000FFCF9093BA
:102270006A03FF91EF919F918F910FBE0F90189578
:102280001F920F920FB60F9211242F933F934F93EB
:102290005F936F937F938F939F93AF93BF93EF93CE
:1022A000FF938091660390916703A0916803B091BA
:1022B00069030097A105B10539F12091650321114A
:1022C00005C0369A209164032111379A0197A1091C
:1022D000B109B7FD08C08093660390936703A0938C
:1022E0006803B0936903FF91EF91BF91AF919F9104
:1022F0008F917F916F915F914F913F912F910F90AF
:102300000FBE0F901F9018950E943E08ECCFEF92E1
:10231000FF920F931F93CF93DF93F82E192FE62E82
:10232000042F81E0860F880F0E94A50583E00E949C
:10233000A505CF2DD12FEC0EFD2EF11CCE15DF05FE
:10234000B9F007FF13C0FE0184910E94A505182F64
:1023500080E00E94A505812321968111EFCFDF91B6
:10236000CF911F910F91FF90EF9008958881EDCF4D
:1023700081E0F5CFEAE9F3E01382128288EE93E080
:10238000A0E0B0E084839583A683B78389E293E0DD
:10239000918380838FEF9FEF95878487E2E1F8E058
:1023A0001382128287E493E09183808383EC94E02C
:1023B0009093F9038093F80380E090E89093F703FB
:1023C0008093F60346983E9A47983F9AEEEFF7E0DF
:1023D000138212828BE393E0918380838EEF93E0EC
:1023E0009683858380E890E09087878380E490E0FF
:1023F0009287818785E0838B81E0828B16861586A4
:10240000108A178614861386818B1482EAEFF3E014
:10241000AEE0B3E08D919C911197CC97918380832E
:1024200012968D919C9188979383828308957894D6
:1024300083E084BD83E085BD81E080936E00E1E8A8
:10244000F0E083E08083E0E881E08083E1E983E0FD
:102450008083E0E981E08083E1EC87E08083E3EC46
:1024600081E08083E0EC82E08083E2EC81E08083A5
:10247000EAE787E08083806880831092940310925B
:102480008403109286038091D70081608093D700E7
:1024900080EA8093D80089B5806189BD89B5826062
:1024A00089BD09B400FEFDCF81E090E00E94640682
:1024B0008091D8008F7C80618093D8008091E0006B
:1024C000807F8093E0008091E1008E7E8093E10028
:1024D0008DE08093E200559A209A81EC80937C00F5
:1024E00081EF85B987EE84B982E38BB982EF8AB92F
:1024F000769A6E9880EF81BB10BA80E58CBD81E042
:102500008DBD85E00E94EE0A5F9A85E00E94EE0A8A
:102510005C98ECE1F7E085918EBD00000DB407FEFC
:10252000FDCFE932C1F75C9A81E88093640081E0D5
:10253000809365000E94200B80E80E94150B882381
:10254000A9F05C9885EA8EBD00000DB407FEFDCFB2
:102550005C9A2E982F982D988091640080628093C9
:10256000640081E083BF889513BEFCCF84E00E94A5
:10257000150B8823B9F12D9884E80E94150B882348
:10258000A1F02D9A88EC0E94EE0A2F986FEF82E05E
:1025900090E00E94501884EF91E00E9464062F9A08
:1025A00084E80E94150B8111FBCF84E10E94150B7A
:1025B0008823A1F02D9A88EC0E94EE0A2E9860E004
:1025C00082E090E00E94501884EF91E00E9464063F
:1025D0002E9A84E10E94150B8111FBCF88EC0E949A
:1025E000EE0AC4CF2D9A0E94490E81E090E00E942D
:1025F0004818282F2470F22E81FF0BC021112E982D
:10260000C1EFDFEF80E40E94150B882339F12E9A89
:102610002F9A82E30E94EE0A0E94F10A8111F9CFFB
:1026200081E28093010181E0809300018093700337
:102630000E94490E0E94F90AA0E58A2E912CC1E061
:1026400020917103222309F4A4C01092710320E0A9
:1026500030E0232BA9F30E940000F1CFFF2029F0E6
:10266000C430D10511F42E9A2F9881E00E94C6043F
:102670003C2F3770B32E9E01B3E035952795BA9560
:10268000E1F7C9019695982F8827979587958250ED
:102690009C4F70E060E02E3F4FEF340771F18C01EA
:1026A0000C561F4FDC0150E040E0FB01E459F94FAC
:1026B0006F01F601E40FF51FE491F0E04F010B2CE0
:1026C00002C0880C991C0A94E2F72F3F320739F0B8
:1026D0005496EC905497E8285496EC925497BB206B
:1026E00021F0F801E080E928E0824F5F5F4F0F5F43
:1026F0001F4F119648355105E1F62F5F3F4F805827
:102700009F4F685A7F4F603B710529F60E94200B4E
:102710008FE00E94EE0A2196C931D10509F072CFEF
:10272000FF2011F02F9A2D9880E991E00E94640615
:102730002D9A81E090E00E94481880FF6ACF8AE0DD
:1027400090E00E9448189FEF980F9E3F08F061CFDD
:1027500022E330E030937C0320937B0328E330E0D6
:1027600030937E0320937D03CAE0D0E0682F82E19E
:1027700098E00E943E0B2196CE010E944818C0317D
:10278000D105A1F70E94200B88EE93E00E94640619
:1027900040CF9091730380917203F92FF81B8F2F14
:1027A00030910101F31740F48F5F831708F04FCF8A
:1027B000C3BF889513BE4BCFC09371039093720330
:1027C000E7E7F3E080819181019680839183EEEFCA
:1027D000F3E021112FEF8FEF219321932193219388
:1027E0008150D0F710927E0310927D0310927C03EB
:1027F00010927B0380917A03809379030E94F10AFF
:1028000080937A03F2E04F2EF1E05F2E1201712CDB
:10281000612CB12CA12CF101EA0DFB1D4081442358
:1028200029F12AE0429FA0011124475D584FFA0187
:1028300004913196E4904E5F5F4F8091FC0390913C
:10284000FD03B301681B790BA091FA03B091FB0360
:102850008AEFC82E30E020E0C501E3E0880F991F21
:10286000EA95E1F78A1B9B0B0E940509FFEFAF1A5F
:10287000BF0A20E2A216B10471F630E2230E311C29
:1028800048E0640E711C80E86816710409F0C1CF3D
:102890008091770380FFBDC080E20E94150B8111FB
:1028A00047C180E20E94FF0A811110921B0380E45D
:1028B0000E94150B8823A1F080911903811110C08B
:1028C00080911A0381110CC080911C03811108C0F2
:1028D00080911D03811104C010921803C0931B0343
:1028E00080E40E94FF0A811110921B0388E00E947D
:1028F0000A0B8823C1F08091190390911B03911159
:10290000B2C3811110C080911A0381110CC0809153
:102910001C03811108C080911D03811104C0109215
:102920001403C093190380E10E94150B882321F042
:102930000E94110D1092BE0190920C0880920B081B
:1029400090920A088092090884E190E090930E0822
:1029500080930D0880910E0390910F030E94E10C6B
:10296000E4E6F0E0F0930C08E0930B08F0930A081B
:10297000E093090824E130E030930E0820930D081D
:1029800080911003909111030E94E10C409110037B
:1029900050911103DA01509660910E0370910F036C
:1029A0005B013AE0A30EB11C7B018CE0E80EF11C48
:1029B0004F5E5F4F10911803D0911B036B0192E0A3
:1029C000C90ED11C90E080E030E020E0F201E20F7F
:1029D000F31FE081EB50E43008F0D6C01111BDC008
:1029E000F90103E0EE0FFF1F0A95E1F7EE15FF0571
:1029F0000CF0CAC03896AE16BF060CF0C5C08417DE
:102A000095070CF0C1C08A179B070CF4BDC0D1E03C
:102A1000A6C03090180340911003509111037A0121
:102A200090E1E90EF11C60910E0370910F036B01B0
:102A3000A3E0CA0ED11C4F5E5F4F3B01E9E06E0E72
:102A4000711C5B01FCE0AF0EB11C02E011E090E0F4
:102A500080E030E020E0F801E20FF31FD081ADEF1D
:102A6000AD0FA73098F531101AC0D901AA0FBB1FBE
:102A7000AA0FBB1FAA0FBB1FAA15BB053CF51896D2
:102A80006A167B061CF58417950704F58E159F05BD
:102A9000ECF0DF5FDA3009F447C0D08317C0A1E063
:102AA0003A1214C0D901AA0FBB1FAA0FBB1FAA0F4D
:102AB000BB1FAC15BD0554F418966A177B0734F498
:102AC000841795071CF48E159F051CF72F5F3F4F49
:102AD0002032310509F0BFCF005E1F4F08968038C5
:102AE000910509F0B6CF30E020E090E080E0F901F8
:102AF00045E0EE0FFF1F4A95E1F7EE5FFE4FE80F4E
:102B0000F91F408155EF540F543020F44F5F4F3080
:102B100069F0408301968032910549F72F5F3F4F5E
:102B20002031310511F7B8CE1082D0CF4BE0F1CF74
:102B3000809119038111B5CE80911A038111B1CE14
:102B400080911C038111ADCE80911D038111A9CE0E
:102B5000C0931803C0931B03A4CE1130A9F4F9014C
:102B600013E0EE0FFF1F1A95E1F7EC15FD055CF47D
:102B700038966E177F073CF48417950724F48A175C
:102B80009B070CF0FFC011E02F5F3F4F2032310553
:102B900009F01CCFE0E24E0E511C089680389105DA
:102BA00009F012CF10931803D0931B0380911C03DC
:102BB000DD2309F413C10E94110D8823D9F10E946D
:102BC000AE0B811137C080911803809315038111DA
:102BD000DBC06091130370E08091770390917803DC
:102BE0000E94B218892B31F580910E0390910F034A
:102BF0008E3E91052CF4029690930F0380930E0362
:102C000080910E0390910F03CD978138910548F480
:102C10008091FA039091FB0302969093FB038093BB
:102C2000FA03809116038F5F80931603843010F0AF
:102C30001092160380911C0390911B03992309F4B1
:102C4000CDC0909119039111C9C090911A039111AF
:102C5000C5C08111C6C080911D03811102C0C093FF
:102C60001A0380911D03882359F080911403843145
:102C700008F442C11092140310921D03C0931A036A
:102C800080911903882349F080911403843108F45A
:102C9000B7C1C0931A031092190380911A038823B5
:102CA00049F10E94110D8111DBC1609113036695FA
:102CB00070E080917703909178030E94B218892B7D
:102CC000C9F480911003909111039C01295131099D
:102CD0002034310550F42091FC033091FD032F5F27
:102CE0003F4F3093FD032093FC0301969093110313
:102CF00080931003D091160340911803F2E84F9F80
:102D0000A00111244154584F609110037091110398
:102D10008091FC039091FD03681B790B80910E0359
:102D200090910F032091FA033091FB03821B930BC8
:102D3000FA0104913196E4904E5F5F4FDD23C9F0B4
:102D400021E030E0EE2DE77011F430E020E0EE2DD0
:102D5000E695E695E6952E0F311D029FD001039F63
:102D6000B00D1124DA9F9001DB9F300D1124420F2A
:102D7000531F2AEFC22E30E020E00E9405090E9476
:102D8000200B65CCD1E0FFCE813009F053CF6091AC
:102D9000130370E080917703909178030E94B2183A
:102DA000892B09F047CF80910E0390910F03893052
:102DB00091052CF0029790930F0380930E0380915E
:102DC0000E0390910F03CD978138910508F029CF1C
:102DD0008091FA039091FB0302971FCF882309F497
:102DE00040CF80911403843138F010921403C093C3
:102DF0001D0310921C0335CF0E94AE0B8111F5CF3D
:102E000020911303E0917703F0917803622F669588
:102E100070E0CF010E94B218892BF1F48091100369
:102E200090911103AC01495151094034510550F4BE
:102E30004091FC035091FD03415051095093FD0313
:102E40004093FC03019790931103809310038091AA
:102E500014038F5F80931403622F70E0CF010E94F0
:102E6000B218892B09F0FDCE80911803811128C07A
:102E700080910E0390910F038E3E91052CF40296E3
:102E800090930F0380930E0380910E0390910F0394
:102E9000CD978138910548F48091FA039091FB0316
:102EA00002969093FB038093FA03809116038F5F41
:102EB00080931603843008F4D4CE10921603D1CE3A
:102EC000813099F780910E0390910F03893091051D
:102ED0002CF0029790930F0380930E0380910E03C2
:102EE00090910F03CD9781389105F8F68091FA0300
:102EF0009091FB030297D5CF0E94110D8111BACE9C
:102F00000E94AE0B8111B6CE20911303E09177039E
:102F1000F0917803622F669570E0CF010E94B2189D
:102F2000892BF1F48091100390911103AC01495168
:102F300051094034510550F44091FC035091FD0378
:102F40004F5F5F4F5093FD034093FC0301969093B6
:102F5000110380931003809114038F5F80931403F7
:102F6000622F70E0CF010E94B218892B09F088CE41
:102F700080911803811128C080910E0390910F0356
:102F80008E3E91052CF4029690930F0380930E03CE
:102F900080910E0390910F03CD978138910548F4ED
:102FA0008091FA039091FB0302969093FB03809328
:102FB000FA03809116038F5F80931603843008F420
:102FC0005FCE109216035CCE813099F780910E038C
:102FD00090910F03893091052CF0029790930F0385
:102FE00080930E0380910E0390910F03CD9781384B
:102FF0009105F8F68091FA039091FB030297D5CFE3
:103000000E94AE0B811145CE60911303669570E06E
:1030100080917703909178030E94B218892B09F070
:103020003CCE80911003909111039C0129513109EC
:103030002134310550F42091FC033091FD032150DF
:1030400031093093FD032093FC0301979093110302
:1030500080931003809114038F5F809314031DCE1F
:1030600010921A0347CE81115ECC80911A03811110
:103070005ACC80911C03811156CC80911D03811183
:1030800052CC1092140310921B03C0931C034BCC20
:10309000F999FECF92BD81BDF89A992780B5089520
:1030A000262FF999FECF92BD81BDF89A019700B401
:1030B000021639F01FBA20BD0FB6F894FA9AF99AA1
:1030C0000FBE0895052E97FB1EF400940E947918F8
:1030D00057FD07D00E94811807FC03D04EF40C94D2
:1030E000791850954095309521953F4F4F4F5F4F40
:1030F000089590958095709561957F4F8F4F9F4F64
:103100000895A1E21A2EAA1BBB1BFD010DC0AA1F28
:10311000BB1FEE1FFF1FA217B307E407F50720F040
:10312000A21BB30BE40BF50B661F771F881F991FBB
:103130001A9469F760957095809590959B01AC0104
:10314000BD01CF010895A29FB001B39FC001A39F0D
:10315000700D811D1124911DB29F700D811D1124D0
:10316000911D0895AA1BBB1B51E107C0AA1FBB1FDD
:10317000A617B70710F0A61BB70B881F991F5A9503
:10318000A9F780959095BC01CD01089597FB072E76
:1031900016F4009407D077FD09D00E94B21807FCFE
:1031A00005D03EF4909581959F4F08957095619557
:1031B0007F4F0895EE0FFF1F0590F491E02D0994C5
:0431C000F894FFCFB1
:1031C40001100200000000000000000000000000E8
:1031D40000000000000000000000000000000000EB
:1031E40000020200000000000000000000000000D7
:1031F40000000000000000000000000000000000CB
:1032040000020200000000000000000000000000B6
:1032140000000000000000000000000000000000AA
:103224000002020000000000000000000000000096
:10323400000000000000000000000000000000008A
:103244000002020000000000000000000000000076
:10325400000000000000000000000000000000006A
:103264000002020101010101010101010101010149
:10327400030303030103030303010101010101012A
:103284000102020000000000000000000000000035
:10329400000000000000000000000000000000002A
:1032A4000002020101010000000000000000000013
:1032B400000000000000000000000000000000000A
:1032C40000020200000000000000000000000000F6
:1032D40000000002020200000000000000000000E4
:1032E400000202010101010000000B0B0B0B0B0B90
:1032F4000B0B0B0B0B0B0B0B0B0B0B0B0B0B000030
:1033040000020200000000000000000000000000B5
:1033140000000000000000000000000000000001A8
:103324000102020000000000000000000000000094
:103334000000000000000000000000000000000089
:103344000002020000000000000000000000000075
:103354000000000000000202020303030303010152
:10336400010202000000000101010101010101014B
:103374000101010101010000000000000000000043
:103384000002020000000000000000000000000035
:103394000000000000000000000000000000000029
:1033A4000002020101010101010101010101010108
:1033B40001010101010101010101010101010101F9
:1033C4000102FFFFFFFF00E10000000000003C00DD
:1033D400680002020000000200000000000000C1BA
:1033E4008081000000000000002405780645053AAD
:1033F400058B054905670500000000810737069025
:103404000C8F0C000000003E0B3706900C8F0C5301
:0A3414004F4C4944004E4F54000095
:00000001FF
