:100000000C94AB030C94D3030C94D3030C94D30340
:100010000C94D3030C94D3030C94D3030C94D30308
:100020000C94D3030C94D3030C94E7080C94560956
:100030000C94D3030C94D3030C94D3030C94D303E8
:100040000C94D3030C94D3030C94D3030C94D303D8
:100050000C94D3030C94D3030C94D3030C94880B0B
:100060000C94D3030C94D3030C94D3030C94D303B8
:100070000C94D3030C94D3030C94D3030C94D303A8
:100080000C94D20B0C94D3030C94D3030C94D30391
:100090000C94D3030C94D3030C94D3030C94D30388
:1000A0000C94D3030C94D3030C94D30300000000EE
:1000B000003E5B4F5B3E3E6B4F6B3E1C3E7C3E1CEE
:1000C000183C7E3C181C577D571C1C5E7F5E1C0034
:1000D000183C1800FFE7C3E7FF0018241800FFE7EB
:1000E000DBE7FF30483A060E2629792926407F05AE
:1000F0000507407F05253F5A3CE73C5A7F3E1C1CC4
:1001000008081C1C3E7F14227F22145F5F005F5F83
:1001100006097F017F006689956A6060606060946F
:10012000A2FFA29408047E040810207E2010080874
:100130002A1C08081C2A08081E101010100C1E0C7F
:100140001E0C30383E3830060E3E0E060000000011
:100150000000005F00000007000700147F147F14F8
:10016000242A7F2A1223130864623649562050003D
:1001700008070300001C2241000041221C002A1C29
:100180007F1C2A08083E0808008070300008080814
:100190000808000060600020100804023E51494534
:1001A0003E00427F400072494949462141494D3352
:1001B0001814127F1027454545393C4A49493141B9
:1001C000211109073649494936464949291E000087
:1001D00014000000403400000008142241141414DC
:1001E0001414004122140802015909063E415D59C8
:1001F0004E7C1211127C7F494949363E41414122D1
:100200007F4141413E7F494949417F090909013EFA
:10021000414151737F0808087F00417F4100204021
:10022000413F017F081422417F404040407F021C33
:10023000027F7F0408107F3E4141413E7F0909094A
:10024000063E4151215E7F09192946264949493216
:1002500003017F01033F4040403F1F2040201F3FDC
:100260004038403F63140814630304780403615961
:10027000494D43007F4141410204081020004141A3
:10028000417F04020102044040404040000307084F
:100290000020545478407F2844443838444444284B
:1002A000384444287F385454541800087E090218F2
:1002B000A4A49C787F0804047800447D400020407A
:1002C000403D007F1028440000417F40007C0478BE
:1002D00004787C080404783844444438FC18242406
:1002E0001818242418FC7C08040408485454542486
:1002F00004043F44243C4040207C1C2040201C3C03
:100300004030403C44281028444C9090907C4464F9
:10031000544C44000836410000007700000041368C
:10032000080002010204023C2623263C1EA1A16112
:10033000123A4040207A3854545559215555794144
:100340002154547841215554784020545579400C1B
:100350001E527212395555555939545454593955FC
:100360005454580000457C410002457D420001453F
:100370007C40F0292429F0F0282528F07C545545AC
:10038000002054547C547C0A097F4932494949323F
:100390003248484832324A4848303A4141217A3A54
:1003A00042402078009DA0A07D39444444393D401E
:1003B00040403D3C24FF2424487E4943662B2FFCCB
:1003C0002F2BFF0929F620C0887E09032054547979
:1003D000410000447D413048484A32384040227A4A
:1003E000007A0A0A727D0D19317D2629292F2826C7
:1003F0002929292630484D402038080808080808CF
:100400000808382F10C8ACBA2F102834FA00007B27
:10041000000008142A142222142A1408950022002D
:1004200095AA005500AAAA55AA55AA000000FF00E7
:10043000101010FF00141414FF001010FF00FF1024
:1004400010F010F0141414FC001414F700FF000056
:10045000FF00FF1414F404FC141417101F10101FD5
:10046000101F1414141F00101010F0000000001FC3
:10047000101010101F10101010F010000000FF10CE
:100480001010101010101010FF10000000FF1400CA
:1004900000FF00FF00001F10170000FC04F41414FC
:1004A0001710171414F404F40000FF00F7141414C8
:1004B00014141414F700F7141414171410101F1048
:1004C0001F141414F4141010F010F000001F101F6B
:1004D0000000001F14000000FC140000F010F010D9
:1004E00010FF10FF141414FF141010101F00000050
:1004F00000F010FFFFFFFFFFF0F0F0F0F0FFFFFF54
:100500000000000000FFFF0F0F0F0F0F38444438AA
:10051000447C2A2A3E147E02020606027E027E02E5
:1005200063554941633844443C04407E201E200604
:10053000027E020299A5E7A5991C2A492A1C4C7241
:1005400001724C304A4D4D303048784830BC625AC8
:10055000463D3E494949007E0101017E2A2A2A2A58
:100560002A44445F444440514A444040444A514034
:100570000000FF0103E080FF000008086B6B0836F5
:1005800012362436060F090F060000181800000066
:100590001010003040FF0101001F01011E00191D55
:1005A0001712003C3C3C3C0000000000F0F89C8E20
:1005B0008783878E9CF8F00000FEFF03030303038C
:1005C000070EFCF80000FEFF0303030303070EFC05
:1005D000F80000FFFF00000000000000FFFF000027
:1005E000FEFF8383838383C7EE7C380000F8FC0E14
:1005F00007030303070EFCF800003F7FE0C0808084
:10060000C0E07F3FFFFF01010101010101FFFF0089
:1006100000FFFF0C0C0C0C1C3E77E3C100007FFFB9
:10062000C0C0C0C0C0E0703F1F00001F3F70E0C0EE
:10063000C0C0E0703F1F00007FFFC1C1C1C1C1E366
:10064000773E1C00001F3F70E0C0C0C0E0703F1F3D
:10065000000000000001FFFF01000000D5F08D1434
:10066000A1C881CFD9F1AF20001008009C9E5EFE8A
:10067000BE3F7F7F3FBEFE5E9E9C00001C1E5EFE56
:10068000BA3B5F5F3BBAFE5E1E1C00009C9E5E7E16
:100690003A3B5F5F3B3A7E5E9E9C00100800007E06
:1006A000987DBEBC3CBCBE7D987E00000000007002
:1006B000187DB6BC3CBCB67D187000000000000E72
:1006C000987D363C3C3C367D980E000000080818AA
:1006D0001824C3C32418181866429999426618084A
:1006E0000B000202020000090400000102020000E7
:1006F000052400100105240101010424020605243B
:100700000600010705810310004009040100020AE8
:1007100000000007050202400000070583024000B8
:10072000000403090412010002EF020140412336D4
:100730008000010102030141726475696E6F204CF3
:100740004C430041726475696E6F204C656F6E6139
:1007500072646F00660C11241FBECFEFDAE0DEBFBB
:10076000CDBF11E0A0E0B1E0E6E8F3E202C0059001
:100770000D92A034B107D9F726E0A0E4B1E001C0A2
:100780001D92AA3FB207E1F713E0CBEAD3E004C021
:100790002197FE010E94BB11CA3AD107C9F70E94F6
:1007A000930C0C94C1110C940000809140010895A9
:1007B0004F925F927F928F929F92AF92BF92CF9211
:1007C000DF92EF92FF920F931F93CF93DF93DC01A1
:1007D000FA01B490319634914E5F5F4FCB2DD0E04B
:1007E000211102C0EE2019F1E1E0F0E0932F9770A3
:1007F00011F4F0E0E0E0832F8695869586958E0FC4
:100800009F2F911D8C9FF0018D9FF00D9C9FF00DEF
:100810001124EE9EC001EF9E900D1124080F191FA8
:100820002E9FC0012F9F900D1124480F591F6E015C
:10083000CA0EDB1E1C141D040CF0ACC0A038B105A0
:100840000CF0A8C0CB01830F911D181619060CF0EF
:10085000A1C0603471050CF09DC04115510509F42B
:1008600099C0F62FF7708F2ECB0177FD079623E006
:10087000959587952A95E1F7F82F77FF04C0882092
:1008800011F0FFEFF80FEE24FF24EA1AFB0AB7FD80
:1008900002C0F12CE12C80E8982E9A1A20E8C216AA
:1008A000D1040CF49B2C9E186F2F0F2E000C770B8D
:1008B000E62FE095FF3F0CF0E0E091E0832F87709A
:1008C00009F490E0369536953695930F690F711DB2
:1008D0006930710514F098E09F1B7E2E7F0E372D36
:1008E00020E83203B00111246A0F7B1F6E0D7F1DBB
:1008F0009701BE9E200D311D1124420F531FE82C7D
:10090000082C000CFF08020F131F9F0F971509F406
:1009100041C0DB01AA56BD4FD12CC12CC91490F5A2
:10092000F801EC0DFD1D249130E00E2C02C0220FC9
:10093000331F0A94E2F720953095FA01EC0DFD1D66
:10094000E491F0E02F010E2C02C0440C551C0A94D7
:10095000E2F777FC04C08C91822384298C93882051
:1009600061F086E087154CF05D01E0E8AE0EB11C49
:10097000F5018081832385298083FFEFCF1ADF0A69
:100980001196CCCF73944C0F5D1F0C0F1D1F605838
:100990007F4FBCCFDF91CF911F910F91FF90EF90D0
:1009A000DF90CF90BF90AF909F908F907F905F909F
:1009B0004F900895E6E9F2E0A0E0B8E000800EBCB8
:1009C0008111012C1197A0FDFDCF0192B9F70DB453
:1009D0000895FC0180919502882311F13FB7F894A6
:1009E00082E08093E9002091F200822F90E01816B7
:1009F000190614F481E090E0882339F0289844E641
:100A0000409394024091F1004083222339F02091D9
:100A1000F200211103C02BE62093E8003FBF0895A8
:100A20008FEF9FEF08952FB7F89483E08093E9004C
:100A30009091E800892F807295FF04C09091F20098
:100A400080E4891B2FBF089580918C0281110DC015
:100A500082E08093880284E08093890210928B0266
:100A600010928A0281E080938C0288E892E00895D7
:100A7000CF93DF931F92CDB7DEB76983DC01ED9191
:100A8000FC910280F381E02D41E050E0BE016F5FF8
:100A90007F4F09950F90DF91CF91089583E0809368
:100AA000E9008091F200882319F08AE38093E8003E
:100AB00008950E94130590E00895CF93DF931F924D
:100AC000CDB7DEB7FC018485958597FD08C02FEF73
:100AD0003FEF358724870F90DF91CF910895CE01A6
:100AE00001960E94E904019719F4898190E0F3CFFF
:100AF0008FEF9FEFF0CF0F931F93CF93DF931F9252
:100B0000CDB7DEB78C01FC018485958597FF0BC0BE
:100B1000CE0101960E94E904019771F4898190E069
:100B2000F80195878487F801848595850F90DF917A
:100B3000CF911F910F9108958FEF9FEFF1CFFC019F
:100B40008485958597FD0BC09FB7F89482E08093CC
:100B5000E9008091F2009FBF90E0019608959FB751
:100B6000F89482E08093E9008091F2009FBF90E0CA
:100B70000895409182025091830220918002309129
:100B8000810242175307B4F49091E8009570E1F3A5
:100B90009091E80092FD19C08093F100809182024B
:100BA0009091830201968F739927892B19F48EEF08
:100BB0008093E80080918202909183020196909345
:100BC00083028093820281E0089580E00895DF929D
:100BD000EF92FF920F931F93CF93DF93D82E8A014A
:100BE000EB017B01E40EF51ECE15DF0559F0D7FEB3
:100BF00012C0FE0184910E94B90521968111F4CFA3
:100C00000FEF1FEFC801DF91CF911F910F91FF9060
:100C1000EF90DF9008958881EECF0F931F93CF93CD
:100C2000DF931F92CDB7DEB782E0898342E450E0C4
:100C30006FED76E080E80E94E7050E942405DC0164
:100C400012960D911C910115110589F0D801ED91B5
:100C5000FC910280F381E02DBE016F5F7F4FC801E0
:100C6000099597FD04C0F80100851185ECCF8981B5
:100C70000F90DF91CF911F910F910895615030F047
:100C80002091F100FC0120830196F8CF289884E69A
:100C9000809394020895AF92BF92CF92DF92EF9229
:100CA000FF920F931F93CF93DF936C017B018B0116
:100CB000040F151FEB015E01AE18BF08C017D10766
:100CC00059F06991D601ED91FC910190F081E02DF0
:100CD000C6010995892B79F7C501DF91CF911F9145
:100CE0000F91FF90EF90DF90CF90BF90AF9008955D
:100CF0003FB7F8948091500190915101A091520119
:100D0000B091530126B5A89B05C02F3F19F001965D
:100D1000A11DB11D3FBFBA2FA92F982F8827BC0155
:100D2000CD01620F711D811D911D42E0660F771F7D
:100D3000881F991F4A95D1F708958F929F92AF927D
:100D4000BF92CF92DF92EF92FF926B017C010E94E3
:100D500078064B015C01C114D104E104F104B9F03F
:100D60000E947806681979098A099B09683E7340D0
:100D70008105910580F321E0C21AD108E108F1084C
:100D800088EE880E83E0981EA11CB11CE4CFFF9072
:100D9000EF90DF90CF90BF90AF909F908F9008958D
:100DA0008F929F92AF92BF92CF92DF92EF92FF927B
:100DB0000F931F93CF93DF936C017B018A01809186
:100DC0001201882309F45CC080919502882309F4FC
:100DD00057C08091870280FF05C08091E00082604B
:100DE0008093E000E801B12C8AEFA82E93E0892ED1
:100DF0002AE3922E209711F4BB20D9F10E9413050B
:100E000081110AC0AA94AA20D9F161E070E080E0C3
:100E100090E00E949D06EECF8C171D0611F00CF09D
:100E20008C2F9FB7F8948092E9002091E80025FD6F
:100E300002C09FBFDFCF282F30E0C21BD30BF701CA
:100E4000815020F041914093F100FACFE20EF31E61
:100E5000BB2021F09092E800B12CEBCF8091E8000C
:100E600085FDE7CF9092E800BB24B394209709F367
:100E7000F3CF5D9884E680938602101611063CF04D
:100E800081E090E0F6019383828310E000E0C801E6
:100E9000DF91CF911F910F91FF90EF90DF90CF9056
:100EA000BF90AF909F908F90089520914801E0915E
:100EB0004601F0914701CF0102969093470180933C
:100EC0004601222319F085919491089580819181A2
:100ED0000895CF92DF92EF92FF92CF93DF930E941B
:100EE0005507811520E8920791F4809171008D7F5C
:100EF0008093710010929100469847981092450196
:100F0000DF91CF91FF90EF90DF90CF90089521E097
:100F100020934501813020E8920751F480914301EC
:100F20009091440190934701809346010E94550798
:100F300097FD05C020914201222309F454C020915D
:100F40004101211150C021E020934901EC01DF77DC
:100F5000209709F04BC081E080934A0146983FE911
:100F6000C32E3FE0D32EE12CF12CCAEFD0E0E0916C
:100F7000F406F091F5060995811103C081E0809394
:100F80004A0180914901882329F080914A018823F0
:100F900009F43FC047980E9455070097F1F19C0162
:100FA000DE010E949811DC01CB0129E0B595A795DF
:100FB000979587952A95D1F7109290002AE0209373
:100FC0009100D0929900C092980080934B01909329
:100FD0004C01A0934D01B0934E018091710082604D
:100FE000809371008DCF10924901B0CF9E0150E0E7
:100FF00040E060E472E48FE090E00E9457116901E4
:101000007A0181E0C81AD108E108F10810924A017A
:10101000AECF4699BFCF479ABECF8FEF9FEFDC018F
:10102000CBCF9C01E1E7F0E090819D7F908310920F
:101030004801E6EEF6E0F0934701E0934601F093B5
:101040004401E0934301318320837383628380E012
:1010500090E8958384830C9469072D9A0895BC01C8
:1010600090E080E00C949D068FB18095807F669B18
:1010700088601C9B846008953E9A3F9A81E080932B
:10108000400108956F927F928F929F92AF92BF928C
:10109000CF92DF92EF92FF920F931F93CF93DF9344
:1010A0006D3079F0C0917B02D0917C026A30D1F42E
:1010B00010927A02109279022896D0937C02C09303
:1010C0007B0281E090E0DF91CF911F910F91FF9023
:1010D000EF90DF90CF90BF90AF909F908F907F90D8
:1010E0006F900895C0905401B09000014091790232
:1010F00050917A0285E0689FF0011124E455FF4F7A
:101100009A01812C90E1D92E95E010E0891629F002
:10111000BF016F5F7F4F1491FB01BE0188E0A82ED5
:1011200010FD16C09C2CCB1014C01695AA946F5FAE
:101130007F4FA110F5CF83942F5F3F4F96E0891228
:10114000E3CF4A5F5F4F50937A0240937902B9CF61
:101150009B2C2038310548F76034710530F7CB01FE
:1011600001E081FD04E080FD000F82FD0295887F93
:10117000D89ED0011124A20FAA56BD4F8C9190FE8B
:1011800003C0802B8C93D1CF00958023FBCFCF93CE
:10119000C82F0E943408982F9C2381E09C1380E084
:1011A000CF91089580E00C94DA04089590E080E0F7
:1011B00008950C94411182E090E00E94D9088111B9
:1011C0000C943C08109240013E983F9808951F925D
:1011D0000F920FB60F9211248F939F938091E1008D
:1011E0009091E100937F9093E10083FF0FC01092F4
:1011F000E90091E09093EB001092EC0092E3909361
:10120000ED001092950298E09093F00082FF22C0CA
:1012100093E09093E9009091F200992319F09AE3FA
:101220009093E80090918602992341F09091860274
:10123000915090938602911101C05D9A9091940211
:10124000992341F0909194029150909394029111BE
:1012500001C0289A84FF18C08091E2008E7E8160D0
:101260008093E2008091E1008F7E8093E100809185
:1012700087028E7E8061809387029F918F910F906D
:101280000FBE0F901F90189580FFF7CF8091E2005E
:101290008E7E80618093E2008091E1008E7E80935B
:1012A000E100809187028E7E8160E5CF1F920F92D0
:1012B0000FB60F921124CF92DF92EF92FF920F930D
:1012C0001F932F933F934F935F936F937F938F93CE
:1012D0009F93AF93BF93EF93FF93CF93DF93CDB7DC
:1012E000DEB76C97DEBFCDBF1092E9008091E800B9
:1012F00083FF25C068E0CE0145960E943E0682EF3E
:101300008093E8008D8987FF39C09091E80090FFB5
:10131000FCCF982F907609F034C19E894F89588D63
:101320002F89F88C911131C0803861F58091850248
:101330008093F1001092F1008EEF8093E8006C969C
:101340000FB6F894DEBF0FBECDBFDF91CF91FF91F6
:10135000EF91BF91AF919F918F917F916F915F912D
:101360004F913F912F911F910F91FF90EF90DF9040
:10137000CF900F900FBE0F901F9018959EEF9093F7
:10138000E800C7CF1092F100D5CF913059F4811108
:10139000D3CF4130510581F6809185028D7F8093B6
:1013A0008502CACF933049F48111C6CF413051052F
:1013B00019F6809185028260F2CF953041F48091D8
:1013C000E80080FFFCCF20682093E300B5CF963083
:1013D00009F0A9C00B8D1C8D22E01092E90010923B
:1013E000830210928202F2122EC010928102109299
:1013F00080020E940D061F8299E09983FA8291E093
:101400009E8390EA98879AEF998720918202309183
:101410008302275F3F4F3C832B838D831092E9002B
:101420001092830210928202109381020093800234
:1014300049E050E0BE016F5F7F4F80E00E94E7050A
:101440000E940D0679CF10938102009380020E94C2
:101450002405DC0112960D911C910115110509F46A
:1014600051C1D801ED91FC910480F581E02DBE01C0
:101470006B5E7F4FC8010995009709F03EC1F801E6
:1014800000851185EACFF3E0FF120EC08F89882313
:1014900009F440C0823061F440E860E183E497E001
:1014A0000E94330C811148CF81E28093EB0047CF3B
:1014B000813029F440E86BE087E397E0F1CF833097
:1014C00099F70E942405DC011296ED90FC908E01A4
:1014D0000F5F1F4F6801E114F10479F0D701ED911E
:1014E000FC910680F781E02DB801C7010995080F2E
:1014F000111DF701E084F184EECFD8011C92F601B2
:1015000001900020E9F73197BF016C197D0940E097
:10151000C601C6CF61E277E0FB01449150E080E86C
:101520000E94E70509CF973009F4BECF983021F427
:1015300081E08093F10000CF993009F0FDCE8370F7
:1015400009F0B2CFECE1F1E081E031E096E32191E6
:10155000222371F08093E9003093EB00DF011197B3
:101560002C912093EC009093ED008F5F873079F7FA
:101570008EE78093EA001092EA008F8980939502AB
:10158000DBCE8B8D9C8D1092E9001092830210921D
:1015900082029093810280938002898D811192C092
:1015A0008E899D89913A49F4813209F07DCF47E0D7
:1015B00050E06BE071E080E0B3CF913209F074CF7E
:1015C000833269F48F89988DB0E0A0E080930701A1
:1015D00090930801A0930901B0930A01ADCE803227
:1015E00069F48091E80082FFFCCF67E08BE091E036
:1015F0000E943E068BEF8093E8009ECE823209F077
:101600009BCE8F8980931201EEEFFFE78591949135
:101610008B3F9C4D51F1E0E0F8E080910B019091FF
:101620000C01A0910D01B0910E01803B9440A105E9
:10163000B105F1F48091120180FD1AC0EE3F8AE0FD
:10164000F80789F587E797E79183808380916000A9
:101650008093840288E19BE00FB6F894A89580936C
:1016600060000FBE9093600067CEEEEFFAE0D5CF3A
:10167000808191818737974709F05ECEA895809148
:101680006000886180936000809184028093600094
:10169000EE3F2AE0F20789F08091FE0A9091FF0A5E
:1016A0009183808349CE808191818737980751F259
:1016B0009093FF0A8093FE0AC5CF1092FF0A109202
:1016C000FE0A3ACE0E942405DC0112960D911C916F
:1016D0000115110509F4E8CED801ED91FC910190B6
:1016E000F081E02DBE016B5E7F4FC801099581112D
:1016F00023CEF80100851185EBCF181619060CF4DE
:101700001BCED2CEF1E0FF12BECE65E277E004CF71
:101710001F920F920FB60F9211242F933F938F9326
:101720009F93AF93BF938091550190915601A091E3
:101730005701B091580130914F0123E0230F2D370D
:1017400058F50196A11DB11D20934F0180935501BD
:1017500090935601A0935701B09358018091500186
:1017600090915101A0915201B09153010196A11D98
:10177000B11D8093500190935101A0935201B093F9
:101780005301BF91AF919F918F913F912F910F90F6
:101790000FBE0F901F90189526E8230F0296A11DEB
:1017A000B11DD2CF1F920F920FB60F9211242F931B
:1017B0003F934F935F936F937F938F939F93AF93D9
:1017C000BF93EF93FF9380914B0190914C01A091B7
:1017D0004D01B0914E01892B8A2B8B2B09F440C00F
:1017E00080914A0181110BC088B190E4892788B9A2
:1017F00080914901882319F088B1805888B9809177
:101800004B0190914C01A0914D01B0914E011816E1
:1018100019061A061B069CF480914B0190914C010D
:10182000A0914D01B0914E010197A109B10980939A
:101830004B0190934C01A0934D01B0934E01FF9149
:10184000EF91BF91AF919F918F917F916F915F9138
:101850004F913F912F910F900FBE0F901F901895B1
:101860000E946907ECCFEF92FF920F931F93CF93E3
:10187000DF93F82E192FE62E042F81E0860F880FB4
:101880000E94B90583E00E94B905CF2DD12FEC0E3F
:10189000FD2EF11CCE15DF05B9F007FF13C0FE01C8
:1018A00084910E94B905182F80E00E94B905812318
:1018B00021968111EFCFDF91CF911F910F91FF9072
:1018C000EF9008958881EDCF81E0F5CFE6E9F6E06D
:1018D0001382128288EE93E0A0E0B0E084839583C7
:1018E000A683B78386E291E0918380838FEF9FEF99
:1018F00095878487E6EFF6E01382128288E391E011
:101900009183808385ED93E09093F5068093F406B0
:1019100080E090E89093F3068093F20646983E9A12
:1019200047983F9A0895CF93DF9300D000D01F923D
:10193000CDB7DEB7789484B5826084BD84B581600C
:1019400084BD85B5826085BD85B5816085BD80918A
:101950006E00816080936E00109281008091810002
:1019600082608093810080918100816080938100FA
:1019700080918000816080938000809191008260DE
:10198000809391008091910081608093910080917B
:1019900090008160809390008091C100846080936A
:1019A000C1008091C10082608093C1008091C1001C
:1019B00081608093C1008091C30081608093C300E7
:1019C0008091C00082608093C0008091C2008160DD
:1019D0008093C20080917A00846080937A00809125
:1019E0007A00826080937A0080917A00816080938F
:1019F0007A0080917A00806880937A001092950234
:101A000010928502109287028091D70081608093A6
:101A1000D70080EA8093D80089B5806189BD89B5F7
:101A2000826089BD09B400FEFDCF61E070E080E016
:101A300090E00E949D068091D8008F7C8061809309
:101A4000D8008091E000807F8093E0008091E100E9
:101A50008E7E8093E1008DE08093E200559A209A7B
:101A600081EC80937C0085B1806F85B984B1877EDD
:101A700084B984B1876E84B95E9A5F988AB1806DAB
:101A80008AB9769A6E9881B3806F81BB899880B34A
:101A90008D7080BB80E58CBD81E08DBD85E090E0E0
:101AA0000E942F085F9A85E090E00E942F085E98C0
:101AB0005C98ECE5F6E089E696E024912EBD000006
:101AC0000DB407FEFDCF31968E179F07B1F75C9AD4
:101AD00081E8809364008091650081608093650057
:101AE0000E94D20880E80E94C7088823A9F05C9869
:101AF00085EA8EBD00000DB407FEFDCF5C9A2E98DE
:101B00002F982D988091640080628093640081E01A
:101B100083BF889513BEFCCF84E00E94C70888234A
:101B200009F448C02D9884E80E94C7088823E1F092
:101B30000E942D0888EC90E00E942F082F9882E0E8
:101B400090E00E9441118F3F29F06FEF82E090E01A
:101B50000E94491184EF91E00E942F082F9A84E897
:101B60000E94C7088111FBCF84E10E94C708882327
:101B7000E1F00E942D0888EC90E00E942F082E983A
:101B800082E090E00E944111882329F060E082E029
:101B900090E00E94491184EF91E00E942F082E9A54
:101BA00084E10E94C7088111FBCF88EC90E00E947D
:101BB0002F08B2CF0E942D080E94DB0881E090E040
:101BC0000E94D908282F2470722E81FF15C0211180
:101BD0002E9871EF272E33243A9408E010E0ECE6BB
:101BE000EE2EF12C80E40E94C708882309F496C0E9
:101BF0002E9A2F9A0E942D0882E390E00E942F08CF
:101C00000E9434088111F8CF81E28093010181E0C4
:101C100080930001809354010E94DB080E943C08DD
:101C200062E370E084E893E00E94110864EF71E0E1
:101C300080E090E00E949D0667E171E003E111E021
:101C4000A5E2B2E04BE1A42E41E0B42E5DE4452EC6
:101C500052E0552EEDE56E2EE1E07E2E85ED91E011
:101C600025E831E099249394F0EFCF2EDD24DA9427
:101C700040EEE42EFF24FA94FB014191BF0150E0B5
:101C8000F80181908F01F90111821082FC015183CA
:101C90004083F30190828C92F2019082F901D38209
:101CA000C282FC0153834283F301918211968C928C
:101CB0001197F2019182F901F582E482FC015583CA
:101CC0004483F301928212968C921297F2019282CF
:101CD0002C5E3F4F4496FAE06F0E711C1A964AE054
:101CE000440E511CA616B70639F68FB7F8944091EA
:101CF00055015091560160915701709158018FBF65
:101D000010915901112309F4DBC010925901E0E050
:101D1000F0E0EF2B51F30E940000E7CF772031F085
:101D200034E02316310411F42E9A2F9881E00E949A
:101D3000DA04910137FE04C0222733272219330920
:101D400027703327C10137FC079663E09595879587
:101D50006A95E1F737FE05C00197A801421B530BB6
:101D60009A01BC017695762F6627779567956A5616
:101D70007D4FB0E0A0E02801421A530A8E3F5FEF8A
:101D8000950709F446C048E550E0FD01EC5FF94FC6
:101D90005F014B01F0E88F0E911C8F3F9807C9F04F
:101DA000F501E41BF50B64906701C41AD50AC60E51
:101DB000D71EE62DF0E0022E02C0EE0FFF1F0A94A0
:101DC000E2F7FD83EC83F6016080FC816F2AF60167
:101DD000608221153105C9F0F501E41BF50B649013
:101DE0006701C41AD50AC80CD91CE62DF0E0042CF2
:101DF00002C0F595E7950A94E2F7FD83EC83F601BE
:101E00006080FC816F2AF60160824150510909F01F
:101E1000C4CF0196A85ABF4F60587F4FA03BB10571
:101E200009F0ACCF0E94D2088FE090E00E942F080A
:101E3000FFEF2F1A3F0A29E12216310409F0D2CE12
:101E4000772011F02F9A2D9880E991E00E942F08B9
:101E50000E942D0881E090E00E94D90880FFCCCE3E
:101E60008AE090E00E94D9089FEF980F9E3F08F00B
:101E7000C3CE22E330E030937A022093790228E344
:101E800030E030937C0220937B024BE050E05A8399
:101E90004983682F86EF96E00E94420889819A81E3
:101EA0000E94D908E981FA813196FA83E983719712
:101EB00081F70E94D20888EE93E00E942F089CCE02
:101EC00080915A01942F981B892F909101018917B5
:101ED00048F48F5F891708F01ACFE1E0E3BF8895D7
:101EE00013BE15CFF1E0F093590140935A012091B0
:101EF0005B0130915C012F5F3F4F3A832983309320
:101F00005C0120935B0130917E023B8330937D0224
:101F10000E943408F82E80937E02E6E9F2E0111167
:101F20001FEF002411931193119311930394D1F790
:101F300010927C0210927B0210927A021092790227
:101F400089819A816AE070E00E94A711892B41F48F
:101F5000809102018F5F833008F039C180930201C4
:101F600085E792E09A83898325ED822E21E0922EE7
:101F700035E8632E31E0732E1D821C82E981FA81DF
:101F80008191FA83E983811126C1CC80DD80230110
:101F9000B12CA12CF20120803180F601E35BFD4FD2
:101FA00080818823B1F0F601EB5DFD4F4081F2E3C3
:101FB0004F9FA00111244759594FF401EA0DFB1D11
:101FC00060817181E12C8A0120910201C1010E948E
:101FD000D803F601E35AFE4F8081280E311CF2012E
:101FE000219231922F01FFEFCF1ADF0A22E0A20ED9
:101FF000B11C36E0A316B10469F6F3018481958122
:10200000813891059CF0E981FA81319721E02083A4
:10201000EC81FD81E35AFE4F93E08191853020F4FD
:10202000DF0111978F5F8C939150B9F724E1620E15
:10203000711C4C815D81465F5F4F5D834C8354E131
:10204000850E911C8C819D81889709F097CF80E245
:102050000E94C708882349F08091050190910601EC
:102060000397909306018093050180E40E94C708BE
:10207000882349F080910501909106010396909381
:1020800006018093050180E80E94C708882349F073
:102090008091030190910401039790930401809330
:1020A000030180E10E94C708882349F08091030161
:1020B00090910401039690930401809303019B8106
:1020C00093FD69C0F3FE67C06AE070E084E893E0C6
:1020D0000E941108E1E0E0937F0285E8E82E81E0AC
:1020E000F82E95EDC92E91E0D92E0DE412E058019D
:1020F0001A821982F501A1915F01AA23A1F16091D1
:102100000301709104014091050150910601E9819C
:10211000FA81EC0DFD1D80819181E981FA81EE0D3E
:10212000FF1D20813181FA0131972E173F07DCF422
:1021300043505109205F3F4F42175307A4F49B01BE
:102140002E5F3F4F8217930774F40896681779073C
:1021500054F4F5013197A150A08368EC70E088EC4D
:1021600090E00E94110829813A812E5F3F4F3A8307
:1021700029832630310509F0BDCF065F1F4F34E1BA
:10218000C30ED11C44E1E40EF11C85E792E08017F8
:10219000910709F0ACCF80917D0283FF05C080914B
:1021A0007E0283FF10927F0220917F0260910301E3
:1021B00070910401E22E0DEC16E0A801809105015A
:1021C000909106010E94D8030E94D208A0CD41E060
:1021D00040930201C5CE813009F028CFCC80DD804C
:1021E0002301B12CA12CF20120803180F601E35BA8
:1021F000FD4F80818823B1F0F601EB5DFD4F4081FA
:10220000F2E34F9FA00111244759594FF401EA0D01
:10221000FB1D60817181E12C8A0120910201C101C5
:102220000E94D803F601E35AFE4F8081281A310834
:10223000F201219231922F01FFEFCF1ADF0A22E043
:10224000A20EB11C36E0A316B10469F6F301808139
:102250009181803F9F4F0CF0E9CEE981FA8131975F
:102260001082EC81FD81E35AFE4F90E08191853030
:1022700020F4DF0111978F5F8C939F5F9330B1F74C
:10228000D5CEF999FECF92BD81BDF89A992780B538
:102290000895262FF999FECF1FBA92BD81BD20BDAA
:1022A0000FB6F894FA9AF99A0FBE01960895052E82
:1022B00097FB1EF400940E946E1157FD07D00E94F8
:1022C000761107FC03D04EF40C946E115095409596
:1022D000309521953F4F4F4F5F4F089590958095D2
:1022E000709561957F4F8F4F9F4F0895A1E21A2EF1
:1022F000AA1BBB1BFD010DC0AA1FBB1FEE1FFF1FAA
:10230000A217B307E407F50720F0A21BB30BE40BF9
:10231000F50B661F771F881F991F1A9469F7609540
:102320007095809590959B01AC01BD01CF010895FA
:10233000A29FB001B39FC001A39F700D811D112406
:10234000911DB29F700D811D1124911D0895AA1B2E
:10235000BB1B51E107C0AA1FBB1FA617B70710F090
:10236000A61BB70B881F991F5A95A9F780959095C2
:10237000BC01CD010895EE0FFF1F0590F491E02DF3
:062380000994F894FFCF60
:102386000110011F003F00FFFFFFFF00E1000000FA
:10239600000000000100010A141E2800C18081000F
:1023A6000000000000003805D00659054E059F05BF
:1023B6005D057B050000000042084B06D608D508DF
:00000001FF
