:100000000C94CC030C94F4030C94F4030C94F403BC
:100010000C94F4030C94F4030C94F4030C94F40384
:100020000C94F4030C94F4030C949F0F0C940E1096
:100030000C94F4030C94F4030C94F4030C94F40364
:100040000C94F4030C94F4030C94F4030C94F40354
:100050000C94F4030C94F4030C94F4030C948712A2
:100060000C94F4030C94F4030C94F4030C94F40334
:100070000C94F4030C94F4030C94F4030C94F40324
:100080000C9440120C94F4030C94F4030C94F403B9
:100090000C94F4030C94F4030C94F4030C94F40304
:1000A0000C94F4030C94F4030C94F403000000008B
:1000B000003E5B4F5B3E3E6B4F6B3E1C3E7C3E1CEE
:1000C000183C7E3C181C577D571C1C5E7F5E1C0034
:1000D000183C1800FFE7C3E7FF0018241800FFE7EB
:1000E000DBE7FF30483A060E2629792926407F05AE
:1000F0000507407F05253F5A3CE73C5A7F3E1C1CC4
:1001000008081C1C3E7F14227F22145F5F005F5F83
:1001100006097F017F006689956A6060606060946F
:10012000A2FFA29408047E040810207E2010080874
:100130002A1C08081C2A08081E101010100C1E0C7F
:100140001E0C30383E3830060E3E0E060000000011
:100150000000005F00000007000700147F147F14F8
:10016000242A7F2A1223130864623649562050003D
:1001700008070300001C2241000041221C002A1C29
:100180007F1C2A08083E0808008070300008080814
:100190000808000060600020100804023E51494534
:1001A0003E00427F400072494949462141494D3352
:1001B0001814127F1027454545393C4A49493141B9
:1001C000211109073649494936464949291E000087
:1001D00014000000403400000008142241141414DC
:1001E0001414004122140802015909063E415D59C8
:1001F0004E7C1211127C7F494949363E41414122D1
:100200007F4141413E7F494949417F090909013EFA
:10021000414151737F0808087F00417F4100204021
:10022000413F017F081422417F404040407F021C33
:10023000027F7F0408107F3E4141413E7F0909094A
:10024000063E4151215E7F09192946264949493216
:1002500003017F01033F4040403F1F2040201F3FDC
:100260004038403F63140814630304780403615961
:10027000494D43007F4141410204081020004141A3
:10028000417F04020102044040404040000307084F
:100290000020545478407F2844443838444444284B
:1002A000384444287F385454541800087E090218F2
:1002B000A4A49C787F0804047800447D400020407A
:1002C000403D007F1028440000417F40007C0478BE
:1002D00004787C080404783844444438FC18242406
:1002E0001818242418FC7C08040408485454542486
:1002F00004043F44243C4040207C1C2040201C3C03
:100300004030403C44281028444C9090907C4464F9
:10031000544C44000836410000007700000041368C
:10032000080002010204023C2623263C1EA1A16112
:10033000123A4040207A3854545559215555794144
:100340002154547841215554784020545579400C1B
:100350001E527212395555555939545454593955FC
:100360005454580000457C410002457D420001453F
:100370007C40F0292429F0F0282528F07C545545AC
:10038000002054547C547C0A097F4932494949323F
:100390003248484832324A4848303A4141217A3A54
:1003A00042402078009DA0A07D39444444393D401E
:1003B00040403D3C24FF2424487E4943662B2FFCCB
:1003C0002F2BFF0929F620C0887E09032054547979
:1003D000410000447D413048484A32384040227A4A
:1003E000007A0A0A727D0D19317D2629292F2826C7
:1003F0002929292630484D402038080808080808CF
:100400000808382F10C8ACBA2F102834FA00007B27
:10041000000008142A142222142A1408950022002D
:1004200095AA005500AAAA55AA55AA000000FF00E7
:10043000101010FF00141414FF001010FF00FF1024
:1004400010F010F0141414FC001414F700FF000056
:10045000FF00FF1414F404FC141417101F10101FD5
:10046000101F1414141F00101010F0000000001FC3
:10047000101010101F10101010F010000000FF10CE
:100480001010101010101010FF10000000FF1400CA
:1004900000FF00FF00001F10170000FC04F41414FC
:1004A0001710171414F404F40000FF00F7141414C8
:1004B00014141414F700F7141414171410101F1048
:1004C0001F141414F4141010F010F000001F101F6B
:1004D0000000001F14000000FC140000F010F010D9
:1004E00010FF10FF141414FF141010101F00000050
:1004F00000F010FFFFFFFFFFF0F0F0F0F0FFFFFF54
:100500000000000000FFFF0F0F0F0F0F38444438AA
:10051000447C2A2A3E147E02020606027E027E02E5
:1005200063554941633844443C04407E201E200604
:10053000027E020299A5E7A5991C2A492A1C4C7241
:1005400001724C304A4D4D303048784830BC625AC8
:10055000463D3E494949007E0101017E2A2A2A2A58
:100560002A44445F444440514A444040444A514034
:100570000000FF0103E080FF000008086B6B0836F5
:1005800012362436060F090F060000181800000066
:100590001010003040FF0101001F01011E00191D55
:1005A0001712003C3C3C3C000000000000B0000082
:1005B000A170E150964F26900F1D070C0096690020
:1005C0004AE44A0048444000806810000F99FB8FBD
:1005D0009DBDBBFB77D4D4DF1F1A1AFE7F5D5DFF84
:1005E000805A0000A0A4AA0010BA3400FF5953F3A7
:1005F000FF9B9B9EFFB9B996FF9595D19FF4940FF1
:10060000FC295F91FF1838F8FF9294FFFF95D5F70A
:10061000BFB5DDD7F18F81F1F788C8F779C6467984
:1006200009FD9B090196F800828182805071620069
:100630007756560076763700A2B773010772060028
:100640007827500073347400775176007F55F70097
:1006500047711000324772007364730015A2750071
:1006600061679400009F6060F4F2F6F2F0F89C8EEF
:100670008783878E9CF8F00000FEFF0303030303CB
:10068000070EFCF80000FEFF0303030303070EFC44
:10069000F80000FFFF00000000000000FFFF000066
:1006A000FEFF8383838383C7EE7C380000F8FC0E53
:1006B00007030303070EFCF800003F7FE0C08080C3
:1006C000C0E07F3FFFFF01010101010101FFFF00C9
:1006D00000FFFF0C0C0C0C1C3E77E3C100007FFFF9
:1006E000C0C0C0C0C0E0703F1F00001F3F70E0C02E
:1006F000C0C0E0703F1F00007FFFC1C1C1C1C1E3A6
:10070000773E1C00001F3F70E0C0C0C0E0703F1F7C
:10071000000000000001FFFF01000000D5F08D1473
:10072000A1C881CFD9F1AF2000080B00020202005E
:100730000009040000010202000005240010010568
:100740002401010104240206052406000107058195
:100750000310004009040100020A0000000705021E
:100760000240000007058302400000040309041250
:10077000010002EF02014041233680000101020323
:100780000141726475696E6F204C4C430041726484
:1007900075626F790000041311241FBECFEFDAE0F9
:1007A000DEBFCDBF11E0A0E0B1E0E0E6FBE302C0B8
:1007B00005900D92A634B107D9F728E0A6E4B1E080
:1007C00001C01D92A433B207E1F713E0CCECD3E0F3
:1007D00004C02197FE010E94A81DCB3CD107C9F798
:1007E0000E9476130C94AE1D0C94000080914F0172
:1007F0000895ECE1F4E0A0E0B8E000800EBC8111C7
:10080000012C1197A0FDFDCF0192B9F70DB4089509
:100810005E9881E00E94F9035E9A089580E0ECE121
:10082000F4E081118FEF0024819381938193819370
:100830000394D1F70895E1E0F0E00E94300431978D
:1008400028F068517C4F8F4F9F4FF9CFAB01FC01CF
:100850000E943004641775078E079F07C8F3089538
:10086000A6E5B1E02FB7F8947D918D919C9166B586
:100870002FBFA89B05C06F3F18F47F5F8F4F9F4F1E
:1008800022E0660F771F881F991F2A95D1F70895D8
:10089000FC0180918601882311F13FB7F89482E032
:1008A0008093E9002091F200822F90E0181619063B
:1008B00014F481E090E0882339F0289844E64093CE
:1008C00085014091F1004083222339F02091F2000C
:1008D000211103C02BE62093E8003FBF08958FEF5E
:1008E0009FEF08952FB7F89483E08093E9009091EB
:1008F000E800892F807295FF04C09091F20080E497
:10090000891B2FBF089580917D0181110DC082E068
:100910008093790184E080937A0110927C01109297
:100920007B0181E080937D0189E791E008958F92BA
:100930009F92AF92BF92CF92DF92EF92FF920F936E
:100940001F93CF93DF936C017B018A0180910D018E
:10095000882309F458C080918601882309F453C084
:100960008091780180FF05C08091E00082608093D3
:10097000E000E801B12C8AEFA82E93E0892E2AE34B
:10098000922E209711F4BB20B9F10E9472048111BC
:1009900006C0AA94AA20B9F10E941B04F2CF8C17BA
:1009A0001D0611F00CF08C2F9FB7F8948092E9008F
:1009B0002091E80025FD02C09FBFE3CF282F30E043
:1009C000C21BD30BF701815020F041914093F100FD
:1009D000FACFE20EF31EBB2021F09092E800B12C7A
:1009E000EBCF8091E80085FDE7CF9092E800BB2433
:1009F000B394209709F3F3CF5D9884E68093770151
:100A0000101611063CF081E090E0F601938382839A
:100A100010E000E0C801DF91CF911F910F91FF908E
:100A2000EF90DF90CF90BF90AF909F908F90089500
:100A3000CF93DF931F92CDB7DEB76983DC01ED91D1
:100A4000FC910280F381E02D41E050E0BE016F5F38
:100A50007F4F09950F90DF91CF91089583E08093A8
:100A6000E9008091F200882319F08AE38093E8007E
:100A700008950E94720490E00895CF93DF931F922F
:100A8000CDB7DEB7FC018485958597FD08C02FEFB3
:100A90003FEF358724870F90DF91CF910895CE01E6
:100AA00001960E944804019719F4898190E0F3CFE0
:100AB0008FEF9FEFF0CF0F931F93CF93DF931F9292
:100AC000CDB7DEB78C01FC018485958597FF0BC0FF
:100AD000CE0101960E944804019771F4898190E04B
:100AE000F80195878487F801848595850F90DF91BB
:100AF000CF911F910F9108958FEF9FEFF1CFFC01E0
:100B00008485958597FD0BC09FB7F89482E080930C
:100B1000E9008091F2009FBF90E0019608959FB791
:100B2000F89482E08093E9008091F2009FBF90E00A
:100B30000895409173015091740120917101309199
:100B4000720142175307B4F49091E8009570E1F3F5
:100B50009091E80092FD19C08093F100809173019B
:100B60009091740101968F739927892B19F48EEF58
:100B70008093E800809173019091740101969093A5
:100B800074018093730181E0089580E00895DF92FD
:100B9000EF92FF920F931F93CF93DF93D82E8A018A
:100BA000EB017B01E40EF51ECE15DF0559F0D7FEF3
:100BB00012C0FE0184910E94990521968111F4CF03
:100BC0000FEF1FEFC801DF91CF911F910F91FF90A1
:100BD000EF90DF9008958881EECF0F931F93CF930E
:100BE000DF931F92CDB7DEB782E0898342E450E005
:100BF00069E277E080E80E94C7050E948304DC0177
:100C000012960D911C910115110589F0D801ED91F5
:100C1000FC910280F381E02DBE016F5F7F4FC80120
:100C2000099597FD04C0F80100851185ECCF8981F5
:100C30000F90DF91CF911F910F910895615030F087
:100C40002091F100FC0120830196F8CF289884E6DA
:100C5000809385010895AF92BF92CF92DF92EF9279
:100C6000FF920F931F93CF93DF936C017B018B0156
:100C7000040F151FEB015E01AE18BF08C017D107A6
:100C800059F06991D601ED91FC910190F081E02D30
:100C9000C6010995892B79F7C501DF91CF911F9185
:100CA0000F91FF90EF90DF90CF90BF90AF9008959D
:100CB0006F927F928F929F92AF92BF92CF92DF926C
:100CC000EF92FF920F931F93CF93DF934C017B0121
:100CD000C22F102F98E0A92EB12C642E6694669432
:100CE0006694712CCA0187709927892B79F5D401F4
:100CF00017962D913C91C7019927B9010E94941D27
:100D0000269DF001279DF00D369DF00D11248E0FCC
:100D10009F1FD4011596ED91FC91E80FF91F2081DA
:100D2000111112C0C095C223C083DF91CF911F91D2
:100D30000F91FF90EF90DF90CF90BF90AF909F907A
:100D40008F907F906F900895C22BEECFD0E04770C8
:100D5000C42ED12C83E0660C771C8A95E1F79E01A6
:100D600001C0220F4A95EAF7012FA301B701C40180
:100D70000E945806A301485F5F4FC5018C199D0969
:100D800002C0D595C7958A95E2F7A7CF5F926F927B
:100D90007F928F929F92AF92BF92CF92DF92EF920B
:100DA000FF920F931F93CF93DF93EC016A30F1F41E
:100DB0008D859E859C878B878B892F853889820FAF
:100DC000932F911D988B8F8781E090E0DF91CF91D9
:100DD0001F910F91FF90EF90DF90CF90BF90AF9059
:100DE0009F908F907F906F905F900895AB84BC84AC
:100DF000693031F429E0A20EB11CBC86AB86E4CF89
:100E00003DEFA3163FEFB3060CF45BC08F819885CE
:100E1000A816B9060CF055C0CF84D8888DEFC81637
:100E20008FEFD8060CF44DC089859A85C816D9066F
:100E30000CF047C060320CF46FE780EE860F9FE93C
:100E4000960F9A3118F49FEFC91AD90A8C3011F015
:100E50008B3119F42FEFC21AD20A869534E0839FA2
:100E6000C00111249C0124553A4F7901912C812C09
:100E7000162F1170F701E80DF91D549011112BC0B8
:100E8000352D3F70532E3501680C791C8C818823D9
:100E900051F001E08989811100E02FE0A601B30142
:100EA000CE010E9458060989252DA601B301CE0165
:100EB0000E9458068FEF881A980A94E089169104C8
:100EC000C9F68A8990E004962B853C85820F931F92
:100ED0009C878B8779CF52948FE05822D4CF209172
:100EE0008B03E0918903F0918A03CF0102969093DE
:100EF0008A0380938903222319F0859194910895A0
:100F0000808191810895CF92DF92EF92FF92CF93EB
:100F1000DF930E946F07811520E8920791F480917A
:100F200071008D7F809371001092910046984798D0
:100F300010925C01DF91CF91FF90EF90DF90CF9006
:100F4000089521E020935C01813020E8920751F45C
:100F5000809187039091880390938A0380938903FB
:100F60000E946F0797FD05C020915B01222309F4C1
:100F700054C020915A01211150C021E020935D01FD
:100F8000EC01DF77209709F04BC081E080935E0190
:100F900046983FE9C32E3FE0D32EE12CF12CCAEF57
:100FA000D0E0E091EA03F091EB030995811103C0D1
:100FB00081E080935E0180915D01882329F080911A
:100FC0005E01882309F43FC047980E946F0700978D
:100FD000F1F19C01DE010E94671DDC01CB0129E0DB
:100FE000B595A795979587952A95D1F7109290007A
:100FF0002AE020939100D0929900C09298008093AB
:101000005F0190936001A0936101B09362018091B0
:1010100071008260809371008DCF10925D01B0CF1E
:101020009E0150E040E060E472E48FE090E00E94B6
:10103000261D69017A0181E0C81AD108E108F1088A
:1010400010925E01AECF4699BFCF479ABECF8FEFC9
:101050009FEFDC01CBCF9C01E1E7F0E090819D7F29
:10106000908310928B03ECEDF3E0F0938A03E0930E
:101070008903F0938803E09387033183208384E618
:1010800090E0938382837583648382E390E0978307
:10109000868380E090E8918780870C9483079C0189
:1010A000E1E7F0E090819D7F908310928B03ECED5F
:1010B000F3E0F0938A03E0938903F0938803E093CD
:1010C00087033183208384E690E09383828380E0EA
:1010D00090E8958384830C9483070DB407FEFDCFBD
:1010E0008EB5599A08950E947808982F0C946D082F
:1010F0000DB407FEFDCF8EB51EBC08950E94780882
:10110000982F0C9478089B01482F00906301300DB4
:1011100000906401401D599883E00E94E509842FE6
:101120000E94E509832F0E94E509822F0E94E509AC
:101130001EBC0895CF93DF9390E0999F09F4192E78
:101140005527090E151E600D711D851F11240E9463
:101150008308C7E8D1E083E0C638D80721F00E94B1
:1011600078088993F8CF0E946D0880938603DF91F9
:10117000CF9108953F924F925F926F927F928F929C
:101180009F92AF92BF92CF92DF92EF92FF920F9316
:101190001F93CF93DF935C016B013901842E402EA6
:1011A0003E2C842FB9010E9483080E947E08582E8D
:1011B000C82FD92F0E947308AE014A0D5B1D14166B
:1011C00015060CF0E6C020E8A216B1040CF0E1C050
:1011D000FC019C012C0D3D1D121613060CF0D9C00C
:1011E00090E4C916D1040CF0D4C0B7FE0BC0EE24B5
:1011F000FF24EA18FB085E18403851055CF060E8EF
:10120000562E08C0413851051CF090E8592E5A1846
:10121000F12CE12CD7FECFC0002711270C191D0996
:10122000087F9F01201B310B982E901A2134310525
:1012300034F08C2D8195877050E4952E980E43E004
:10124000159507954A95E1F724E0620E711C811C03
:101250006E0C7F1C811CF7FC8A94CF01079697FDCA
:10126000079623E0959587952A95E1F7489E90018A
:10127000499E300D1124200F311F032E000C440B0A
:10128000BE010D2E000C880B0E94761D660E771E87
:10129000881EC60133E0959587953A95E1F7080FCA
:1012A00031E0C1FC34E0C0FC330FC2FC329520E8D1
:1012B0000203D0011124AA0DBB1DAE0DBF1DA45EFB
:1012C000BB4F292D599883E08EBD80916301909189
:1012D0006401870D981D0DB407FEFDCF9EBD0DB4B2
:1012E00007FEFDCF8EBD0DB407FEFDCF6EBC6C0EAC
:1012F0007D1E811C0DB407FEFDCF1EBC330C0730D4
:1013000014F4089430FD8894379462E021FD68E07D
:1013100022FD629520FF66956A9511F028300CF049
:101320006FEF952D0EB41EBC33FC0626862F30FCC5
:10133000802D32FC0024039EA00134FA36F4C895B7
:10134000C89511240EB41EBC30FC082E039E00303C
:1013500034F08C9131FE4827402148274C93A05807
:10136000BF4F37FE06C08C9131FE582751215827B8
:101370005C931124AF57B0409A95A1F6A058BF4F87
:10138000A519B109285003950DB4599A12160CF4F9
:1013900099CFDF91CF911F910F91FF90EF90DF9048
:1013A000CF90BF90AF909F908F907F906F905F9005
:1013B0004F903F900895982E213431051CF080E421
:1013C000982E9C1810E000E03FCF8EBD00000DB4B9
:1013D00007FEFDCF8EB50895AB01FC010E943004DD
:1013E00041505109E109F10928F068517C4F8F4FB4
:1013F0009F4FF6CFAB01FC010E94300464177507C4
:101400008E079F07C8F308952D9A0895BC0190E0B8
:1014100080E00C94EC098FB18095807F669B88609A
:101420001C9B846008953E9A3F9A81E080934F010F
:101430000895AF92BF92CF92DF92EF92FF920F93F7
:101440001F93CF93DF936D3079F0C0916F01D091EE
:1014500070016A30B1F410926E0110926D012896FD
:10146000D0937001C0936F0181E090E0DF91CF9144
:101470001F910F91FF90EF90DF90CF90BF90AF90B2
:10148000089540916D0150916E0185E0689FF001D3
:101490001124E455FF4F9A01C12C80E1E82EA5E00C
:1014A00070E0CA1621F0CF0101967491FC0110E0A2
:1014B00000E0B72FB170DB2E20383105D0F4CE011B
:1014C000800F911F80349105A0F461E081FD64E0FC
:1014D00080FD660F82FD6295887FE89ED001112411
:1014E000A20FF62EA45EBB4F8C91DD20A9F0862BB7
:1014F0008C9376950F5F1F4F08301105D1F6C3947A
:101500002F5F3F4F86E0C812CACF4A5F5F4F5093AC
:101510006E0140936D01A8CFF0948F21E9CFEF9237
:10152000FF920F931F93CF93DF93CDB7DEB72C9726
:101530000FB6F894DEBF0FBECDBF49835A836B83CD
:101540007C839E83EF82F88609871A872B873C87E6
:1015500029813A814F815885820F932F911D481719
:101560005907D4F48B85840F952F911D28173907BF
:101570009CF44B815C8169857A858E81840F952FDF
:10158000911D6817790744F42C85260F372F311DDC
:1015900081E0421753070CF080E02C960FB6F894C8
:1015A000DEBF0FBECDBFDF91CF911F910F91FF9096
:1015B000EF90089590916B01982329F090916C0120
:1015C000982381E009F080E0089590916B019823C1
:1015D00029F490916C01982381E009F480E008954A
:1015E000CF93C82F0E940B0A982F9C2381E09C1355
:1015F00080E0CF91089580E00C94F9038FB7F894C0
:1016000040915201509153016091540170915501E4
:101610008FBF80914D01882321F010924D0180E011
:10162000089590914E01242F291B922F20910001A3
:10163000921740F49F5F9217A0F491E093BF8895B2
:1016400013BE089581E080934D0140934E01809137
:10165000690190916A01019690936A0180936901F2
:1016600081E008956F927F928F929F92AF92BF9286
:10167000CF92DF92EF92FF920F931F93CF93DF935E
:10168000CDB7DEB72C970FB6F894DEBF0FBECDBF37
:10169000B12CA12C80E2C82ED12CC60189599E4FB5
:1016A0003C01912C812CC301875891408C159D05DC
:1016B0006CF090E2C90ED11CE8E0AE0EB11CF0E275
:1016C000CF16F2E0DF0649F780E033C0F3018191E5
:1016D0003F019FEF980F973058F097EE980F963391
:1016E00038F08A55803220F0F8E08F0E911CDBCF65
:1016F000E82C98868F820A2DBA86A98680911204DA
:101700009091130440962091100430911104422FBF
:1017100029833A83682F9C838B83F8841A8528E079
:1017200031E05A817C8189E091E00E948F0A882310
:10173000D9F22C960FB6F894DEBF0FBECDBFDF9165
:10174000CF911F910F91FF90EF90DF90CF90BF90BE
:10175000AF909F908F907F906F9008955F926F925F
:101760007F928F929F92AF92BF92CF92DF92EF9231
:10177000FF920F931F93CF93DF93CDB7DEB72C97D4
:101780000FB6F894DEBF0FBECDBFB12CA12C90E2F6
:10179000892E912CC40189599E4F3C01D12CC12C1A
:1017A000C30187589140881599056CF090E2890E25
:1017B000911CE8E0AE0EB11CF0E28F16F2E09F063D
:1017C00049F710E036C089E1582EF3018081851178
:1017D0001CC180911904882309F468C08091160403
:1017E00081113EC0EC2CD886CF820A2DBA86A986FC
:1017F00020911204309113048091100490911104EF
:101800000296482F9A838983622F2B833C83F88426
:101810001A8528E038E05A817C8188E090E10E94B6
:101820008F0A182F882309F441C084E690E00E94B3
:101830004F08812F2C960FB6F894DEBF0FBECDBF98
:10184000DF91CF911F910F91FF90EF90DF90CF909C
:10185000BF90AF909F908F907F906F905F90089512
:10186000813021F5EC2CD886CF820A2DBA86A98644
:10187000809112042091130490911004309111046E
:10188000492F99833A83682F8B832C83F8841A8598
:1018900028E038E05A817C8182E090E10E948F0A42
:1018A000182F882319F088EC90E0C1CF80911A049A
:1018B000811105C080911B04882309F452C08091D6
:1018C0001604811127C0EC2CD886CF820A2DBA8647
:1018D000A98680911204909113040197209110041D
:1018E00030911104265F3F4F422F3A832983682F9E
:1018F0009C838B83F8841A8528E038E05A817C81A8
:1019000084E09AE00E948F0A182F882351F18CE21C
:1019100091E08DCF813029F5EC2CD886CF820A2D2D
:10192000BA86A9868091120490911304029720919F
:10193000100430911104422F29833A83682F9C832D
:101940008B83F8841A8528E038E05A817C8182E014
:101950009AE00E948F0A182F882319F080E991E0FD
:1019600066CF80911704811105C0809118048823E7
:1019700009F44BC080911604811127C0EC2CD88645
:10198000CF820A2DBA86A986809112049091130401
:1019900001972091100430911104422F29833A833A
:1019A000682F9C838B83F8841A8528E038E05A815D
:1019B0007C8188E09AE00E948F0A882331F18CEBC9
:1019C00092E00E944F0811E034CF8130F1F4EC2C0A
:1019D000D886CF820A2DBA86A9862091120430912A
:1019E000130480911004909111040296482F9A8359
:1019F0008983622F2B833C83F8841A8528E038E0A2
:101A00005A817C8186E098E0D6CF5394F3E25F124E
:101A1000DCCE8FEF681A780A98E0C90ED11CC0CED0
:101A20005F926F927F928F929F92AF92BF92CF926E
:101A3000DF92EF92FF920F931F93CF93DF93CDB777
:101A4000DEB72D970FB6F894DEBF0FBECDBF912C39
:101A5000812C80E2C82ED12CC60189599E4F3C01B1
:101A6000B12CA12CC301875891408C159D056CF0B9
:101A700090E2C90ED11CE8E08E0E911CF0E2CF1668
:101A8000F2E0DF0649F780E04BC0F30151903F01DF
:101A9000FDEDF50DFD87FC3208F074C0EA2CB88628
:101AA000AF82082D9A868986809112049091130442
:101AB000409620911004309111042F5F3F4F422F28
:101AC0003A832983682F9C838B83F8841A8528E0C6
:101AD00031E05A817C8188E091E00E948F0A88235E
:101AE00009F450C09D85943060F095ED950D9031CE
:101AF00040F091EC950D943020F099EB950D9430D9
:101B000028F590911604911108C090911A04911132
:101B1000BACF909119049111B6CF91E09093160429
:101B20002D960FB6F894DEBF0FBECDBFDF91CF91DB
:101B30001F910F91FF90EF90DF90CF90BF90AF90EB
:101B40009F908F907F906F905F90089599ED950D85
:101B5000943048F095EC950D943028F0952D977FB2
:101B60009354943078F490911604913041F490910C
:101B70001A04911188CF90911904911184CF109279
:101B80001604CECFE8E0AE0EB11C6CCF2F923F9280
:101B90004F925F926F927F928F929F92AF92BF927D
:101BA000CF92DF92EF92FF920F931F93CF93DF9329
:101BB000CDB7DEB72B970FB6F894DEBF0FBECDBF03
:101BC0008983823009F446C0833009F452C08130E1
:101BD00071F464EF7BE180E00E949A080981009330
:101BE000F3030093FB030093030400930B04209181
:101BF0001004309111048091120490911304B0E00C
:101C0000A0E040E250E0FA01E959FE4F70E060E0E8
:101C10008F0107581140041715077CF1405E5F4F94
:101C20001896403212E0510771F730931104209357
:101C300010049093130480931204A9014D53510989
:101C40004238510510F52C53310930930D0420937F
:101C50000C0423C064EF7DE180E00E949A0881E0DB
:101C60008093F3038093FB038093030480930B041E
:101C7000BECF64EF7FE180E0F0CF01910A3F11F425
:101C80009B01CD01685F7F4FC3CF2D3331050CF031
:101C90007FC010920D0410920C049C012851310950
:101CA0002134310508F07BC0479790930F0480934F
:101CB0000E0480E290E030E0FC01E959FE4FAF01F4
:101CC00047585140481759070CF477C08096803226
:101CD00002E0900789F730936801A090F503B09077
:101CE000F603C090F803D090F7038090F103409082
:101CF000ED035090EE036090F0037090EF031091AD
:101D000001041A832091FD032F836091FE036E83EB
:101D1000B0910004A091FF03E090F9033091090411
:101D2000709105047A87809106048B87509108048E
:101D3000409107041B82F12C912C1982312C212C0B
:101D40002FEF221A320AB10185E0660F771F8A95BC
:101D5000E1F77D836C832FE1220D220F220F220FEA
:101D6000FB01E959FE4F90E080E08F0107581140D8
:101D70006C817D81061717074CF51191183C09F00D
:101D80009CC02C01682E722E71E079830896EDCFED
:101D90002F3B31050CF481CF20E830E056CF893558
:101DA00091051CF080E490E080CF48970CF081CF43
:101DB00010920F0410920E047CCF41912FE4421335
:101DC00001C03F5F2F5F2A35D1F779CF10E121168F
:101DD000310409F0B5CF19811093EC034092ED0363
:101DE0005092EE036092F0037092EF038092F10341
:101DF0009092F403A092F503B092F603C092F80318
:101E0000D092F703E092F903F092FC032F81209324
:101E1000FD036E816093FE03B0930004A093FF0363
:101E20007A81709301048B81809304049A85909346
:101E300005040B850093060450930804409307049F
:101E4000309309042091010180916501ECEEF3E0EB
:101E500094E051E0213009F45AC0223009F459C00D
:101E6000233009F458C044813581431708F41682A1
:101E7000341720F45683348331813583915038965A
:101E80009111E8CF809365012B960FB6F894DEBFD1
:101E90000FBECDBFDF91CF911F910F91FF90EF90BB
:101EA000DF90CF90BF90AF909F908F907F906F907A
:101EB0005F904F903F902F900895193C19F4882E11
:101EC000382F64CF1A3C31F45C01C82ED22E9924ED
:101ED00093945CCF1B3C11F4E82E58CF1C3C39F492
:101EE0008F839E83B82FA22FFF24F3944FCF1D3CE6
:101EF00011F48A834BCF1E3C39F48A879B87582F75
:101F0000422F01E00B8342CF193CD1F23FCF80E05A
:101F1000AACF88E0A8CF80E1A6CF089590E080E026
:101F200008950C94101D82E090E00E94910F8111A1
:101F30000C94130A10924F013E983F9808951F92F7
:101F40000F920FB60F9211248F939F938091E1000F
:101F50009091E100937F9093E10083FF0FC0109276
:101F6000E90091E09093EB001092EC0092E39093E3
:101F7000ED001092860198E09093F00082FF22C05D
:101F800093E09093E9009091F200992319F09AE37D
:101F90009093E80090917701992341F09091770117
:101FA000915090937701911101C05D9A90918501B4
:101FB000992341F090918501915090938501911161
:101FC00001C0289A84FF18C08091E2008E7E816053
:101FD0008093E2008091E1008F7E8093E100809108
:101FE00078018E7E8061809378019F918F910F9010
:101FF0000FBE0F901F90189580FFF7CF8091E200E1
:102000008E7E80618093E2008091E1008E7E8093DD
:10201000E100809178018E7E8160E5CF1F920F9262
:102020000FB60F921124CF92DF92EF92FF920F938F
:102030001F932F933F934F935F936F937F938F9350
:102040009F93AF93BF93EF93FF93CF93DF93CDB75E
:10205000DEB76C97DEBFCDBF1092E9008091E8003B
:1020600083FF25C068E0CE0145960E941E0682EFE0
:102070008093E8008D8987FF39C09091E80090FF38
:10208000FCCF982F907609F034C19E894F89588DE6
:102090002F89F88C911131C0803861F580917601DB
:1020A0008093F1001092F1008EEF8093E8006C961F
:1020B0000FB6F894DEBF0FBECDBFDF91CF91FF9179
:1020C000EF91BF91AF919F918F917F916F915F91B0
:1020D0004F913F912F911F910F91FF90EF90DF90C3
:1020E000CF900F900FBE0F901F9018959EEF90937A
:1020F000E800C7CF1092F100D5CF913059F481118B
:10210000D3CF4130510581F6809176018D7F809348
:102110007601CACF933049F48111C6CF41305105C1
:1021200019F6809176018260F2CF953041F480916A
:10213000E80080FFFCCF20682093E300B5CF963005
:1021400009F0A9C00B8D1C8D22E01092E9001092BD
:10215000740110927301F2122EC01092720110924B
:1021600071010E94ED051F8299E09983FA8291E046
:102170009E8390EA98879AEF998720917301309116
:102180007401275F3F4F3C832B838D831092E900BE
:1021900010927401109273011093720100937101F7
:1021A00049E050E0BE016F5F7F4F80E00E94C705AD
:1021B0000E94ED0579CF10937201009371010E9486
:1021C0008304DC0112960D911C910115110509F48F
:1021D00051C1D801ED91FC910480F581E02DBE0143
:1021E0006B5E7F4FC8010995009709F03EC1F80169
:1021F00000851185EACFF3E0FF120EC08F89882396
:1022000009F440C0823061F440E867E08DE897E06F
:102210000E94D112811148CF81E28093EB0047CF19
:10222000813029F440E86BE081E897E0F1CF83301A
:1022300099F70E948304DC011296ED90FC908E01C8
:102240000F5F1F4F6801E114F10479F0D701ED91A0
:10225000FC910680F781E02DB801C7010995080FB0
:10226000111DF701E084F184EECFD8011C92F60134
:1022700001900020E9F73197BF016C197D0940E01A
:10228000C601C6CF6BE677E0FB01449150E080E8E1
:102290000E94C70509CF973009F4BECF983021F4CA
:1022A00081E08093F10000CF993009F0FDCE83707A
:1022B00009F0B2CFEFE0F1E081E031E096E3219167
:1022C000222371F08093E9003093EB00DF01119736
:1022D0002C912093EC009093ED008F5F873079F77D
:1022E0008EE78093EA001092EA008F89809386013E
:1022F000DBCE8B8D9C8D1092E900109274011092B0
:1023000073019093720180937101898D811192C044
:102310008E899D89913A49F4813209F07DCF47E059
:1023200050E066E071E080E0B3CF913209F074CF05
:10233000833269F48F89988DB0E0A0E08093020128
:1023400090930301A0930401B0930501ADCE8032B8
:1023500069F48091E80082FFFCCF67E086E091E0BD
:102360000E941E068BEF8093E8009ECE823209F019
:102370009BCE8F8980930D01EEEFFFE785919491BD
:102380008B3F9C4D51F1E0E0F8E080910601909187
:102390000701A0910801B0910901803B9440A1057B
:1023A000B105F1F480910D0180FD1AC0EE3F8AE085
:1023B000F80789F587E797E791838083809160002C
:1023C0008093750188E19BE00FB6F894A8958093FF
:1023D00060000FBE9093600067CEEEEFFAE0D5CFBD
:1023E000808191818737974709F05ECEA8958091CB
:1023F0006000886180936000809175018093600027
:10240000EE3F2AE0F20789F08091FE0A9091FF0AE0
:102410009183808349CE808191818737980751F2DB
:102420009093FF0A8093FE0AC5CF1092FF0A109284
:10243000FE0A3ACE0E948304DC0112960D911C9193
:102440000115110509F4E8CED801ED91FC91019038
:10245000F081E02DBE016B5E7F4FC80109958111AF
:1024600023CEF80100851185EBCF181619060CF460
:102470001BCED2CEF1E0FF12BECE6FE677E004CFE6
:102480001F920F920FB60F9211242F933F934F93E9
:102490005F936F937F938F939F93AF93BF93EF93CC
:1024A000FF9380915F0190916001A0916101B091D3
:1024B00062010097A105B10539F120915E0121115A
:1024C00005C0369A20915D012111379A0197A10923
:1024D000B109B7FD08C080935F0190936001A0939C
:1024E0006101B0936201FF91EF91BF91AF919F9114
:1024F0008F917F916F915F914F913F912F910F90AD
:102500000FBE0F901F9018950E948307ECCF0F927B
:102510000FB68F939F93EF93FF93809151018D5F3F
:102520008D3708F08D5780935101E2E5F1E080810D
:102530008E4F808391819F4F918382818F4F8283C1
:1025400083818F4F8383E6E5F1E080818F5F808315
:1025500081818F4F818382818F4F828383818F4FCF
:1025600083838FB18F6066991C9B88278F3681F497
:1025700080915001981B963068F0E0E0F8E087E722
:102580008083818388E180936000F0936000FFCFB7
:1025900090935001FF91EF919F918F910FBE0F90FB
:1025A0001895EF92FF920F931F93CF93DF93F82E1E
:1025B000192FE62E042F81E0860F880F0E949905BF
:1025C00083E00E949905CF2DD12FEC0EFD2EF11C3A
:1025D000CE15DF05B9F007FF13C0FE0184910E94FC
:1025E0009905182F80E00E94990581232196811179
:1025F000EFCFDF91CF911F910F91FF90EF90089552
:102600008881EDCF81E0F5CFECE8F3E01382128210
:1026100088EE93E0A0E0B0E084839583A683B7833F
:1026200089E191E0918380838FEF9FEF9587848785
:10263000E0E3F8E01382128287E391E091838083E4
:1026400086EF93E09093EB038093EA0380E090E8B9
:102650009093E9038093E80346983E9A47983F9AFF
:10266000ECE1F8E0138212828BE291E091838083A7
:102670008CE194E09683858380E890E0908787835F
:1026800080E490E09287818785E0838B81E0828B74
:1026900016861586108A178614861386818B1482F7
:1026A000E0E1F4E01482158216821782108611860A
:1026B00012861386ACE0B4E0208131812C533109BD
:1026C00011963C932E93228133812852310913961F
:1026D0003C932E931297ECEEF3E0108287831086E2
:1026E0008787108A878B108E878F0895CDB7DEB7C6
:1026F000AC97DEBFCDBF789483E084BD83E085BD19
:1027000081E080936E00E1E8F0E083E08083E0E820
:1027100081E08083E1E983E08083E0E981E08083F8
:10272000E1EC87E08083E3EC81E08083E0EC82E011
:102730008083E2EC81E08083EAE787E08083806841
:102740008083109286011092760110927801809118
:10275000D70081608093D70080EA8093D80089B544
:10276000806189BD89B5826089BD09B400FEFDCF55
:102770000E941B048091D8008F7C80618093D800D8
:102780008091E000807F8093E0008091E1008E7E68
:102790008093E1008DE08093E200559A209A81ECCD
:1027A00080937C0085B1806F85B984B1877E84B9C0
:1027B00084B1876E84B95E9A5F988AB1806D8AB958
:1027C000769A6E9881B3806F81BB899880B38D7043
:1027D00080BB80E58CBD81E08DBD85E090E00E94EE
:1027E000060A5F9A85E090E00E94060A5E985C986F
:1027F000ECE1F7E089E297E024912EBD00000DB4F2
:1028000007FEFDCF31968E179F07B1F75C9A81E8DE
:1028100080936400809165008160809365000E94D0
:10282000FB0A80E80E94F00A882381F05C9885EA20
:102830008EBD00000DB407FEFDCF5C9A2E982F9838
:102840002D9881E083BF889513BEFCCF84E00E9461
:10285000F00A882309F448C02D9884E80E94F00A01
:102860008823E1F00E94040A88EC90E00E94060AA6
:102870002F9882E090E00E94101D8F3F29F06FEFAB
:1028800082E090E00E94181D84EF91E00E94060A09
:102890002F9A84E80E94F00A8111FBCF84E10E9404
:1028A000F00A8823E1F00E94040A88EC90E00E947C
:1028B000060A2E9882E090E00E94101D882329F0DD
:1028C00060E082E090E00E94181D84EF91E00E9499
:1028D000060A2E9A84E10E94F00A8111FBCF88EC4F
:1028E00090E00E94060AB2CF0E94040A0E94930F51
:1028F00081E090E00E94910F282F2470722E81FFBA
:1029000011C021112E9801EF1FEFE8E0EE2EF12CFF
:1029100080E40E94F00A882309F4E0C22E9A2F9ADC
:102920000E94040A82E390E00E94060A0E940B0AB9
:102930008111F8CF81E2809300010E94930F0E94E1
:10294000130A5E9AE4E1F0E08CED9FEF259135915A
:10295000559145912851354909F4CA018093630185
:102960009093640159988BEA0E94E509599A15E001
:10297000812E912C0CE3C02ED12C8EE1A82EB12CEF
:102980009AE0492E512C612C712C24E1F22E0E94E8
:102990000E041092700110926F0110926E0110924D
:1029A0006D0180916C0180936B010E940B0A8093F2
:1029B0006C0161E070E080E090E00E94EC090E9410
:1029C000FE0A8823B1F38091690190916A01B401F4
:1029D0000E94801D892B49F4809115048F5F80939C
:1029E0001504883010F010921504EE24E39400E0F2
:1029F00020E030E040E070E060E090E080E00E94A5
:102A0000BA080091150424EA3AE040E070E060E082
:102A100090E080E00E94BA0810922A0810922908DB
:102A20001092280810922708D0922C08C0922B08E8
:102A300046E050E06FE371E08CE198E00E942B06E5
:102A4000B0922A08A0922908B0922808A0922708DC
:102A5000D0922C08C0922B082091010130E050E068
:102A600040E019A28E010F5D1F4FCA01B901A301F9
:102A700092010E94451D605DF80162938F0121154E
:102A800031054105510589F7309761F0019000202B
:102A9000E9F73197AF01401B510BB8018CE198E089
:102AA0000E942B0680E40E94E50A882351F0809161
:102AB00001018F5F80930101853118F081E08093DF
:102AC000010180E20E94E50A882349F0809101011A
:102AD000815080930101811102C0F09201010E9496
:102AE000FB0A0E94080488E00E94DA0A882309F49D
:102AF0004ECF809101010E94C60D28E831E08FEF92
:102B00009FE1289FA001299F500D389F500D11244F
:102B10005CA74BA7A8E03A2EB8E02B2E0E94FE0A35
:102B2000882309F410C60E940E04109270011092BE
:102B30006F0110926E0110926D0180916C01809373
:102B40006B010E940B0A80936C01712C612CF0E2E6
:102B5000CF2ED12CC60189599E4F5C01912C812C1E
:102B6000C501875891408C159D050CF476C290E202
:102B7000C90ED11CE8E06E0E711CF0E2CF16F2E037
:102B8000DF0641F72091690130916A0139A728A732
:102B900020FD1FC0912C812CE0E26E2E712C55245B
:102BA0005394A30149595E4F6A01B12CA12CC6016F
:102BB00087589140861597050CF48DC250E2650E3A
:102BC000711C68E0860E911C80E2681682E078062F
:102BD00041F788A599A583709927892BF9F480E29C
:102BE00090E023E237E24BE25FE2A3E3B7E31BE3CB
:102BF0000FE3F3E4FF2E67E4E62E7BE4D72EFC011F
:102C0000E959FE4FBF0167587140681779070CF406
:102C100038C38096803262E0960789F7712C612C68
:102C2000E0E2AE2EB12CC50189599E4F6C01912C6A
:102C3000812CC601875891408A159B050CF4A1C3CD
:102C400090E2A90EB11CE8E06E0E711CF0E2AF1626
:102C5000F2E0BF0641F780E20E94F00A8823A9F063
:102C600080911704811111C08091180481110DC049
:102C700080911A04811109C080911B04811105C043
:102C800081E0809316048093190480E20E94DA0A9E
:102C900081111092190480E40E94F00A8823A9F09F
:102CA00080911704811111C08091180481110DC009
:102CB00080911A04811109C080911B04811105C003
:102CC0001092160481E08093190480E40E94DA0ACD
:102CD00081111092190488E00E94E50A8823C9F046
:102CE0008091170490911904911184C6811111C02B
:102CF0008091180481110DC080911A04811109C0BE
:102D000080911B04811105C01092140481E080930E
:102D1000170484E00E94E50A882331F0809167015E
:102D200091E089278093670180E10E94F00A8090FA
:102D3000690190906A01C40183709927892B41F43D
:102D4000809166018F5F843008F05CC380936601D8
:102D50006CEEA62E63E0B62E6501F6018081882315
:102D600009F472C08681811136C067812181328168
:102D7000662309F44AC370E0C4010E94801D2F5FDE
:102D80003F4F892B09F443C300916501809166018F
:102D9000080F0C5FF601638170E080910E04909142
:102DA0000F04681B790B81819281E0910C04F091F2
:102DB0000D04EE24E39428EA3BE040E08E1B9F0BD9
:102DC0000E94BA08F601258181819281281719068F
:102DD00014F481E08683F60186818130A9F567814C
:102DE00021813281662309F415C370E0C4010E9479
:102DF000801D21503109892B09F40EC30091650112
:102E000080916601080FF601638170E080910E04E5
:102E100090910F04681B790B81819281E0910C04E1
:102E2000F0910D04EE24E39428EA3BE040E08E1B91
:102E30009F0B0E94BA08F601248181819281281794
:102E4000190611F00CF01682F8E0CF0ED11C2CE020
:102E500034E02C153D0509F080CF5FE0952EF5019B
:102E6000838190E00196218132812F5F3F4FE22ED6
:102E70003A832983082F9C838B83F6E0FD839E820F
:102E800070901204209113042AA78091100490914D
:102E90001104AC014F5F5F4F59A748A748A588A50B
:102EA00099A59BA38AA3672D7CA22DA3FA801C81E0
:102EB00026E03FE05BA17DA186E090E10E948F0AC1
:102EC0008111F3C298E0A90EB11CAC14BD0439F60F
:102ED000512C412C40E2C42ED12CADC2772029F0D8
:102EE0000430110511F42E9A2F9881E00E94F90305
:102EF000980117FF04C022273327201B310B2770AE
:102F00003327C80117FD079673E0959587957A9545
:102F1000E1F717FF05C00197A701421B530B9A0168
:102F2000AC015695542F442757954795445E5B4F07
:102F3000B0E0A0E02701421A530A8E3F6FEF9607D8
:102F400009F43BC06A01E4E9CE0ED11C5A0170E0DD
:102F500060E0FD01E459F94F4F018F3F980779F088
:102F6000F401E60FF71FE491F0E01F01022E01C00B
:102F7000220C0A94EAF7F50164882628248A211590
:102F8000310581F0F401E60FF71FE491F0E01F0135
:102F9000042C02C0359427940A94E2F7F60160806D
:102FA000262820826F5F7F4FFFEFCF1ADF0AEFEFF7
:102FB000AE1ABE0A6835710581F60196A85ABF4F50
:102FC00040585F4FA03BB10509F0B7CF0E94FB0A04
:102FD0008FE090E00E94060A0F5F1F4F0931110534
:102FE00009F096CC772011F02F9A2D9880E991E086
:102FF0000E94060A0E94040A81E090E00E94910F5C
:1030000080FF90CC8AE090E00E94910F9FEF980F94
:103010009E3F08F087CC22E330E030936E0120938E
:103020006D0128E330E03093700120936F010BE0D5
:1030300010E0682F80E398E00E94190AC8010E94FE
:10304000910F0F5F1F4F0131110599F70E94FB0A85
:1030500088EE93E00E94060A65CC2501F501008107
:1030600001500937A8F480910E0490910F04B30128
:10307000681B790B80910C0490910D04E12C24E0E5
:1030800034E040E0F401E81BF90BCF010E94BA08DC
:10309000FFEFAF1ABF0AF20180818639C1F40091B7
:1030A0000101015080910E0490910F04B301681B3F
:1030B000790B80910C0490910D04E12C20E238E012
:1030C00040E0F401E81BF90BCF010E94BA08F8E0D8
:1030D0008F0E911C45CDF601408086EA840D883024
:1030E00050F5EA2CBBA2AAA2082D9DA28CA2809129
:1030F0001204909113044096209110043091110411
:10310000422F29833A83682F9C838B833D825E8282
:10311000FBA01DA128E031E05A817C8188E091E08C
:103120000E948F0A882339F081E0840DF6018136F0
:1031300008F097C08083F60140808EE9840D8830C6
:1031400050F5EA2CBBA2AAA2082D9DA28CA28091C8
:1031500012049091130440962091100430911104B0
:10316000422F29833A83682F9C838B833D825E8222
:10317000FBA01DA128E031E05A817C8188E091E02C
:103180000E948F0A882339F081E0840DF601893688
:1031900008F06BC08083F601408086E9840D88309A
:1031A00050F5EA2CBBA2AAA2082D9DA28CA2809168
:1031B0001204909113044096209110043091110450
:1031C000422F29833A83682F9C838B833D825E82C2
:1031D000FBA01DA128E031E05A817C8188E091E0CC
:1031E0000E948F0A882339F081E0840DF60181372F
:1031F00008F03FC08083F60140808EE8840D88305F
:1032000048F5EA2CBBA2AAA2082D9DA28CA280910F
:1032100012049091130440962091100430911104EF
:10322000422F29833A83682F9C838B833D825E8261
:10323000FBA01DA128E031E05A817C8188E091E06B
:103240000E948F0A882331F081E0840DF6018937CE
:10325000A0F48083FFEFCF1ADF0A28E0A20EB11C92
:10326000A6CC10825092180466CF10825092180497
:1032700092CF108250921804BECF10825092180440
:10328000E9CF60817DED760F743028F46F5F67328F
:1032900009F461C06083608179ED760F743028F4A1
:1032A0006F5F6B3209F459C06083608175ED760FF2
:1032B000743028F46F5F6F3209F451C0608360810D
:1032C00071ED760F743028F46F5F633309F449C0F1
:1032D000608360817DEC760F743028F46F5F673314
:1032E00009F441C06083608179EC760F743020F47A
:1032F0006F5F6B33D1F16083608175EC760F743052
:1033000020F46F5F6F3399F16083608171EC760F09
:10331000743020F46F5F633461F1608360817DEB12
:10332000760F743020F46F5F673429F16083608119
:1033300079EB760F743020F46F5F6B34F1F06083BB
:10334000608175EB760F743020F46F5F6F34B9F0E5
:103350006083319657CC20839ECF3083A6CF4083A5
:10336000AECF5083B6CFA083BECFB083C5CF10837E
:10337000CCCF0083D3CFF082DACFE082E1CFD0820E
:10338000E8CF7FE4572EF6018081581230C0E82C38
:103390009A828982062D7C826B822D822E822091D8
:1033A000120430911304809110049091110401963D
:1033B000482F9BA38AA3622F2CA33DA3FA801C81D4
:1033C00028E038E05BA17DA186E090E10E948F0AB1
:1033D000882369F060EB74E088EE93E00E942B088C
:1033E000F6011082809168018150809368015394A6
:1033F000FAE55F12C8CF2FEFC21AD20A38E0830E67
:10340000911C17CC10926601A3CC2E5F3F4F3283E4
:103410002183BACC2250310932832183EFCCE0E200
:10342000CE0ED11CF8E04F0E511C20E2C21622E055
:10343000D20609F448C0A60149595E4F4A01B12C91
:10344000A12CC401875891408C159D0544F73DE09F
:10345000632EF4018081681659F06394F9E16F12CC
:10346000F8CF4FEF841A940A58E0A50EB11CE9CFAB
:10347000EA2CBA82A982042D5C824B822D822E8294
:1034800048A528A539A53BA32AA3672D7CA23AA568
:103490003DA3FA801C8128E038E05BA17DA186E095
:1034A00090E10E948F0A8823C1F260E971E080E216
:1034B00093E00E942B0880916701811104C08091E4
:1034C00001010E94C60D8091680181111FC0D12C9D
:1034D000C12C90E080E04C0160E2860E911CFC0162
:1034E000E957FE4F5F016BA47CA4681A790AC501F5
:1034F00087589140881599050CF42DC1F8E0CF0E3E
:10350000D11CC401811422E0920629F70E94100DFB
:10351000882359F00E94AE0B811107C00E94320B24
:10352000882319F081E0809319040E94100D8823EC
:1035300069F00E94AE0B811109C00E94320B81110B
:1035400005C01092190481E0809318042091190499
:103550008091690190916A0183709927892B91F478
:10356000211108C080911A04811104C080911B04AC
:10357000882391F1809115048F5F843008F02AC16F
:1035800080931504222341F10E94320B882321F1FC
:103590000E94AE0B811120C08091160481111DC1C3
:1035A00080911004909111048F3F910509F0A4F4CB
:1035B0009C012F5F3F4F3093110420931004CC9750
:1035C0008238910548F480910C0490910D04019685
:1035D00090930D0480930C04809119048823B9F012
:1035E00080911704811113C08091180481110FC0BC
:1035F00080911A0481110FC080911B04811119C0A0
:103600000E94100D811103C081E080931804809105
:103610001A04882371F010921904809114048431E3
:1036200008F4F8C01092140481E080931B041092F7
:103630001A0480911B04882371F010921904809160
:103640001404843108F449C11092140410921B042C
:1036500081E08093180480911704882361F0109210
:10366000190480911404843108F49EC181E0809390
:10367000180410921704809118048823F9F00E940E
:10368000320B8111B4C180911204909113049C01FA
:10369000285131092134310550F420910E04309124
:1036A0000F042F5F3F4F30930F0420930E040196B9
:1036B00090931304809312041092190480911604BD
:1036C00081111DC0609112047091130480910E0449
:1036D00090910F04681B790B809110049091110454
:1036E000E0910C04F0910D04EE24E3940091150494
:1036F00024EA3AE040E08E1B9F0B0E94BA088091BA
:1037000016048130F1F4009115040C5F60911204ED
:103710007091130480910E0490910F04681B790B33
:103720008091100490911104E0910C04F0910D042B
:10373000EE24E39424EA3AE040E08E1B9F0B0E94C3
:10374000BA080E94080440E050E0452B09F4E6C99D
:103750000E940000E3C9F50181915F01863909F0FB
:10376000C6CEC3018E0F9F1F23E0880F991F2A9595
:10377000E1F7E82E9BA38AA30C2DDDA2CCA2209119
:103780001204309113048091100490911104019659
:10379000482F9A838983622F2B833C83F6E0FD8335
:1037A00020E12E83FBA01DA130E15A817C8186E0BF
:1037B00090E10E948F0A882309F499CE60EB74E0AF
:1037C00088EE93E00E942B08809101018F5F0E9498
:1037D000C60D8DCE10921504D5CE813009F0FCCEE9
:1037E0008091100490911104181619060CF0F4CE73
:1037F0009C01215031093093110420931004CD977E
:103800008238910508F0E8CE80910C0490910D0467
:103810000197DECE0E94AE0B811104CF809112047D
:10382000909113049C01285131092134310550F441
:1038300020910E0430910F042150310930930F0470
:1038400020930E04019790931304809312048091A7
:1038500014048F5F809314048091160481111FC09B
:1038600080911004909111048E3E91052CF40196E4
:10387000909311048093100480911004909111048E
:10388000CD978138910508F0D4CE80910C049091A9
:103890000D04019690930D0480930C04CACE8130E0
:1038A00009F0C7CE809110049091110489309105E0
:1038B0002CF00197909311048093100480911004D0
:1038C00090911104CD978138910508F0B2CE809186
:1038D0000C0490910D040197DDCF0E94320B8111F1
:1038E000B3CE0E94AE0B8111AFCE809112049091A5
:1038F00013049C01295131092034310550F42091E1
:103900000E0430910F042F5F3F4F30930F0420932C
:103910000E04019690931304809312048091140472
:103920008F5F809314048091160481111FC08091D1
:103930001004909111048E3E91052CF40196909301
:103940001104809310048091100490911104CD977C
:103950008138910508F07FCE80910C0490910D0480
:10396000019690930D0480930C0475CE813009F07C
:1039700072CE8091100490911104893091052CF041
:1039800001979093110480931004809110049091FA
:103990001104CD978138910508F05DCE80910C041B
:1039A00090910D040197DDCF0E94AE0B81115ECE88
:1039B00080911204909113049C0128513109223402
:1039C000310550F420910E0430910F04215031093B
:1039D00030930F0420930E04019790931304809367
:1039E0001204809114048F5F8093140444CE1092CB
:1039F000180464CE81118DC980911804811189C980
:103A000080911A04811185C980911B04811181C99B
:103A1000109214041092190481E080931A0479C959
:103A2000F999FECF92BD81BDF89A992780B5089586
:103A3000262FF999FECF1FBA92BD81BD20BD0FB6CA
:103A4000F894FA9AF99A0FBE01960895052E97FBFD
:103A50001EF400940E943D1D57FD07D00E94451D95
:103A600007FC03D04EF40C943D1D509540953095C5
:103A700021953F4F4F4F5F4F0895909580957095DA
:103A800061957F4F8F4F9F4F0895A1E21A2EAA1B79
:103A9000BB1BFD010DC0AA1FBB1FEE1FFF1FA217FE
:103AA000B307E407F50720F0A21BB30BE40BF50BFB
:103AB000661F771F881F991F1A9469F76095709584
:103AC000809590959B01AC01BD01CF010895A29F07
:103AD000B001B39FC001A39F700D811D1124911DE2
:103AE000B29F700D811D1124911D0895DB01582F87
:103AF0000E94671D529F800DA49F800D1124089580
:103B0000AA1BBB1B51E107C0AA1FBB1FA617B70703
:103B100010F0A61BB70B881F991F5A95A9F780951F
:103B20009095BC01CD01089597FB072E16F40094E3
:103B300007D077FD09D00E94801D07FC05D03EF418
:103B4000909581959F4F0895709561957F4F089549
:103B5000EE0FFF1F0590F491E02D0994F894FFCF2C
:103B60001001FFFFFFFF00E100000000000000C1A6
:103B70008081000000000000001805970439052E20
:103B8000057F053D055B0500000000C6062B068E7F
:103B90000F8D0F00000000190A2B068E0F8D0F4CA1
:063BA0004556454C3A00B9
:00000001FF
