:100000000C94DB030C9403040C9403040C9403047D
:100010000C9403040C9403040C9403040C94030444
:100020000C9403040C9403040C94471A0C94B61A11
:100030000C9403040C9403040C9403040C94030424
:100040000C9403040C9403040C9403040C94030414
:100050000C9403040C9403040C9403040C942F1DBF
:100060000C9403040C9403040C9403040C940304F4
:100070000C9403040C9403040C9403040C940304E4
:100080000C94E81C0C9403040C9403040C940304D7
:100090000C9403040C9403040C9403040C940304C4
:1000A0000C9403040C9403040C94030405A84CCD95
:1000B000B2D44EB93836A9020C50B9918688083CA2
:1000C000A6AAAA2ABE000000803F00000000003E51
:1000D0005B4F5B3E3E6B4F6B3E1C3E7C3E1C183CB8
:1000E0007E3C181C577D571C1C5E7F5E1C00183C14
:1000F0001800FFE7C3E7FF0018241800FFE7DBE75D
:10010000FF30483A060E2629792926407F05050743
:10011000407F05253F5A3CE73C5A7F3E1C1C08089F
:100120001C1C3E7F14227F22145F5F005F5F060964
:100130007F017F006689956A606060606094A2FFBD
:10014000A29408047E040810207E201008082A1CAF
:1001500008081C2A08081E101010100C1E0C1E0C7B
:1001600030383E3830060E3E0E060000000000001B
:10017000005F00000007000700147F147F14242A8A
:100180007F2A12231308646236495620500008075C
:100190000300001C2241000041221C002A1C7F1C7D
:1001A0002A08083E0808008070300008080808087F
:1001B000000060600020100804023E5149453E00E6
:1001C000427F400072494949462141494D33181444
:1001D000127F1027454545393C4A49493141211193
:1001E00009073649494936464949291E0000140085
:1001F00000004034000000081422411414141414A8
:10020000004122140802015909063E415D594E7C05
:100210001211127C7F494949363E414141227F41BA
:1002200041413E7F494949417F090909013E414118
:1002300051737F0808087F00417F41002040413F03
:10024000017F081422417F404040407F021C027F12
:100250007F0408107F3E4141413E7F090909063E67
:100260004151215E7F091929462649494932030136
:100270007F01033F4040403F1F2040201F3F403848
:10028000403F631408146303047804036159494D23
:1002900043007F4141410204081020004141417F59
:1002A00004020102044040404040000307080020CF
:1002B000545478407F2844443838444444283844CF
:1002C00044287F385454541800087E090218A4A406
:1002D0009C787F0804047800447D40002040403D25
:1002E000007F1028440000417F40007C047804789F
:1002F0007C080404783844444438FC182424181832
:10030000242418FC7C08040408485454542404048D
:100310003F44243C4040207C1C2040201C3C40307A
:10032000403C44281028444C9090907C4464544CA9
:100330004400083641000000770000004136080004
:1003400002010204023C2623263C1EA1A161123AAE
:100350004040207A385454555921555579412154FB
:10036000547841215554784020545579400C1E5200
:1003700072123955555559395454545939555454A4
:10038000580000457C410002457D420001457C400B
:10039000F0292429F0F0282528F07C545545002028
:1003A00054547C547C0A097F4932494949323248C5
:1003B000484832324A4848303A4141217A3A42402C
:1003C0002078009DA0A07D39444444393D40404000
:1003D0003D3C24FF2424487E4943662B2FFC2F2BD1
:1003E000FF0929F620C0887E090320545479410072
:1003F00000447D413048484A32384040227A007AF1
:100400000A0A727D0D19317D2629292F28262929CE
:10041000292630484D4020380808080808080808F0
:10042000382F10C8ACBA2F102834FA00007B000017
:1004300008142A142222142A14089500220095AACE
:10044000005500AAAA55AA55AA000000FF001010E6
:1004500010FF00141414FF001010FF00FF1010F024
:1004600010F0141414FC001414F700FF0000FF0037
:10047000FF1414F404FC141417101F10101F101F85
:100480001414141F00101010F0000000001F1010B2
:1004900010101F10101010F010000000FF101010AE
:1004A000101010101010FF10000000FF140000FFCB
:1004B00000FF00001F10170000FC04F414141710B4
:1004C000171414F404F40000FF00F71414141414A7
:1004D0001414F700F7141414171410101F101F141D
:1004E0001414F4141010F010F000001F101F00007E
:1004F000001F14000000FC140000F010F01010FFAA
:1005000010FF141414FF141010101F00000000F04E
:1005100010FFFFFFFFFFF0F0F0F0F0FFFFFF000023
:10052000000000FFFF0F0F0F0F0F38444438447CCA
:100530002A2A3E147E02020606027E027E026355CD
:100540004941633844443C04407E201E2006027E1C
:10055000020299A5E7A5991C2A492A1C4C7201722E
:100560004C304A4D4D303048784830BC625A463D98
:100570003E494949007E0101017E2A2A2A2A2A444D
:10058000445F444440514A444040444A5140000082
:10059000FF0103E080FF000008086B6B083612368D
:1005A0002436060F090F060000181800000010106E
:1005B000003040FF0101001F01011E00191D17122C
:1005C000003C3C3C3C000000000000B00000A1707A
:1005D000E150964F26900F1D070C009669004AE4E3
:1005E0004A0048444000806810000F99FB8F9DBD71
:1005F000BBFB77D4D4DF1F1A1AFE7F5D5DFF805AE4
:100600000000A0A4AA0010BA3400FF5953F3FF9BC6
:100610009B9EFFB9B996FF9595D19FF4940FFC2945
:100620005F91FF1838F8FF9294FFFF95D5F7BFB59B
:10063000DDD7F18F81F1F788C8F779C6467909FDD2
:100640009B090196F8008281828050716200775682
:10065000560076763700A2B7730107720600782736
:10066000500073347400775176007F55F70047715E
:100670001000324772007364730015A27500616741
:100680009400009F6060F4F2F6F2080B0002020290
:10069000000009040000010202000005240010010E
:1006A00005240101010424020605240600010705B2
:1006B000810310004009040100020A000000070540
:1006C0000202400000070583024000000403090401
:1006D00012010002EF0201404123368000010102B5
:1006E000030141726475696E6F204C4C4300417286
:1006F0006475626F7900F0F89C8E8783878E9CF812
:10070000F00000FEFF0303030303070EFCF80000E4
:10071000FEFF0303030303070EFCF80000FFFF00C6
:10072000000000000000FFFF0000FEFF83838383C2
:1007300083C7EE7C380000F8FC0E07030303070EA6
:10074000FCF800003F7FE0C08080C0E07F3FFFFFFB
:1007500001010101010101FFFF0000FFFF0C0C0C72
:100760000C1C3E77E3C100007FFFC0C0C0C0C0E0EA
:10077000703F1F00001F3F70E0C0C0C0E0703F1F0F
:1007800000007FFFC1C1C1C1C1E3773E1C00001F53
:100790003F70E0C0C0C0E0703F1F000000000001DB
:1007A000FFFF01000000D5F08D14A1C881CFD9F161
:1007B000AF200000AC1D11241FBECFEFDAE0DEBF7A
:1007C000CDBF11E0A0E0B1E0EEE1FFE602C0059090
:1007D0000D92A237B107D9F728E0A2E7B1E001C036
:1007E0001D92A731B207E1F713E0CBEDD3E004C0CF
:1007F0002197FE010E948737CA3DD107C9F70E94A1
:10080000C61E0C948D370C94000080917D010895D4
:1008100080E0EFEFF3E081118FEF0024819381936B
:10082000819381930394D1F70895EFEFF3E0A0E073
:10083000B8E000800EBC8111012C1197A0FDFDCF06
:100840000192B9F70DB408955E9881E00E941504F5
:100850005E9A0895E1E0F0E00E943F04319728F0AD
:1008600068517C4F8F4F9F4FF9CFAB01FC010E9425
:100870003F04641775078E079F07C8F30895A4E81F
:10088000B1E02FB7F8947D918D919C9166B52FBF03
:10089000A89B05C06F3F18F47F5F8F4F9F4F22E0EA
:1008A000660F771F881F991F2A95D1F70895FC01BD
:1008B0008091D701882311F13FB7F89482E08093AB
:1008C000E9002091F200822F90E01816190614F426
:1008D00081E090E0882339F0289844E64093D601DF
:1008E0004091F1004083222339F02091F200211140
:1008F00003C02BE62093E8003FBF08958FEF9FEFE2
:1009000008952FB7F89483E08093E9009091E80070
:10091000892F807295FF04C09091F20080E4891BBA
:100920002FBF08958091CE0181110DC082E0809388
:10093000CA0184E08093CB011092CD011092CC01CA
:1009400081E08093CE018AEC91E008958F929F928E
:10095000AF92BF92CF92DF92EF92FF920F931F93CD
:10096000CF93DF936C017B018A018091230188235F
:1009700009F458C08091D701882309F453C08091AD
:10098000C90180FF05C08091E00082608093E00093
:10099000E801B12C8AEFA82E93E0892E2AE3922E4B
:1009A000209711F4BB20B9F10E948104811106C087
:1009B000AA94AA20B9F10E942A04F2CF8C171D062E
:1009C00011F00CF08C2F9FB7F8948092E9002091E1
:1009D000E80025FD02C09FBFE3CF282F30E0C21BF7
:1009E000D30BF701815020F041914093F100FACFF1
:1009F000E20EF31EBB2021F09092E800B12CEBCF69
:100A00008091E80085FDE7CF9092E800BB24B39485
:100A1000209709F3F3CF5D9884E68093C801101600
:100A200011063CF081E090E0F6019383828310E0B0
:100A300000E0C801DF91CF911F910F91FF90EF90DF
:100A4000DF90CF90BF90AF909F908F900895CF93FD
:100A5000DF931F92CDB7DEB76983DC01ED91FC9186
:100A60000280F381E02D41E050E0BE016F5F7F4FD7
:100A700009950F90DF91CF91089583E08093E9006D
:100A80008091F200882319F08AE38093E8000895AA
:100A90000E94810490E00895CF93DF931F92CDB719
:100AA000DEB7FC018485958597FD08C02FEF3FEFE9
:100AB000358724870F90DF91CF910895CE0101965D
:100AC0000E945704019719F4898190E0F3CF8FEFCA
:100AD0009FEFF0CF0F931F93CF93DF931F92CDB76C
:100AE000DEB78C01FC018485958597FF0BC0CE0194
:100AF00001960E945704019771F4898190E0F801F2
:100B000095878487F801848595850F90DF91CF9133
:100B10001F910F9108958FEF9FEFF1CFFC01848516
:100B2000958597FD0BC09FB7F89482E08093E9000C
:100B30008091F2009FBF90E0019608959FB7F894CE
:100B400082E08093E9008091F2009FBF90E00895D9
:100B50004091C4015091C5012091C2013091C3015F
:100B600042175307B4F49091E8009570E1F3909127
:100B7000E80092FD19C08093F1008091C40190912A
:100B8000C50101968F739927892B19F48EEF8093F5
:100B9000E8008091C4019091C50101969093C50130
:100BA0008093C40181E0089580E00895DF92EF9280
:100BB000FF920F931F93CF93DF93D82E8A01EB01FF
:100BC0007B01E40EF51ECE15DF0559F0D7FE12C0ED
:100BD000FE0184910E94A80521968111F4CF0FEFA8
:100BE0001FEFC801DF91CF911F910F91FF90EF9000
:100BF000DF9008958881EECF0F931F93CF93DF93FB
:100C00001F92CDB7DEB782E0898342E450E06AE804
:100C100076E080E80E94D6050E949204DC011296DC
:100C20000D911C910115110589F0D801ED91FC91F0
:100C30000280F381E02DBE016F5F7F4FC8010995EF
:100C400097FD04C0F80100851185ECCF89810F90D4
:100C5000DF91CF911F910F910895615030F0209155
:100C6000F100FC0120830196F8CF289884E6809358
:100C7000D6010895AF92BF92CF92DF92EF92FF928A
:100C80000F931F93CF93DF936C017B018B01040FB4
:100C9000151FEB015E01AE18BF08C017D10759F050
:100CA0006991D601ED91FC910190F081E02DC60192
:100CB0000995892B79F7C501DF91CF911F910F918C
:100CC000FF90EF90DF90CF90BF90AF9008956F921C
:100CD0007F928F929F92AF92BF92CF92DF92EF92CC
:100CE000FF920F931F93CF93DF934C017B01C22F91
:100CF000102F98E0A92EB12C642E66946694669409
:100D0000712CCA0187709927892B79F5D401179620
:100D10002D913C91C7019927B9010E947337269DF7
:100D2000F001279DF00D369DF00D11248E0F9F1FB1
:100D3000D4011596ED91FC91E80FF91F2081111156
:100D400012C0C095C223C083DF91CF911F910F9134
:100D5000FF90EF90DF90CF90BF90AF909F908F90DB
:100D60007F906F900895C22BEECFD0E04770C42ED5
:100D7000D12C83E0660C771C8A95E1F79E0101C0B7
:100D8000220F4A95EAF7012FA301B701C4010E947F
:100D90006706A301485F5F4FC5018C199D0902C01A
:100DA000D595C7958A95E2F7A7CF5F926F927F920C
:100DB0008F929F92AF92BF92CF92DF92EF92FF926B
:100DC0000F931F93CF93DF93EC016A30F1F48D857D
:100DD0009E859C878B878B892F853889820F932FDF
:100DE000911D988B8F8781E090E0DF91CF911F91CB
:100DF0000F91FF90EF90DF90CF90BF90AF909F90BA
:100E00008F907F906F905F900895AB84BC84693021
:100E100031F429E0A20EB11CBC86AB86E4CF3DEFD5
:100E2000A3163FEFB3060CF45BC08F819885A8161C
:100E3000B9060CF055C0CF84D8888DEFC8168FEF57
:100E4000D8060CF44DC089859A85C816D9060CF0D1
:100E500047C060320CF46FE780EE860F9FE9960F73
:100E60009A3118F49FEFC91AD90A8C3011F08B31DE
:100E700019F42FEFC21AD20A869534E0839FC0017D
:100E800011249C0126533A4F7901912C812C162F65
:100E90001170F701E80DF91D549011112BC0352D7B
:100EA0003F70532E3501680C791C8C81882351F0DA
:100EB00001E08989811100E02FE0A601B301CE0194
:100EC0000E9467060989252DA601B301CE010E9463
:100ED00067068FEF881A980A94E089169104C9F67C
:100EE0008A8990E004962B853C85820F931F9C870E
:100EF0008B8779CF52948FE05822D4CF20918F01E5
:100F0000E0918D01F0918E01CF01029690938E01B8
:100F100080938D01222319F0859194910895808109
:100F200091810895CF92DF92EF92FF92CF93DF935A
:100F30000E947E07811520E8920791F4809171004C
:100F40008D7F80937100109291004698479810927F
:100F50008C01DF91CF91FF90EF90DF90CF900895BB
:100F600021E020938C01813020E8920751F4809198
:100F70008A0190918B0190938E0180938D010E9444
:100F80007E0797FD05C020918901222309F454C0F2
:100F900020918801211150C021E020939001EC01A3
:100FA000DF77209709F04BC081E08093910146984C
:100FB0003FE9C32E3FE0D32EE12CF12CCAEFD0E065
:100FC000E0913A02F0913B020995811103C081E062
:100FD0008093910180919001882329F08091910163
:100FE000882309F43FC047980E947E070097F1F1DB
:100FF0009C01DE010E94E534DC01CB0129E0B595BE
:10100000A795979587952A95D1F7109290002AE099
:1010100020939100D0929900C09298008093920101
:1010200090939301A0939401B093950180917100E6
:101030008260809371008DCF10929001B0CF9E019D
:1010400050E040E060E472E48FE090E00E94913470
:1010500069017A0181E0C81AD108E108F10810920B
:101060009101AECF4699BFCF479ABECF8FEF9FEF8A
:10107000DC01CBCFDC01E1E7F0E090819D7F908344
:1010800010928F01ECE2F2E0F0938E01E0938D017B
:10109000F0938B01E0938A01B183A0837383628311
:1010A000558344833783268380E090E89187808747
:1010B0000C9492070DB407FEFDCF8EB5599A089592
:1010C0000E946508982F0C945A080DB407FEFDCFB6
:1010D0008EB51EBC0895EF92FF920F931F93CF938E
:1010E000DF937B018C01D0E0C0E02196CE15DF05B7
:1010F00079F00E946508F80181938F01EC16FD06D6
:10110000A0F7DF91CF911F910F91FF90EF9008957D
:101110000E945A08F8018083F4CF0E946508982F36
:101120000C9465089B01482F00909601300D0090AB
:101130009701401D599883E00E94E109842F0E9485
:10114000E109832F0E94E109822F0E94E1091EBC60
:10115000089590E0429F09F4142E5527090E151E9C
:10116000600D711D851F11240C9492083F924F92BF
:101170005F926F927F928F929F92AF92BF92CF9227
:10118000DF92EF92FF920F931F93CF93DF935C0157
:101190006B013901842E402E3E2C842FB9010E9410
:1011A00092080E948D08582EC82FD92F0E946008DF
:1011B000AE014A0D5B1D141615060CF0E6C020E8C2
:1011C000A216B1040CF0E1C0FC019C012C0D3D1DE8
:1011D000121613060CF0D9C090E4C916D1040CF015
:1011E000D4C0B7FE0BC0EE24FF24EA18FB085E183B
:1011F000403851055CF060E8562E08C04138510572
:101200001CF090E8592E5A18F12CE12CD7FECFC0D3
:10121000002711270C191D09087F9F01201B310B86
:10122000982E901A2134310534F08C2D81958770D9
:1012300050E4952E980E43E0159507954A95E1F7F1
:1012400024E0620E711C811C6E0C7F1C811CF7FC5B
:101250008A94CF01079697FD079623E09595879589
:101260002A95E1F7489E9001499E300D1124200FE8
:10127000311F032E000C440BBE010D2E000C880BF9
:101280000E945537660E771E881EC60133E095957D
:1012900087953A95E1F7080F31E0C1FC34E0C0FCD6
:1012A000330FC2FC329520E80203D0011124AA0DAD
:1012B000BB1DAE0DBF1DA150BC4F292D599883E019
:1012C0008EBD8091960190919701870D981D0DB468
:1012D00007FEFDCF9EBD0DB407FEFDCF8EBD0DB444
:1012E00007FEFDCF6EBC6C0E7D1E811C0DB407FE8B
:1012F000FDCF1EBC330C073014F4089430FD8894E5
:10130000379462E021FD68E022FD629520FF66953A
:101310006A9511F028300CF06FEF952D0EB41EBCBD
:1013200033FC0626862F30FC802D32FC0024039EE1
:10133000A00134FA36F4C895C89511240EB41EBC29
:1013400030FC082E039E003034F08C9131FE48278B
:10135000402148274C93A058BF4F37FE06C08C91C0
:1013600031FE5827512158275C931124AF57B040C4
:101370009A95A1F6A058BF4FA519B1092850039519
:101380000DB4599A12160CF499CFDF91CF911F9199
:101390000F91FF90EF90DF90CF90BF90AF909F9014
:1013A0008F907F906F905F904F903F900895982E10
:1013B000213431051CF080E4982E9C1810E000E0E8
:1013C0003FCF8EBD00000DB407FEFDCF8EB5089552
:1013D000AB01FC010E943F0441505109E109F109B0
:1013E00028F068517C4F8F4F9F4FF6CFAB01FC0127
:1013F0000E943F04641775078E079F07C8F308957E
:101400002D9A0895BC0190E080E00C94E8098FB11A
:101410008095807F669B88601C9B846008951092F5
:101420007D013E983F9808953E9A3F9A81E08093CF
:101430007D010895AF92BF92CF92DF92EF92FF921B
:101440000F931F93CF93DF936D3079F0C091D80144
:10145000D091D9016A30B1F41092DB011092DA0117
:101460002896D093D901C093D80181E090E0DF9114
:10147000CF911F910F91FF90EF90DF90CF90BF9091
:10148000AF9008954091DA015091DB0185E0689FAB
:10149000F0011124E653FF4F9A01C12C80E1E82EA0
:1014A000A5E070E0CA1621F0CF0101967491FC010D
:1014B00010E000E0B72FB170DB2E20383105D0F4FA
:1014C000CE01800F911F80349105A0F461E081FD71
:1014D00064E080FD660F82FD6295887FE89ED00102
:1014E0001124A20FF62EA150BC4F8C91DD20A9F043
:1014F000862B8C9376950F5F1F4F08301105D1F620
:10150000C3942F5F3F4F86E0C812CACF4A5F5F4F38
:101510005093DB014093DA01A8CFF0948F21E9CFFB
:10152000EF92FF920F931F93CF93DF93CDB7DEB768
:101530002C970FB6F894DEBF0FBECDBF49835A83F8
:101540006B837C839E83EF82F88609871A872B87BB
:101550003C8729813A814F815885820F932F911DB5
:1015600048175907D4F48B85840F952F911D2817A0
:1015700039079CF44B815C8169857A858E81840F63
:10158000952F911D6817790744F42C85260F372F66
:10159000311D81E0421753070CF080E02C960FB606
:1015A000F894DEBF0FBECDBFDF91CF911F910F9199
:1015B000FF90EF9008959091BD01982329F09091AC
:1015C000BE01982381E009F080E008959091BD016B
:1015D000982329F49091BE01982381E009F480E0DA
:1015E0000895CF93C82F0E94070A982F9C2381E06B
:1015F0009C1380E0CF91089580E00C9415048FB780
:10160000F894409180015091810160918201709124
:1016100083018FBF80917B01882321F010927B0191
:1016200080E0089590917C01242F291B922F209116
:101630000001921740F49F5F9217A0F491E093BFCE
:10164000889513BE089581E080937B0140937C01CF
:101650008091BB019091BC0101969093BC01809355
:10166000BB0181E008954F925F926F928F929F929B
:10167000AF92BF92CF92DF92EF92FF920F931F93A0
:10168000CF93DF93CDB7DEB72C970FB6F894DEBFBC
:101690000FBECDBFD12CC12C412C512C612C60919F
:1016A00001017091020180910301640D751D861D79
:1016B00020E240E00E94A90860E270E089E991E040
:1016C0000E946B0889E9882E81E0982EB12CA12C0C
:1016D000F40181914F018130A1F0F8E0AF0EB11C0F
:1016E000A11481E0B806A1F7E0E24E0E511C611C86
:1016F000F8E0CF0ED11C80EBC816D10481F680E053
:101700003DC0EA2CB886AF820C2DDA86C98620E06F
:1017100030E040E052E46091090170910A0180914B
:101720000B0190910C010E94F5340E946B35162F2D
:10173000F72E20E030E040E85FE360910501709112
:10174000060180910701909108010E94F5340E94E2
:101750006B35462F7A836983612F812F9F2D9C8360
:101760008B83F8841A8528E031E05A817C8186E1F8
:1017700091E00E94900A882309F4AFCF2C960FB60F
:10178000F894DEBF0FBECDBFDF91CF911F910F91B7
:10179000FF90EF90DF90CF90BF90AF909F908F9091
:1017A0006F905F904F900895813059F424E130E0BC
:1017B00042E350E062E370E082E390E00E943A0886
:1017C0000895833049F428EC30E042E350E064EFC0
:1017D00071E084E690E0F2CF823049F422E330E019
:1017E0004CE251E06CE271E088EC90E0E7CF22E35C
:1017F00030E044E650E068EC70E0843041F0853041
:1018000049F422E330E04EE150E064EF71E084E11E
:1018100090E0D4CF863051F428EC30E042E350E041
:1018200064EF71E082E390E00C943A08873049F469
:1018300028EC30E04BE450E062E370E08BE490E0B1
:10184000F3CF883049F428EC30E042E350E062E323
:1018500070E088EC90E0E8CF893051F38A3041F3B2
:1018600008954F925F926F927F928F929F92AF9264
:10187000BF92CF92DF92EF92FF920F931F93CF937D
:10188000DF93CDB7DEB72C970FB6F894DEBF0FBE4F
:10189000CDBF80910F0181117FC020E030E040E892
:1018A0005FE36091050170910601809107019091BD
:1018B00008010E94F5340E946B3570937A016093A1
:1018C0007901D12CC12C412C512C612C772473949B
:1018D000609101017091020180910301640D751DF9
:1018E000861D20E240E00E94A90860E270E089E9DC
:1018F00091E00E946B0829E9822E21E0922EB12C02
:10190000A12CF40181914F01813009F051C0EA2CE2
:10191000B886AF820C2DDA86C98660910901709174
:101920000A0180910B0190910C010E946B35262FCA
:101930008091790190917A01482F89839A83622F4F
:10194000822F972F9C838B83F8841A8528E038E0B8
:101950005A817C8187E190E20E94900A882309F4F1
:1019600053C08AE00E94D40B81E02C960FB6F89405
:10197000DEBF0FBECDBFDF91CF911F910F91FF90C2
:10198000EF90DF90CF90BF90AF909F908F907F901F
:101990006F905F904F900895813009F092CF6091E1
:1019A000050170910601809107019091080183CF94
:1019B0008A3051F5EA2CB886AF820C2DDA86C986BA
:1019C0006091090170910A0180910B0190910C01C5
:1019D0000E946B35262F8091790190917A01482FD2
:1019E00089839A83622F822F972F9C838B83F8841D
:1019F0001A8528E038E05A817C8187E190E20E94D4
:101A0000900A811170921601F8E0AF0EB11CA1147A
:101A100081E0B80609F075CFE0E24E0E511C611C62
:101A2000F8E0CF0ED11C80EBC816D10409F050CFDE
:101A30009BE0C92E93E0D92EF6018081882371F1B5
:101A4000B184A0848681278194813581E92E9F838A
:101A50003887082F89872A876091090170910A01C8
:101A600080910B0190910C010E946B35262F809183
:101A7000790190917A01482F89839A83622F822F6E
:101A8000972F9C838B83F8841A8595015A817C81DA
:101A900087E190E20E94900A811163CFFAE0CF0EB5
:101AA000D11C8DE3C81683E0D80631F6809104037B
:101AB000882389F18091090320910A0390910703FB
:101AC00030910803E92E9F833887082F89872A875A
:101AD0006091090170910A0180910B0190910C01B4
:101AE0000E946B35262F8091790190917A01482FC1
:101AF00089839A83622F822F972F9C838B83F8840C
:101B00001A8520E230E35A817C8187E190E20E94CD
:101B1000900A811126CF80919502882389F18091C6
:101B20009A0220919B029091980230919902E92E9D
:101B30009F833887082F89872A87609109017091D0
:101B40000A0180910B0190910C010E946B35262FA8
:101B50008091790190917A01482F89839A83622F2D
:101B6000822F972F9C838B83F8841A8528E330E299
:101B70005A817C8187E190E20E94900A8111F1CE26
:101B800084EBC82E82E0D82EF6018081882369F18B
:101B90008581268193813481E92E9F833887082FA0
:101BA00089872A876091090170910A0180910B0150
:101BB00090910C010E946B35262F809179019091B4
:101BC0007A01482F89839A83622F822F972F9C83D3
:101BD0008B83F8841A8520E338E25A817C8187E17F
:101BE00090E20E94900A8111BCCEFEE0CF0ED11C83
:101BF00080EDC81682E0D80639F680918202811104
:101C000002C080E0B2CE809187022091880290913C
:101C1000850230918602E92E9F833887082F8987B5
:101C20002A876091090170910A0180910B019091BE
:101C30000C010E946B35262F8091790190917A01D9
:101C4000482F9A83622F822F972F9C838B83F8844F
:101C50001A8520E238E45A817C8187E190E20E9473
:101C6000900A882371F27DCE4F925F926F928F928D
:101C70009F92AF92BF92CF92DF92EF92FF920F931B
:101C80001F93CF93DF93CDB7DEB72C970FB6F894A1
:101C9000DEBF0FBECDBFD12CC12C412C512C612CED
:101CA000609101017091020180910301640D751D25
:101CB000861D20E240E00E94A90860E270E089E908
:101CC00091E00E946B0889E9882E81E0982EB12C62
:101CD000A12CF40181914F01813009F051C0EA2C0F
:101CE000B886AF820C2DDA86C98620E030E040E865
:101CF0005FE36091090170910A0180910B0190915D
:101D00000C010E94F4340E946B35162FF72E60915F
:101D100005017091060180910701909108010E94D0
:101D20006B35462F7A836983612F812F9F2D9C838A
:101D30008B83F8841A8528E038E05A817C8188E119
:101D40009AE00E94900A182F8823D1F08AE00E941E
:101D5000D40B812F2C960FB6F894DEBF0FBECDBFEB
:101D6000DF91CF911F910F91FF90EF90DF90CF9077
:101D7000BF90AF909F908F906F905F904F9008951D
:101D8000F8E0AF0EB11CA11481E0B80609F0A1CFB4
:101D9000E0E24E0E511C611CF8E0CF0ED11C80EB2E
:101DA000C816D10409F07CCF10E0D3CF2F923F9218
:101DB0004F925F926F927F928F929F92AF92BF925B
:101DC000CF92DF92EF92FF920F931F93CF93DF9307
:101DD000CDB7DEB76C970FB6F894DEBF0FBECDBFA0
:101DE00032EDC32E33E0D32EF6018085882309F42B
:101DF0009DC120818181928121110CC02681820F99
:101E0000911D92838183248135812817390774F4C9
:101E100010860CC0213051F42681821B91099283D7
:101E20008183248135818217930794F38090430343
:101E300090904403A0904103B0904203F601638167
:101E400070E06819790981819281EE24E39400E0C1
:101E50002CEE32E140E08A199B090E94B60880917D
:101E60001601882381F0F601638170E06819790911
:101E70006A5F7F4F818192812CEE32E140E08A19C6
:101E80009B090E94B6088091160126E0322E81112E
:101E900001C0312C9DE6A92E93E0B92E832D90E050
:101EA0009B8F8A8FF5018081882389F181849284B8
:101EB000F2E08F0E911CF50167807084F2E06F0EE6
:101EC000711CE62C7C8A6B8A082D9E8A8D8AF6010D
:101ED0004380512C2180F281F98F422D2D86FE877F
:101EE000642D588A4F86FC881E892CE03CE05F2FC9
:101EF000788986E091E00E94900A882309F438C12D
:101F0000F5011082F601108687E00E94D40B9FE055
:101F1000A90EB11CE7ECAE16E3E0BE0619F68091FF
:101F2000A302882309F46AC08091B202882391F148
:101F30008090A8029090A902F2E08F0E911C609010
:101F4000AA024090AB02E62C6B8A4C8A082D9E8A2E
:101F50008D8AF601A380B12C71805280472D7D8639
:101F60005E86C5010397682F988B8F87F42C1E8996
:101F700022E033E0552D788986E093E00E94900AB4
:101F8000882309F411C11092B202F601108689E08B
:101F90000E94D40B8091B302882381F18090A80223
:101FA0009090A902FAE08F0E911C6090AC024090D4
:101FB000AD02E62C6B8A4C8A082D9E8A8D8AF6012A
:101FC000A380B12C71805280472D7D865E866A2D5C
:101FD000B88AAF86F42C1E8922E033E0552D78892B
:101FE00086E093E00E94900A882309F4F5C01092DD
:101FF000B302F601108689E00E94D40B8091890219
:102000008823B1F180919402882391F180908C0211
:1020100090908D02F2E08F0E911C60908E024090A5
:102020008F02E62C6B8A4C8A082D9E8A8D8AF601D7
:10203000A380B12C71805280472D7D865E86C501BC
:102040000397682F988B8F87F42C1E8923E033E049
:10205000552D788986E093E00E94900A882309F440
:10206000D3C010929402F601108689E00E94D40B2E
:102070008CEDA82E82E0B82EF8E0F98F632C712C3D
:102080008091040381114AC0F5018481882309F4F9
:1020900045C04280F381FA8FF50130802180E32C26
:1020A0003B8A2C8A042D4D8AFA8DFE8BF6018380A3
:1020B000912C5180F281FC8F452D5D86FE87C401F5
:1020C0000397682F988B8F87F22C1E8928E038E0C1
:1020D0005F2F788986E093E00E94900A811117C0F3
:1020E0003F82288649861A87452D59829C8D9A837E
:1020F000860C971C682D9C828B8228E038E0592F33
:102100007C8186E091E00E94900A882339F0F501F5
:102110001482F601108687E00E94D40BF98DF150ED
:10212000F98F85E0A80EB11CF111AACF99E0C90E74
:10213000D11CEFEFCE16E3E0DE0609F055CE6C962B
:102140000FB6F894DEBF0FBECDBFDF91CF911F91C8
:102150000F91FF90EF90DF90CF90BF90AF909F9046
:102160008F907F906F905F904F903F902F90089549
:1021700078866F829A868986422D2982F98DFA8324
:102180008A8D9B8D480E591E642D5C824B82F8848B
:102190001A852CE03CE05F2F7C8186E091E00E9474
:1021A000900A8111ADCEB3CE6F8248869A86898619
:1021B000472D79825A82A30CB11C6A2DBC82AB8256
:1021C0001A8522E033E0552D7C8186E091E00E9463
:1021D000900A8111D8CEDECE6F8248869A86898693
:1021E000472D79825A82A30CB11C6A2DBC82AB8226
:1021F0001A8522E033E0552D7C8186E091E00E9433
:10220000900A8111F4CEFACE6F8248869A8689862A
:10221000472D79825A82A30CB11C6A2DBC82AB82F5
:102220001A8523E033E0552D7C8186E091E00E9401
:10223000900A811116CF1CCF089590E080E0089598
:102240008F929F92AF92BF920F931F93CF93DF9382
:10225000CDB7DEB7A1970FB6F894DEBF0FBECDBFE6
:1022600019A2423008F44AE08E010F5D1F4F842E00
:10227000912CB12CA12CA50194010E94C334E62F0E
:10228000B901CA01EA3044F5E05DD801EE938D0151
:10229000232B242B252B79F790E080E0109769F011
:1022A000FD0101900020E9F73197AF014A1B5B0B5C
:1022B000BD018FEF97E00E943A06A1960FB6F89401
:1022C000DEBF0FBECDBFDF91CF911F910F91BF90A9
:1022D000AF909F908F900895E95CD7CFFC0101905B
:1022E0000020E9F73197AF01481B590BBC018FEF74
:1022F00097E00C943A060C947B3482E090E00E94C4
:102300007B1181110C94140A0C940F0A2F923F92A6
:102310005F926F927F928F929F92AF92BF92CF9275
:10232000DF92EF92FF920F931F93CF93DF9381EC95
:1023300080937C0085B1806F85B984B1877E84B934
:1023400084B1876E84B95E9A5F988AB1806D8AB9CC
:10235000769A6E9881B3806F81BB899880B38D70B7
:1023600080BB80E58CBD81E08DBD85E090E00E9462
:10237000020A5F9A85E090E00E94020A5E985C98EB
:10238000E6EAF7E084918EBD00000DB407FEFDCFB4
:10239000319647E0E33BF407A9F75C9A81E8809324
:1023A0006400809165008160809365000E94FC0A52
:1023B00080E80E94F10A882381F05C9885EA8EBD4E
:1023C00000000DB407FEFDCF5C9A2E982F982D9833
:1023D00081E083BF889513BEFCCF84E00E94F10AA0
:1023E000882309F448C02D9884E80E94F10A8823C4
:1023F000E1F00E94000A88EC90E00E94020A2F9807
:1024000082E090E00E947B348F3F29F06FEF82E002
:1024100090E00E94833484EF91E00E94020A2F9A98
:1024200084E80E94F10A8111FBCF84E10E94F10A45
:102430008823E1F00E94000A88EC90E00E94020AE2
:102440002E9882E090E00E947B34882329F060E09F
:1024500082E090E00E94833484EF91E00E94020ABF
:102460002E9A84E10E94F10A8111FBCF88EC90E062
:102470000E94020AB2CF0E94000A0E947D1181E0F0
:1024800090E00E947B1181FF12C0582F5470552E8E
:1024900082FD2E98C1EFDFEF08E010E080E40E949B
:1024A000F10A8823F1F02E9A2F9A0E94000A82E303
:1024B00090E00E94020A0E94070A8111F8CFDF9182
:1024C000CF911F910F91FF90EF90DF90CF90BF9031
:1024D000AF909F908F907F906F905F903F902F90E4
:1024E0000895552029F0C430D10511F42E9A2F9863
:1024F00081E00E9415049E01D7FF04C022273327E4
:102500002C1B3D0B27703327CE01D7FD079653E0D8
:10251000959587955A95E1F7D7FF05C00197F80182
:10252000E21BF30B9F01BC017695762F662777950A
:10253000679561507C4FF12CE12C3801621A730AC7
:102540008E3FFFEF9F0709F43AC0DB0150E040E007
:10255000F701EA50F94F5F014B01F0E88F0E911C33
:102560008F3F980781F0F501E40FF51FE491022EEB
:1025700001C0EE0F0A94EAF75496FC915497EF2BA2
:102580005496EC9354972115310599F0F501E40F19
:10259000F51FE4916401C40ED51EF0E01F01062C66
:1025A00002C0359427940A94E2F7F6013488232870
:1025B000248A4F5F5F4F11964835510589F6019681
:1025C000F8E5EF0EF11C60587F4F40EBE416F10484
:1025D00009F0B6CF0E94FC0A8FE090E00E94020A48
:1025E0002196C931D10509F059CF552011F02F9A04
:1025F0002D9880E991E00E94020A0E94000A81E081
:1026000090E00E947B1180FF52CF8AE090E00E9410
:102610007B119FEF980F9E3F08F049CF22E330E0F7
:102620003093DB012093DA0128E330E03093D901C5
:102630002093D801CBE0D0E0682F83E198E00E949E
:102640001A0ACE010E947B112196C131D105A1F752
:102650000E94FC0A88EE93E00E94020A28CFCF92E3
:10266000DF92EF92FF926B017C01C114D104E1046F
:10267000F10441F00E942334A70196010E94913495
:102680006B017C01C701B601FF90EF90DF90CF9006
:1026900008952F923F924F925F926F927F928F9206
:1026A0009F92AF92BF92CF92DF92EF92FF920F93E1
:1026B0001F93CF93DF9300D000D000D0CDB7DEB70B
:1026C00010926D0310927C0310928B0310929A0368
:1026D0001092A9031092B8031092130110921501E1
:1026E0001092140110921101109210011092120117
:1026F00081E080930E0110920F011092050110925B
:10270000060110920701109208011092D103109255
:10271000C7031092CA031092C90310923E0310928D
:102720003D038091BF019091C0012FE136E542E069
:10273000009739F08130910509F0EBC02FED38E5B5
:1027400042E0209301013093020140930301853060
:10275000910509F0EAC02FED33E642E02093010134
:1027600030930201409303018A30910509F0E9C0DA
:102770002FE931E742E020930101309302014093B9
:1027800003018F30910509F0E8C02FE53FE742E0F3
:10279000209301013093020140930301843191059C
:1027A00009F0E7C08FE19DE8A2E0809301019093DA
:1027B0000201A093030110920B0310920C031092DC
:1027C00015031092160310921F031092200310920B
:1027D000290310922A0310923303109234031092AB
:1027E000450310924D031092550310925D03109211
:1027F00065031092B4021092C2021092B5021092B8
:10280000C3021092A30210929502109296021092A7
:102810008902109204031092050310927D02109217
:102820008202109283021092D0021092D60248E0E7
:10283000242E312C412C512C612C772473946091DF
:1028400001017091020180910301640D751D861DC7
:1028500020E240E00E94A90860E270E089E991E08E
:102860000E946B0881010850110929E9A22E21E07C
:10287000B22E38E0E32EF12CC801012E000CAA0B79
:10288000BB0B89839A83AB83BC83D5018C91F70101
:102890003897FE83ED839AE6980F9B3008F011C1BC
:1028A00090E02AE0299FF0011124E55FFC4F208190
:1028B00021110AC031E03083AD81BE81B583A4838C
:1028C00017830683838395E09F5F953050F38B3A9F
:1028D00009F0B4C17092A3028D819E819093A702EA
:1028E0008093A6021093A9020093A8029093AB02D2
:1028F0008093AA029093AD028093AC028091B102C2
:10290000AD81BE81A81BB109B093AF02A093AE0206
:10291000F3C082309105A1F52FE93BE542E0209319
:102920000101309302014093030186309105A1F526
:102930002FE936E642E020930101309302014093F3
:1029400003018B309105A9F52FE534E742E0209390
:102950000101309302014093030180319105B1F5EB
:102960002FE132E842E020930101309302014093CD
:10297000030185319105B9F58FED9FE8A2E015CFF0
:1029800083309105C1F52FE53EE542E0209301013A
:1029900030930201409303018730910509F066C02E
:1029A0002FE539E642E02093010130930201409384
:1029B00003018C30910509F065C02FE137E742E053
:1029C000209301013093020140930301813191056D
:1029D00009F064C02FED34E842E020930101309308
:1029E0000201409303018631910509F063C08FE92C
:1029F00092E9A2E0DACE8430910509F0A8CE2FE169
:102A000031E642E02093010130930201409303013B
:102A10008930910509F0A8CE2FED3EE642E02093E3
:102A2000010130930201409303018E30910509F0BA
:102A3000A8CE2FE93CE742E0209301013093020148
:102A4000409303018331910509F0A8CE2FE53AE8C0
:102A500042E0209301013093020140930301489723
:102A600009F0A9CE8FE198E9A2E09FCE88309105C8
:102A700079F62FE13CE642E0209301013093020118
:102A8000409303018D30910581F62FED39E742E047
:102A9000209301013093020140930301823191059B
:102AA00089F62FE937E842E02093010130930201D3
:102AB000409303018731910591F68FE595E9A2E0F6
:102AC00074CE893A09F09EC07092B402ED81FE8105
:102AD000F093B802E093B7021093BA020093B902E0
:102AE000F093BC02E093BB028091C002E81BF109A5
:102AF000F093BE02E093BD0285E4C82E83E0D82E99
:102B000091EA892E912CF501808188151904B1F480
:102B1000E1E0D601EC932D813E8112963C932E93F9
:102B2000119714961C930E93139768E070E080E061
:102B300090E00E942F13D60115966C93BFEF8B1A6D
:102B40009B0AE8E0CE0ED11CF6EA8F169104D9F666
:102B5000D5018C918B3011F5809117018130F1F402
:102B6000ED81FE81BF01FF0F880B990B0E94A335F9
:102B7000609305017093060180930701909308010B
:102B800069817A818B819C810E94A33560930901C0
:102B900070930A0180930B0190930C01FFEFAF1A21
:102BA000BF0A28E0E20EF11C38E0E31631E0F3063C
:102BB00009F06BCE80E2480E511C611C98E0290E92
:102BC000311CA8EB2A16310409F039CE81E080933C
:102BD000C10126960FB6F894DEBF0FBECDBFDF91C0
:102BE000CF911F910F91FF90EF90DF90CF90BF900A
:102BF000AF909F908F907F906F905F904F903F909D
:102C00002F9008958A3A09F062CE7092C2022D8107
:102C10003E813093C6022093C5021093C8020093F0
:102C2000C7023093CA022093C9028091CE02281BAA
:102C300031093093CC022093CB025ECF8C3AC9F499
:102C400070929502ED81FE81F0939902E0939802D3
:102C500010939B0200939A02F0939D02E0939C02D2
:102C60008091A102E81BF109F0939F02E0939E027C
:102C700043CF8D3AE9F4709289022D813E813093E1
:102C80008B0220938A0210938D0200938C02809114
:102C900098029091990290938F0280938E022091D6
:102CA000A102821B9109909391028093900224CFFC
:102CB0008E3AD1F4709204038D819E819093080323
:102CC0008093070310930A0300930903ECEDF2E0ED
:102CD00091E09483F182E082338222823596A3E0F0
:102CE000E430FA07A9F708CF833BF1F4ECEDF2E00A
:102CF00090E080E0B1E0B483F182E082938382834C
:102D00003596089680349105A9F7109204038D81B9
:102D10009E819093080380930703A8E3B0E0B093EB
:102D20000A03A0930903E8CE853B69F47092D002B0
:102D3000ED81FE81F093D302E093D2021093D5028D
:102D40000093D402D9CE863B69F47092D6022D81CD
:102D50003E813093D9022093D8021093DB02009376
:102D6000DA02CACE8F3A69F470927D02ED81FE815B
:102D7000F0937F02E0937E02109381020093800221
:102D8000BBCE803B09F0B8CE709282022D813E818D
:102D90003093860220938502109388020093870265
:102DA0008FEF90E09093790280937802A0EBB0E0EF
:102DB000B0937B02A0937A029FCE8F929F92AF92A4
:102DC000BF92CF92DF92EF92FF920F931F93CF9318
:102DD000DF93CDB7DEB72C970FB6F894DEBF0FBEEA
:102DE000CDBFC82E892ED62E972EA42EB22E80911E
:102DF0001301811141C0EC2CCF829887062F69877F
:102E00007A876091090170910A0180910B0190917C
:102E10000C010E946B35162FF72E60910501709101
:102E2000060180910701909108010E946B35462FA1
:102E30007A836983612F812F9F2D9C838B83F82C4C
:102E4000192D95015A817C8184E19EE10E94900AAE
:102E5000882309F464C080919801811160C08AE0E0
:102E600080930E0188E00E94D40B0E944913809148
:102E70001301882309F453C0EC2CCF8288860D2DD2
:102E8000D9869A8620E030E040E251E46091090161
:102E900070910A0180910B0190910C010E94F53410
:102EA0000E946B35D62E172F609105017091060197
:102EB00080910701909108010E946B35462F7A831B
:102EC00069836D2D8D2D912F9C838B83F82C192D6B
:102ED00095015A817C8184E194E10E94900A8823C3
:102EE000F1F08091980181111AC08AE080930E015F
:102EF00088E00E94D40B2C960FB6F894DEBF0FBE6C
:102F0000CDBFDF91CF911F910F91FF90EF90DF9098
:102F1000CF90BF90AF909F908F900C9449132C96B8
:102F20000FB6F894DEBF0FBECDBFDF91CF911F91DA
:102F30000F91FF90EF90DF90CF90BF90AF909F9058
:102F40008F9008952F923F924F925F926F927F924F
:102F50008F929F92AF92BF92CF92DF92EF920F9398
:102F6000CF93DF93482E512C26E0829FF00111244D
:102F7000E45CFD4F8481811107C0718360835383BA
:102F8000428381E084831582D0E0C0E026E0249D66
:102F9000C001259D900D1124FC01E45CFD4F5F01F3
:102FA0004F01F2E08F0E911C650125E0C20ED11C8D
:102FB00064E070E080E090E00E942F13062FF4019F
:102FC00060807180F8E06F0E711C6C0E7D1EF60142
:102FD0002080620C711C63E070E080E090E00E9451
:102FE0002F132091430330914403621B730B660E31
:102FF000771EF50120803180F4E12F0E311C2C0E5C
:103000003D1EF6018081280E311C63E070E080E0F7
:1030100090E00E942F132091410330914203CB0195
:10302000821B930BEE24E3942CE932E140E0B301E0
:10303000820D931D0E94B60864E070E080E090E08D
:103040000E942F13062FF40160807180F8E06F0E4C
:10305000711C6C1A7D0AF6018081681A710863E0A0
:1030600070E080E090E00E942F13209143033091A4
:103070004403621B730B660E771EF50120803180BE
:10308000F4E12F0E311C2C1A3D0AF6018081281A1A
:10309000310863E070E080E090E00E942F132091FF
:1030A000410330914203CB01821B930B2CE932E1A7
:1030B00040E0B301820D931D0E94B60864E070E009
:1030C00080E090E00E942F13062FF4016080718051
:1030D000F8E06F0E711C6C1A7D0AF6018081681A87
:1030E000710863E070E080E090E00E942F1320916F
:1030F000430330914403621B730B660E771EF50188
:1031000020803180F4E12F0E311C2C0E3D1EF60183
:103110008081280E311C63E070E080E090E00E9426
:103120002F132091410330914203CB01821B930B5B
:103130002CE932E140E0B301820D931D0E94B608F4
:1031400064E070E080E090E00E942F13062FF4010D
:1031500060807180F8E06F0E711C6C0E7D1EF601B0
:103160002080620C711C63E070E080E090E00E94BF
:103170002F132091430330914403621B730B660E9F
:10318000771EF50120803180F4E12F0E311C2C1ABE
:103190003D0AF6018081281A310863E070E080E082
:1031A00090E00E942F132091410330914203CB0104
:1031B000821B930B2CE932E140E0B301820D931D99
:1031C0000E94B60864E070E080E090E00E942F1357
:1031D000062FF40160807180F8E06F0E711C6C0E98
:1031E0007D1E8091430390914403681A790AF5018A
:1031F00020803180F4E12F0E311C2C1A3D0AF6019B
:103200008081281A310863E070E080E090E00E943D
:103210002F132091410330914203CB01821B930B6A
:103220002CE932E140E0B301820D931D0E94B60803
:1032300064E070E080E090E00E942F13062FF4011C
:1032400060807180F8E06F0E711C6C0E7D1E8091A5
:10325000430390914403681A790AF5012080318074
:10326000F4E12F1A31082C1A3D0AF6018081281A40
:10327000310863E070E080E090E00E942F1320911D
:10328000410330914203CB01821B930B2CE932E1C5
:1032900040E0B301820D931D0E94B60864E070E027
:1032A00080E090E00E942F13062FF401608071806F
:1032B000F8E06F0E711C6C0E7D1E8091430390919F
:1032C0004403681A790AF50120803180F4E12F0E59
:1032D000311C2C1A3D0AF6018081280E311C63E056
:1032E00070E080E090E00E942F1320914103309124
:1032F0004203CB01821B930B2CE932E140E0B30186
:10330000820D931D0E94B60864E070E080E090E0BA
:103310000E942F13062FF40160807180F8E06F0E79
:10332000711C6C0E7D1E8091430390914403681ABA
:10333000790AF50120803180F4E12F1A31082C1A26
:103340003D0AF6018081280E311C63E070E080E0C8
:1033500090E00E942F132091410330914203CB0152
:10336000821B930B2CE932E140E0B301820D931DE7
:103370000E94B60864E070E080E090E00E942F13A5
:10338000062FF40160807180F8E06F0E711C6C1ADA
:103390007D0AF6018081681A710863E070E080E0C0
:1033A00090E00E942F132091430330914403621B4D
:1033B000730B660D771DF5018081918144968C0F0A
:1033C0009D1FE0914103F09142032CE932E140E07E
:1033D0008E1B9F0B0E94B60864E070E080E090E0D6
:1033E0000E942F13062FF40160807180F8E06F0EA9
:1033F000711C6C0E7D1EF6016081660E711C63E00F
:1034000070E080E090E00E942F1320914303309100
:103410004403621B730B660D771DF501808191815A
:1034200044968C1B9D0BE0914103F09142032CE9E3
:1034300032E140E08E1B9F0B0E94B6082A96CE31E7
:10344000D10509F0B5CDF60180818E5F80838B3F79
:1034500020F0F5011482F601108286E0849DF001CF
:10346000859DF00D1124E45CFD4F8481DF91CF91A7
:103470000F91EF90DF90CF90BF90AF909F908F9083
:103480007F906F905F904F903F902F9008951F9284
:103490000F920FB60F9211248F939F938091E100AA
:1034A0009091E100937F9093E10083FF0FC0109211
:1034B000E90091E09093EB001092EC0092E390937E
:1034C000ED001092D70198E09093F00082FF22C0A7
:1034D00093E09093E9009091F200992319F09AE318
:1034E0009093E8009091C801992341F09091C80110
:1034F00091509093C801911101C05D9A9091D601AD
:10350000992341F09091D60191509093D601911159
:1035100001C0289A84FF18C08091E2008E7E8160ED
:103520008093E2008091E1008F7E8093E1008091A2
:10353000C9018E7E80618093C9019F918F910F9008
:103540000FBE0F901F90189580FFF7CF8091E2007B
:103550008E7E80618093E2008091E1008E7E809378
:10356000E1008091C9018E7E8160E5CF1F920F92AC
:103570000FB60F921124CF92DF92EF92FF920F932A
:103580001F932F933F934F935F936F937F938F93EB
:103590009F93AF93BF93EF93FF93CF93DF93CDB7F9
:1035A000DEB76C97DEBFCDBF1092E9008091E800D6
:1035B00083FF25C068E0CE0145960E942D0682EF6C
:1035C0008093E8008D8987FF39C09091E80090FFD3
:1035D000FCCF982F907609F034C19E894F89588D81
:1035E0002F89F88C911131C0803861F58091C70125
:1035F0008093F1001092F1008EEF8093E8006C96BA
:103600000FB6F894DEBF0FBECDBFDF91CF91FF9113
:10361000EF91BF91AF919F918F917F916F915F914A
:103620004F913F912F911F910F91FF90EF90DF905D
:10363000CF900F900FBE0F901F9018959EEF909314
:10364000E800C7CF1092F100D5CF913059F4811125
:10365000D3CF4130510581F68091C7018D7F809392
:10366000C701CACF933049F48111C6CF413051050B
:1036700019F68091C7018260F2CF953041F48091B4
:10368000E80080FFFCCF20682093E300B5CF9630A0
:1036900009F0A9C00B8D1C8D22E01092E900109258
:1036A000C5011092C401F2122EC01092C3011092F3
:1036B000C2010E94FC051F8299E09983FA8291E081
:1036C0009E8390EA98879AEF99872091C401309160
:1036D000C501275F3F4F3C832B838D831092E90008
:1036E0001092C5011092C4011093C3010093C2014E
:1036F00049E050E0BE016F5F7F4F80E00E94D60539
:103700000E94FC0579CF1093C3010093C2010E946F
:103710009204DC0112960D911C910115110509F41A
:1037200051C1D801ED91FC910480F581E02DBE01DD
:103730006B5E7F4FC8010995009709F03EC1F80103
:1037400000851185EACFF3E0FF120EC08F89882330
:1037500009F440C0823061F440E867E08EEE96E004
:103760000E94791D811148CF81E28093EB0047CF01
:10377000813029F440E86BE082EE96E0F1CF8330AF
:1037800099F70E949204DC011296ED90FC908E0154
:103790000F5F1F4F6801E114F10479F0D701ED913B
:1037A000FC910680F781E02DB801C7010995080F4B
:1037B000111DF701E084F184EECFD8011C92F601CF
:1037C00001900020E9F73197BF016C197D0940E0B5
:1037D000C601C6CF6CEC76E0FB01449150E080E876
:1037E0000E94D60509CF973009F4BECF983021F456
:1037F00081E08093F10000CF993009F0FDCE837015
:1038000009F0B2CFE9E2F1E081E031E096E3219105
:10381000222371F08093E9003093EB00DF011197D0
:103820002C912093EC009093ED008F5F873079F717
:103830008EE78093EA001092EA008F898093D70187
:10384000DBCE8B8D9C8D1092E9001092C5011092F9
:10385000C4019093C3018093C201898D811192C0EC
:103860008E899D89913A49F4813209F07DCF47E0F4
:1038700050E06CE171E080E0B3CF913209F074CF99
:10388000833269F48F89988DB0E0A0E080931801AD
:1038900090931901A0931A01B0931B01ADCE803211
:1038A00069F48091E80082FFFCCF67E08CE191E051
:1038B0000E942D068BEF8093E8009ECE823209F0A5
:1038C0009BCE8F8980932301EEEFFFE78591949142
:1038D0008B3F9C4D51F1E0E0F8E080911C0190910C
:1038E0001D01A0911E01B0911F01803B9440A105D4
:1038F000B105F1F48091230180FD1AC0EE3F8AE00A
:10390000F80789F587E797E79183808380916000C6
:103910008093C60188E19BE00FB6F894A895809348
:1039200060000FBE9093600067CEEEEFFAE0D5CF57
:10393000808191818737974709F05ECEA895809165
:1039400060008861809360008091C6018093600070
:10395000EE3F2AE0F20789F08091FE0A9091FF0A7B
:103960009183808349CE808191818737980751F276
:103970009093FF0A8093FE0AC5CF1092FF0A10921F
:10398000FE0A3ACE0E949204DC0112960D911C911F
:103990000115110509F4E8CED801ED91FC910190D3
:1039A000F081E02DBE016B5E7F4FC801099581114A
:1039B00023CEF80100851185EBCF181619060CF4FB
:1039C0001BCED2CEF1E0FF12BECE60ED76E004CF8A
:1039D0001F920F920FB60F9211242F933F934F9384
:1039E0005F936F937F938F939F93AF93BF93EF9367
:1039F000FF938091920190919301A0919401B091D5
:103A000095010097A105B10539F12091910121118E
:103A100005C0369A209190012111379A0197A1098A
:103A2000B109B7FD08C08093920190939301A093D0
:103A30009401B0939501FF91EF91BF91AF919F9148
:103A40008F917F916F915F914F913F912F910F9047
:103A50000FBE0F901F9018950E949207ECCF0F9207
:103A60000FB68F939F93EF93FF9380917F018D5FAC
:103A70008D3708F08D5780937F01E0E8F1E0808179
:103A80008E4F808391819F4F918382818F4F82835C
:103A900083818F4F8383E4E8F1E080818F5F8083AF
:103AA00081818F4F818382818F4F828383818F4F6A
:103AB00083838FB18F6066991C9B88278F3681F432
:103AC00080917E01981B963068F0E0E0F8E087E78F
:103AD0008083818388E180936000F0936000FFCF52
:103AE00090937E01FF91EF919F918F910FBE0F9068
:103AF0001895EF92FF920F931F93CF93DF93F82EB9
:103B0000192FE62E042F81E0860F880F0E94A8054A
:103B100083E00E94A805CF2DD12FEC0EFD2EF11CC5
:103B2000CE15DF05B9F007FF13C0FE0184910E9496
:103B3000A805182F80E00E94A805812321968111F5
:103B4000EFCFDF91CF911F910F91FF90EF900895EC
:103B50008881EDCF81E0F5CF1092DF011092DE0178
:103B600088EE93E0A0E0B0E08093E0019093E10163
:103B7000A093E201B093E30183E391E09093DD0130
:103B80008093DC018FEF9FEF9093E9018093E80130
:103B9000109216081092150881E591E09093140890
:103BA0008093130885E094E090933B0280933A025F
:103BB00080E090E8909339028093380246983E9ACC
:103BC00047983F9A109202081092010885E491E00C
:103BD000909300088093FF078FEF93E09093050880
:103BE0008093040880E890E090930708809306088B
:103BF00080E490E0909309088093080885E0809322
:103C0000120881E08093110810920D0810920C08A0
:103C100010920F0810920E0810920B0810920A08CA
:103C20008093100810920308E2EDF3E084E09CE337
:103C3000868397831086399623E0EF3FF207C1F71A
:103C40008093CF0384E68093D0031092D103EDE6F6
:103C5000F3E087EC93E012821382148215821682BD
:103C60003F968E179F07B9F7E5E4F3E085E01582EC
:103C700016828783389693E0ED36F907C1F71092E4
:103C80003E0310923D0384E190E0909340038093C3
:103C90003F03EBE0F3E08DE393E0108211821282A8
:103CA000108611863A968E179F07B9F71092040373
:103CB00010920503109206031092E0021092E502A2
:103CC0001092EA021092EF021092F4021092F9029E
:103CD0001092FE02109203031092D0021092D102B1
:103CE0001092D6021092D7021092B4021092B5022E
:103CF0001092B60283E08093BF0296E99093C002CF
:103D00001092C1021092C2021092C3021092C40219
:103D10008093CD029093CE021092CF021092A30214
:103D20001092A4021092A5028093B0029093B10267
:103D30001092B2021092B302109295021092960263
:103D4000109297028093A00294E69093A1021092A1
:103D5000A202109289028093920290939302109291
:103D600094021092820210928302109284021092A6
:103D70007D0282E080937C02ECE3F2E01482158203
:103D8000369622E0E837F207C9F70895CDB7DEB7D7
:103D90006A97DEBFCDBF789483E084BD83E085BDA4
:103DA00081E080936E00E1E8F0E083E08083E0E86A
:103DB00081E08083E1E983E08083E0E981E0808342
:103DC000E1EC87E08083E3EC81E08083E0EC82E05B
:103DD0008083E2EC81E08083EAE787E0808380688B
:103DE00080831092D7011092C7011092C90180916F
:103DF000D70081608093D70080EA8093D80089B58E
:103E0000806189BD89B5826089BD09B400FEFDCF9E
:103E10000E942A048091D8008F7C80618093D80012
:103E20008091E000807F8093E0008091E1008E7EB1
:103E30008093E1008DE08093E200559A209A0E94E1
:103E4000861181E2809300010E947D110E94140A74
:103E50005E9AE4E1F0E085E69DEF2591359155917C
:103E600045912851354909F4CA01809396019093F0
:103E7000970159988BEA0E94E109599A8091C101F2
:103E800081112BC17CE3C72ED12CEEE12E2E312CDB
:103E9000F5E56F2E712CA3E74A2E512C0E940804E1
:103EA0001092D9011092D8011092DB011092DA0120
:103EB0008091BE018093BD010E94070A8093BE01DC
:103EC00061E070E080E090E00E94E8090E94FF0A53
:103ED0008823B1F3EE24E39400E020E030E040E0FA
:103EE0006AE070E090E080E00E94B60810920D0851
:103EF00010920C0810920B0810920A08D0920F082A
:103F0000C0920E0889E591E00E946E1130920D0872
:103F100020920C0830920B0820920A08D0920F08C9
:103F2000C0920E088090BF019090C001092C000C37
:103F3000AA08BB084AE0C501B401B7FE0DC06DE296
:103F40008FEF97E00E94D50666277727CB01681987
:103F500079098A099B094AE00E9420112DE230E08C
:103F600030930D0820930C0830930B0820930A0817
:103F7000D0920F08C0920E0880E691E00E946E1168
:103F80008BE490E090930D0880930C0890930B08BD
:103F900080930A08D0920F08C0920E088091040105
:103FA000882309F485C087E691E00E946E11709223
:103FB0000D0860920C0870920B0860920A08D0926B
:103FC0000F08C0920E088BE691E00E946E1150928D
:103FD0000D0840920C0850920B0840920A08D092AB
:103FE0000F08C0920E0880919801882309F463C0DD
:103FF00087E691E00E946E1180E40E94E60A882321
:1040000091F081E080931701109216018091BF0119
:104010009091C0010196893191050CF04FC09093A9
:10402000C0018093BF0180E20E94E60A882381F0EC
:1040300081E080931701109216018091BF01909149
:10404000C001019797FD3FC09093C0018093BF01CD
:1040500080E10E94E60A882331F08091040191E01A
:1040600089278093040180E80E94E60A882331F0C2
:104070008091980191E08927809398010E94FC0A21
:104080000E94240488E00E94E60A882309F406CFEF
:10409000809104018823F1F00E94140A0E944913C0
:1040A00080E090E0892B09F4E9CE0E940000E6CE82
:1040B00089E691E07ACF89E691E09CCF1092C00129
:1040C0001092BF01B0CFA8E1B0E0B093C001A093BF
:1040D000BF01BECF0E940F0AE1CF813009F70E94D5
:1040E000FF0A8823E9F220E030E04CE753E46091D6
:1040F00005017091060180910701909108010E94CD
:10410000923618166CF4109217011092C10180912A
:10411000BF019091C00101969093C0018093BF01AF
:104120000E9408041092D9011092D8011092DB016C
:104130001092DA018091BE018093BD010E94070AAE
:104140008093BE0180910401882311F40C94C42A49
:104150000E94140A80E20E94F10A8823A9F080914B
:104160001001811111C08091110181110DC0809148
:104170001401811109C080911501811105C081E0F0
:1041800080930F018093120180E20E94DB0A81116B
:104190001092120180E40E94F10A8823A9F0809114
:1041A0001001811111C08091110181110DC0809108
:1041B0001401811109C080911501811105C010926F
:1041C0000F0181E08093120180E40E94DB0A8111DB
:1041D0001092120180E10E94F10A8823A1F089E087
:1041E00080930E011092120181E08093130180915F
:1041F0003F0390914003181619062CF401979093F1
:10420000400380933F0380E10E94DB0A882351F042
:1042100010920E0110921301E4E1F0E0F0934003DC
:10422000E0933F0380E80E94F10A882361F08091C7
:104230003F0390914003883291052CF401969093AE
:10424000400380933F0380E80E94DB0A882341F00B
:1042500010920E0124E130E03093400320933F039D
:1042600088E00E94E60A8823E9F087E080930E0147
:104270008091120181110C94C82A80911001811142
:1042800011C08091110181110DC080911401811123
:1042900009C080911501811105C081E08093100152
:1042A00010920D0184E00E94E60A882309F460C0A0
:1042B0001092C703E2EDF3E0F12CE12C808581112F
:1042C0000C94162B89E08E9D80018F9D100D11247A
:1042D0000E521C4F81E0D80118968C930E94D40B8B
:1042E00080910F01F801808381110C94E32A20E072
:1042F00030E048E851E46091050170910601809139
:104300000701909108010E94F5340E946B35D80195
:1043100012967C936E93119717962C91179730E015
:10432000C901860F971F15969C938E9314976091E1
:10433000090170910A0180910B0190910C0120916B
:104340001301222311F40C94022B29E02E9D8001ED
:104350002F9D100D11240E521C4F20E030E048E933
:1043600051E40E94F5340E947235D80113966C9383
:1043700084E00E94F10A882309F499C08091BB016E
:104380009091BC016FE070E00E945F37892B29F4A7
:104390008091C7038F5F8093C7038091C7038230EA
:1043A00008F485C08091D103811181C080910F01F3
:1043B0008093C80381113CC020E030E040EA50E423
:1043C00060910501709106018091070190910801AB
:1043D0000E94F5340E946B357093CA036093C90341
:1043E0002091D00330E0C901860F971F9093CE0330
:1043F0008093CD036091090170910A0180910B01B6
:1044000090910C0120911301222331F020E030E043
:1044100040EA50E40E94F5340E946B357093CC035F
:104420006093CB0381E08093D10382E00E94D40BA0
:104430008091C8038130D9F520E030E040E351E4B9
:10444000609105017091060180910701909108012A
:104450000E94F5340E946B357093CA036093C903C0
:104460002091D00330E0621B730B7093CE036093F6
:10447000CD036091090170910A0180910B01909127
:104480000C0120911301222331F020E030E040EABA
:1044900050E40E94F5340E946B357093CC03609316
:1044A000CB0381E08093D10382E00E94D40B0E9471
:1044B000D60E8091D103882309F468C08091C80387
:1044C00081110C94222B8090CB039090CC0380918F
:1044D0004303909144032401481A590AC090C90328
:1044E000D090CA036090410370904203EE24E3949D
:1044F00000E028E832E140E0B201C60186199709E0
:104500000E94B6088091CF03C80ED11CD092CA0376
:10451000C092C903A090CD03B090CE031091D003F8
:10452000812F8695D501A81BB109CA16DB065CF45C
:10453000E12C20EE32E140E0B201C6010897861975
:1045400097090E94B608E12FE451FF0B95012E1B3D
:104550003F0BC216D3063CF432E0831A91089092C6
:10456000CC038092CB03C5014D97C816D9064CF0F9
:104570008091CB039091CC0302969093CC038093CF
:10458000CB03AC14BD0414F41092D103EBE0F3E0C0
:10459000FE87ED871F0158E2D52E6CE3C62EBB24A3
:1045A000B394D1018C918823A9F116968C9116971A
:1045B00017962C91179714969C91149715963C91E9
:1045C000E92E99833A83082F8B832C83DD82CE8258
:1045D0008091CB032091CC039091C9033091CA0301
:1045E000492F9F833887682F89872A87FA801C8103
:1045F00028E23CE358857A8588E096E00E94900A9C
:10460000882341F083E00E94D40BF1011082B18233
:104610001092D103FAE02F0E311C2DE3221623E075
:10462000320609F0BECF34EB432E32E0532E320176
:1046300048E2D42ECC24C394D3018C918823A1F1D9
:1046400015962C91159716963C91169713968D9169
:104650009C910896E82E9A838983022F2B833C83B2
:10466000DD82DE828091CB032091CC039091C9033F
:104670003091CA03492F9F833887682F89872A87FB
:10468000FA801C8128E238E258857A8588E096E035
:104690000E94900A882341F083E00E94D40BF3012A
:1046A0001082C1821092D103FEE06F0E711C20EDCA
:1046B00032E02615370509F0BFCF80919502882397
:1046C000B1F120919A0230919B02809198029091D1
:1046D00099020896E82E9A838983022F2B833C83C4
:1046E00088E28D838E838091CB032091CC039091BF
:1046F000C9033091CA03492F9F833887682F898760
:104700002A87FA801C8128E238E258857A8588E079
:1047100096E00E94900A882351F083E00E94D40B17
:104720001092950281E0809396021092D1038091BD
:1047300004038823B1F12091090330910A03809189
:104740000703909108030896E82E9A838983022F25
:104750002B833C8388E28D838E838091CB032091D1
:10476000CC039091C9033091CA03492F9F833887A6
:10477000682F89872A87FA801C8128E238E25885C9
:104780007A8588E096E00E94900A882351F083E0C1
:104790000E94D40B1092040381E0809305031092D1
:1047A000D103809182028823B1F120918702309158
:1047B000880280918502909186020896E82E9A835D
:1047C0008983022F2B833C8388E28D838E838091A3
:1047D000CB032091CC039091C9033091CA03492F98
:1047E0009F833887682F89872A87FA801C8128E26F
:1047F00038E258857A8588E096E00E94900A8823FE
:1048000051F083E00E94D40B1092820281E08093E9
:1048100083021092D1030E94330B81110DC080914D
:104820001001811109C080911401811105C01092FD
:10483000120181E080931101909112018091BB01DE
:1048400080FD12C0992341F080910E018F5F893065
:1048500008F062C780930E018091BA018F5F8830A3
:1048600008F05DC78093BA01992309F453C0809181
:104870000F01811126C00E94310C811122C0C0900D
:104880000501D0900601E0900701F090080120E0BA
:1048900030E040E853E4C701B6010E94613587FF6C
:1048A00010C020E030E040E85FE3C701B6010E949D
:1048B000F53460930501709306018093070190938E
:1048C000080180910F01813029F50E94310C81117E
:1048D00021C0C0900501D0900601E0900701F09042
:1048E000080120E030E0A901C701B6010E9492361C
:1048F000181684F420E030E040E85FE3C701B60119
:104900000E94F434609305017093060180930701BF
:104910009093080180911001882361F01092120198
:1049200080910D01843108F4FDC681E0809311016E
:104930001092100180911401882371F010921201DD
:1049400080910D01843108F40DC710920D0181E0B2
:10495000809315011092140180911501882371F044
:104960001092120180910D01843108F469C71092F0
:104970000D011092150181E08093110180911101C8
:104980008823E1F00E94330B8111C8C720E030E09A
:1049900040E85FE36091090170910A0180910B0189
:1049A00090910C010E94F5346093090170930A0103
:1049B00080930B0190930C011092120180913D03A2
:1049C00090913E03892B09F0B2C7C0900501D090A9
:1049D0000601E0900701F090080120E030E04FE38D
:1049E00053E4C701B6010E94923618160CF0AEC708
:1049F00084E590E090933E0380933D0320E030E017
:104A000048EA52E4C701B6010E94F4340E946B35B3
:104A1000613871050CF085C77093420360934103C0
:104A20008090090190900A01A0900B01B0900C01B8
:104A300060913F0370914003072E000C880B990B87
:104A40000E94A3359B01AC01C501B4010E94F4345E
:104A50000E946B356B8B7C8B8D8B9E8BAB89BC895D
:104A6000BA8BA98BB0934403A093430380911601A2
:104A700016E1811101C010E080910F0181116CC01D
:104A800080913D0390913E03853191052CF0019773
:104A900090933E0380933D03C0900501D0900601A2
:104AA000E0900701F090080180914103909142034A
:104AB0008038910514F560913D0370913E03072EF7
:104AC000000C880B990B0E94A3356F8B788F898F10
:104AD0009A8FA70196010E94613587FF0EC02F892A
:104AE000388D498D5A8DC701B6010E94F4340E9459
:104AF0006B35709342036093410300910E01010FE7
:104B00002B893C89B901330F880B990B0E94A3357F
:104B10009B01AC01C501B4010E94F4340E946B35C5
:104B20004B016091410370914203072E000C880BEA
:104B3000990B0E94A3359B01AC01C701B6010E94ED
:104B4000F4340E946B35CB01EE24E39424E032E090
:104B500040E0B4010E94B60880910F01813009F055
:104B600073C080913D0390913E03843591052CF4F0
:104B7000019690933E0380933D03C0900501D09031
:104B80000601E0900701F0900801809141039091A7
:104B900042031816190614F560913D0370913E0307
:104BA000072E000C880B990B0E94A3359B01AC01CA
:104BB000C701B6010E94F4344B015C0120E030E0F3
:104BC00040E053E40E94613587FF08C0C501B4018D
:104BD0000E946B35709342036093410300910E0174
:104BE000055F010FAB89BC89BD01BB0F880B990B19
:104BF0000E94A3359B01AC016091090170910A01EB
:104C000080910B0190910C010E94F4340E946B354D
:104C10004B016091410370914203072E000C880BF9
:104C2000990B0E94A3359B01AC01C701B6010E94FC
:104C3000F4340E946B35CB01EE24E39424E032E09F
:104C400040E0B4010E94B6081BE0C12E13E0D12E53
:104C500010E208E2F02E88E1A82E90E4B92E20E3BD
:104C6000922EF6018081882309F49FC083818639C2
:104C7000E1F46681778129893A89621B730B84810B
:104C80009581E0914103F0914203EE24E39400E02A
:104C90002CE033E140E08E1B9F0B0E94B608D6014A
:104CA0001896FC9218971996BC92F6018381873961
:104CB000E1F46681778129893A89621B730B8481CB
:104CC0009581E0914103F0914203EE24E39400E0EA
:104CD00020E534E140E08E1B9F0B0E94B608D60110
:104CE00018961C93189719969C92F601838188391F
:104CF000E1F46681778129893A89621B730B84818B
:104D00009581E0914103F0914203EE24E39400E0A9
:104D100024E135E140E08E1B9F0B0E94B608D601CE
:104D20001896FC9218971996BC92F60183818939DE
:104D3000E1F46681778129893A89621B730B84814A
:104D40009581E0914103F0914203EE24E39400E069
:104D500028E536E140E08E1B9F0B0E94B608D60185
:104D60001896AC92189719961C93F60183818A398C
:104D7000E1F46681778129893A89621B730B84810A
:104D80009581E0914103F0914203EE24E39400E029
:104D90002CEB36E140E08E1B9F0B0E94B608D6013B
:104DA00018961C9318971996FC92BAE0CB0ED11C5A
:104DB0002C143D0409F055CF10E0ED85FE8581816E
:104DC000882359F04681578164817581812F0E9423
:104DD000A217AD85BE8511968C931F5FED85FE856C
:104DE0003A96FE87ED87153041F7D2018C918823E2
:104DF00009F47FC015966D917C91169780914303BD
:104E000090914403681B790B13968D919C91E091CE
:104E10004103F0914203EE24E39400E024EB3CE1F3
:104E200040E08E1B9F0B0E94B60860EF70E080E0B0
:104E300090E00E942F1370E08091BB019091BC0123
:104E40000E945F37892B49F4F2018585811105C0E5
:104E500081E0858784E00E94D40BD2011D968C915D
:104E60001D97882309F445C015966D917C9116977E
:104E7000655F7F4F8091430390914403681B790BDA
:104E800017968D919C91E0914103F0914203EE249D
:104E9000E39400E028EA3DE140E08E1B9F0B0E9476
:104EA000B608F201238587819085821B910990873E
:104EB000878365817681655F7F4F22E030E042E045
:104EC00050E00E94DD16D20117962D913C91189763
:104ED00019968D919C911A972817390754F41396B7
:104EE0008D919C91149718969C938E9317971D966D
:104EF0001C92BEE04B0E511C4614570409F075CFAE
:104F00008091B502882369F04091B9025091BA02AC
:104F10006091B7027091B80288E00E94A217809356
:104F2000B5028091C302882369F04091C702509175
:104F3000C8026091C5027091C60289E00E94A21762
:104F40008093C3028091A302882309F432C1609147
:104F5000A8027091A9028091430390914403681BB9
:104F6000790B8091A6029091A702E0914103F09104
:104F70004203EE24E39400E02EEA3DE140E08E1B84
:104F80009F0B0E94B60860EF70E080E090E00E9406
:104F90002F1370E08091BB019091BC010E945F379C
:104FA000892B59F58091B202811127C00091A60288
:104FB0001091A702B8016E517109072E000C880BE1
:104FC000990B0E94A3359B01AC0160910501709182
:104FD000060180910701909108010E94613587FFC9
:104FE0000CC081E08093B202085F1F4F1093AB02A8
:104FF0000093AA0285E00E94D40B60EF70E080E08D
:1050000090E00E942F1370E08091BB019091BC0151
:105010000E945F37892B59F58091B302811127C017
:105020000091A6021091A702B8016E517109072ED6
:10503000000C880B990B0E94A3359B01AC01609179
:1050400005017091060180910701909108010E946D
:10505000613587FF0CC081E08093B302085F1F4F6A
:105060001093AD020093AC0285E00E94D40B8091B6
:10507000B202882309F44CC06091A8027091A90281
:105080006E5F7F4F8091430390914403681B790BBF
:105090008091AA029091AB02E0914103F09142030A
:1050A000EE24E39400E022E13EE140E08E1B9F0B02
:1050B0000E94B6082091B0028091AA029091AB02A2
:1050C000821B91099093AB028093AA026091A8027F
:1050D0007091A9026E5F7F4F23E030E042E050E024
:1050E0000E94DD162091AA023091AB028091AE029F
:1050F0009091AF02281739075CF48091A602909135
:10510000A70208969093AB028093AA021092B20273
:105110008091B302882309F44CC06091A802709179
:10512000A902665F7F4F8091430390914403681BFF
:10513000790B8091AC029091AD02E0914103F09126
:105140004203EE24E39400E022E13EE140E08E1BC6
:105150009F0B0E94B6086091A8027091A902665F39
:105160007F4F23E030E042E050E08091AC0290912C
:10517000AD020E94DD162091B0028091AC029091A8
:10518000AD02821B91099093AD028093AC022091F5
:10519000AE023091AF02821793075CF48091A602B1
:1051A0009091A70208969093AD028093AC02109262
:1051B000B30280919502882309F49FC060919A02FE
:1051C00070919B028091430390914403681B790B7B
:1051D0008091980290919902E0914103F0914203ED
:1051E000EE24E39400E02EE13EE140E08E1B9F0BB5
:1051F0000E94B60860EF70E080E090E00E942F13FC
:1052000070E08091BB019091BC010E945F37892BB7
:1052100021F58091A202811120C0609198027091C5
:1052200099026E517109072E000C880B990B0E9490
:10523000A3359B01AC01609105017091060180913D
:105240000701909108010E94613587FF06C081E047
:105250008093A20284E00E94D40B8091A202882352
:1052600009F44BC060919A0270919B026D5F7F4F71
:105270008091430390914403681B790B80919C02B9
:1052800090919D02E0914103F0914203EE24E3945A
:1052900000E028EA3DE140E08E1B9F0B0E94B6082B
:1052A00060919A0270919B026D5F7F4F23E030E026
:1052B00042E050E080919C0290919D020E94DD1698
:1052C0002091A00280919C0290919D02821B9109E5
:1052D00090939D0280939C0220919E0230919F02A8
:1052E0008217930754F480919802909199029093B9
:1052F0009D0280939C021092A202809196028823C4
:1053000069F040919A0250919B02609198027091CD
:10531000990285E00E94A2178093960280918902EB
:10532000882309F4A2C060918C0270918D02809153
:10533000430390914403681B790B80918A029091FA
:105340008B02E0914103F0914203EE24E39400E0EC
:1053500022E93EE140E08E1B9F0B0E94B60860EF01
:1053600070E080E090E00E942F1370E08091BB011C
:105370009091BC010E945F37892B59F5809194026E
:10538000811127C000918A0210918B02B8016E51E1
:105390007109072E000C880B990B0E94A3359B0105
:1053A000AC01609105017091060180910701909117
:1053B00008010E94613587FF0CC0085F1F4F1093E2
:1053C0008F0200938E0281E08093940285E00E9418
:1053D000D40B80919402882309F447C0C0908C02BA
:1053E000D0908D02E2E0CE0ED11CA0908E02B09043
:1053F0008F028091430390914403B601681B790B9F
:105400008091410390914203EE24E39400E022E175
:105410003EE140E0D501A81BB90BCD010E94B608C2
:1054200023E030E043E050E0B601C5010E94DD1604
:105430002091920280918E0290918F02821B91099D
:1054400090938F0280938E0220919002309191026E
:105450008217930754F480918A0290918B02909363
:105460008F0280938E02109294028091040388230D
:10547000E1F06091090370910A03809143039091D8
:105480004403681B790B8091070390910803E09116
:105490004103F0914203EE24E39400E026E03FE173
:1054A00040E08E1B9F0B0E94B608BCEDCB2EB2E0F5
:1054B000DB2EF6018481882309F4B3C262E070E038
:1054C00080E090E00E942F13062FD60112966D9176
:1054D0007C9113978091430390914403681B790B4F
:1054E0008D919C91E0914103F0914203EE24E3946D
:1054F00028EF32E140E08E1B9F0B0E94B60880919E
:10550000040381110BC0F6016281738126E030E053
:1055100046E050E0808191810E94DD16D6010D9118
:105520001C9165E070E080E090E00E942F136250D3
:10553000710981099109600F711FF6017183608300
:105540000281138166E070E080E090E00E942F13FA
:105550006350710981099109600F711FD60113967B
:105560007C936E931297F601028113818091090357
:1055700090910A034096801791070CF003C263E0F4
:1055800070E080E090E0E2CF0E940F0A0C94AA2025
:105590008091100181110C9452218091110181118F
:1055A0000C9452218091140181110C94522180910C
:1055B000150181110C9452211092120181E0809307
:1055C00014010C945021813011F00C94972120E0AB
:1055D00030E040E85FE36091050170910601809141
:1055E0000701909108010E94F4340E946B35F80184
:1055F00072836183278130E0621B730B7583648340
:105600000C94972129E02E9D80012F9D100D1124CF
:105610000E521C4F20E030E040E651E40E94F53489
:105620000E947235F80163830C94B8212FEFE21ABF
:10563000F20A399635E0E316F10411F00C945E217C
:105640000C94B821813011F00C94C6228090CB03C9
:105650009090CC0380914303909144032401481A15
:10566000590AC090C903D090CA036090410370905A
:105670004203EE24E39401E028E832E140E0B20185
:10568000C601861997090E94B6088091CF03C81AEF
:10569000D108D092CA03C092C903A090CD03B090A4
:1056A000CE031091D003812F86958A0D9B2D911DDD
:1056B0008C159D0564F4E12C00E020EE32E140E021
:1056C000B201C6010896861997090E94B608A12F53
:1056D000A451BB0BCD018A0D9B1D8C159D053CF47F
:1056E000B2E08B1A91089092CC038092CB03C50153
:1056F0004D968C159D054CF08091CB039091CC0379
:1057000002969093CC038093CB03CA14DB0414F469
:105710000C94C4220C94C62210920E019DC81092C3
:10572000BA01A2C80E94340E8111FFC820E030E007
:1057300040E85FE36091090170910A0180910B01DB
:1057400090910C010E94F4346093090170930A0156
:1057500080930B0190930C0180910D018F5F8093DA
:105760000D01E8C80E94340E8111EFC820E030E03E
:1057700040E85FE36091090170910A0180910B019B
:1057800090910C010E94F4346093090170930A0116
:1057900080930B0190930C0180910D018F5F80939A
:1057A0000D0180910F01882321F180910F0181303B
:1057B00009F0D2C80E94310C8111CEC8C0900501F9
:1057C000D0900601E0900701F090080120E030E061
:1057D000A901C701B6010E94923618160CF0BCC888
:1057E00020E030E040EC5FE3C701B6010E94F434F2
:1057F0001EC00E94310C8111D8CFC0900501D090FD
:105800000601E0900701F090080120E030E040E858
:1058100053E4C701B6010E94613587FF9DC820E0AF
:1058200030E040EC5FE3C701B6010E94F5346093BD
:1058300005017093060180930701909308018CC8BD
:105840000E94330B811193C820E030E040E85FE311
:105850006091090170910A0180910B0190910C01F6
:105860000E94F5346093090170930A0180930B0143
:1058700090930C0180910D018F5F80930D018091B9
:105880000F01882321F180910F01813009F076C842
:105890000E94310C811172C8C0900501D0900601A0
:1058A000E0900701F090080120E030E0A901C70175
:1058B000B6010E94923618160CF060C820E030E065
:1058C00040EC5FE3C701B6010E94F4341EC00E94A1
:1058D000310C8111D8CFC0900501D0900601E09025
:1058E0000701F090080120E030E040E853E4C701F0
:1058F000B6010E94613587FF41C820E030E040ECEE
:105900005FE3C701B6010E94F5346093050170930F
:105910000601809307019093080130C8109211018D
:105920004DC880E890E090934203809341038091BA
:10593000410390914203813891050CF471C880E8CD
:1059400090E090934203809341036AC884E190E021
:1059500090933E0380933D0320E030E040EA51E421
:10596000C701B6010E94F4340E946B3577FD05C073
:105970007093420360934103DACF10924203109276
:105980004103D5CFF60102811381809109039091E3
:105990000A0307968017910774F063E070E080E0D7
:1059A00090E00E942F13600F711FD60113967C9315
:1059B0006E931297E7CF80910403882391F1F6014B
:1059C0000081118180910703909108034096801710
:1059D000910784F463E070E080E090E00E942F1370
:1059E0006350710981099109600F711FD6016D9390
:1059F0007C93E5CFF601008111818091070390919E
:105A0000080307968017910764F063E070E080E078
:105A100090E00E942F13600F711FD6016D937C934D
:105A2000E9CFB5E0CB0ED11CE4E0F3E0EC15FD05C9
:105A300009F03FCD80910503882369F04091090367
:105A400050910A03609107037091080386E00E9459
:105A5000A2178093050380917D028823E1F0609175
:105A60008002709181028091430390914403681BEE
:105A7000790B80917E0290917F02E0914103F09139
:105A80004203EE24E39400E02AEC3FE140E08E1B69
:105A90009F0B0E94B60880918202882309F499C066
:105AA00060904303709044038090410390904203C0
:105AB000609187027091880266197709809185024A
:105AC00090918602EE24E39400E02EE630E240E07E
:105AD000881999090E94B608A0907802B0907902BE
