:100000000C94DB030C9403040C9403040C9403047D
:100010000C9403040C9403040C9403040C94030444
:100020000C9403040C9403040C94331B0C94A21B37
:100030000C9403040C9403040C9403040C94030424
:100040000C9403040C9403040C9403040C94030414
:100050000C9403040C9403040C9403040C941B1ED2
:100060000C9403040C9403040C9403040C940304F4
:100070000C9403040C9403040C9403040C940304E4
:100080000C94D41D0C9403040C9403040C940304EA
:100090000C9403040C9403040C9403040C940304C4
:1000A0000C9403040C9403040C94030405A84CCD95
:1000B000B2D44EB93836A9020C50B9918688083CA2
:1000C000A6AAAA2ABE000000803F00000000003E51
:1000D0005B4F5B3E3E6B4F6B3E1C3E7C3E1C183CB8
:1000E0007E3C181C577D571C1C5E7F5E1C00183C14
:1000F0001800FFE7C3E7FF0018241800FFE7DBE75D
:10010000FF30483A060E2629792926407F05050743
:10011000407F05253F5A3CE73C5A7F3E1C1C08089F
:100120001C1C3E7F14227F22145F5F005F5F060964
:100130007F017F006689956A606060606094A2FFBD
:10014000A29408047E040810207E201008082A1CAF
:1001500008081C2A08081E101010100C1E0C1E0C7B
:1001600030383E3830060E3E0E060000000000001B
:10017000005F00000007000700147F147F14242A8A
:100180007F2A12231308646236495620500008075C
:100190000300001C2241000041221C002A1C7F1C7D
:1001A0002A08083E0808008070300008080808087F
:1001B000000060600020100804023E5149453E00E6
:1001C000427F400072494949462141494D33181444
:1001D000127F1027454545393C4A49493141211193
:1001E00009073649494936464949291E0000140085
:1001F00000004034000000081422411414141414A8
:10020000004122140802015909063E415D594E7C05
:100210001211127C7F494949363E414141227F41BA
:1002200041413E7F494949417F090909013E414118
:1002300051737F0808087F00417F41002040413F03
:10024000017F081422417F404040407F021C027F12
:100250007F0408107F3E4141413E7F090909063E67
:100260004151215E7F091929462649494932030136
:100270007F01033F4040403F1F2040201F3F403848
:10028000403F631408146303047804036159494D23
:1002900043007F4141410204081020004141417F59
:1002A00004020102044040404040000307080020CF
:1002B000545478407F2844443838444444283844CF
:1002C00044287F385454541800087E090218A4A406
:1002D0009C787F0804047800447D40002040403D25
:1002E000007F1028440000417F40007C047804789F
:1002F0007C080404783844444438FC182424181832
:10030000242418FC7C08040408485454542404048D
:100310003F44243C4040207C1C2040201C3C40307A
:10032000403C44281028444C9090907C4464544CA9
:100330004400083641000000770000004136080004
:1003400002010204023C2623263C1EA1A161123AAE
:100350004040207A385454555921555579412154FB
:10036000547841215554784020545579400C1E5200
:1003700072123955555559395454545939555454A4
:10038000580000457C410002457D420001457C400B
:10039000F0292429F0F0282528F07C545545002028
:1003A00054547C547C0A097F4932494949323248C5
:1003B000484832324A4848303A4141217A3A42402C
:1003C0002078009DA0A07D39444444393D40404000
:1003D0003D3C24FF2424487E4943662B2FFC2F2BD1
:1003E000FF0929F620C0887E090320545479410072
:1003F00000447D413048484A32384040227A007AF1
:100400000A0A727D0D19317D2629292F28262929CE
:10041000292630484D4020380808080808080808F0
:10042000382F10C8ACBA2F102834FA00007B000017
:1004300008142A142222142A14089500220095AACE
:10044000005500AAAA55AA55AA000000FF001010E6
:1004500010FF00141414FF001010FF00FF1010F024
:1004600010F0141414FC001414F700FF0000FF0037
:10047000FF1414F404FC141417101F10101F101F85
:100480001414141F00101010F0000000001F1010B2
:1004900010101F10101010F010000000FF101010AE
:1004A000101010101010FF10000000FF140000FFCB
:1004B00000FF00001F10170000FC04F414141710B4
:1004C000171414F404F40000FF00F71414141414A7
:1004D0001414F700F7141414171410101F101F141D
:1004E0001414F4141010F010F000001F101F00007E
:1004F000001F14000000FC140000F010F01010FFAA
:1005000010FF141414FF141010101F00000000F04E
:1005100010FFFFFFFFFFF0F0F0F0F0FFFFFF000023
:10052000000000FFFF0F0F0F0F0F38444438447CCA
:100530002A2A3E147E02020606027E027E026355CD
:100540004941633844443C04407E201E2006027E1C
:10055000020299A5E7A5991C2A492A1C4C7201722E
:100560004C304A4D4D303048784830BC625A463D98
:100570003E494949007E0101017E2A2A2A2A2A444D
:10058000445F444440514A444040444A5140000082
:10059000FF0103E080FF000008086B6B083612368D
:1005A0002436060F090F060000181800000010106E
:1005B000003040FF0101001F01011E00191D17122C
:1005C000003C3C3C3C000000000000B00000A1707A
:1005D000E150964F26900F1D070C009669004AE4E3
:1005E0004A0048444000806810000F99FB8F9DBD71
:1005F000BBFB77D4D4DF1F1A1AFE7F5D5DFF805AE4
:100600000000A0A4AA0010BA3400FF5953F3FF9BC6
:100610009B9EFFB9B996FF9595D19FF4940FFC2945
:100620005F91FF1838F8FF9294FFFF95D5F7BFB59B
:10063000DDD7F18F81F1F788C8F779C6467909FDD2
:100640009B090196F8008281828050716200775682
:10065000560076763700A2B7730107720600782736
:10066000500073347400775176007F55F70047715E
:100670001000324772007364730015A27500616741
:100680009400009F6060F4F2F6F2080B0002020290
:10069000000009040000010202000005240010010E
:1006A00005240101010424020605240600010705B2
:1006B000810310004009040100020A000000070540
:1006C0000202400000070583024000000403090401
:1006D00012010002EF0201404123368000010102B5
:1006E000030141726475696E6F204C4C4300417286
:1006F0006475626F7900F0F89C8E8783878E9CF812
:10070000F00000FEFF0303030303070EFCF80000E4
:10071000FEFF0303030303070EFCF80000FFFF00C6
:10072000000000000000FFFF0000FEFF83838383C2
:1007300083C7EE7C380000F8FC0E07030303070EA6
:10074000FCF800003F7FE0C08080C0E07F3FFFFFFB
:1007500001010101010101FFFF0000FFFF0C0C0C72
:100760000C1C3E77E3C100007FFFC0C0C0C0C0E0EA
:10077000703F1F00001F3F70E0C0C0C0E0703F1F0F
:1007800000007FFFC1C1C1C1C1E3773E1C00001F53
:100790003F70E0C0C0C0E0703F1F000000000001DB
:1007A000FFFF01000000D5F08D14A1C881CFD9F161
:1007B000AF200000981E11241FBECFEFDAE0DEBF8D
:1007C000CDBF11E0A0E0B1E0ECE4FFE602C005908F
:1007D0000D92A036B107D9F728E0A0E6B1E001C03C
:1007E0001D92AC34B207E1F713E0CBEDD3E004C0C7
:1007F0002197FE010E949E37CA3DD107C9F70E948A
:10080000DD1F0C94A4370C94000080916B010895B7
:1008100080E0E4E3F4E081118FEF00248193819381
:10082000819381930394D1F70895E4E3F4E0A0E089
:10083000B8E000800EBC8111012C1197A0FDFDCF06
:100840000192B9F70DB408955E9881E00E941504F5
:100850005E9A0895E1E0F0E00E943F04319728F0AD
:1008600068517C4F8F4F9F4FF9CFAB01FC010E9425
:100870003F04641775078E079F07C8F30895A2E722
:10088000B1E02FB7F8947D918D919C9166B52FBF03
:10089000A89B05C06F3F18F47F5F8F4F9F4F22E0EA
:1008A000660F771F881F991F2A95D1F70895FC01BD
:1008B0008091C501882311F13FB7F89482E08093BD
:1008C000E9002091F200822F90E01816190614F426
:1008D00081E090E0882339F0289844E64093C401F1
:1008E0004091F1004083222339F02091F200211140
:1008F00003C02BE62093E8003FBF08958FEF9FEFE2
:1009000008952FB7F89483E08093E9009091E80070
:10091000892F807295FF04C09091F20080E4891BBA
:100920002FBF08958091BC0181110DC082E080939A
:10093000B80184E08093B9011092BB011092BA0112
:1009400081E08093BC0188EB91E008958F929F92A3
:10095000AF92BF92CF92DF92EF92FF920F931F93CD
:10096000CF93DF936C017B018A0180911001882372
:1009700009F458C08091C501882309F453C08091BF
:10098000B70180FF05C08091E00082608093E000A5
:10099000E801B12C8AEFA82E93E0892E2AE3922E4B
:1009A000209711F4BB20B9F10E948104811106C087
:1009B000AA94AA20B9F10E942A04F2CF8C171D062E
:1009C00011F00CF08C2F9FB7F8948092E9002091E1
:1009D000E80025FD02C09FBFE3CF282F30E0C21BF7
:1009E000D30BF701815020F041914093F100FACFF1
:1009F000E20EF31EBB2021F09092E800B12CEBCF69
:100A00008091E80085FDE7CF9092E800BB24B39485
:100A1000209709F3F3CF5D9884E68093B601101612
:100A200011063CF081E090E0F6019383828310E0B0
:100A300000E0C801DF91CF911F910F91FF90EF90DF
:100A4000DF90CF90BF90AF909F908F900895CF93FD
:100A5000DF931F92CDB7DEB76983DC01ED91FC9186
:100A60000280F381E02D41E050E0BE016F5F7F4FD7
:100A700009950F90DF91CF91089583E08093E9006D
:100A80008091F200882319F08AE38093E8000895AA
:100A90000E94810490E00895CF93DF931F92CDB719
:100AA000DEB7FC018485958597FD08C02FEF3FEFE9
:100AB000358724870F90DF91CF910895CE0101965D
:100AC0000E945704019719F4898190E0F3CF8FEFCA
:100AD0009FEFF0CF0F931F93CF93DF931F92CDB76C
:100AE000DEB78C01FC018485958597FF0BC0CE0194
:100AF00001960E945704019771F4898190E0F801F2
:100B000095878487F801848595850F90DF91CF9133
:100B10001F910F9108958FEF9FEFF1CFFC01848516
:100B2000958597FD0BC09FB7F89482E08093E9000C
:100B30008091F2009FBF90E0019608959FB7F894CE
:100B400082E08093E9008091F2009FBF90E00895D9
:100B50004091B2015091B3012091B0013091B101A7
:100B600042175307B4F49091E8009570E1F3909127
:100B7000E80092FD19C08093F1008091B20190913C
:100B8000B30101968F739927892B19F48EEF809307
:100B9000E8008091B2019091B30101969093B30166
:100BA0008093B20181E0089580E00895DF92EF9292
:100BB000FF920F931F93CF93DF93D82E8A01EB01FF
:100BC0007B01E40EF51ECE15DF0559F0D7FE12C0ED
:100BD000FE0184910E94A80521968111F4CF0FEFA8
:100BE0001FEFC801DF91CF911F910F91FF90EF9000
:100BF000DF9008958881EECF0F931F93CF93DF93FB
:100C00001F92CDB7DEB782E0898342E450E06AE804
:100C100076E080E80E94D6050E949204DC011296DC
:100C20000D911C910115110589F0D801ED91FC91F0
:100C30000280F381E02DBE016F5F7F4FC8010995EF
:100C400097FD04C0F80100851185ECCF89810F90D4
:100C5000DF91CF911F910F910895615030F0209155
:100C6000F100FC0120830196F8CF289884E6809358
:100C7000C4010895AF92BF92CF92DF92EF92FF929C
:100C80000F931F93CF93DF936C017B018B01040FB4
:100C9000151FEB015E01AE18BF08C017D10759F050
:100CA0006991D601ED91FC910190F081E02DC60192
:100CB0000995892B79F7C501DF91CF911F910F918C
:100CC000FF90EF90DF90CF90BF90AF9008956F921C
:100CD0007F928F929F92AF92BF92CF92DF92EF92CC
:100CE000FF920F931F93CF93DF934C017B01C22F91
:100CF000102F98E0A92EB12C642E66946694669409
:100D0000712CCA0187709927892B79F5D401179620
:100D10002D913C91C7019927B9010E948A37269DE0
:100D2000F001279DF00D369DF00D11248E0F9F1FB1
:100D3000D4011596ED91FC91E80FF91F2081111156
:100D400012C0C095C223C083DF91CF911F910F9134
:100D5000FF90EF90DF90CF90BF90AF909F908F90DB
:100D60007F906F900895C22BEECFD0E04770C42ED5
:100D7000D12C83E0660C771C8A95E1F79E0101C0B7
:100D8000220F4A95EAF7012FA301B701C4010E947F
:100D90006706A301485F5F4FC5018C199D0902C01A
:100DA000D595C7958A95E2F7A7CF5F926F927F920C
:100DB0008F929F92AF92BF92CF92DF92EF92FF926B
:100DC0000F931F93CF93DF93EC016A30F1F48D857D
:100DD0009E859C878B878B892F853889820F932FDF
:100DE000911D988B8F8781E090E0DF91CF911F91CB
:100DF0000F91FF90EF90DF90CF90BF90AF909F90BA
:100E00008F907F906F905F900895AB84BC84693021
:100E100031F429E0A20EB11CBC86AB86E4CF3DEFD5
:100E2000A3163FEFB3060CF45BC08F819885A8161C
:100E3000B9060CF055C0CF84D8888DEFC8168FEF57
:100E4000D8060CF44DC089859A85C816D9060CF0D1
:100E500047C060320CF46FE780EE860F9FE9960F73
:100E60009A3118F49FEFC91AD90A8C3011F08B31DE
:100E700019F42FEFC21AD20A869534E0839FC0017D
:100E800011249C0126533A4F7901912C812C162F65
:100E90001170F701E80DF91D549011112BC0352D7B
:100EA0003F70532E3501680C791C8C81882351F0DA
:100EB00001E08989811100E02FE0A601B301CE0194
:100EC0000E9467060989252DA601B301CE010E9463
:100ED00067068FEF881A980A94E089169104C9F67C
:100EE0008A8990E004962B853C85820F931F9C870E
:100EF0008B8779CF52948FE05822D4CF20917D01F7
:100F0000E0917B01F0917C01CF01029690937C01EE
:100F100080937B01222319F085919491089580811B
:100F200091810895CF92DF92EF92FF92CF93DF935A
:100F30000E947E07811520E8920791F4809171004C
:100F40008D7F80937100109291004698479810927F
:100F50007A01DF91CF91FF90EF90DF90CF900895CD
:100F600021E020937A01813020E8920751F48091AA
:100F700078019091790190937C0180937B010E948C
:100F80007E0797FD05C020917701222309F454C004
:100F900020917601211150C021E020937E01EC01C7
:100FA000DF77209709F04BC081E080937F0146985E
:100FB0003FE9C32E3FE0D32EE12CF12CCAEFD0E065
:100FC000E0912802F09129020995811103C081E086
:100FD00080937F0180917E01882329F080917F0199
:100FE000882309F43FC047980E947E070097F1F1DB
:100FF0009C01DE010E94FC34DC01CB0129E0B595A7
:10100000A795979587952A95D1F7109290002AE099
:1010100020939100D0929900C09298008093800113
:1010200090938101A0938201B0938301809171001C
:101030008260809371008DCF10927E01B0CF9E01AF
:1010400050E040E060E472E48FE090E00E94A83459
:1010500069017A0181E0C81AD108E108F10810920B
:101060007F01AECF4699BFCF479ABECF8FEF9FEF9C
:10107000DC01CBCFDC01E1E7F0E090819D7F908344
:1010800010927D01EAE1F2E0F0937C01E0937B01B4
:10109000F0937901E0937801B183A0837383628335
:1010A000558344833783268380E090E89187808747
:1010B0000C9492070DB407FEFDCF8EB5599A089592
:1010C0000E946508982F0C945A080DB407FEFDCFB6
:1010D0008EB51EBC0895EF92FF920F931F93CF938E
:1010E000DF937B018C01D0E0C0E02196CE15DF05B7
:1010F00079F00E946508F80181938F01EC16FD06D6
:10110000A0F7DF91CF911F910F91FF90EF9008957D
:101110000E945A08F8018083F4CF0E946508982F36
:101120000C9465089B01482F00908401300D0090BD
:101130008501401D599883E00E94E109842F0E9497
:10114000E109832F0E94E109822F0E94E1091EBC60
:10115000089590E0429F09F4142E5527090E151E9C
:10116000600D711D851F11240C9492083F924F92BF
:101170005F926F927F928F929F92AF92BF92CF9227
:10118000DF92EF92FF920F931F93CF93DF935C0157
:101190006B013901842E402E3E2C842FB9010E9410
:1011A00092080E948D08582EC82FD92F0E946008DF
:1011B000AE014A0D5B1D141615060CF0E6C020E8C2
:1011C000A216B1040CF0E1C0FC019C012C0D3D1DE8
:1011D000121613060CF0D9C090E4C916D1040CF015
:1011E000D4C0B7FE0BC0EE24FF24EA18FB085E183B
:1011F000403851055CF060E8562E08C04138510572
:101200001CF090E8592E5A18F12CE12CD7FECFC0D3
:10121000002711270C191D09087F9F01201B310B86
:10122000982E901A2134310534F08C2D81958770D9
:1012300050E4952E980E43E0159507954A95E1F7F1
:1012400024E0620E711C811C6E0C7F1C811CF7FC5B
:101250008A94CF01079697FD079623E09595879589
:101260002A95E1F7489E9001499E300D1124200FE8
:10127000311F032E000C440BBE010D2E000C880BF9
:101280000E946C37660E771E881EC60133E0959566
:1012900087953A95E1F7080F31E0C1FC34E0C0FCD6
:1012A000330FC2FC329520E80203D0011124AA0DAD
:1012B000BB1DAE0DBF1DAC5CBB4F292D599883E003
:1012C0008EBD8091840190918501870D981D0DB48C
:1012D00007FEFDCF9EBD0DB407FEFDCF8EBD0DB444
:1012E00007FEFDCF6EBC6C0E7D1E811C0DB407FE8B
:1012F000FDCF1EBC330C073014F4089430FD8894E5
:10130000379462E021FD68E022FD629520FF66953A
:101310006A9511F028300CF06FEF952D0EB41EBCBD
:1013200033FC0626862F30FC802D32FC0024039EE1
:10133000A00134FA36F4C895C89511240EB41EBC29
:1013400030FC082E039E003034F08C9131FE48278B
:10135000402148274C93A058BF4F37FE06C08C91C0
:1013600031FE5827512158275C931124AF57B040C4
:101370009A95A1F6A058BF4FA519B1092850039519
:101380000DB4599A12160CF499CFDF91CF911F9199
:101390000F91FF90EF90DF90CF90BF90AF909F9014
:1013A0008F907F906F905F904F903F900895982E10
:1013B000213431051CF080E4982E9C1810E000E0E8
:1013C0003FCF8EBD00000DB407FEFDCF8EB5089552
:1013D000AB01FC010E943F0441505109E109F109B0
:1013E00028F068517C4F8F4F9F4FF6CFAB01FC0127
:1013F0000E943F04641775078E079F07C8F308957E
:101400002D9A0895BC0190E080E00C94E8098FB11A
:101410008095807F669B88601C9B846008951092F5
:101420006B013E983F9808953E9A3F9A81E08093E1
:101430006B010895AF92BF92CF92DF92EF92FF922D
:101440000F931F93CF93DF936D3079F0C091C60156
:10145000D091C7016A30B1F41092C9011092C8014D
:101460002896D093C701C093C60181E090E0DF9138
:10147000CF911F910F91FF90EF90DF90CF90BF9091
:10148000AF9008954091C8015091C90185E0689FCF
:10149000F0011124E653FF4F9A01C12C80E1E82EA0
:1014A000A5E070E0CA1621F0CF0101967491FC010D
:1014B00010E000E0B72FB170DB2E20383105D0F4FA
:1014C000CE01800F911F80349105A0F461E081FD71
:1014D00064E080FD660F82FD6295887FE89ED00102
:1014E0001124A20FF62EAC5CBB4F8C91DD20A9F02D
:1014F000862B8C9376950F5F1F4F08301105D1F620
:10150000C3942F5F3F4F86E0C812CACF4A5F5F4F38
:101510005093C9014093C801A8CFF0948F21E9CF1F
:10152000EF92FF920F931F93CF93DF93CDB7DEB768
:101530002C970FB6F894DEBF0FBECDBF49835A83F8
:101540006B837C839E83EF82F88609871A872B87BB
:101550003C8729813A814F815885820F932F911DB5
:1015600048175907D4F48B85840F952F911D2817A0
:1015700039079CF44B815C8169857A858E81840F63
:10158000952F911D6817790744F42C85260F372F66
:10159000311D81E0421753070CF080E02C960FB606
:1015A000F894DEBF0FBECDBFDF91CF911F910F9199
:1015B000FF90EF9008959091AB01982329F09091BE
:1015C000AC01982381E009F080E008959091AB018F
:1015D000982329F49091AC01982381E009F480E0EC
:1015E0000895CF93C82F0E94070A982F9C2381E06B
:1015F0009C1380E0CF91089580E00C9415048FB780
:10160000F89440916E0150916F016091700170915A
:1016100071018FBF80916901882321F010926901C7
:1016200080E0089590916A01242F291B922F209128
:101630000001921740F49F5F9217A0F491E093BFCE
:10164000889513BE089581E08093690140936A01F3
:101650008091A9019091AA0101969093AA0180938B
:10166000A90181E008954F925F926F928F929F92AD
:10167000AF92BF92CF92DF92EF92FF920F931F93A0
:10168000CF93DF93CDB7DEB72C970FB6F894DEBFBC
:101690000FBECDBFD12CC12C412C512C612C60919F
:1016A00001017091020180910301640D751D861D79
:1016B00020E240E00E94A90860E270E087E891E043
:1016C0000E946B0887E8882E81E0982EB12CA12C0F
:1016D000F40181914F018130A1F0F8E0AF0EB11C0F
:1016E000A11481E0B806A1F7E0E24E0E511C611C86
:1016F000F8E0CF0ED11C80EBC816D10481F680E053
:101700003DC0EA2CB886AF820C2DDA86C98620E06F
:1017100030E040E052E46091210470912204809115
:101720002304909124040E940C350E948235162FC8
:10173000F72E20E030E040E85FE360911D047091F7
:101740001E0480911F04909120040E940C350E9479
:101750008235462F7A836983612F812F9F2D9C8349
:101760008B83F8841A8528E031E05A817C8186E1F8
:1017700091E00E94900A882309F4AFCF2C960FB60F
:10178000F894DEBF0FBECDBFDF91CF911F910F91B7
:10179000FF90EF90DF90CF90BF90AF909F908F9091
:1017A0006F905F904F900895813059F424E130E0BC
:1017B00042E350E062E370E082E390E00E943A0886
:1017C0000895833049F428EC30E042E350E064EFC0
:1017D00071E084E690E0F2CF823049F422E330E019
:1017E0004CE251E06CE271E088EC90E0E7CF22E35C
:1017F00030E044E650E068EC70E0843041F0853041
:1018000049F422E330E04EE150E064EF71E084E11E
:1018100090E0D4CF863051F428EC30E042E350E041
:1018200064EF71E082E390E00C943A08873049F469
:1018300028EC30E04BE450E062E370E08BE490E0B1
:10184000F3CF883049F428EC30E042E350E062E323
:1018500070E088EC90E0E8CF893051F38A3041F3B2
:1018600008954F925F926F927F928F929F92AF9264
:10187000BF92CF92DF92EF92FF920F931F93CF937D
:10188000DF93CDB7DEB72C970FB6F894DEBF0FBE4F
:10189000CDBF8091270481117FC020E030E040E877
:1018A0005FE360911D0470911E0480911F0490916C
:1018B00020040E940C350E94823570936801609369
:1018C0006701D12CC12C412C512C612C77247394AD
:1018D000609101017091020180910301640D751DF9
:1018E000861D20E240E00E94A90860E270E087E8DF
:1018F00091E00E946B0827E8822E21E0922EB12C05
:10190000A12CF40181914F01813009F051C0EA2CE2
:10191000B886AF820C2DDA86C98660912104709159
:10192000220480912304909124040E948235262F62
:101930008091670190916801482F89839A83622F73
:10194000822F972F9C838B83F8841A8528E038E0B8
:101950005A817C8187E190E20E94900A882309F4F1
:1019600053C08AE00E94D40B81E02C960FB6F89405
:10197000DEBF0FBECDBFDF91CF911F910F91FF90C2
:10198000EF90DF90CF90BF90AF909F908F907F901F
:101990006F905F904F900895813009F092CF6091E1
:1019A0001D0470911E0480911F049091200483CF28
:1019B0008A3051F5EA2CB886AF820C2DDA86C986BA
:1019C0006091210470912204809123049091240459
:1019D0000E948235262F8091670190916801482FDF
:1019E00089839A83622F822F972F9C838B83F8841D
:1019F0001A8528E038E05A817C8187E190E20E94D4
:101A0000900A811170922E04F8E0AF0EB11CA1145F
:101A100081E0B80609F075CFE0E24E0E511C611C62
:101A2000F8E0CF0ED11C80EBC816D10409F050CFDE
:101A300099EFC92E92E0D92EF6018081882371F1A9
:101A4000B184A0848681278194813581E92E9F838A
:101A50003887082F89872A87609121047091220492
:101A600080912304909124040E948235262F809136
:101A7000670190916801482F89839A83622F822F92
:101A8000972F9C838B83F8841A8595015A817C81DA
:101A900087E190E20E94900A811163CFFAE0CF0EB5
:101AA000D11C8BE2C81683E0D80631F68091F20291
:101AB000882389F18091F7022091F8029091F50234
:101AC0003091F602E92E9F833887082F89872A876D
:101AD0006091210470912204809123049091240448
:101AE0000E948235262F8091670190916801482FCE
:101AF00089839A83622F822F972F9C838B83F8840C
:101B00001A8520E230E35A817C8187E190E20E94CD
:101B1000900A811126CF80918302882389F18091D8
:101B20008802209189029091860230918702E92EE5
:101B30009F833887082F89872A87609121047091B5
:101B4000220480912304909124040E948235262F40
:101B50008091670190916801482F89839A83622F51
:101B6000822F972F9C838B83F8841A8528E330E299
:101B70005A817C8187E190E20E94900A8111F1CE26
:101B800082EAC82E82E0D82EF6018081882369F18E
:101B90008581268193813481E92E9F833887082FA0
:101BA00089872A87609121047091220480912304FF
:101BB000909124040E948235262F80916701909194
:101BC0006801482F89839A83622F822F972F9C83E5
:101BD0008B83F8841A8520E338E25A817C8187E17F
:101BE00090E20E94900A8111BCCEFEE0CF0ED11C83
:101BF0008EEBC81682E0D80639F68091700281110A
:101C000002C080E0B2CE8091750220917602909160
:101C1000730230917402E92E9F833887082F8987D9
:101C20002A8760912104709122048091230490916D
:101C300024040E948235262F8091670190916801CB
:101C4000482F9A83622F822F972F9C838B83F8844F
:101C50001A8520E238E45A817C8187E190E20E9473
:101C6000900A882371F27DCE4F925F926F928F928D
:101C70009F92AF92BF92CF92DF92EF92FF920F931B
:101C80001F93CF93DF93CDB7DEB72C970FB6F894A1
:101C9000DEBF0FBECDBFD12CC12C412C512C612CED
:101CA000609101017091020180910301640D751D25
:101CB000861D20E240E00E94A90860E270E087E80B
:101CC00091E00E946B0887E8882E81E0982EB12C65
:101CD000A12CF40181914F01813009F051C0EA2C0F
:101CE000B886AF820C2DDA86C98620E030E040E865
:101CF0005FE360912104709122048091230490910C
:101D000024040E940B350E948235162FF72E609115
:101D10001D0470911E0480911F04909120040E9464
:101D20008235462F7A836983612F812F9F2D9C8373
:101D30008B83F8841A8528E038E05A817C8188E119
:101D40009AE00E94900A182F8823D1F08AE00E941E
:101D5000D40B812F2C960FB6F894DEBF0FBECDBFEB
:101D6000DF91CF911F910F91FF90EF90DF90CF9077
:101D7000BF90AF909F908F906F905F904F9008951D
:101D8000F8E0AF0EB11CA11481E0B80609F0A1CFB4
:101D9000E0E24E0E511C611CF8E0CF0ED11C80EB2E
:101DA000C816D10409F07CCF10E0D3CF089590E09D
:101DB00080E008958F929F92AF92BF920F931F93EE
:101DC000CF93DF93CDB7DEB7A1970FB6F894DEBF00
:101DD0000FBECDBF19A2423008F44AE08E010F5D5C
:101DE0001F4F842E912CB12CA12CA50194010E948F
:101DF000DA34E62FB901CA01EA3044F5E05DD801D2
:101E0000EE938D01232B242B252B79F790E080E096
:101E1000109769F0FD0101900020E9F73197AF01BB
:101E20004A1B5B0BBD0184E398E00E943A06A19631
:101E30000FB6F894DEBF0FBECDBFDF91CF911F91DB
:101E40000F91BF90AF909F908F900895E95CD7CF8E
:101E5000CF92DF92EF92FF92CF93DF936B017C01E1
:101E60006DE284E398E00E94D506EC0166277727AF
:101E7000CB016C197D098E099F094AE00E94DA0E98
:101E80008C0F9D1FDF91CF91FF90EF90DF90CF904F
:101E90000895FC0101900020E9F73197AF01481B3C
:101EA000590BBC0184E398E00C943A060C949234EC
:101EB00082E090E00E94560F81110C94140A0C9459
:101EC0000F0A2F923F925F926F927F928F929F9212
:101ED000AF92BF92CF92DF92EF92FF920F931F9338
:101EE000CF93DF9381EC80937C0085B1806F85B9BF
:101EF00084B1877E84B984B1876E84B95E9A5F9815
:101F00008AB1806D8AB9769A6E9881B3806F81BBF1
:101F1000899880B38D7080BB80E58CBD81E08DBDDC
:101F200085E090E00E94020A5F9A85E090E00E94BE
:101F3000020A5E985C98E6EAF7E084918EBD0000A4
:101F40000DB407FEFDCF319647E0E33BF407A9F758
:101F50005C9A81E880936400809165008160809341
:101F600065000E94FC0A80E80E94F10A882381F043
:101F70005C9885EA8EBD00000DB407FEFDCF5C9A2B
:101F80002E982F982D9881E083BF889513BEFCCFA3
:101F900084E00E94F10A882309F448C02D9884E85F
:101FA0000E94F10A8823E1F00E94000A88EC90E088
:101FB0000E94020A2F9882E090E00E9492348F3FA4
:101FC00029F06FEF82E090E00E949A3484EF91E074
:101FD0000E94020A2F9A84E80E94F10A8111FBCF25
:101FE00084E10E94F10A8823E1F00E94000A88EC53
:101FF00090E00E94020A2E9882E090E00E949234C3
:10200000882329F060E082E090E00E949A3484EF17
:1020100091E00E94020A2E9A84E10E94F10A811145
:10202000FBCF88EC90E00E94020AB2CF0E94000A27
:102030000E94580F81E090E00E94560F81FF12C06D
:10204000582F5470552E82FD2E98C1EFDFEF08E017
:1020500010E080E40E94F10A8823F1F02E9A2F9A72
:102060000E94000A82E390E00E94020A0E94070A8E
:102070008111F8CFDF91CF911F910F91FF90EF90D9
:10208000DF90CF90BF90AF909F908F907F906F9098
:102090005F903F902F900895552029F0C430D105CE
:1020A00011F42E9A2F9881E00E9415049E01D7FF0B
:1020B00004C0222733272C1B3D0B27703327CE016A
:1020C000D7FD079653E0959587955A95E1F7D7FF89
:1020D00005C00197F801E21BF30B9F01BC01769547
:1020E000762F6627779567956C5C7B4FF12CE12CFA
:1020F0003801621A730A8E3FFFEF9F0709F43AC056
:10210000DB0150E040E0F701EA50F94F5F014B017D
:10211000F0E88F0E911C8F3F980781F0F501E40FD6
:10212000F51FE491022E01C0EE0F0A94EAF75496CF
:10213000FC915497EF2B5496EC935497211531054D
:1021400099F0F501E40FF51FE4916401C40ED51E6A
:10215000F0E01F01062C02C0359427940A94E2F7A0
:10216000F60134882328248A4F5F5F4F1196483543
:10217000510589F60196F8E5EF0EF11C60587F4F86
:1021800040EBE416F10409F0B6CF0E94FC0A8FE0A0
:1021900090E00E94020A2196C931D10509F059CF79
:1021A000552011F02F9A2D9880E991E00E94020AA3
:1021B0000E94000A81E090E00E94560F80FF52CFFB
:1021C0008AE090E00E94560F9FEF980F9E3F08F024
:1021D00049CF22E330E03093C9012093C80128E3BE
:1021E00030E03093C7012093C601CBE0D0E0682FE8
:1021F00088E498E00E941A0ACE010E94560F2196A8
:10220000C131D105A1F70E94FC0A88EE93E00E943B
:10221000020A28CFCF92DF92EF92FF926B017C01EE
:10222000C114D104E104F10441F00E943A34A70141
:1022300096010E94A8346B017C01C701B601FF9092
:10224000EF90DF90CF9008952F923F924F925F9240
:102250006F927F928F929F92AF92BF92CF92DF92B6
:10226000EF92FF920F931F93CF93DF93CDB7DEB71B
:1022700028970FB6F894DEBF0FBECDBF10922B0487
:1022800010922D0410922C0410922904109228040C
:1022900010922A0481E08093260410922704109261
:1022A0001D0410921E0410921F041092200410921C
:1022B000EF031092E5031092E8031092E7031092E7
:1022C0002C0310922B038091AD019091AE012FE170
:1022D00036E542E0009739F08130910509F0F6C00B
:1022E0002FED38E542E02093010130930201409345
:1022F00003018530910509F0F5C02FED33E642E08A
:102300002093010130930201409303018A3091052B
:1023100009F0F4C02FE931E742E020930101309346
:102320000201409303018F30910509F0F3C02FE5BE
:102330003FE742E020930101309302014093030103
:102340008431910509F0F2C08FE19DE8A2E080930D
:10235000010190930201A093030110925B0310927C
:102360007203109289031092A0031092B703109287
:10237000CE031092F9021092FA0210920303109207
:10238000040310920D0310920E0310921703109283
:10239000180310922103109222031092330310921B
:1023A0003B031092430310924B031092530310927D
:1023B000A2021092A3021092BE021092B0021092DA
:1023C000B1021092C40210929102109283021092F4
:1023D0008402109277021092F2021092F30210928D
:1023E0006B02109270021092710238E0432E512C51
:1023F000612C712C812CEE24E3944AE0942EFF246E
:10240000F394609101017091020180910301660DC6
:10241000771D881D20E240E00E94A90860E270E07C
:1024200087E891E00E946B0882010850110927E8B3
:10243000222E21E0322E28E030E03A8329831886CC
:102440001F82C801012E000CAA0BBB0B8B839C833F
:10245000AD83BE83D1018C919AE6980F9B3008F032
:102460000DC190E0999EF0011124E750FD4F2081AD
:10247000211109C0E0822F81388535832483178399
:102480000683838395E09F5F953060F38B3A09F074
:10249000C1C1F09291022F8138853093950220932B
:1024A000940210939702009396023093990220931E
:1024B000980230939B0220939A0280919F02281BDE
:1024C000310930939D0220939C02F5C08230910522
:1024D000A1F52FE93BE542E0209301013093020191
:1024E0004093030186309105A1F52FE936E642E0DD
:1024F0002093010130930201409303018B30910539
:10250000A9F52FE534E742E0209301013093020161
:102510004093030180319105B1F52FE132E842E0AB
:10252000209301013093020140930301853191050D
:10253000B9F58FED9FE8A2E00ACF83309105C1F590
:102540002FE53EE542E020930101309302014093E4
:1025500003018730910509F066C02FE539E642E0B6
:102560002093010130930201409303018C309105C7
:1025700009F065C02FE137E742E020930101309375
:102580000201409303018131910509F064C02FEDF0
:1025900034E842E0209301013093020140930301AB
:1025A0008631910509F063C08FE992E9A2E0CFCEB0
:1025B0008430910509F09DCE2FE131E642E0209371
:1025C000010130930201409303018930910509F024
:1025D0009DCE2FED3EE642E02093010130930201B3
:1025E000409303018E30910509F09DCE2FE93CE721
:1025F00042E02093010130930201409303018331B3
:10260000910509F09DCE2FE53AE842E020930101C3
:102610003093020140930301489709F09ECE8FE169
:1026200098E9A2E094CE8830910579F62FE13CE656
:1026300042E02093010130930201409303018D3069
:10264000910581F62FED39E742E0209301013093A7
:102650000201409303018231910589F62FE937E8A1
:1026600042E020930101309302014093030187313E
:10267000910591F68FE595E9A2E069CE893A09F0D6
:10268000ADC0F092A2028F8198859093A6028093AC
:10269000A5021093A8020093A7029093AA02809328
:1026A000A9028091AE02AF81B885A81BB109B09391
:1026B000AC02A093AB0283E3C82E83E0D82E91EA4C
:1026C000A92EB12CF10180818A151B04A9F4D60131
:1026D000EC92EF81F8851296FC93EE931197149685
:1026E0001C930E93139768E070E080E090E00E94E6
:1026F0000A11D60115966C93BFEFAB1ABB0AE8E03E
:10270000CE0ED11CF6EAAF16B104E1F6D1018C91E0
:102710008B3059F580912F04813009F024C1EF816D
:10272000F885BF01FF0F880B990B0E94BA356093A3
:102730001D0470931E0480931F04909320046B81EA
:102740007C818D819E810E94BA35609321047093B3
:1027500022048093230490932404609330047093A4
:10276000310480933204909333043FEF231A330AE9
:102770008F819885089698878F83A981BA8118964A
:10278000BA83A9838115914009F064CEE0E26E0E10
:10279000711C811CF8E04F0E511C28EB42165104AD
:1027A00009F02FCE81E08093AF0128960FB6F89400
:1027B000DEBF0FBECDBFDF91CF911F910F91FF9074
:1027C000EF90DF90CF90BF90AF909F908F907F90D1
:1027D0006F905F904F903F902F9008958A3A09F044
:1027E00055CEF092B002EF81F885F093B402E093F9
:1027F000B3021093B6020093B502F093B802E093CF
:10280000B7028091BC02E81BF109F093BA02E09391
:10281000B90251CF8C3AD9F4F09283028F81988516
:102820009093870280938602109389020093880216
:1028300090938B0280938A0280918F02AF81B8853A
:10284000A81BB109B0938D02A0938C0234CF8D3AAE
:10285000E9F4F0927702EF81F885F0937902E09342
:10286000780210937B0200937A0280918602909105
:10287000870290937D0280937C0220918F02821BBD
:10288000910990937F0280937E0215CF8E3A01F5D5
:10289000F092F2022F8138853093F6022093F502F0
:1028A0001093F8020093F702EAECF2E0E482A981C7
:1028B000BA81B183A08353824282359622EF32E0FF
:1028C0002E173F0799F7833B29F41092F202F3CEBB
:1028D000833BF1F2853B69F4F092BE028F819885CB
:1028E0009093C1028093C0021093C3020093C2026E
:1028F000E2CE863B69F4F092C402AF81B885B09312
:10290000C702A093C6021093C9020093C802D3CE97
:102910008F3A69F4F0926B02EF81F885F0936D02C3
:10292000E0936C0210936F0200936E02C4CE803B62
:1029300009F0C1CEF09270022F8138853093740275
:102940002093730210937602009375028FEF90E04C
:102950009093670280936602A0EBB0E0B0936902A7
:10296000A0936802A8CE811100CF6B817C818D81FC
:102970009E810E94BA355B016C01AC019B016091A4
:1029800021047091220480912304909124040E94D8
:10299000A93618160CF0E9CE2F813885B901330F0E
:1029A000880B990B0E94BA3560931D0470931E0426
:1029B00080931F0490932004A0922104B0922204DB
:1029C000C0922304D0922404A0923004B092310427
:1029D000C0923204D0923304C8CE8F929F92AF92AD
:1029E000BF92CF92DF92EF92FF920F931F93CF93FC
:1029F000DF93CDB7DEB72C970FB6F894DEBF0FBECE
:102A0000CDBFC82E892ED62E972EA42EB22E809101
:102A10002B04811141C0EC2CCF829887062F698747
:102A20007A8760912104709122048091230490910F
:102A300024040E948235162FF72E60911D04709198
:102A40001E0480911F04909120040E948235462F1D
:102A50007A836983612F812F9F2D9C838B83F82C30
:102A6000192D95015A817C8184E19EE10E94900A92
:102A7000882309F464C080918601811160C08AE0D6
:102A80008093260488E00E94D40B0E942411809138
:102A90002B04882309F453C0EC2CCF8288860D2D9B
:102AA000D9869A8620E030E040E251E4609121042A
:102AB0007091220480912304909124040E940C358B
:102AC0000E948235D62E172F60911D0470911E042E
:102AD00080911F04909120040E948235462F7A83B2
:102AE00069836D2D8D2D912F9C838B83F82C192D4F
:102AF00095015A817C8184E194E10E94900A8823A7
:102B0000F1F08091860181111AC08AE08093260439
:102B100088E00E94D40B2C960FB6F894DEBF0FBE4F
:102B2000CDBFDF91CF911F910F91FF90EF90DF907C
:102B3000CF90BF90AF909F908F900C9424112C96C3
:102B40000FB6F894DEBF0FBECDBFDF91CF911F91BE
:102B50000F91FF90EF90DF90CF90BF90AF909F903C
:102B60008F9008952F923F924F925F926F927F9233
:102B70008F929F92AF92BF92CF92DF92EF920F937C
:102B8000CF93DF9300D000D0CDB7DEB7282E312C05
:102B900026E0829FF0011124E65DFD4F84818111C2
:102BA00007C0718360835383428381E084831582ED
:102BB000712C612C912C812C26E0229DC001239D3B
:102BC000900D1124FC01E65DFD4F6F019F012E5F0A
:102BD0003F4F3A8329835F0135E0A30EB11C64E0C7
:102BE00070E080E090E00E940A11062FE981FA81EE
:102BF00040805180F8E04F0E511C460C571C63E09A
:102C000070E080E090E00E940A1120913103309141
:102C10003203AB01421B530B440E551EF6010190CB
:102C2000F081E02D7496E819F909FC83EB8363E0E9
:102C300070E080E090E00E940A118B819C81861BED
:102C4000970BF5012081821B9109E0912F03F091F0
:102C50003003EE24E3942CE932E140E0B2018E1B14
:102C60009F0B0E94B60864E070E080E090E00E9454
:102C70000A11062FE981FA810190F081E02D389642
:102C8000E60DF71DFC83EB8363E070E080E090E0ED
:102C90000E940A112091310330913203AB01421B93
:102CA000530B2B813C81240F351F3C832B83F60172
:102CB00040805180F4E14F0E511C480C591C63E0D8
:102CC00070E080E090E00E940A11F5012081422F1F
:102CD00050E020912F0330913003FA01E21BF30BF7
:102CE000CF01860F971F2CE932E140E06B817C8198
:102CF000840D951D0E94B608FFEF8F1A9F0A2AE0E7
:102D0000620E711C34E08316910409F068CFF5015E
:102D100080818B5F80838B3F20F0F6011482F50168
:102D2000108286E0829DF001839DF00D1124E65D06
:102D3000FD4F84810F900F900F900F90DF91CF91F6
:102D40000F91EF90DF90CF90BF90AF909F908F90BA
:102D50007F906F905F904F903F902F9008954F928B
:102D60005F926F927F928F929F92AF92BF92CF921B
:102D7000DF92EF920F931F93CF93DF9300D000D099
:102D80001F92CDB7DEB721E04091AD0162E070E364
:102D900080E00E94A90861E070E0CE0101960E94E7
:102DA0006B088981882309F42BC48BE5C82E83E046
:102DB000D82EAA24AA94B12C25E0822E912C11E0C1
:102DC000D6018C91882321F120E030E040E050E4EE
:102DD0001B966D917D918D919C911E970E940C3553
:102DE0000E9482352B0120E030E040E050E4F60103
:102DF00067817085818592850E940C350E9482359D
:102E0000CB012CE030E04CE050E0B2010E94ED1428
:102E10008091A9019091AA01B4010E947637892B73
:102E200051F4D60112968C9112978F5F833008F07F
:102E3000FCC312968C938981813009F0BAC0D60107
:102E40008C91882309F485C060913103709132031D
:102E5000072E000C880B990B0E94BA359B01AC0120
:102E6000F60163857485858596850E940B350E94E1
:102E700082352B0160912F0370913003072E000CD7
:102E8000880B990B0E94BA359B01AC01D6011796AD
:102E90006D917D918D919C911A970E940B350E94A6
:102EA0008235CB01EE24E394F601028124E23BE17A
:102EB00040E0B2010E94B60820E030E040E85FE365
:102EC000D60117966D917D918D919C911A970E94D4
:102ED0000B352B013C01F6014782508661867286D4
:102EE00020E030E040E952E40E940C352DEC3CEC4F
:102EF0004CEC5DE30E94AE3620E030E0A9010E9478
:102F00000C350E941B3720E030E048EC51E40E9471
:102F1000AE369B01AC01D60153966D917D918D919A
:102F20009C9156970E940C35F601638774878587BC
:102F3000968720E030E040E851ECC301B2010E94E6
:102F4000783587FF02C0D6011C92F601808181117D
:102F500030C020E030E042E053E460911D04709105
:102F60001E0480911F04909120040E94783587FFF1
:102F700020C0B5010B2C000C880B990B0E94BA35B0
:102F8000D60117966D937D938D939C931A9780919C
:102F9000300490913104A0913204B0913304F601D1
:102FA000838B948BA58BB68B83879487A587B687F5
:102FB00010838981823009F0BCC0D6018C918823AE
:102FC00009F478C06091310370913203072E000C30
:102FD000880B990B0E94BA359B01AC01F601638501
:102FE0007485858596850E940B350E9482352B015C
:102FF00060912F0370913003072E000C880B990B02
:103000000E94BA359B01AC01D60117966D917D9156
:103010008D919C911A970E940B350E948235CB01AD
:10302000EE24E394F601028128E83BE140E0B2019E
:103030000E94B608D60117964D905D906D907C90D9
:103040001A9720E030E04EEF52E4C301B2010E9433
:10305000A93618166CF420E030E040E85FE3C301C5
:10306000B2010E940B35F6016783708781879287D2
:10307000D60117964D905D906D907C901A9720E048
:1030800030E04EEF52E4C301B2010E9478351816C9
:103090006CF020E030E040E050E4C301B2010E9457
:1030A0000B35F6016783708781879287D6018C91F3
:1030B00081113FC020E030E042E053E460911D0404
:1030C00070911E0480911F04909120040E94783515
:1030D00087FF2FC0B5010B2C000C880B990B0E94A9
:1030E000BA35F60167837087818792870E943A34E8
:1030F00022E030E040E050E00E94A834672B682BCB
:10310000692B09F495C220E030E040EC50E4609176
:1031100030047091310480913204909133040E9404
:103120000B35D6011B966D937D938D939C931E97C3
:103130001C938981833009F042C1F6018081882384
:1031400009F4F5C06091310370913203072E000C31
:10315000880B990B0E94BA359B01AC01D6011B96D6
:103160006D917D918D919C911E970E940B350E94CF
:1031700082352B0160912F0370913003072E000CD4
:10318000880B990B0E94BA359B01AC01F60167814F
:103190007085818592850E940B350E948235CB0116
:1031A000EE24E394F60102812CEE3BE140E0B20113
:1031B0000E94B608D60111968C91119781112AC0F0
:1031C00020E030E040E050E417966D917D918D91C4
:1031D0009C911A970E940B35F6016783708781874F
:1031E000928720E030E04AEA52E40E94783587FF77
:1031F0009AC02BED3FE049EC5FE3D60113966D9149
:103200007D918D919C9116970E94783581118BC08C
:10321000F601118320E030E0A901D6011F966D91DF
:103220007D918D919C9152970E947835811109C0B2
:10323000F60187819085A185B2858787908BA18BC8
:10324000B28B20E030E0A901D60153966D917D91BB
:103250008D919C9156970E947835811112C020E083
:1032600030E048EC51E4F6016385748585859685E8
:103270000E940B35D60153966D937D938D939C934D
:103280005697F6014380548065807680C301B20171
:103290000E947D3520E030E048EC51E40E94AE36DB
:1032A0009B01AC01D6011F966D917D918D919C91F2
:1032B00052970E940C35F601678370878187928749
:1032C000C301B2010E941B3720E030E048EC51E41A
:1032D0000E94AE369B01AC01D60153966D917D9153
:1032E0008D919C9156970E940C35F60163877487E7
:1032F000858796872DEC3CEC4CEC5DE3C301B20175
:103300000E940C35D60113966D937D938D939C93FB
:10331000169722ED33E54BEF50E40E94A93687FD66
:1033200002C0F6011182D6018C91811148C020E0C3
:1033300030E044E353E460911D0470911E048091D9
:103340001F04909120040E94783587FF38C0B50192
:103350000B2C000C880B990B0E94BA35F601678381
:1033600070878187928720E030E040E851E46091E7
:1033700030047091310480913204909133040E94A2
:103380000C35D6011B966D937D938D939C931E9760
:1033900011961C921197F6011786108A118A128ACB
:1033A00053961D921D921D921C9256978BED9FE095
:1033B000A9ECBFE383839483A583B68310838981BB
:1033C000843009F003C1D6018C91882309F49BC095
:1033D0006091310370913203072E000C880B990B1A
:1033E0000E94BA359B01AC01F60163857485858521
:1033F00096850E940B350E9482352B0160912F0328
:1034000070913003072E000C880B990B0E94BA357F
:103410009B01AC01D60117966D917D918D919C9188
:103420001A970E940B350E948235CB01EE24E3945B
:10343000F601028120E53CE140E0B2010E94B608BD
:1034400020E030E040E85FE3D60117966D917D9172
:103450008D919C911A970E940B35F60167837087B6
:1034600081879287818120E030E040E85FE3882314
:1034700009F4EDC063857485858596850E940B35BA
:10348000D6011B966D937D938D939C931E97F601A9
:10349000438454846584768480913004909131040F
:1034A000A0913204B09133048A839B83AC83BD83A3
:1034B00020E030E040EA51E4BC01CD010E940B3530
:1034C0009B01AC01C301B2010E94783587FF03C0A4
:1034D000D60111961C9220E030E040E751E46A8169
:1034E0007B818C819D810E940C359B01AC01C301C5
:1034F000B2010E94A936181614F4F6011183D60100
:103500008C91811163C020E030E044E353E460918A
:103510001D0470911E0480911F04909120040E944C
:10352000783587FF53C0B5010B2C000C880B990B25
:103530000E94BA35F601678370878187928720E001
:1035400030E040EA51E460912104709122048091BE
:103550002304909124040E940C350E9482356A83D2
:103560007B838C839D8320E030E040EF51E46091C9
:1035700030047091310480913204909133040E94A0
:103580000B350E9482352B013C018A819B81AC81E5
:10359000BD81481659066A067B0664F4BC01CD015C
:1035A00064197509860997090E940A11460E571E6B
:1035B000681E791EC301B2010E94BA35D6011B965E
:1035C0006D937D938D939C931E971C9320E030E028
:1035D000A901F60167817085818592850E94783501
:1035E00087FF02C0D6011C92B7E1CB0ED11CE8E4E4
:1035F000AE0EB11CFFEAAF16F2E0BF0609F0E0CB59
:103600000F900F900F900F900F90DF91CF911F911F
:103610000F91EF90DF90CF90BF90AF909F908F90E1
:103620007F906F905F904F900895F601128203CCC7
:1036300020E030E040E851E46091300470913104C2
:1036400080913204909133040E940C356ACD6385D9
:103650007485858596850E940C35F601638774878D
:103660008587968714CF1F920F920FB60F92112461
:103670008F939F938091E1009091E100937F9093CD
:10368000E10083FF0FC01092E90091E09093EB00FE
:103690001092EC0092E39093ED001092C50198E037
:1036A0009093F00082FF22C093E09093E900909104
:1036B000F200992319F09AE39093E8009091B601F3
:1036C000992341F09091B60191509093B6019111D8
:1036D00001C05D9A9091C401992341F09091C40179
:1036E00091509093C401911101C0289A84FF18C091
:1036F0008091E2008E7E81608093E2008091E10003
:103700008F7E8093E1008091B7018E7E80618093EF
:10371000B7019F918F910F900FBE0F901F9018953A
:1037200080FFF7CF8091E2008E7E80618093E2007F
:103730008091E1008E7E8093E1008091B7018E7EC2
:103740008160E5CF1F920F920FB60F921124CF9296
:10375000DF92EF92FF920F931F932F933F934F931C
:103760005F936F937F938F939F93AF93BF93EF93E9
:10377000FF93CF93DF93CDB7DEB76C97DEBFCDBF9E
:103780001092E9008091E80083FF25C068E0CE0137
:1037900045960E942D0682EF8093E8008D8987FF71
:1037A00039C09091E80090FFFCCF982F907609F0F7
:1037B00034C19E894F89588D2F89F88C911131C061
:1037C000803861F58091B5018093F1001092F1008D
:1037D0008EEF8093E8006C960FB6F894DEBF0FBEB4
:1037E000CDBFDF91CF91FF91EF91BF91AF919F91AD
:1037F0008F917F916F915F914F913F912F911F9189
:103800000F91FF90EF90DF90CF900F900FBE0F9031
:103810001F9018959EEF9093E800C7CF1092F1008B
:10382000D5CF913059F48111D3CF4130510581F674
:103830008091B5018D7F8093B501CACF933049F453
:103840008111C6CF4130510519F68091B5018260D2
:10385000F2CF953041F48091E80080FFFCCF2068E2
:103860002093E300B5CF963009F0A9C00B8D1C8DD5
:1038700022E01092E9001092B3011092B201F2120C
:103880002EC01092B1011092B0010E94FC051F825F
:1038900099E09983FA8291E09E8390EA98879AEF63
:1038A00099872091B2013091B301275F3F4F3C834C
:1038B0002B838D831092E9001092B3011092B20114
:1038C0001093B1010093B00149E050E0BE016F5F79
:1038D0007F4F80E00E94D6050E94FC0579CF1093AF
:1038E000B1010093B0010E949204DC0112960D9187
:1038F0001C910115110509F451C1D801ED91FC91FC
:103900000480F581E02DBE016B5E7F4FC8010995F3
:10391000009709F03EC1F80100851185EACFF3E078
:10392000FF120EC08F89882309F440C0823061F4F1
:1039300040E867E08EEE96E00E94651E811148CF58
:1039400081E28093EB0047CF813029F440E86BE0BF
:1039500082EE96E0F1CF833099F70E949204DC0169
:103960001296ED90FC908E010F5F1F4F6801E114DD
:10397000F10479F0D701ED91FC910680F781E02DFB
:10398000B801C7010995080F111DF701E084F18402
:10399000EECFD8011C92F60101900020E9F7319793
:1039A000BF016C197D0940E0C601C6CF6CEC76E022
:1039B000FB01449150E080E80E94D60509CF973082
:1039C00009F4BECF983021F481E08093F10000CF5C
:1039D000993009F0FDCE837009F0B2CFE6E1F1E055
:1039E00081E031E096E32191222371F08093E90098
:1039F0003093EB00DF0111972C912093EC00909312
:103A0000ED008F5F873079F78EE78093EA001092A0
:103A1000EA008F898093C501DBCE8B8D9C8D10923F
:103A2000E9001092B3011092B2019093B10180931A
:103A3000B001898D811192C08E899D89913A49F496
:103A4000813209F07DCF47E050E069E071E080E02D
:103A5000B3CF913209F074CF833269F48F89988D96
:103A6000B0E0A0E08093050190930601A0930701C8
:103A7000B0930801ADCE803269F48091E80082FFF6
:103A8000FCCF67E089E091E00E942D068BEF8093E8
:103A9000E8009ECE823209F09BCE8F898093100180
:103AA000EEEFFFE7859194918B3F9C4D51F1E0E063
:103AB000F8E08091090190910A01A0910B01B09169
:103AC0000C01803B9440A105B105F1F480911001F7
:103AD00080FD1AC0EE3F8AE0F80789F587E797E78F
:103AE00091838083809160008093B40188E19BE0A2
:103AF0000FB6F894A895809360000FBE9093600075
:103B000067CEEEEFFAE0D5CF808191818737974776
:103B100009F05ECEA8958091600088618093600076
:103B20008091B40180936000EE3F2AE0F20789F0B3
:103B30008091FE0A9091FF0A9183808349CE808113
:103B400091818737980751F29093FF0A8093FE0A7C
:103B5000C5CF1092FF0A1092FE0A3ACE0E9492043C
:103B6000DC0112960D911C910115110509F4E8CEA6
:103B7000D801ED91FC910190F081E02DBE016B5ECA
:103B80007F4FC8010995811123CEF8010085118569
:103B9000EBCF181619060CF41BCED2CEF1E0FF12B3
:103BA000BECE60ED76E004CF1F920F920FB60F925B
:103BB00011242F933F934F935F936F937F938F9332
:103BC0009F93AF93BF93EF93FF9380918001909168
:103BD0008101A0918201B09183010097A105B105F7
:103BE00039F120917F01211105C0369A20917E0183
:103BF0002111379A0197A109B109B7FD08C0809337
:103C0000800190938101A0938201B0938301FF9181
:103C1000EF91BF91AF919F918F917F916F915F9144
:103C20004F913F912F910F900FBE0F901F901895BD
:103C30000E949207ECCF0F920FB68F939F93EF9352
:103C4000FF9380916D018D5F8D3708F08D578093C4
:103C50006D01EEE6F1E080818E4F808391819F4F70
:103C6000918382818F4F828383818F4F8383E2E7A9
:103C7000F1E080818F5F808381818F4F818382819A
:103C80008F4F828383818F4F83838FB18F6066993B
:103C90001C9B88278F3681F480916C01981B96308D
:103CA00068F0E0E0F8E087E78083818388E1809333
:103CB0006000F0936000FFCF90936C01FF91EF9153
:103CC0009F918F910FBE0F901895EF92FF920F93D7
:103CD0001F93CF93DF93F82E192FE62E042F81E048
:103CE000860F880F0E94A80583E00E94A805CF2DAB
:103CF000D12FEC0EFD2EF11CCE15DF05B9F007FF1C
:103D000013C0FE0184910E94A805182F80E00E9434
:103D1000A805812321968111EFCFDF91CF911F91CB
:103D20000F91FF90EF9008958881EDCF81E0F5CF5E
:103D30001092CD011092CC0188EE93E0A0E0B0E0AB
:103D40008093CE019093CF01A093D001B093D10185
:103D500080E291E09093CB018093CA018FEF9FEFB7
:103D60009093D7018093D60110924B0810924A0885
:103D70008EE391E0909349088093480885E094E0B1
:103D8000909329028093280280E090E89093270284
:103D90008093260246983E9A47983F9A1092370899
:103DA0001092360882E391E09093350880933408AE
:103DB00084E394E090933A088093390880E890E097
:103DC00090933C0880933B0880E490E090933E08F9
:103DD00080933D0885E08093470881E08093460802
:103DE0001092420810924108109244081092430821
:103DF0001092400810923F088093450810923808AE
:103E000010921D0410921E0410921F0410922004A0
:103E100040E050E060EA72E44093210450932204B1
:103E20006093230470932404109225048093260445
:103E300010922704109228041092290410922A0448
:103E400010922B0410922C0410922D0410922E0428
:103E500080932F04E0EFF3E095E08CE39683878373
:103E60001086399624E0ED31F207C1F784E08093A3
:103E7000ED0384E68093EE031092EF03EBE5F3E0AD
:103E800085EE93E012821382148215821682779651
:103E90008E179F07B9F7E3E3F3E085E015821682FA
:103EA0008783389693E0EB35F907C1F710922C031E
:103EB00010922B0384E190E090932E0380932D03C6
:103EC000E9EFF2E08BE293E0108211821282108619
:103ED00011863A968E179F07B9F71092F202109248
:103EE000F3021092F4021092CE021092D3021092BA
:103EF000D8021092DD021092E2021092E7021092B4
:103F0000EC021092F1021092BE021092BF021092C7
:103F1000C4021092C5021092A2021092A302109243
:103F2000A40283E08093AD0296E99093AE021092D2
:103F3000AF021092B0021092B1021092B2028093BE
:103F4000BB029093BC021092BD021092910210929B
:103F500092021092930280939E0290939F0210927D
:103F6000A0021092A1021092830210928402109279
:103F7000850280938E0294E690938F0210929002B5
:103F800010927702809380029093810210928202B5
:103F900010927002109271021092720210926B02D3
:103FA00082E080936A02EAE2F2E014821582369699
:103FB00022E0E636F207C9F70895CDB7DEB7A0973D
:103FC000DEBFCDBF789483E084BD83E085BD81E012
:103FD00080936E00E1E8F0E083E08083E0E881E038
:103FE0008083E1E983E08083E0E981E08083E1ECA4
:103FF00087E08083E3EC81E08083E0EC82E08083F3
:10400000E2EC81E08083EAE787E080838068808358
:104010001092C5011092B5011092B7018091D7009E
:1040200081608093D70080EA8093D80089B5806151
:1040300089BD89B5826089BD09B400FEFDCF0E94AB
:104040002A048091D8008F7C80618093D800809171
:10405000E000807F8093E0008091E1008E7E80937D
:10406000E1008DE08093E200559A209A0E94610F52
:1040700081E2809300010E94580F0E94140A5E9A08
:10408000E4E1F0E085E69DEF25913591559145916C
:104090002851354909F4CA01809384019093850120
:1040A00059988BEA0E94E109599A8091AF018111D8
:1040B0001DC17CE3C72ED12CEEE12E2E312CFDE26A
:1040C000AF2EB12CABE48A2E912CB5E56B2E712C62
:1040D00013E7412E512C0E9408041092C701109240
:1040E000C6011092C9011092C8018091AC01809361
:1040F000AB010E94070A8093AC0161E070E080E0B0
:1041000090E00E94E8090E94FF0A8823B1F3EE24A0
:10411000E39400E020E030E040E06AE070E090E00E
:1041200080E00E94B6081092420810924108109256
:10413000400810923F08D0924408C092430886E499
:1041400091E00E94490F309242082092410830923B
:10415000400820923F08D0924408C09243086091E2
:10416000AD017091AE01072E000C880B990B97FFE3
:10417000A8C00E94280FB0924208A0924108B092B5
:104180004008A0923F08D0924408C09243088DE4B2
:1041900091E00E94490F90924208809241089092CB
:1041A000400880923F08D0924408C0924308809112
:1041B0000401882309F489C084E591E00E94490F35
:1041C00070924208609241087092400860923F08E5
:1041D000D0924408C092430888E591E00E94490FBC
:1041E00050924208409241085092400840923F0845
:1041F000D0924408C092430880918601882309F434
:1042000067C084E591E00E94490F80E40E94E60ABD
:10421000882391F021E020932F0410922E048091A6
:10422000AD019091AE010196893191050CF053C01A
:104230009093AE018093AD0180E20E94E60A88234C
:1042400081F031E030932F0410922E048091AD0163
:104250009091AE01019797FD43C09093AE0180937A
:10426000AD0180E10E94E60A882331F080910401CB
:1042700091E089278093040180E80E94E60A882360
:1042800031F080918601A1E08A27809386010E9407
:10429000FC0A0E94240488E00E94E60A882309F4AC
:1042A0001ACF809104018823F1F00E94140A0E9421
:1042B000241180E090E0892B09F4F7CE0E940000E1
:1042C000F4CE4AE00E94DA0E56CF86E591E076CF32
:1042D00086E591E098CF1092AE011092AD01ACCF7F
:1042E00088E190E0BACF0E940F0AE1CF813009F750
:1042F0000E94FF0A8823E9F220E030E04CE753E413
:1043000060911D0470911E0480911F0490912004FF
:104310000E94A93618166CF410922F041092AF0167
:104320008091AD019091AE0101969093AE01809382
:10433000AD010E9408041092C7011092C6011092AC
:10434000C9011092C8018091AC018093AB010E9419
:10435000070A8093AC0180910401882311F40C9426
:104360008A2D0E94140A80E20E94F10A8823A9F093
:1043700080912804811111C08091290481110DC000
:1043800080912C04811109C080912D04811105C0F8
:10439000B1E0B0932704B0932A0480E20E94DB0AC4
:1043A000811110922A0480E40E94F10A8823A9F066
:1043B00080912804811111C08091290481110DC0C0
:1043C00080912C04811109C080912D04811105C0B8
:1043D00010922704E1E0E0932A0480E40E94DB0AC3
:1043E000811110922A0480E10E94F10A8823A1F031
:1043F00089E08093260410922A04F1E0F0932B04C4
:1044000080912D0390912E03181619062CF4019714
:1044100090932E0380932D0380E10E94DB0A882372
:1044200051F01092260410922B0484E190E09093B6
:104430002E0380932D0380E80E94E60A8823E9F08A
:1044400087E08093260480912A0481110C948E2D9C
:1044500080912804811111C08091290481110DC01F
:1044600080912C04811109C080912D04811105C017
:1044700021E0209328041092250488E00E94E60A97
:10448000882309F45AC01092E503E0EFF3E0F12C21
:10449000E12C808581110C94E32D89E08E9D8001B3
:1044A0008F9D100D112400511C4FE1E0D80118968A
:1044B000EC9381E00E94D40B80912704D8018C9367
:1044C00081110C94A92D20E030E048E851E460917E
:1044D0001D0470911E0480911F04909120040E947D
:1044E0000C350E948235F80172836183278130E0A8
:1044F000C901860F971F9583848360912104709171
:104500002204809123049091240420912B042223DF
:1045100011F40C94CE2D29E02E9D80012F9D100DBD
:10452000112400511C4F20E030E048E951E40E9482
:104530000C350E948935F801638388E00E94F10AF6
:10454000882309F499C08091A9019091AA016FE094
:1045500070E00E947637892B29F48091E5038F5F04
:104560008093E5038091E503823008F485C0809153
:10457000EF03811181C0809127048093E6038111AC
:104580003CC020E030E040EA50E460911D047091AE
:104590001E0480911F04909120040E940C350E94FB
:1045A00082357093E8036093E7032091EE0330E0D7
:1045B000C901860F971F9093EC038093EB036091E2
:1045C000210470912204809123049091240420916D
:1045D0002B04222331F020E030E040EA50E40E9436
:1045E0000C350E9482357093EA036093E90331E051
:1045F0003093EF0382E00E94D40B8091E603813078
:10460000D9F520E030E040E351E460911D04709161
:104610001E0480911F04909120040E940C350E947A
:1046200082357093E8036093E7032091EE0330E056
:10463000621B730B7093EC036093EB036091210496
:1046400070912204809123049091240420912B04E2
:10465000222331F020E030E040EA50E40E940C35A3
:104660000E9482357093EA036093E90381E08093AE
:10467000EF0382E00E94D40B60EFC62E63E0D62EDB
:10468000D60118968C911897882309F4D7C12C91DC
:1046900011968D919C91129721110C94EF2D1696E5
:1046A0002C911697820F911D12969C938E931197C1
:1046B00014962D913C9115972817390714F41896E4
:1046C0001C928090310390903203A0902F03B09001
:1046D0003003D60113966C91139770E0681979092D
:1046E00011968D919C91EE24E39400E02CEE32E142
:1046F00040E08A199B090E94B60880912E04882305
:1047000081F0F601638170E0681979096A5F7F4F73
:10471000818192812CEE32E140E08A199B090E944E
:10472000B60880912E0456E0952E811101C0912C7F
:104730004BE5A42E43E0B42E292D30E03C8F2B8F87
:10474000D5018C91882309F450C020E030E040E08E
:1047500050E41B966D917D918D919C911E970E94C6
:104760000C350E948235762E472E20E030E040E066
:1047700050E4F50167817085818592850E940C3532
:104780000E948235662E798FE62E862F972F9A8388
:104790008983072D872D942D9C838B83D6011396B7
:1047A0008C911397282E312C11968C90119712967C
:1047B0005C90482D8F825886682F3A862986FA8029
:1047C0001C812CE03CE0552D7A8586E091E00E942A
:1047D000900A882311F40C94032EF5011082D6015F
:1047E00018961C9287E00E94D40BB7E1AB0EB11C67
:1047F000E5EEF3E0EA15FB0509F0A2CF8091910206
:10480000882309F476C08091A0028823C1F16090CA
:10481000960270909702F2E06F0E711C5090980211
:1048200030909902E52C59823A82062D7C826B8267
:10483000D6011396AC901397B12C11968C901197CA
:1048400012964C90482D8F824886C5010397682F99
:104850009A878987F32C1C8122E033E0542D7A85D6
:1048600086E093E00E94900A882311F40C94242E91
:104870001092A002F601108689E00E94D40B80916C
:10488000A1028823B1F16090960270909702FAE03D
:104890006F0E711C50909A0230909B02E52C598249
:1048A0003A82062D7C826B82D6011396AC901397C8
:1048B000B12C11968C90119712964C90482D8F82A6
:1048C00048866A2DBA86A986F32C1C8122E033E043
:1048D000542D7A8586E093E00E94900A882311F493
:1048E0000C943E2E1092A102F601108689E00E94DF
:1048F000D40B809177028823E1F180918202882392
:10490000C1F160907A0270907B02F2E06F0E711C30
:1049100050907C0230907D02E52C59823A82062D1F
:104920007C826B82D6011396AC901397B12C1196B2
:104930008C90119712964C90482D8F824886C50115
:104940000397682F9A878987F32C1C8123E033E033
:10495000542D7A8586E093E00E94900A882311F412
:104960000C94582E10928202F601108689E00E9463
:10497000D40B2AECA22E22E0B22E38E0632E292D91
:1049800030E03C8F2B8F8091F202811151C0D50114
:1049900014968C911497882309F44AC012968C902F
:1049A000129713964C9013977C901196BC91B98FE7
:1049B000E72C7982BA83082D8B824C82F6018381A1
:1049C000282E312C91805280492D9F825886C1011A
:1049D0000397682F9A878987FB2E142D28E038E0EB
:1049E000552D7A8586E093E00E94900A811118C0C7
:1049F0007D86FE868F86488A492D9B8A5C8A8B8DB0
:104A00009C8D820D931D682F9E8B8D8B28E038E046
:104A1000552D7E8986E091E00E94900A882341F01E
:104A2000D50114961C92F601108687E00E94D40BE3
:104A30006A94F5E0AF0EB11C6110A5CF29E0C20E5B
:104A4000D11C3DE1C31634E0D30609F019CE8091A4
:104A5000EF03882309F468C08091E60381110C9468
:104A6000722E8090E9039090EA0380913103909137
:104A700032032401481A590AC090E703D090E80392
:104A800060902F0370903003EE24E39400E028E858
:104A900032E140E0B201C601861997090E94B608CA
:104AA0008091ED03C80ED11CD092E803C092E703B9
:104AB000A090EB03B090EC031091EE03812F86954C
:104AC000D501A81BB109CA16DB065CF4E12C20EE67
:104AD00032E140E0B201C6010897861997090E94A9
:104AE000B608E12FE451FF0B95012E1B3F0BC216B8
:104AF000D3063CF432E0831A91089092EA03809244
:104B0000E903C5014D97C816D9064CF08091E90319
:104B10009091EA0302969093EA038093E903AC1420
:104B2000BD0414F41092EF03E9EFF2E0FA8FE98F7D
:104B30006F01D6018C918823A1F116968C9116975E
:104B400017962C91179714969C91149715963C9153
:104B5000E92E99833A83082F8B832C838091E90374
:104B60002091EA039091E7033091E803492F9F8356
:104B70003887682F89872A87FA801C8128E23CE3DE
:104B800058857A8588E096E00E94900A882349F04B
:104B900083E00E94D40BF601108221E02183109261
:104BA000EF033AE0C30ED11C8BE2C81683E0D806AF
:104BB00009F0BFCF92EA292E92E0392E6101D60189
:104BC0008C91882399F115962C91159716963C9106
:104BD000169713968D919C910896E82E9A83898357
:104BE000022F2B833C838091E9032091EA0390916B
:104BF000E7033091E803492F9F833887682F89871F
:104C00002A87FA801C8128E238E258857A8588E074
:104C100096E00E94900A882349F083E00E94D40B1A
:104C2000F601108221E021831092EF033EE0C30ED3
:104C3000D11C8EEBC81682E0D80609F6809183025B
:104C4000882399F12091880230918902809186020F
:104C5000909187020896E82E9A838983022F2B83EE
:104C60003C838091E9032091EA039091E70330911E
:104C7000E803492F9F833887682F89872A87FA801E
:104C80001C8128E238E258857A8588E096E00E9407
:104C9000900A882351F083E00E94D40B1092830283
:104CA00091E0909384021092EF038091F2028823A6
:104CB00099F12091F7023091F8028091F5029091DC
:104CC000F6020896E82E9A838983022F2B833C8371
:104CD0008091E9032091EA039091E7033091E80382
:104CE000492F9F833887682F89872A87FA801C81FC
:104CF00028E238E258857A8588E096E00E94900A9A
:104D0000882351F083E00E94D40B1092F202A1E0BC
:104D1000A093F3021092EF0380917002882399F11F
:104D20002091750230917602809173029091740205
:104D30000896E82E9A838983022F2B833C838091E7
:104D4000E9032091EA039091E7033091E803492FAA
:104D50009F833887682F89872A87FA801C8128E2F9
:104D600038E258857A8588E096E00E94900A882388
:104D700051F083E00E94D40B10927002B1E0B09326
:104D800071021092EF030E94330B81110DC08091CC
:104D90002804811109C080912C04811105C0109252
:104DA0002A04E1E0E093290490912A048091A9016A
:104DB00080FD14C0992349F0809126048F5F8930CB
:104DC00010F00C94DC2E809326048091A8018F5F54
:104DD000883010F00C94E02E8093A801992309F4F8
:104DE00053C080912704811126C00E94310C81118B
:104DF00022C0C0901D04D0901E04E0901F04F090CB
:104E0000200420E030E040E853E4C701B6010E94EE
:104E1000783587FF10C020E030E040E85FE3C7014D
:104E2000B6010E940C3560931D0470931E0480939C
:104E30001F049093200480912704813029F50E945B
:104E4000310C811121C0C0901D04D0901E04E0904F
:104E50001F04F090200420E030E0A901C701B60152
:104E60000E94A936181684F420E030E040E85FE3A1
:104E7000C701B6010E940B3560931D0470931E0498
:104E800080931F049093200480912804882361F06C
:104E900010922A0480912504843108F495C7F1E02A
:104EA000F09329041092280480912C04882371F037
:104EB00010922A0480912504843108F4A5C7109229
:104EC000250421E020932D0410922C0480912D04C0
:104ED000882379F010922A0480912504843110F4FB
:104EE0000C94752F1092250410922D0431E030930C
:104EF0002904809129048823E9F00E94330B811151
:104F00000C94EA2F20E030E040E85FE36091210458
:104F10007091220480912304909124040E940C3506
:104F200060932104709322048093230490932404BB
:104F300010922A0480912B0390912C03892B11F05D
:104F40000C94F42FC0901D04D0901E04E0901F0418
:104F5000F090200420E030E04FE353E4C701B601B5
:104F60000E94A936181614F00C94053084E590E0E0
:104F700090932C0380932B0320E030E048EA52E426
:104F8000C701B6010E940B350E9482356138710558
:104F900014F00C94EE2F7093300360932F03409025
:104FA00021045090220460902304709024046091A6
:104FB0002D0370912E03072E000C880B990B0E9475
:104FC000BA359B01AC01C301B2010E940B350E94AE
:104FD00082356D8F7E8F8F8F98A38D8D9E8D9C8F48
:104FE0008B8F909332038093310380912E0416E1CE
:104FF000811101C010E080912704811168C0809167
:105000002B0390912C03853191052CF001979093FF
:105010002C0380932B0380901D0490901E04A0907D
:105020001F04B090200480912F03909130038038AA
:105030009105F4F460912B0370912C03072E000C62
:10504000880B990B0E94BA356B017C01A501940174
:105050000E94783587FF0CC0A7019601C501B401F5
:105060000E940B350E9482357093300360932F03AA
:1050700000912604010FED8DFE8DBF01FF0F880BFF
:10508000990B0E94BA359B01AC01C301B2010E9489
:105090000B350E9482352B0160912F0370913003F4
:1050A000072E000C880B990B0E94BA359B01AC01AE
:1050B000C501B4010E940B350E948235CB01EE245C
:1050C000E39424E032E040E0B2010E94B60880910F
:1050D0002704813009F073C080912B0390912C0339
:1050E000843591052CF4019690932C0380932B0327
:1050F000C0901D04D0901E04E0901F04F090200486
:1051000080912F03909130031816190614F56091C1
:105110002B0370912C03072E000C880B990B0E9417
:10512000BA359B01AC01C701B6010E940B354B019A
:105130005C0120E030E040E053E40E94783587FFD6
:1051400008C0C501B4010E9482357093300360939A
:105150002F0300912604055F010F2D8D3E8DB901AF
:10516000330F880B990B0E94BA359B01AC016091FB
:1051700021047091220480912304909124040E94C0
:105180000B350E9482354B0160912F0370913003E3
:10519000072E000C880B990B0E94BA359B01AC01BD
:1051A000C701B6010E940B350E948235CB01EE2467
:1051B000E39424E032E040E0B4010E94B608F9EF45
:1051C000CF2EF2E0DF2E10E2A8E2FA2EB8E1AB2EED
:1051D00000E4B02E80E3982ED6018C91882309F448
:1051E000A4C013968C9113978639F9F416966D9195
:1051F0007C911797EB8DFC8D6E1B7F0B14968D9118
:105200009C91E0912F03F0913003EE24E39400E0B1
:105210002CE033E140E08E1B9F0B0E94B608D601C4
:105220001896FC9218971996BC92F60183818739DB
:10523000E1F4668177812B8D3C8D621B730B848139
:105240009581E0912F03F0913003EE24E39400E088
:1052500020E534E140E08E1B9F0B0E94B608D6018A
:1052600018961C93189719969C92F6018381883999
:10527000E1F4668177812B8D3C8D621B730B8481F9
:105280009581E0912F03F0913003EE24E39400E048
:1052900024E135E140E08E1B9F0B0E94B608D60149
:1052A0001896FC9218971996BC92F6018381893959
:1052B000E1F4668177812B8D3C8D621B730B8481B9
:1052C0009581E0912F03F0913003EE24E39400E008
:1052D00028E536E140E08E1B9F0B0E94B608D60100
:1052E0001896AC92189719961C93F60183818A3907
:1052F000E1F4668177812B8D3C8D621B730B848179
:105300009581E0912F03F0913003EE24E39400E0C7
:105310002CEB36E140E08E1B9F0B0E94B608D601B5
:1053200018961C9318971996FC92BAE0CB0ED11CD4
:10533000EBE2CE16E3E0DE0609F04ECF10E0A98DD9
:10534000BA8D11968C911197882369F016964D911C
:105350005C91179714966D917C91812F0E94B215E4
:10536000E98DFA8D81831F5F298D3A8D265F3F4F2E
:105370003A8F298F153019F7D1018C91882309F4C0
:105380007FC015966D917C91169780913103909115
:105390003203681B790B13968D919C91E0912F033A
:1053A000F0913003EE24E39400E024EB3CE140E094
:1053B0008E1B9F0B0E94B60860EF70E080E090E0CB
:1053C0000E940A1170E08091A9019091AA010E94A7
:1053D0007637892B49F4F1018585811105C021E0DB
:1053E000258784E00E94D40BD1011D968C911D97D6
:1053F000882309F445C015966D917C911697655FD9
:105400007F4F8091310390913203681B790B17967F
:105410008D919C91E0912F03F0913003EE24E39461
:1054200000E028EA3DE140E08E1B9F0B0E94B60899
:10543000F101238587819085821B9109908787835D
:1054400065817681655F7F4F22E030E042E050E089
:105450000E94ED14D10117962D913C911897199641
:105460008D919C911A972817390754F413968D91B2
:105470009C91149718969C938E9317971D961C9247
:10548000BEE02B0E311CEEEB2E16E2E03E0609F0DC
:1054900073CF8091A302882369F04091A7025091B5
:1054A000A8026091A5027091A60288E00E94B21540
:1054B0008093A3028091B102882369F04091B502E4
:1054C0005091B6026091B3027091B40289E00E94DB
:1054D000B2158093B10280919102882309F431C101
:1054E00060919602709197028091310390913203FE
:1054F000681B790B8091940290919502E0912F03A3
:10550000F0913003EE24E39400E02EEA3DE140E028
:105510008E1B9F0B0E94B60860EF70E080E090E069
:105520000E940A1170E08091A9019091AA010E9445
:105530007637892B51F58091A002811126C0009108
:10554000940210919502B8016E517109072E000C5A
:10555000880B990B0E94BA359B01AC0160911D0428
:1055600070911E0480911F04909120040E94783550
:1055700087FF0BC0E092A002085F1F4F10939902B3
:105580000093980285E00E94D40B60EF70E080E009
:1055900090E00E940A1170E08091A9019091AA0107
:1055A0000E947637892B59F58091A102811127C07D
:1055B0000091940210919502B8016E517109072E65
:1055C000000C880B990B0E94BA359B01AC016091CD
:1055D0001D0470911E0480911F04909120040E946C
:1055E000783587FF0CC0F1E0F093A102085F1F4FF0
:1055F00010939B0200939A0285E00E94D40B809145
:10560000A002882309F44CC0609196027091970221
:105610006E5F7F4F8091310390913203681B790B4D
:105620008091980290919902E0912F03F0913003BC
:10563000EE24E39400E022E13EE140E08E1B9F0B6C
:105640000E94B60820919E02809198029091990242
:10565000821B91099093990280939802609196021F
:10566000709197026E5F7F4F23E030E042E050E0A0
:105670000E94ED14209198023091990280919C0231
:1056800090919D02281739075CF4809194029091C3
:105690009502089690939902809398021092A00226
:1056A0008091A102882309F44CC060919602709108
:1056B0009702665F7F4F8091310390913203681BA0
:1056C000790B80919A0290919B02E0912F03F091C7
:1056D0003003EE24E39400E022E13EE140E08E1B43
:1056E0009F0B0E94B6086091960270919702665FC8
:1056F0007F4F23E030E042E050E080919A029091A9
:105700009B020E94ED1420919E0280919A0290913A
:105710009B02821B910990939B0280939A02209195
:105720009C0230919D02821793075CF48091940251
:1057300090919502089690939B0280939A02109202
:10574000A10280918302882309F49EC0609188029F
:10575000709189028091310390913203681B790B1B
:105760008091860290918702E0912F03F09130039F
:10577000EE24E39400E02EE13EE140E08E1B9F0B1F
:105780000E94B60860EF70E080E090E00E940A118D
:1057900070E08091A9019091AA010E947637892B2F
:1057A00019F58091900281111FC06091860270915D
:1057B00087026E517109072E000C880B990B0E940D
:1057C000BA359B01AC0160911D0470911E0480915B
:1057D0001F04909120040E94783587FF05C0E09255
:1057E000900284E00E94D40B80919002882309F4F7
:1057F0004BC060918802709189026D5F7F4F8091EC
:10580000310390913203681B790B80918A02909149
:105810008B02E0912F03F0913003EE24E39400E03B
:1058200028EA3DE140E08E1B9F0B0E94B608609184
:105830008802709189026D5F7F4F23E030E042E083
:1058400050E080918A0290918B020E94ED14209189
:105850008E0280918A0290918B02821B9109909313
:105860008B0280938A0220918C0230918D028217E4
:10587000930754F4809186029091870290938B0253
:1058800080938A021092900280918402882369F0AA
:10589000409188025091890260918602709187023E
:1058A00085E00E94B215809384028091770288235C
:1058B00009F4A1C060917A0270917B02809131035A
:1058C00090913203681B790B809178029091790254
:1058D000E0912F03F0913003EE24E39400E022E9FD
:1058E0003EE140E08E1B9F0B0E94B60860EF70E027
:1058F00080E090E00E940A1170E08091A9019091EF
:10590000AA010E947637892B51F58091820281117C
:1059100026C00091780210917902B8016E51710988
:10592000072E000C880B990B0E94BA359B01AC0125
:1059300060911D0470911E0480911F0490912004B9
:105940000E94783587FF0BC0085F1F4F10937D02C0
:1059500000937C02E092820285E00E94D40B809149
:105960008202882309F447C0C0907A02D0907B025B
:1059700022E0C20ED11CA0907C02B0907D028091EA
:10598000310390913203B601681B790B80912F038C
:1059900090913003EE24E39400E022E13EE140E008
:1059A000D501A81BB90BCD010E94B60823E030E059
:1059B00043E050E0B601C5010E94ED142091800241
:1059C00080917C0290917D02821B910990937D02CF
:1059D00080937C0220917E0230917F028217930790
:1059E00054F4809178029091790290937D02809393
:1059F0007C02109282028091F2028823E1F0609191
:105A0000F7027091F8028091310390913203681B84
:105A1000790B8091F5029091F602E0912F03F091BD
:105A20003003EE24E39400E026E03FE140E08E1BEB
:105A30009F0B0E94B608EAECCE2EE2E0DE2EF601C5
:105A40008481882309F44CC362E070E080E090E038
:105A50000E940A11062FD60112966D917C91139720
:105A60008091310390913203681B790B8D919C9149
:105A7000E0912F03F0913003EE24E39428EF32E11C
:105A800040E08E1B9F0B0E94B6088091F2028111AC
:105A90000BC0F6016281738126E030E046E050E001
:105AA000808191810E94ED14D6010D911C9165E0D9
:105AB00070E080E090E00E940A1162507109810953
:105AC0009109600F711FF601718360830281138158
:105AD00066E070E080E090E00E940A116350710976
